:400000000080002011000000150400001504000080B500AF024A034B1B68136000F004FABC760040FA46004010B5054C237833B9044B13B10448AFF300800123237010BDE7
:400040005081FF1F000000009C2C0000084B10B51BB108490848AFF300800848036803B910BD074B002BFBD0BDE81040184700BF000000005481FF1F9C2C0000C880FF1F62
:400080000000000080B582B000AF62B60121002000F060FA00BF00F00DFC0346002BFAD0022000F017FE00F011FC0346002B07D000F000FC0346002B02D0022000F00AFED5
:4000C000022000F01BFC0346012BECD1022000F02BFC0346FB80FB881A460E49022000F075FD00BF022000F009FC0346012BF9D0022000F0EFFD00BF012000F0FFFB0346C5
:40010000012BF9D1FB881A460249012000F092FCC9E700BF7481FF1F80B582B000AF786039603A680021786802F0AFFD00BF0837BD4680BD80B584B000AFF860B9607A6011
:400140007A68B968F86802F095FD00BF1037BD4680BD00BF80B483B000AF0346FB71FEE780B487B000AF7860396000233B6100237B6127E07B699B007A6813441B68BB603D
:40018000BB68FB73BB6823F0FF03BB6014E03B695B003A6813441B781A46BB68134419463B695B003A6813445B780B703B6901333B61FB7B013BFB73FB7B002BE7D17B698C
:4001C00001337B617B690B2BD4D900BF1C37BD4680BC704780B582B000AF04222B492C48FFF7A8FF2B4B06221A702B4B52221A702A4B2B4A1278D2B21A702A4B4FF4E16246
:400200001A80294B41F251221A800023FB7019237B6014E0FB785B00DAB2244B1B78DBB203F00103DBB21343DBB203F00303FB704FF4F07002F098FC7B68013B7B607B681D
:40024000002B02D0FB78032BE4D17B68002B02D10320FFF77FFF164B4FF480721A80144B07221A70134B00221A70134B48221A700F4B00221A70114B00221A70104B022288
:400280001A7000BF0837BD4680BD00BF70000048004100400043004000420040A14600400F01004922420040204200402542004004400040064000400840004009400040F1
:4002C0000140004080B483B000AF0B4B1B78FB710A4AFB7903F00703DBB21370084AFB791B09DBB21370074B44221A7000BF0C37BD4680BC704700BFCF0100496E5800402B
:400300006F5800407658004080B582B000AF72B6314A314B1B78DBB243F00403DBB213700023FB7113E0FA7913465B0013445B002A4A13443B603B681A683B689B889BB210
:4003400019461046FFF7E8FEFB790133FB71FB79072BE8D922494FF09040FFF701FF04212048FFF7D9FE04211F48FFF7D5FE1F4A1E4B1B78DBB243F00203DBB213701C4AB2
:400380001B4B1B78DBB243F00203DBB213700A2218491948FFF7CEFE082218491848FFF7C9FE184A174B1B78DBB243F00803DBB21370154B60221A70FFF70CFF124B802279
:4003C0001A70FFF77FFF0E2210491148FFF7B2FE00BF0837BD4680BDE8460040A02C000030000048007600400876004003500140135001405C000048F05100406800004806
:40040000125100402243004000480040A0430040B043004080B500AF02F000FC03461B680C2B00D1FEE7FEE780B586B000AF224B7B61224B3B61204B7B6135E03B691B6837
:40044000FB603B695B68BB603B699B683B6000237B600CE0FB681A68BB681A60BB680433BB60FB680433FB607B6804337B607A683B689A42EED13B69DB683B6000237B60F2
:4004800008E0BB6800221A60BB680433BB607B6804337B607A683B689A42F2D13B6910333B617B69013B7B617B69002BC6D102F0BBFBFFF7E7FDFEE7010000006C2E0000E0
:4004C00080B582B000AF194B194A1A60194A194B1B6843F40073136000237B600FE07B68032B04D8144A7B6852F8233000E0134B13497A6841F822307B6801337B607B68AA
:400500002F2BECD90F4B1B78DAB20F4B1A700F4B0B4A1A60FFF7F8FE02F03AF80C4B00221A6000BF0837BD4680BD00BF0CED00E00004FA0514ED00E0000000001504000040
:400540000080FF1FBC760040C480FF1F08ED00E0C080FF1F80B582B000AF03460A46FB711346BB71094B1B78002B04D100F010F8064B01221A70BA79FB791146184600F00D
:40058000DDF800BF0837BD4680BD00BF6C81FF1F80B582B000AF02F006FB03467B71564A554B1B78DBB243F00103DBB21370534A524B1B78DBB243F00103DBB21370504B3D
:4005C00001221A704F4B02221A704F4A4E4B1B78DBB203F07F03DBB21370002002F000FA4A4A4A4B1B78DBB223F00603DBB21370474A474B1B78DBB223F02003DBB2137025
:40060000424A424B1B78DBB243F00103DBB21370012002F0E5F9282002F0E2F93D4A3D4B1B78DBB203F07F03DBB21370394A394B1B78DBB223F04003DBB21370334A334BF8
:400640001B78DBB243F00203DBB21370022002F0C7F92E4A2D4B1B78DBB243F00403DBB213702D4B00221A702C4B00221A700023FB8006E0FB882A4AFF21D154FB88013326
:40068000FB80FB88082BF5D97B79184602F08FFA0721172002F0E0F92249172002F0B4F90721182002F0D8F91F49182002F0ACF90721002002F0D0F91C49002002F0A4F992
:4006C0000721012002F0C8F91949012002F09CF90021162002F0C0F91649162002F094F907210C2002F0B8F913490C2002F08CF900BF0837BD4680BDA5430040B54300404A
:400700009D60004009600040106000409443004012600040F85100408460004085600040C081FF1F85130000310D0000F11200003913000091130000A114000080B582B044
:4007400000AF03460A46FB711346BB71304AFB791370304B00221A702F4B00221A702F4B00221A702E4B00221A702E4B00221A702D4B00221A702D4B00221A702C4B4FF410
:4007800000021A602A4B4FF080721A60284B01221A60274B02221A60264B03221A70244B4FF480021A60244B20221A70BB79002B02D0012B09D011E0204A204B1B78DBB258
:4007C00023F00103DBB2137011E01C4A1B4B1B78DBB243F00103DBB2137008E0174A174B1B78DBB243F00103DBB2137000BF144B03221A70134B80221A70012002F0B4F985
:40080000114B04221A7000BF0837BD4680BD00BFE081FF1FE681FF1FE481FF1FE581FF1FE181FF1FCC81FF1FE381FF1F5C82FF1F00E100E09E6000409C6000400960004057
:4008400028600040086000401260004080B400AF0F4B00221A700F4B00221A700E4B00221A700E4B00221A700D4B00221A700D4B00221A700C4B00221A700C4B03221A704C
:400880000B4B80221A7000BFBD4680BC704700BFE681FF1FE481FF1FE581FF1FE181FF1FCC81FF1FE381FF1F5C82FF1F286000400860004080B400AF034B1B78DBB218462E
:4008C000BD4680BC704700BFE581FF1F80B483B000AF0023FB71084B1B78DBB2002B05D0054B1B78FB71044B00221A70FB7918460C37BD4680BC7047E481FF1F80B483B068
:4009000000AF0346FB71FA79064913465B0013449B000B4401331B78DBB218460C37BD4680BC7047F081FF1F80B485B000AF0346FB710023FB81FB79002B1CD0FB79082B84
:4009400019D8104AFB791B0113441B78DBB29BB203F00F03FB81FB891B029AB20949FB791B010B4401331B78DBB29BB21343FB81FB89023BFB81FB8918461437BD4680BC1D
:40098000704700BFFC5F004090B585B000AF03463960FB71FA79244913465B0013449B000B4404331B78DBB25BB2002B06DA3B681B0CFB814FF48043BB8105E04FF48043F8
:4009C000FB813B681B0CBB81FB79012B02D0022B0CD017E0FC79BB89FA890021002001F095FD03461A46114B1A550BE0FC79BB89FA890021002001F057FD03461A460B4BE3
:400A00001A5500BFFB79002B09D0FB79082B06D8FC7901F03DFF03461A46054B1A5500BF1437BD4690BD00BFF081FF1FB481FF1FC081FF1FB0B582B000AF03463960FB7193
:400A40001346BB80FB79002B00F0B280FB79082B00F2AE80B988FA79574813465B0013449B00034406331B889BB2C3F5007399420CD9FA79504913465B0013449B000B4405
:400A800006331B889BB2C3F50073BB804B4CF979BB881B0A9BB2D8B2FA79474D13465B0013449B002B4403331B78DBB20343DAB20B0123441A70414AFB79B988C9B21B0147
:400AC000134401330A461A70FB793D4AD35CFF2B04D1FB7939681846FFF756FFFA79364913465B0013449B000B44013300221A703B68002B4CD0BB88002B49D0FB79314A83
:400B0000D35C184601F0B8FDFB792D4AD05CB9881123FE2201F0EAFEFB79294AD05C3B6899B2FB791B0103F10802274B13449BB21A4601F01BFFFB79224AD05CFB79204A03
:400B4000D35C194601F036FEFB791E4AD35C0121184601F04BFD1C49FB791B48FA79120102441278D2B242F00202D2B21B010B441A701549FB791448FA79120102441278B5
:400B8000D2B222F00202D2B21B010B441A700FE00A48F979FA79084C13465B0013449B00234405331B78DAB20B01034402331A7000BF0837BD46B0BDF081FF1FFC5F00409A
:400BC000C081FF1FB481FF1F7060004080B582B000AF03463960FB711346BB803B68002B6AD0FB79002B67D0FB79082B64D8FB791846FFF799FE03461A46BB88934205D97C
:400C0000FB791846FFF790FE034600E0BB88BB80FB792D4AD35CFF2B04D1FB7939681846FFF7B2FEFB79294AD35C184601F024FDFB79254AD05CB9881223FE2201F056FE15
:400C4000FB79214AD05CFB791B0103F10802204B13449BB23A6892B2194601F087FEFB791A4AD05CFB79184AD35C194601F0A2FDFB79164AD35C0121184601F0B7FC144995
:400C8000FB791348FA79120102441278D2B242F00202D2B21B010B441A700D49FB790C48FA79120102441278D2B222F00202D2B21B010B441A7001E00023BB80BB88184675
:400CC0000837BD4680BD00BFC081FF1FB481FF1F7060004090B482B000AF0346FB71FB79002B1CD0FB79082B19D8FA790E4913465B0013449B000B44013300221A700B4805
:400D0000F979FA79084C13465B0013449B00234405331B78DAB20B01034402331A7000BF0837BD4690BC7047F081FF1FFC5F004080B582B000AF374B1B78BB71BB7903F058
:400D40001003002B62D00123FB7197F90630002B12DABB7903F00F03012B02D00023FB711CE000F061F82C4B1B78DBB25BB2002B14DA0023FB7111E0BB7903F04003002BB9
:400D800002D000F095F809E0BB7903F02003002B02D000F0B3F801E00023FB71FB79002B34D01C4B1B78BB7197F90630002B2DDB1A4B1B78DAB21A4B1B78DBB21343BB715C
:400DC000184ABB791370174B1B78DBB2BA799A421CD1114B1B78FB710E4B1B78DBB223F07F03BB71BB79002B0AD10A4B0A4A1278D2B21A70074B1B78DBB203F00F03FB7169
:400E0000054B1B78DBB2FA799A42E2D100BF0837BD4680BD28600040CD81FF1FE281FF1F5D82FF1F2960004080B582B000AF1D4B1B78FB711B4AFB7913701A4B1B78FB714A
:400E400097F90730002B03DA174AFB79137025E0022000F013FA154B1B78DBB203F06003202B08D0402B0BD0002B0ED100F01EFB0346FB710CE001F0A1FE0346FB7107E008
:400E800001F0E8FA0346FB7102E00023FB7100BFFB79002B02D1044B03221A7000BF0837BD4680BD28600040CD81FF1F0060004080B500AF104B1B78DBB2062B19D801A2D4
:400EC00052F823F0F30E0000F30E0000E10E0000F30E0000E70E0000F30E0000ED0E000000F0F8F806E000F075F903E000F0A0F900E000BF00BF80BDE681FF1F80B500AF1E
:400F0000124B1B78DBB2062B1DD801A252F823F0470F0000470F00002D0F0000470F0000330F0000470F0000390F000000F0D8F80AE000F0F5F807E0032000F09FF9044B88
:400F400003221A7000E000BF00BF80BDE681FF1FCD81FF1F80B483B000AF0023FB71294B1B78DBB29AB2284B1B889BB213449AB2254B1A8015E02549FB79254A5268127817
:400F8000D2B2CA54224B5B680133214A5360FB790133FB711E4B1B889BB2013B9AB21C4B1A801B4B1B889BB2002B02D0FB79072BE1D9144B1B78DBB2082B02D0FB79002B41
:400FC0000FD0144B1B78DBB283F07F03DB43DAB2104B1A70104B0F221A70104B02221A7005E00D4B02221A700C4B02221A700C4AFB791370034AFB79137000BF0C37BD466A
:4010000080BC70475C82FF1F6282FF1F00600040D481FF1FE281FF1FCD81FF1FE681FF1F5D82FF1F80B582B000AF164B1B889BB2002B02D100F02EF81EE0134B02221A70B8
:40104000124B00221A7000F039F9114BDB79DBB29BB21B029AB20E4B9B79DBB29BB21343FB80084B1B889BB2FA889A4202D2054AFB881380FFF76EFF012318460837BD4639
:4010800080BD00BFD481FF1FE681FF1FE281FF1F0060004080B400AF094B02221A70094B80221A70084B0F221A70084B00221A70074B00221A7001231846BD4680BC704733
:4010C000E681FF1FE281FF1FCD81FF1F5C82FF1F5D82FF1F80B500AFFFF73CFF00BF80BD80B500AF0A4B1B78DBB29AB2094B1B889BB213449AB2074B1A80074B00221A70FE
:40110000012000F0BBF8054B03221A7000BF80BD5C82FF1F6282FF1FE681FF1FCD81FF1F80B483B000AF0023BB71234B1B78DBB203F00F03DBB2023BFB71FB799AB21F4BA9
:401140001B889BB213449AB21C4B1A8018E01C4B5B681C49BA798A5CD2B21A70184B5B680133174A5360BB790133BB71FB79013BFB71134B1B889BB2013B9AB2104B1A8044
:401180000F4B1B889BB2002B02D0FB79002BDED10D4AFB7913700D4B1B78DBB283F07F03DB43DAB2094B1A70094B0B221A7000BF0C37BD4680BC7047296000406282FF1F89
:4011C000D481FF1F006000405D82FF1FE281FF1FCD81FF1F80B500AF054B00221A70012000F04CF8034B03221A7000BF80BD00BFE681FF1FCD81FF1F80B400AF084B0622B6
:401200001A70084B06221A70074B80221A70074B00221A7001231846BD4680BC704700BFE681FF1FCD81FF1FE281FF1F5D82FF1F80B500AF0D4B1B78DBB2002B0AD00C4A46
:401240000A4B1B78DBB263F07F03DBB21370074B00221A70074B00221A70012000F00EF8054B03221A7000BF80BD00BFCC81FF1F08600040E681FF1FCD81FF1F80B483B0DC
:4012800000AF0346FB710B4B9B68002B0CD0094B9B68FA791A70074B9B68074A128892B25A80044B00229A6000BF0C37BD4680BC704700BFD481FF1F6282FF1F80B400AF3E
:4012C000094B00221A80094B9B68002B07D0074B9B6800221A70054B9B6800225A8000BFBD4680BC704700BF6282FF1FD481FF1F80B400AF0D4B01221A700D4B9B7C0D4B9D
:401300001B7BDBB203F00303012B08D0094BDB7BDBB283F07F03DB43DAB2064BDA73054B01225A7300BFBD4680BC70470B600040FC5F0040F081FF1F80B400AF0E4B0222EF
:401340001A700E4B93F822300D4B1B7EDBB203F00303012B08D00A4BDB7EDBB283F07F03DB43DAB2064BDA76054B01225A7600BFBD4680BC704700BF0B600040FC5F0040BA
:40138000F081FF1F80B500AFFFF760FA00BF80BD90B482B000AF0123BB713D4B1B78FB716DE0FB7903F00103002B62D0394ABB791B01134402331B78DAB23649BB791B0110
:4013C0000B4401331B78DBB213407B717B7903F00103002B2AD0BA792F4913465B0013449B000B4404331B78DBB25BB2002B1DDA2849BB792748BA79120102441278D2B227
:4014000022F00102D2B21B010B441A702348B979BA79214C13465B0013449B00234405331B78DAB20B01034402331A707B7903F00203002B16D0BA79174913465B001344D0
:401440009B000B4404331B78DBB25BB2002B09DBBA79114913465B0013449B000B44013300221A700B4ABB791B01134402337A791A70BB790133BB71FB795B08FB71FB79B4
:40148000002B8ED100BF0837BD4690BC704700BF9F60004070600040F081FF1FFC5F004080B500AF01F064F800BF80BD80B586B000AF0023FB759D4B1B78FB7100233B61E6
:4014C0009B4B00221A8097F90730002B80F20481964B5B78DBB20A2B00F21B8201A252F823F000BF2F16000013190000131900001319000013190000131900001115000056
:4015000013190000A316000013190000B9160000864BDB78DBB2012B0ED100F013FEB860BB685B68824A5360814B12221A80FFF779FD0346FB75EEE17C4BDB78DBB2022B2F
:4015400025D17A4B9B78DBB2184600F0D3FDB860BB68002B00F0DF81BB685B68744A5360734B5B6803331B78DBB29BB21B029AB26F4B5B6802331B78DBB29BB213439AB297
:401580006B4B1A80FFF74EFD0346FB75C3E1674BDB78DBB2032B45D10023FB73654B3B6109E03B691B78BB71BB793A6913443B61FB7B0133FB735D4B9B78DBB2FA7B9A42C3
:4015C00004D23B691B78DBB2002BEAD1574B9B78DBB2EE2B01D1584B3B61544B9B78DBB2002B0BD0514B9B78DAB2544B1B7C9A4204D1534800F0ACF9514B3B613B691B78F9
:40160000DBB2002B00F087813B691B78DBB29AB2474B1A80464A3B695360FFF703FD0346FB7578E101F0CAFA0346FB7573E1FB7903F00303002B20D0022B00D030E03C4BF1
:4016400002221A80394B1B79DBB203F07F023D4913465B0013449B000B4402331B78DAB2394B1A70384B00225A70314B364A5A60FFF7D8FC0346FB7512E02D4B02221A80E6
:40168000324B1B78DAB2304B1A702F4B00225A70274B2D4A5A60FFF7C5FC0346FB7500BF40E1234B01221A80214B294A5A60FFF7B9FC0346FB7535E11D4B01221A801B4B67
:4016C0001B79DBB21A46234B1344194A5360FFF7A9FC0346FB7525E1144B5B78DBB2013B0A2B00F21A8101A252F823F0F71700001B190000851800001B1900001917000034
:401700001B1900001B1900001B1900005D1700001B190000B3170000044B9B78DAB20E4B1A70FFF769FD0346FB75FBE000600040D481FF1F182D0000082E0000E42C00003C
:401740006482FF1FF081FF1F7081FF1FE381FF1FE581FF1FD081FF1FCC81FF1F744B9B787B717B79002B06D07B79013BDBB2184600F0C0FCB8607B79002B02D0BB68002B16
:4017800003D17B79002B40F0CA806A4B1B78DBB27A799A4208D0674A7B791370664B01221A70012000F0E2F9FFF726FD0346FB75B5E000F017FE0346002B00F0B2805C4B25
:4017C0001B793B715A4B1B79DAB25C4B1A703B795B4AD35CDAB23B795A49CB5CDBB29A4204D0554B01221A7000F056FBFFF704FD0346FB7595E0FB7903F00303012B20D0A8
:40180000012B0CD3022B00D03BE0494B9B78DBB2002B31D100F042FD0346FB752CE0444B9B78DBB2012B29D1474B1B78DBB223F00203DAB2444B1A70FFF7DEFC0346FB75E3
:401840001CE03B4B1B79DBB2002B19D1384B9B78DBB2DB43DBB2364A1279D2B2114610463A4A125CD2B21340DAB2384B5A54FFF7C3FC0346FB7503E000BF53E000BF51E0ED
:4018800000BF4FE0FB7903F00303012B20D0012B0CD3022B00D03BE0254B9B78DBB2002B31D100F087FC0346FB752CE0204B9B78DBB2012B29D1244B1B78DBB243F0020321
:4018C000DAB2214B1A70FFF797FC0346FB751CE0174B1B79DBB2002B19D1154B9B78DBB2DB43DBB2124A1279D2B211461046174A125CD2B21340DAB2144B5A54FFF77CFC20
:401900000346FB7503E000BF0CE000BF0AE000BF08E000BF06E000BF04E000BF02E000BF00E000BFFB7D18461837BD4680BD00BF00600040E581FF1FE481FF1FE181FF1F7E
:401940006082FF1FD081FF1FE381FF1FE881FF1FB0B58AB000AF7860324B07F114041D460FCD0FC42B682370002387F826307B68002B52D07B6822221A707B6801330322EF
:401980001A7007F10C03184601F08AF8022387F827303EE097F827307A68134497F8262007F128010A4412F81C2C1209D2B207F128010A4412F8142C1A7097F827300133FB
:4019C0007A68134400221A7097F8273002337A68134497F8262007F128010A4412F81C2C02F00F0207F128010A4412F8142C1A7097F8273003337A68134400221A7097F842
:401A00002630013387F8263097F82730043387F8273097F82730212BBCD900BF2837BD46B0BD00BFD02C000090B482B000AF0123FB7187E0494AFB791B0113440C221A70F6
:401A4000464AFB791B01134401331F221A70FA79434913465B0013449B000B4405331B78DBB2002B1CD0FA793D4913465B0013449B000B4404331B78DBB25BB2002B07DA2F
:401A8000384AFB791B01134402330C221A700EE0344AFB791B011344023308221A7006E0304AFB791B011344023380221A702B48F979FA792A4C13465B0013449B00234411
:401AC00006331B889BB2DAB20B01034406331A702248F979FA79224C13465B0013449B00234406331B889BB21B0A9BB2DAB20B01034407331A701948F979FA79184C134610
:401B00005B0013449B00234406331B889BB2DAB20B01034404331A701048F979FA79104C13465B0013449B00234406331B889BB21B0A9BB2DAB20B01034405331A70FB79D2
:401B40000133FB71FB79082B7FF674AF064BFF221A7000BF0837BD4690BC704770600040F081FF1FFC5F00400A60004080B588B000AF0346FB7100237B830023FB7747E0F4
:401B8000FA7FA94913465B0013449B000B4400221A70FA7FA44913465B0013449B000B44023300221A70FA7F9F4913465B0013449B000B44033300221A70FA7F9A491346F0
:401BC0005B0013449B000B44083300221A80FA7F954913465B0013449B000B440A3300221A70FA7F904913465B0013449B000B44013300221A70FA7F8B4913465B0013449E
:401C00009B000B44053300221A70FB7F0133FB77FB7F082BB4D9FB79002B10D000237B770AE07B7F814A0021D1547B7F804A0021D1547B7F01337B777B7F002BF1D07D4B1B
:401C40001B78DBB2002B00F021817A4B1B78DBB2013BDBB2184600F04DFA38613B695B68FB60FB6807331B7803F04003002B08D0714B1B78DBB243F00103DAB26E4B1A709E
:401C800007E06D4B1B78DBB223F00103DAB26A4B1A703B6908333B613B691B78FB7701237B7794E03B695B687B610023BB7786E07A7F7B699B7803F07F039A4279D17A7F53
:401CC000594913465B0013449B000B4408331B889AB27B699B889A420BD27A7F7B699888514913465B0013449B000B44083302461A807B691B781A464C4B9B5CDAB27B69E5
:401D00005B789A4255D17A7F7B699878464913465B0013449B000B44043302461A707A7F7B69D878404913465B0013449B000B4402461A707B69DB7803F00303FB727B6956
:401D40009B785BB2002B1ADA7A7FFB7A012B01D1072000E00D20344913465B0013449B000B44053302461A707A7F2F4913465B0013449B000B44013301221A7019E07A7FCF
:401D8000FB7A012B01D1052000E00920264913465B0013449B000B44053302461A707A7F214913465B0013449B000B44013300221A707B6908337B61BB7F0133BB77BA7F08
:401DC000FB7F9A42FFF474AF7B7F01337B777B7F082B7FF667AF3B695B687B6100237B7714E07B699B7803F07F027B6918780E4913465B0013449B000B440A3302461A7019
:401E00007B6908337B617B7F01337B777A7FFB7F9A42E6D300F0A8F90246084B1A6000237B830123FB772CE0F081FF1FD081FF1F6082FF1FE581FF1FE381FF1FEC81FF1F87
:401E4000FA7F144913465B0013449B000B4406337A8B1A80FA7F0F4913465B0013449B000B4408331B889AB27B8B13447B837B8B03F001039AB27B8B13447B83FB7F013322
:401E8000FB77FB7F082BDBD9FFF7CEFD00BF2037BD4680BDF081FF1F90B585B000AF8F4B1B78DBB2002B00F015818C4B1B78DBB2013BDBB2184600F01DF978607B680833BB
:401EC0007B607B681B78FB707B685B68BB60844B1B78BB700023FB73F7E0BB681B78BA789A4240F0EC80BB787E4AD35CDAB2BB685B789A4240F0E380BB689B7803F07F034A
:401F00007B70BB68DB7803F003033B707A78764913465B0013449B000B44033300221A707A78BB689878704913465B0013449B000B44043302461A707A78BB68D8786A4920
:401F400013465B0013449B000B4402461A707A78BB689888644913465B0013449B000B44083302461A80BB689B785BB2002B1ADA7A783B78012B01D1072000E00D205A49CA
:401F800013465B0013449B000B44053302461A707A78554913465B0013449B000B44013301221A7019E07A783B78012B01D1052000E009204C4913465B0013449B000B4468
:401FC000053302461A707A78474913465B0013449B000B44013300221A70444A7B781B011344023301221A70404879787A783E4C13465B0013449B00234408331B889BB27D
:402000001B0A9BB2DAB20B0103441A70374879787A78354C13465B0013449B00234408331B889BB2DAB20B01034401331A70304879787A782C4C13465B0013449B0023442D
:4020400006331B889BB2DAB20B01034406331A70274879787A78244C13465B0013449B00234406331B889BB21B0A9BB2DAB20B01034407331A701E4879787A781A4C134680
:402080005B0013449B00234406331B889BB2DAB20B01034404331A70154879787A78124C13465B0013449B00234406331B889BB21B0A9BB2DAB20B01034405331A70BB6899
:4020C0000833BB60FB7B0133FB73FA7BFB789A42FFF403AF00BF1437BD4690BDE581FF1FE181FF1FD081FF1FF081FF1FFC5F00407060004080B485B000AF0346FB710F4BDB
:402100001B78DBB20E4ADB0013445B68FB60FB681033FB60FB681B78FA799A4202D30023FB6005E0FB79DB00FA6813445B68FB60FB6818461437BD4680BC7047E081FF1FB2
:40214000002E000080B400AF054B1B78DBB2054ADB0013445B681846BD4680BC704700BFE081FF1F002E000080B584B000AF104B1B78DBB2013BDBB21846FFF7BBFFB86058
:40218000BB68002B0DD0BB685B681B79FB71FB790233DB00BA681344BB60BB685B68FB6001E00023FB60FB6818461037BD4680BDE581FF1F80B582B000AF0023FB71344B66
:4021C0001B79DBB203F07F03BB71BB79002B5AD0BB79082B57D8BA79B9792E480B465B000B449B00034402331B78DBB243F00103D8B2284913465B0013449B000B44023395
:4022000002461A70BA79234913465B0013449B000B44033300221A70BA79B9791D480B465B000B449B00034401331B78DBB243F00203D8B2174913465B0013449B000B4444
:40224000013302461A70BA79124913465B0013449B000B4404331B78DBB25BB2002B07DA0D4ABB791B01134402338D221A7006E0094ABB791B011344023389221A70FEF7BA
:40228000BBFF0346FB71FB7918460837BD4680BD00600040F081FF1FFC5F004080B582B000AF0023FB714C4B1B79DBB203F07F03BB71BB79002B00F08A80BB79082B00F2E4
:4022C0008680BA79B97945480B465B000B449B00034402331B78DBB223F00103D8B23F4913465B0013449B000B44023302461A70BA793A4913465B0013449B000B440333AE
:4023000000221A70364ABB791B0113447F221A70BA79B97931480B465B000B449B00034401331B78DBB223F00203D8B22B4913465B0013449B000B44013302461A70BA794C
:40234000264913465B0013449B000B4404331B78DBB25BB2002B1BDABA79204913465B0013449B000B4401331B78DBB2012B07D11B4ABB791B01134402330C221A7022E091
:40238000174ABB791B01134402330D221A701AE0BA79124913465B0013449B000B4401331B78DBB2012B07D10D4ABB791B011344023308221A7006E0094ABB791B0113448B
:4023C000023309221A70FEF717FF0346FB71FB7918460837BD4680BD00600040F081FF1FFC5F004080B584B000AF0023FB73154B1B79BB73144B1B78DBB2013BDBB21846A7
:40240000FFF778FEB860BB685B681B79FB71BA7BFB799A4202D9BB7B012B0ED8BB7BBA7B0A498A5CD1B20A4AD154BB7B054A9278D1B2064AD1540123FB73FB7B18461037B6
:40244000BD4680BD00600040E581FF1FD081FF1F6082FF1F80B582B000AF0023FB710F4B1B78DBB25BB2002B12DA0C4B5B78DBB2012B00D00CE00A4B0A4A5A60094B1B785D
:402480009AB2074B1A80FEF7CDFD0346FB7100BFFB7918460837BD4680BD00BF00600040D481FF1F1C2E000090B585B002AF0446084611461A462346FB710346BB710B462F
:4024C000BB8013467B80104B01221A700E4B1878BA79F9790023019300230093002300F087F9094B1B787A88B988184600F026F9054B1B780221184600F0EEF8024B1B7806
:4025000018460C37BD4690BDCC80FF1F90B585B002AF0446084611461A462346FB710346BB710B46BB8013467B80104B00221A700E4B1878BA79F97900230193002300939A
:40254000002300F055F9094B1B787A88B988184600F0F4F8054B1B780221184600F0BCF8024B1B7818460C37BD4690BDCD80FF1F80B400AF054B1B78DBB203F040039B0925
:40258000DBB21846BD4680BC704700BF8F45004080B483B000AF134B7F221A70124B80221A707F23FB710CE0FB79DB0003F1804303F5F043FA79013AD2B21A70FB79013BA8
:4025C000FB71FB79002BEFD1FB79DB0003F1804303F5F04300221A7000BF0C37BD4680BC704700BFD180FF1FD080FF1F80B485B000AF03460A46FB711346BB710123FB607E
:40260000FB79172B2FD8BB79002B0ED0FB791A01184B1344FA791101164A0A441278D2B242F02002D2B21A700DE0FB791A01114B1344FA7911010F4A0A441278D2B222F039
:402640002002D2B21A70FB791A010A4B1344FA791101084A0A441278D2B242F00102D2B21A700023FB60FB6818461437BD4680BC704700BF1070004080B485B000AF034619
:40268000FB710123FB60FB79172B1DD8FB791A01104B1344FA7911010E4A0A441278D2B222F00102D2B21A70FB791A01094B1344FA791101074A0A441278D2B222F0200247
:4026C000D2B21A700023FB60FB6818461437BD4680BC70471070004080B485B000AF03460A46FB711346BB710123FB60FB79172B1BD8FB791A01104B13441B78DBB223F04E
:402700000E03FB72FB791A010B4B1344BA795200D2B252B202F00E0251B297F90B200A4352B2D2B21A700023FB60FB6818461437BD4680BC704700BF1070004080B485B04B
:4027400000AF0346FB710B46BB8013467B800123FB60BB8841F6FF72934202D14FF40053BB807B8841F6FF72934202D14FF400537B80FB79172B17D8FB79DB0003F18043A3
:4027800003F5EC430433BB60BB68BA881A80FB79DB0003F1804303F5EC430633BB60BB687A881A800023FB60FB6818461437BD4680BC704780B485B000AF03460A46FB71C4
:4027C0001346BB710123FB60FB79172B07D8FB791A01064B1344BA795A720023FB60FB6818461437BD4680BC704700BF1070004090B484B000AF0446084611461A4623462C
:40280000FB710346BB710B467B7113463B710123FB60FB79172B34D8FB79DB0003F1804303F5EC43BA7902F07F02D1B27A79D201D2B20A43D2B21A70FB79DB0003F1804333
:4028400003F5EC433A7E1201D1B23A7902F00F02D2B20A43D2B25A70FB79DB0003F1804303F5EC433A7F02F00F02D2B29A70FB79DB0003F1804303F5EC430022DA700023DB
:40288000FB60FB6818461037BD4690BC704700BF80B582B000AFFF23FB7100F084F90346BB71104B1B78182B12D90F4B1B78FB710C4B1B78013BDAB20A4B1A70FB79DB0015
:4028C00003F1804303F5F0431B78DAB2064B1A70BB79184600F06BF9FB7918460837BD4680BD00BFD080FF1FD180FF1F90B484B000AF0446084611461A462346FB71034695
:40290000BB800B46BB711346FB700123FB6097F90730002B23DBBB8823F47F6323F00F039BB2002B1BD1FB79DB0003F1804303F5F043BB60BB68BA881A80FB79DB0003F159
:40294000804303F5F043BA799A70FB79DB0003F1804303F5F043FA78DA700023FB60FB6818461037BD4690BC704700BF80B485B000AF0346FB710B46BB8013467B80012323
:40298000FB6097F90730002B17DBFB79DB0003F1804303F5F0430433BB60BB68BA881A80FB79DB0003F1804303F5F0430633BB60BB687A881A800023FB60FB681846143788
:4029C000BD4680BC704700BF80B483B000AF0346FB7101BE00BF0C37BD4680BC704700BF80B582B000AF0346FB80FB88054A127802FB03F3184600F0B7F800BF0837BD46BA
:402A000080BD00BFE080FF1F80B584B000AF03463960FB710F4B1B68FB60FB791F2B02D90020FFF7D1FFFB7903F01F0310339B00FA6813441B68BB60FB7903F01F03103375
:402A40009B00FA6813443A681A60BB6818461037BD4680BD08ED00E080B582B000AF03460A46FB711346BB71BB79072B02D90020FFF7AAFFFB791F2B02D90020FFF7A4FF17
:402A8000FB7903F01F0303F1604303F56443BA795201D2B21A7000BF0837BD4680BD00BF80B483B000AF7860264B1B78DBB21A467B681A60244B1B78DBB21B027A68126882
:402AC0001A437B681A60214B1B78DBB21B047A6812681A437B681A601D4B1B78DBB21B067A6812681A437B681A607B680433194A1278D2B21A60184B1B78DBB21A027B6815
:402B000004337968043109680A431A60134B1B78DBB21A047B6804337968043109680A431A600F4B1B78DBB21A067B6804337968043109680A431A6000BF0C37BD4680BCC9
:402B4000704700BF0301004904010049EC460040020100490101004900010049050100490601004900000000142816D902B4012114381049097811F0C001890904B40E4AC5
:402B8000515C04BC00BF00BF00BF8841FDD500BF00BF02BC704700BF00BF70F10400FCD570470B050709EFF3108072B6704780F31088704700480040A22B000080B483B083
:402BC00000AF144B1B78DBB203F00303012B02D0022B04D012E00F4B1B79FB7111E00D4B1B79DBB203F07F020B4913465B0013449B000B440A331B78FB7102E00023FB718F
:402C000000BF0023BB71BB7918460C37BD4680BC704700BF00600040F081FF1F014B1868704700BF4881FF1F0E4B70B51E460E4C0025E41AA410A54204D056F82530984754
:402C40000135F8E700F000F9084B094C1E46E41AA4100025A54204D056F8253098470135F8E770BD542E0000542E0000542E00005C2E000010B5431E0A44914204D011F8C0
:402C8000014B03F8014FF8E710BD03460244934202D003F8011BFAE77047000000000000005100401000205100405000C051004010000000014000100014014000080040FB
:402CC0000140000A004C01400002005001402000303132333435363738394142434445460000000012010002FF000008B4048000000001038001000009022000010104801D
:402D0000190904000002FF0000040705810240000007050202400000040309042C0343007900700072006500730073002000530065006D00690063006F006E006400750056
:402D4000630074006F0072004A03470065006E00650072006900630020005500530042002000420075006C006B0020005700720061007000610072006F0075006E00640096
:402D800020005400720061006E00730066006500720012037500730062005F006500630068006F000A036D00610069006E00000002030000000081024000FF0000000202D4
:402DC0004000FF00FF00000001000000F82C000002000000B42D0000000000000000000000000000C42D000001000000E42C0000000000000000000001000000C82D000095
:402E000001000000E82D000012034D0053004600540031003000300001000000280000000001040001000000000000000001435955534200000030303030310000000000F5
:402E40000000000043000000F8B500BFF8BC08BC9E4670474D000000C1040000F8B500BFF8BC08BC9E46704729000000802E0000C880FF1F88000000380100000000000001
:402E800000000000FFFF0000807F00000300000000366E01C05D0000180000000000E02E00000000000000000000000000000000000000000000000000000000000000002A
:402EC000442E000000000000000000000000000000000000000000000000000000000000000000000000000000000000000000000000000000000000000000000000000060
:402F0000E880FF1F0000000000000000000000000000000000000000000000000000000000000000000000000000000000000000000000000000000000000000000000000B
:402F40000000000000000000000000000000000000000000000000000000000000000000000000000000000000000000000000000000000000000000000000000000000051
:402F80000000000000000000000000000000000000000000000000000000000000000000000000000000000000000000000000000000000000000000000000000000000011
:402FC00000000000000000000000000000000000000000000000000000000000000000000000000000000000000000000000000000000000000000000000000000000000D1
:403000000000000000000000000000000000000000000000000000000000000000000000000000000000000000000000000000000000000000000000000000000000000090
:020000040003F7
:0200000480007A
:4000000001450040015200400117014001190140034001400241014002420140024301400347014003480140024C0140015101407E027C40EE0AEE0A33803640CC30A64070
:40004000A780A640A780A640A78008080F40C20CAE40AF80EE50AC08AF40000A4000000000000000C0000000000F0B000000000001001101000000000000000000000000DD
:400080000000000000000000000000000000000000000000000000000000000000000000000000000000000000000000000000000000000000000000000000000000000040
:4000C0000000000000000000000000000000000000000000000000000000000000000000000000000000000000000000000000000000000000000000000000000000000000
:4001000000000000000000000000000000000000000000000000000000000000000000000000000000000000000000000000000000000000000000000000000000000000BF
:40014000000000000000000000000000000000000000000000000000000000000000000000000000000000000000000000000000000000000000000000000000000000007F
:0200000490006A
:040000000800C0052F
:0200000490105A
:04000000BC90ACAF55
:0200000490303A
:02000000531E8D
:0200000490402A
:4000000000000000000000000000000000000000000000000000000000000000000000000000000000000000000000000000000000000000000000000000000000000000C0
:400040000000000000000000000000000000000000000000000000000000000000000000000000000000000000000000000000000000000000000000000000000000000080
:400080000000000000000000000000000000000000000000000000000000000000000000000000000000000000000000000000000000000000000000000000000000000040
:4000C0000000000000000000000000000000000000000000000000000000000000000000000000000000000000000000000000000000000000000000000000000000000000
:0200000490501A
:0C00000000012E16106900012E276387F6
:00000001FF