:400000000080002011000000B1040000B104000008B5044B1A6803F53F5302331A6000F067FA00BFFA46004010B5054C237833B9044B13B10448AFF300800123237010BDAC
:400040009081FF1F000000004C500000084B10B51BB108490848AFF300800848036803B910BD074B002BFBD0BDE81040184700BF000000009481FF1F4C500000C880FF1F3A
:40008000000000000122014B1A707047CC80FF1F08B50121002001F095FC00F053FE00F0B9FB00F059FB00F0C1FE01F0E9F9384800F0E2FD072000F0CBFD62B601F0BAFC0D
:4000C0000028FBD0022001F0F7FD00F065FB314C206001F0E9F9002001F0F6F901F0ECF901F00AFA2C4B1860A0F50340243802F009FF25A3D3E9002303F094F803F002FAE9
:40010000264B1860236826481840002805DA01386FEA00506FEA1050013080B200F034FE01F08EFC28B101F085FC10B1022001F0C3FD022001F094FC0128F1D1022001F063
:4001400099FC0246174B18801749022001F05CFD022001F085FC0128FAD0022001F0ACFD012001F07DFC0128FAD1104D104C0FCC28606960AA60EB6002222946012001F03B
:40018000C1FCCDE7AFF3008052B81E85EBDB8AC0850000008882FF1F8C82FF1F0482FF1FFF0F00800082FF1F0882FF1F4882FF1F50500000FEE700BFF0B40022174611E05C
:4001C00050F82760F3B226F0FF0608E001EB420511F812406D78A5550132013BDBB2002BF4D10137232FEBD9F0BC70470B4B1B78DBB203F007010A4A11701B09013213705E
:400200008023A2F23272137002F6C3121370583213704422034B1A70704700BFCF0100496E5800407658004008B50A46002103F0F0F908BD08B503F0E1F908BD38B50024F3
:400240002F4B1C80502202331A7045F6BF5202331A80182202331A7004222A492A48FFF7E9FF0622294B1A705222A3F580731A70274B1B78DBB2274A13704FF4E162264B0E
:400280001A8041F25122023B1A8019250CE0234B1B7803F0010343EA440404F003044FF4F07002F0B1FC013D0DB1032CEFD115B90320FFF77FFF1A4A4FF4807313800723AC
:4002C0001370002317490B704820023108701370053213700222144B1A7004220A331A70124A137843F003031370013A137843F001031370013A137843F08003137038BD1C
:40030000804000404407004800410040004300400F010049A14600402242004025420040044000400640004001400040A2430040012807D8044B53F820201844017A137867
:400340000B431370704700BF60500000012808D8044B53F820201844017A137823EA0103137070476050000038B572B6374A137843F00403137000240BE0354863001A1946
:40038000510001440A46098AD068FFF74DFF0134E4B2072CF1D92F494FF09040FFF70CFF0A252D4B1D7004212C48FFF73DFF04212B48FFF739FF2B4A2B4B1A602B4A1378D0
:4003C00043F0020313701032137843F002031370274C237843F040032370A2F58632513A137843F010031370082222492248FFF721FF2A4621492248FFF71CFF2A46214931
:400400002148FFF717FF082220492148FFF712FF082220492048FFF70DFF08221F492048FFF708FF1F4A137843F0080313701E4D61232B70FFF702FF81232B70FFF7D6FE11
:400440000E2221461948FFF7F5FE38BDE84600406050000090000048835800400076004008760040040400445816014003500140A04300400C07004802510040140700481E
:40048000C051004020070048F05100402C0700481251004034070048225100403C070048325100402243004000480040B043004008B503F077F803680C2B00D1FEE7FEE79D
:4004C00008B5094B1A681044084BC31AB3F5007F02DC054B186005E003F064F80C2303604FF0FF32104608BDD080FF1F7083FF1F08B5104E104D16E029686B68AC68002240
:4005000004E051F8040B43F8040B0432A242F8D1E868002203E0002143F8041B04328242F9D11035013E002EE6D103F041F8FFF7AFFDFEE7010000005C53000008B5114ADA
:40054000114B1A60114A136843F40073136000230AE0032B03D80E4A52F8231000E00D490D4A42F8231001332F2BF2D90B4B1A780B4B1A70084A0B4B1A60FFF7F5FE00F0B1
:40058000FDF908BD0004FA050CED00E014ED00E000000000B10400000080FF1FBC760040C080FF1F08ED00E010B50B4C237803F09F032370237803F0F003237023781843E2
:4005C00040F010002070012000F0CEFA237803F0EF03237010BD00BF2051004070B5354B1A7802F08002D2B21A7033490A7802F0F00242F00F020A7001310A7802F0F00212
:400600000A7001310A7802F0F0020A701A7802F0DF021A701A7842F040021A704FF4CA76002000F0A1FA234D2B7843F010032B70012000F099FA214B1C78E4B22B7803F0BD
:40064000EF032B70002000F08FFA04F00804E4B22B7843F010032B70012000F085FA2B7803F0EF032B7014B90A2000F07DFA013E0CB1002ED4D10F4A137803F0BF0313703E
:40068000137803F08003DBB213700232137803F0F00313700132137803F0F00343F00F0313700132137803F0F00343F00F03137070BD00BF20510040225100402151004027
:4006C00010B50446FFF78AFF2009FFF76DFF04F00F00FFF769FF10BD08B5282000F02EFA0320FFF761FF052000F028FA0320FFF75BFF0F2000F022FA0320FFF755FF0120AA
:4007000000F01CFA0220FFF74FFF052000F016FA0620FFF7D5FF0E20FFF7D2FF2C20FFF7CFFF0820FFF7CCFF0120FFF7C9FF0C20FFF7C6FF0320FFF7C3FF052000F0FEF99D
:4007400008BD00BF08B50C20FFF7BAFF0122014B1A7008BDAC81FF1F08B5054B5B7823B9FFF7BAFF0122024B5A70FFF7EBFF08BDAC81FF1F08B50422054B1A6005490220A2
:4007800000F0FCF90721022000F00CFA08BD00BF80E100E04908000010B50424064B1C6000F08CF8A0F5004000B2044B1B68044A1460184410BD00BF80E100E0B081FF1F3D
:4007C00000E100E0024B187800F00F00704700BF6664004040F00700014B1870704700BF8664004008B50F20FFF7F4FFFFF7EAFF02F012FA054A137843F01003137002F0EA
:400800000FFA0422024B1A6008BD00BF9664004000E100E008B500F0A3F84FF4004000F047F80022064B1A60064B1B7823B9FFF7A1FF0122034B1A70FFF7D4FF08BD00BFBE
:40084000B081FF1FAE81FF1F0D4B1B78DBB213F0010F06D00B490A6802F5FF427F320A6007E013F0020F04D006490A68A2F500420A6013F0040F02D00022024B1A60704707
:4008800066640040B081FF1F024A137843F080031370704774650040014B1870704700BF86650040014B1878704700BF66650040014B1880704700BF086A0040024B1B7841
:4008C000024B188880B2704704650040886A0040014B188880B27047886A0040014B1880704700BF486A0040014B1880704700BF686A004008B501E0FFF7EAFFFFF7D2FF44
:4009000010F0400FF8D108BD08B5134B1A7802F0F8021A701A7802F0FC021A70FFF7EAFF4FF40040FFF7DAFF4FF40040FFF7C0FF0020FFF7B1FFFFF7B5FF4FF40040FFF759
:40094000D3FF02F069F9054A137843F01003137002F066F908BD00BF746500409665004008B5054B1B7823B9FFF7CEFF0122024B1A70FFF789FF08BDB481FF1F0B4A7F23BF
:4009800013708021517007E0DA0002F1804202F5F042013BDBB21370002BF5D1DB0003F1804303F5F04300221A707047D480FF1F172815D831B103010A495A5C42F0200275
:4009C0005A5405E0030107495A5C02F0DF025A540001044A835C43F00103835400207047012070471070004017280BD80001064BC25C02F0FE02C254C25C02F0DF02C2548D
:400A000000207047012070471070004017280BD80001064A835C03F0F103490001F00E011943815400207047012070471070004041F6FF73994201D14FF4005141F6FF7392
:400A40009A4201D14FF40052172808D8C00000F1804000F5EC408180C280002070470120704700BF172805D8034B03EB0010417200207047012070471070004017281BD815
:400A800010B4C00000F1804404F5EC44D201D2B201F07F01114321709DF804201201D2B203F00F03134363709DF8083003F00F03A3700020E07001E00120704710BC704718
:400AC00010B502F0A9F80A4B5B78182B0BD9084A1478013B5370E30003F1804303F5F0431B78137000E0FF2402F09AF8204610BDD480FF1F10F0800F0CD111F4704F0BD15F
:400B0000C00000F1804000F5F04001808270C37000207047012070470120704710F0800F08D1C00000F1804000F5F0408180C280002070470120704701BE704710B504467D
:400B400005E0084B186802F05FF8A4F50044B4F5004FF6D8034B586800FB04F002F054F810BD00BFDC80FF1F08B5034B1B7A00FB03F002F049F808BDDC80FF1F70B5044621
:400B80000E46074B1D681F2802D90020FFF7D4FF04F01F04103455F8240045F8246070BD08ED00E038B504460D46072902D90020FFF7C2FF1F2C02D90020FFF7BDFF04F018
:400BC0001F0000F1604000F564406D01EDB2057038BD00BF134B1B78DBB20360124A127843EA02230360114A127843EA024303600F4A127843EA026303600E4B1B78DBB2EF
:400C000043600D4A127843EA022343600B4A127843EA024343600A4A127843EA02634360704700BF0301004904010049EC4600400201004901010049000100490501004981
:400C400006010049014B1B681864704708ED00E04001C0B2014B1870704700BF00E400E00122014B1A60704700E100E00122014B1A60704780E100E010B50446FFF7F6FF50
:400C80002046FFF7DFFF0720FFF7E2FFFFF7E8FF10BD00BF084A137843F0010313701032137843F00103137002F64D32137843F001031370704700BFA3430040014B187049
:400CC000704700BF034F0040014B1880704700BF044F0040014B1880704700BF064F004008B5154A137803F0010313700232137803F0FC031370114B1A7802F0CF021A7080
:400D00001A7842F030021A701A7802F0F0021A701A7842F00F021A70094A137843F0010313706320FFF7D0FF6320FFF7D3FF0820FFF7C4FF08BD00BF004F00400B4F00401B
:400D4000014F004008B5054B1B7823B9FFF7C8FF0122024B1A70FFF79DFF08BDB581FF1F024A137843F080031370704774640040014B1880704700BF08680040014B188038
:400D8000704700BF88680040014B1880704700BF48680040014B1870704700BF85640040014B1878704700BF65640040014B188880B27047A868004008B501E0FFF7F6FFC7
:400DC000FFF7EEFF10F0100FF8D108BD10B5154A137803F0C00343F0090313702032137843F001031370104C237843F0010323704FF48050FFF7BCFF4FF48050FFF7BEFF5A
:400E000040F21A20FFF7C0FF0020FFF7C3FF01F003FF237843F01003237001F001FFFFF7CBFF10BD746400409564004008B5054B1B7823B9FFF7CAFF0122024B1A70FFF758
:400E40008FFF08BDB681FF1F38B59DF81040651EEDB2032D51D8013809282ED8DFE800F0052D2D052D2D0F192D230F2B03D92548007840B222E02448007840B21EE00F2B23
:400E800003D92248007840B218E02148007840B214E00F2B03D91F48007840B20EE01E48007840B20AE00F2B03D91C48007840B204E01B48007840B200E0002001EB401162
:400EC00001FB02F2D20B91B20D2B0BD8C3F10E0192B20A4191B2621E124800EB82020133937005E0631E0F4A02EB83030F229A70013C0C4B23F8241038BD0020FFF71CFE3D
:400F000038BD00BF180100491C010049190100491D0100491A0100491E0100491B0100491F010049B881FF1FF8B5074601F074FE06460D4D2B7843F003032B700B4C23780E
:400F400043F0030323700A4B1F700320FFF70CFE2B7803F0FC032B70237803F0FC032370304601F05DFEF8BDF8460040F946004092580040F8B504460022C04B1A740128D5
:400F80005BD13822BE4B1A70042202331A70062201331A70002501331D7001331D703F2201331A7002331D7001331D7001331D7001260A331E70502203F527631A700A23A6
:400FC000B04A13702C210132117001321570442103321170482101321170013216700232157001321570013213704322A64B1A705220FFF799FF5822A44B1A7001331D700F
:40100000052705331F70022201331A7001331D7001331D70284600F0BDFA43F233329C4B1A603146384600F0D9FA3146BA2000F059FB98493046FFF7A1FD022C5DD138225B
:401040008F4B1A70042202331A70062201331A70002501331D7001331D703F2201331A7002331D7001331D7001331D7001260A331E70502203F527631A70272201331A70C0
:401080002C2201331A7001331D70552203331A705A2201331A70052701331F7002331E70112201331A70192201331A70972201331A704420FFF738FF5822744B1A70013357
:4010C0001D7005331F70022201331A7001331D7001331D70284600F05DFA4FF47A426C4B1A603146384600F079FA3146252000F0F9FA69493046FFF741FD032C5DD1382249
:401100005F4B1A70042202331A70062201331A70002501331D7001331D703F2201331A7002331D7001331D7001331D7001260A331E70502203F527631A70272201331A702F
:401140002C2201331A7001331D70552203331A705A2201331A70052701331F7002331E70112201331A70192201331A70972201331A704420FFF7D8FE5822444B1A70013327
:401180001D7005331F70022201331A7001331D7001331D70284600F0FDF94FF47A423C4B1A603146384600F019FA3146252000F099FA3A493046FFF7E1FC042C5DD1382268
:4011C0002F4B1A70042202331A70062201331A70002401331C7001331C703F2201331A7002331C7001331C7001331C7001250A331D70502203F527631A70272201331A70A7
:401200002C2201331A7001331C70552203331A705A2201331A70052601331E7002331D70112201331A70192201331A70972201331A704420FFF778FE5822144B1A700133FA
:401240001C7005331E70022201331A7001331C7001331C70204600F09DF94FF47A420C4B1A602946304600F0B9F92946252000F039FA0B492846FFF781FCF8BDB881FF1F5F
:40128000004E00408558004091580040945800409082FF1F65150000691500006D150000711500002DE9F04182B0394D01272F70384E00247474102000F07EF9102000F0EF
:4012C000FFF907213846FFF76DFC4FF00408324B83F8008001331C7007331C702F4A137843F0180313702E4B1C7003F2F5231C7001331C700A22A3F209331A7001331C702E
:4013000002331C705B2205331A705E2201331A7004331C701422A3F68C231A70009710234FF4004248F6F0510220FFF78DFD0223009310234FF4004249F2DA012046FFF752
:4013400083FD0323009310234FF4004249F2DA012046FFF779FDCDF8008010234FF4004249F2DA012046FFF76FFD2B78013B06EB83039A780B4B1A702B78013B36F8232021
:40138000094B1A802878FFF7F5FD02B0BDE8F081EC80FF1FB881FF1F96580040075B0040935800400E4E00400C4E004070B501F033FC0646294B1B78294B1A7842F001020A
:4013C0001A701A7842F010021A7010331A7842F001021A701A7842F010021A70214D2B7843F002032B70204C237843F0020323701E4A137843F0030313700320FFF7B4FBE2
:401400002B7803F0FD032B70237803F0FD032370174A137843F0060313707A22154B1A70154A137843F0010313701032137843F0010313700F3A137843F00103137010322E
:40144000137843F00103137002230C4A1360A2F5C0721360304601F0E3FB70BDEC80FF1FAA430040F8460040F9460040915800407758004082580040A143004080E200E01F
:4014800008B5084B9B7C4BB9064BDB7C13F0FF0F01D1FFF707FF0122024B9A74FFF786FF08BD00BFB881FF1F024A137843F0010313707047004E0040024A137803F0FE0305
:4014C00013707047004E0040094B1B7C13F0FF0F03D0074B5B7CDBB203E0064B1B7803F00103012B01D00028EED01846704700BFB881FF1F014E0040154B1B7803F0030358
:40150000012B07D8134B1888023B1B889BB243EA004013E0022B0AD10E4B1888023B1B7843EA00430C4A107843EA002006E00B4B188883B2074A108843EA0040084B1B7C58
:4015400013F0FF0F02D00022054B5A74704700BF144E0040124E0040114E0040104E0040B881FF1F704700BF704700BF704700BF704700BF10B5002404E02046FEF7E6FE18
:401580000134E4B2012CF8D9FF22014B1A7010BDED80FF1F10B50446FFF7ECFF2046FEF7C7FE014B1C7010BDED80FF1F014B188880B2704780400040034B1A7800F0F80036
:4015C00010431870704700BF82400040024B187800F00700704700BF8240004070B505460E46FFF7F3FF0446FFF7E0FFA84256D02B4B1B7803F0010294B900B185B938B945
:40160000284B1D80284A137803F0BF03137070BD254A137843F040031370224B1D8070BD22B3002321490B7001240F310C7004310B700C390B7803F07F030B701A4B1B78F0
:4016400013F0080F00D08DB9194B18800721013B1970164B1B7813F0010FFAD110490B7803F0FE030B700021104B19700C4B1B7813F0010F0DD00E4B1D800EB1032200E09B
:4016800001220A4B1A70094B1B7813F0010FFAD170BD044B1D8002490B7813430B7070BDA243004080400040824000400140004002400040014B188880B2704700410040FE
:4016C000034B1A7800F0F80010431870704700BF02410040024B187800F00700704700BF0241004070B505460E46FFF7F3FF0446FFF7E0FFA84256D02B4B1B7803F00102A7
:4017000094B900B185B938B9284B1D80284A137803F0BF03137070BD254A137843F040031370224B1D8070BD22B3002321490B70012413310C7004390B7008390B7803F0AF
:401740007F030B701A4B1B7813F0080F00D08DB9194B18800721013B1970164B1B7813F0010FFAD110490B7803F0FE030B700021104B19700C4B1B7813F0010F0DD00E4B06
:401780001D800EB1032200E001220A4B1A70094B1B7813F0010FFAD170BD044B1D8002490B7813430B7070BDA143004000410040024100400140004002400040F8B501F053
:4017C0002BFA0546404A137843F0010313701032137843F00103137001273C4B1F700226943B1E7002F5E2521B32137803F07F0313700020FFF7B8F9354C237803F0F90393
:401800002370344A137803F0DF03137023783B4323703846FFF7A8F92820FFF7A5F92E4B1A7802F07F021A701A7802F0BF021A702378334323703046FFF796F9237843F0D3
:40184000040323700023254A13700132137004E0FF21234AD15401339BB2082BF8D9284601F0DEF907211720FFF79CF91D491720FFF784F907211820FFF794F91A4918203A
:40188000FFF77CF907210320FFF78CF917490320FFF774F907210420FFF784F914490420FFF76CF900211620FFF77CF911491620FFF764F907210C20FFF774F90E490C2097
:4018C000FFF75CF9F8BD00BFA54300409D6000409443004012600040F851004084600040A082FF1F75210000E51F000011210000412100007D2100002122000008B5234BD4
:4019000018700023224A1370224A1370224A1370224A1370224A1370224A1370224A1370224B4FF400021A604FF080721A6008221A6010221A6003201D4A10704FF480027D
:401940001A6020221B4B1A7011B1012906D00BE0194A137803F0FE0313700AE0164A137843F00103137004E0134A137843F0010313700322114B1A708022203B1A700120E1
:4019800001F042F904220E4B1A7008BDC082FF1FC682FF1FC482FF1FC582FF1FC182FF1FAC82FF1FC382FF1F3C83FF1F00E100E09E6000409C600040096000402860004005
:4019C0001260004038B504460D46064B1B7823B9FFF7F4FE0122034B1A7029462046FFF78DFF38BDD081FF1F00230A4A13700A4A13700A4A13700A4A13700A4A13700A4AA3
:401A000013700A4A13700322094B1A708022203B1A707047C682FF1FC482FF1FC582FF1FC182FF1FAC82FF1FC382FF1F3C83FF1F28600040014B1878704700BFC582FF1F70
:401A4000064B1B7813F0FF0F05D0044B1878C0B200221A7070470020704700BFC482FF1F00EB40008300024A13445878704700BFD082FF1F431EDBB2072B0BD8064B000192
:401A80001A18185C00F00F00537843EA0020023880B2704700207047FC5F004010B5044600EB40039800144B1844037913F0800F03D00A0C4FF4804302E00B0C4FF4804249
:401AC000012C02D0022C07D00CE00021084601F07BF80A4B185505E00021084601F056F8064B1855631EDBB2072B03D8FEF7E8FF034B185510BD00BFD082FF1F9482FF1F2E
:401B0000A082FF1F431EDBB2072B6FD82DE9F04104460E46154600EB40029300344A1344DB889BB2C3F500739D4209D900EB400293002F4A1344DD88ADB2C5F50075ADB2AB
:401B400004EB440293002A4A1344DB7843EA15232849220188188B54EBB24370264B1B5DFF2B03D131462046FFF798FF04EB440293001F4A134400225A705EB355B31F4F6B
:401B8000385DFEF731FFDFF870801123FE22294618F80400FEF7AEFF22010832184D2A4492B2B1B218F80400FEF7B8FF18F80410385DFEF757FF0121385DFEF7F9FE2401C8
:401BC0002B5D43F002032B552B5D03F0FD032B55BDE8F08104EB44029300054A13445A79D2B22401074B1A55BDE8F081704700BFD082FF1FFC5F0040A082FF1F9482FF1FDE
:401C000070600040FE5F00402DE9F843002944D0044615460F46002841D0082841D8FFF729FFA84203D22046FFF724FF05461F4B1B5DFF2B03D139462046FFF72FFFDFF886
:401C4000748018F80400FEF7CFFEDFF860901223FE22294619F80400FEF74CFF21010831134E314489B2BAB219F80400FEF756FF19F8041018F80400FEF7F4FE012118F831
:401C80000400FEF795FE2401335D43F002033355335D03F0FD03335504E0002502E0002500E000252846BDE8F88300BFA082FF1F706000409482FF1F431EDBB2072B0BD82F
:401CC000420002449300054A134400225A705A79D2B20001024B1A54704700BFD082FF1FFE5F00401D4B19781D4A13889BB20B449BB2138000220FE01A494B681B78DBB2E3
:401D0000194883544B6801334B600132D2B20B889BB2013B9BB20B80124B1B889BB20BB1072AE9D90D4B1B78DBB2082B00D05AB10E490B7883F080030B700F210C4B197051
:401D400002210C4B197004E0022309490B7009490B70094B1A70014B1A7070473C83FF1F4283FF1FB482FF1F00600040C282FF1FAD82FF1FC682FF1F3D83FF1F0222074B35
:401D80001A708022064B1A700F22064B1A700023054A1370054A137001207047C682FF1FC282FF1FAD82FF1F3C83FF1F3D83FF1F08B5FFF797FF08BD10B4194B197801F0E9
:401DC0000F010239C9B2174A13889BB20B449BB21380002011E0144A5468144B1B5CDBB223705368013353600130C0B20139C9B213889BB2013B9BB213800B4B1B889BB240
:401E00000BB10029E7D10A4B19700A4A137883F0800313700B22084B1A7010BC704700BF296000404283FF1FB482FF1F006000403D83FF1FC282FF1FAD82FF1F0623064ADD
:401E40001370064A13708022054B1A700022054B1A700120704700BFC682FF1FAD82FF1FC282FF1F3D83FF1F064B9B6843B1054B9A6810709A6804490988518000229A6023
:401E8000704700BFB482FF1F4283FF1F08B5134B1A78D2B21A701B78DBB213F0800F02D00F4A137008BD0220FFF7DEFF0D4B1B7803F06003202B05D0402B06D043B900F012
:401EC00091FC06E000F0B0FE03E000F039FE00E0002010B90322024B1A7008BD28600040AD82FF1F0060004008B5094B1978094A13889BB20B449BB213800022064B1A707F
:401F00000120FFF7B1FF0322044B1A7008BD00BF3C83FF1F4283FF1FC682FF1FAD82FF1F08B50B4B1B78DBB2042B06D0062B07D0022B0BD1FFF7D8FF08BDFFF73DFF08BD13
:401F40000320FFF791FF0322024B1A7008BD00BFC682FF1FAD82FF1F08B50022044B1A700120FFF781FF0322024B1A7008BD00BFC682FF1FAD82FF1F08B50B4B1B7813F05A
:401F8000FF0F07D0084A137843F0800307490B70002313700022064B1A700120FFF764FF0322044B1A7008BDAC82FF1F08600040C682FF1FAD82FF1F08B5094B1B78DBB226
:401FC000042B06D0062B07D0022B07D1FFF7F0FE08BDFFF7C1FF08BDFFF7CEFF08BD00BFC682FF1F08B5284B1B78DBB213F0100F48D013F0800F0CD003F00F03012B16D1EE
:40200000FFF744FF214B1B7813F0800F11D1012312E013F0400F03D0FFF7CEFF01230BE013F0200F07D0FFF77BFF012304E0002302E0002300E0002323B3134B1B7813F071
:40204000800F1FD1124B1B78124A12781343124A13701278D2B2934214D10C4B1B78DBB2094A127812F0800F07D1084B1B78DBB2054A1370137803F00F03044A1278D2B220
:402080009342EAD108BD00BF28600040AD82FF1FC282FF1F3D83FF1F296000400022064B1A80064B9B682BB1044A916800230B7092685380704700BF4283FF1FB482FF1F52
:4020C00008B50F4B1B889BB213B9FFF757FE15E002220C4B1A7000220B4B1A70FFF7DEFF0A4AD179937943EA0123054A128892B2934201D2024A1380FFF7F4FD012008BD77
:40210000B482FF1FC682FF1FC282FF1F006000400122094B1A700F3B9B7C084B1B7B03F00303934204D0054AD37B83F08003D3730122024B5A7370470B600040D082FF1F0E
:4021400002220A4B1A700F3B93F82230084B1B7E03F00303012B04D0054AD37E83F08003D3760122024B5A76704700BF0B600040D082FF1F08B5FFF737FC08BD70B4234B63
:402180001C78E4B201233DE014F0010F37D01A4619011F48084481784078014011F0010F17D003EB4305A8001A4D2844007910F0800F0ED0164D1E01A85D00F0FE00A85579
:4021C00003EB4305A800134D28444579EDB21248855511F0020F0FD002EB4205A8000D4D2844007910F0800F06D102EB4205A800084D28440025457012010848815401334F
:40220000DBB26408002CBFD170BC70479F60004070600040D082FF1FFE5F00407260004008B500F0ABFC08BD70B588B0054603AC174E0FCE0FC43368237035B322232B701D
:4022400003236B7001A8FEF7C5FC002402231AE008AA224412F81C2C08A901EB121111F8141CE954581C00212954981C02F00F0208AE324412F8142C2A54DA1CA954013436
:40228000E4B20433DBB2212BE2D908B070BD00BF9C50000030B4012341E0194623481A0184180C2585541F22627003EB430082001F480244527912F0FF0F13D003EB430017
:4022C00082001B480244127912F0800F04D01801184A024495700AE01801164A02440820907004E01801134A0244802090704800084482000E480244D488E4B208010B49EB
:4023000001448C71D088C0F30720C871D088C0B20871D288C2F307224A710133DBB2082BBBD9FF22044B1A7030BC704770600040D082FF1FFC5F00400A600040074B1A78EC
:40234000074B03EBC2035B681A7C824204D9C000103018444068704700207047C082FF1FEC500000F8B5404B1B7813F0FF0F79D03D4B18780138C0B2FFF7E0FF047AC268CB
:402380003A4B1878C0B200236AE01178884264D13749095CC9B25578A9425ED1917801F07F01D67806F00306DFF8C8E04D000D44AF000EEB07054FF0000C85F803C092F8AD
:4023C00002C085F804C092F803C00EF807C097882F8192F90250002D0DDA012E01D1072700E00D274E000E44B500224E35446F7101266E700CE0012E01D1052700E0092771
:402400004E000E44B5001B4E35446F7100266E70DFF868E00F010EEB07060125B57001FA05F529448D00134929440D89C5F307250EF807500D89EDB27570CE88F6B20E4DFF
:402440003D44AE71CE88C6F30726EE71CE88F6B22E71C988C1F30721697108320133DBB2A34292D3F8BD00BFC582FF1FC182FF1FB082FF1FD082FF1F70600040FC5F004093
:40248000034B1A78034B03EBC2035868704700BFC082FF1FEC50000008B5084B18780138C0B2FFF74BFF30B142681279023200EBC203586808BD002008BD00BFC582FF1F56
:4024C0002DE9F041002310E06A4D5900CA189600AC190022AA55A270E2702281A272627034462C4462710133DBB2082BECD940B90AE000226049CA546049CA540133DBB25D
:4025000000E00023002BF4D05D4B1B7813F0FF0F00F0AD805A4B18780138C0B2FFF70EFF4368DB7913F0400F05D0564A137843F00103137004E0534A137803F0FE031370CF
:40254000057A012464E0C16800235DE08A7802F07F02944255D1264604EB4407BA00454F3A44128992B28F88BA4207D204EB440E4FEA8E02DFF8FCE0724417810A783E4F22
:40258000BA5CD2B24F78BA423BD191F802C0DFF8E4E07200324497000EEB070282F804C0CA780EF80720CA7802F0030291F90270002F13DA012A02D14FF0070801E04FF0E1
:4025C0000D08DFF8B0E0720002EB060C4FEA8C07774487F8058001267E7012E0012A02D14FF0050801E04FF00908DFF888E0720002EB060C4FEA8C07774487F80580002680
:402600007E7008310133DBB2AB429FD30134E4B2082C98D9C06800220CE0837803F07F0310F8084B03EB43039900124B19448C720132D2B2AA42F0D3FFF72EFF124B1860FF
:40264000002301210FE00B4D4A00501884002C44E380228992B213449BB203F0010213449BB20131C9B20829EDD9FFF713FEBDE8F08100BFD082FF1FB082FF1F4083FF1F77
:40268000C582FF1FC382FF1FCC82FF1F08B5154B1B7903F07F035A1ED2B2072A20D8590019448A0010490A44917841F0010191700021D170517841F002015170127912F0CA
:4026C000800F05D01B01094A1A448D23937004E01B01064A1A4489239370FFF7AFFB08BD002008BD00600040D082FF1FFC5F0040264B1B7903F07F035A1ED2B2072A43D8E2
:4027000010B5590019448A0021490A44917801F0FE0191700021D17019017F241D484454517801F0FD015170127912F0800F14D003EB43018A0016490A445278D2B2012A6B
:4027400005D11B0102461A440C23937019E01B01104A1A440D23937013E003EB43018A000B490A445278D2B2012A05D11B01094A1A440823937004E01B01064A1A4409231A
:402780009370FFF75BFB10BD0020704700600040D082FF1FFC5F004010B50E4B1C79E4B20D4B18780138C0B2FFF7C8FD43681B799C4201D9012C0AD8084A135DDBB208493E
:4027C0000B55044B9B78DBB21355012010BD002010BD00BF00600040C582FF1FB082FF1F4083FF1F10B5964B1B78DBB20021954A118013F0800F00F0B380914A5278D2B21D
:402800000A2A00F27981DFE812F06F00770177017701770177010B00770198007701A000874BDB78DBB2012B09D1FFF729FE4268844B5A6012221A80FFF742FC10BD804B13
:40284000DB78DBB2022B13D17D4B9878FFF776FD002800F0538142687A4B5A605A68D1785A68927842EA01221A80FFF729FC10BD734BDB78DBB2032B05D032E00A781144DF
:402880000133DBB201E000236F496D4A9278D2B2934203D20A7812F0FF0FEFD1684B9B78DBB2EE2B00D16949654B9B7813F0FF0F0BD0634B9B78DBB2654A127C934204D187
:4028C000644C2046FFF7B0FC21460B7813F0FF0F00F016810B785B4A13805160FFF7F0FB10BD00F0A1F910BD13F0030317D0022B40F0088153490B80514B1B7903F07F038B
:4029000003EB43039A00544B1A449278D2B2534B1A7000225A704B60FFF7D2FB10BD494902230B804E4B1A78D2B24C4B1A7000225A704B60FFF7C4FB10BD424B01221A807A
:40294000484A5A60FFF7BCFB10BD3E4A012313803B4B1B7944490B445360FFF7B1FB10BD374A5278013A0A2A00F2CE80DFE812F04C00CC009700CC000B00CC00CC00CC008D
:402980001300CC0030002E4B9B78DBB2374A1370FFF754FA10BD2A4B9B7803F0FF041BB1601EC0B2FFF7CAFC04B110B9002C40F0AD802C4B1B78DBB29C4206D0294B1C7092
:4029C00001202B4B1870FFF77BFDFFF737FA10BDFFF7E2FE002800F09B80194A1379DBB21279D2B223490A70234AD25CD2B21E49CB5CDBB29A4204D001221D4B1A70FFF7E7
:402A0000B1FCFFF71BFA10BD03F00303012B35D04BB1022B7ED10A4B9B7813F0FF0F7BD1FFF766FE10BD064B9B78DBB2012B75D10B4A137803F0FD031370FFF7FFF910BD0F
:402A400000600040B482FF1F44510000D8500000FC5100004483FF1FD082FF1FD481FF1FC382FF1FC582FF1FB082FF1FAC82FF1FC482FF1FC182FF1F4083FF1F2D4B1B797A
:402A800013F0FF0F4CD12B4B98781B79DBB22A49CA5C22EA0002CA54FFF7D0F910BD03F00303012B17D04BB1022B3BD1214B9B7813F0FF0F38D1FFF7E9FD10BD1D4B9B78F2
:402AC000DBB2012B32D11D4A137843F002031370FFF7B4F910BD174B1B7913F0FF0F27D1144B98781B79DBB21349CA5C22EA0002CA54FFF7A3F910BD002010BD002010BD87
:402B0000002010BD002010BD002010BD002010BD002010BD002010BD002010BD002010BD002010BD002010BD002010BD002010BD002010BD00600040C882FF1FC382FF1F21
:402B400008B50B4B1B7813F0800F0CD0084B5B78DBB2012B09D1074B074A5A6012781A80FFF7AEFA08BD002008BD002008BD00BF00600040B482FF1FB0500000024B18784A
:402B8000C0F38010704700BF8F450040F0B583B016461F460B4C012525700023019300930A4601462846FDF769FF3A4631462078FDF73EFF02212078FDF728FF207803B011
:402BC000F0BD00BFEE80FF1FF0B583B016461F460B4D00242C700194009423460A4601462046FDF74BFF3A4631462878FDF720FF02212878FDF70AFF287803B0F0BD00BF36
:402C0000EF80FF1F000000000230800803D000BF01380046FCD17047EFF3108072B6704780F31088704700BF0B4B1B7803F00303012B02D0022B03D00CE0074B1B7909E04B
:402C4000054B1B7903F07F0303EB43039A00034B1A44937A0020704700600040D082FF1F81F0004102E000BF83F0004330B54FEA41044FEA430594EA050F08BF90EA020FBC
:402C80001FBF54EA000C55EA020C7FEA645C7FEA655C00F0E2804FEA5454D4EB5555B8BF6D420CDD2C4480EA020281EA030382EA000083EA010180EA020281EA0303362D35
:402CC00088BF30BD11F0004F4FEA01314FF4801C4CEA113102D0404261EB410113F0004F4FEA03334CEA133302D0524263EB430394EA050F00F0A780A4F10104D5F1200E3E
:402D00000DDB02FA0EFC22FA05F2801841F1000103FA0EF2801843FA05F359410EE0A5F120050EF1200E012A03FA0EFC28BF4CF0020C43FA05F3C01851EBE37101F0004557
:402D400007D54FF0000EDCF1000C7EEB00006EEB0101B1F5801F1BD3B1F5001F0CD349085FEA30004FEA3C0C04F101044FEA445212F5800F80F09A80BCF1004F08BF5FEA76
:402D8000500C50F1000041EB045141EA050130BD5FEA4C0C404141EB010111F4801FA4F10104E9D191F0000F04BF01460020B1FA81F308BF2033A3F10B03B3F120020CDA4E
:402DC0000C3208DD02F1140CC2F10C0201FA0CF021FA02F10CE002F11402D8BFC2F1200C01FA02F120FA0CFCDCBF41EA0C019040E41AA2BF01EB0451294330BD6FEA04045F
:402E00001F3C1CDA0C340EDC04F11404C4F1200220FA04F001FA02F340EA030021FA04F345EA030130BDC4F10C04C4F1200220FA02F001FA04F340EA0300294630BD21FA98
:402E400004F0294630BD94F0000F83F4801306BF81F480110134013D4EE77FEA645C18BF7FEA655C29D094EA050F08BF90EA020F05D054EA000C04BF1946104630BD91EAEC
:402E8000030F1EBF0021002030BD5FEA545C05D14000494128BF41F0004130BD14F580043CBF01F5801130BD01F0004545F0FE4141F470014FF0000030BD7FEA645C1ABF9C
:402EC000194610467FEA655C1CBF0B46024650EA013406BF52EA033591EA030F41F4002130BD00BF90F0000F04BF0021704730B54FF4806404F132044FF000054FF0000163
:402F000050E700BF90F0000F04BF0021704730B54FF4806404F1320410F0004548BF40424FF000013EE700BF42004FEAE2014FEA31014FEA02701FBF12F07F4393F07F4FE1
:402F400081F06051704792F0000F14BF93F07F4F704730B54FF4607401F0004521F0004120E700BF50EA010208BF704730B54FF000050AE050EA010208BF704730B511F053
:402F8000004502D5404261EB41014FF4806404F132045FEA915C3FF4DCAE4FF003025FEADC0C18BF03325FEADC0C18BF033202EBDC02C2F1200300FA03FC20FA02F001FA41
:402FC00003FE40EA0E0021FA02F11444C1E600BF70B54FF0FF0C4CF4E06C1CEA11541DBF1CEA135594EA0C0F95EA0C0F00F0DEF82C4481EA030621EA4C5123EA4C5350EAB1
:40300000013518BF52EA033541F4801143F4801338D0A0FB02CE4FF00005E1FB02E506F00042E0FB03E54FF00006E1FB03569CF0000F18BF4EF0010EA4F1FF04B6F5007F0F
:4030400064F5407404D25FEA4E0E6D4146EB060642EAC62141EA55514FEAC52040EA5E504FEACE2EB4F1FD0C88BFBCF5E06F1ED8BEF1004F08BF5FEA500E50F1000041EB0A
:40308000045170BD06F0004646EA010140EA020081EA0301B4EB5C04C2BFD4EB0C0541EA045170BD41F480114FF0000E013C00F3AB8014F1360FDEBF002001F0004170BDB4
:4030C000C4F10004203C35DA0C341BDC04F11404C4F1200500FA05F320FA04F001FA05F240EA020001F0004221F0004110EBD37021FA04F642EB06015EEA430E08BF20EAFA
:40310000D37070BDC4F10C04C4F1200500FA04F320FA05F001FA04F240EA020001F0004110EBD37041F100015EEA430E08BF20EAD37070BDC4F1200500FA05F24EEA020ED3
:4031400020FA04F301FA05F243EA020321FA04F001F0004121FA04F220EA020000EBD3705EEA430E08BF20EAD37070BD94F0000F0FD101F00046400041EB010111F4801FF8
:4031800008BF013CF7D041EA060195F0000F18BF704703F00046520043EB030313F4801F08BF013DF7D043EA0603704794EA0C0F0CEA135518BF95EA0C0F0CD050EA41060D
:4031C00018BF52EA4306D1D181EA030101F000414FF0000070BD50EA410606BF1046194652EA430619D094EA0C0F02D150EA013613D195EA0C0F05D152EA03361CBF104684
:4032000019460AD181EA030101F0004141F0FE4141F470014FF0000070BD41F0FE4141F4780170BD70B54FF0FF0C4CF4E06C1CEA11541DBF1CEA135594EA0C0F95EA0C0F03
:4032400000F0A7F8A4EB050481EA030E52EA03354FEA013100F088804FEA03334FF0805545EA131343EA12634FEA022245EA111545EA10654FEA00260EF000419D4208BFC0
:40328000964244F1FD0404F5407402D25B084FEA3202B61A65EB03055B084FEA32024FF480104FF4002CB6EB020E75EB030E22BFB61A754640EA0C005B084FEA3202B6EB40
:4032C000020E75EB030E22BFB61A754640EA5C005B084FEA3202B6EB020E75EB030E22BFB61A754640EA9C005B084FEA3202B6EB020E75EB030E22BFB61A754640EADC00D3
:4033000055EA060E18D04FEA051545EA16754FEA06164FEAC30343EA52734FEAC2025FEA1C1CC0D111F4801F0BD141EA00014FF000004FF0004CB6E711F4801F04BF014332
:403340000020B4F1FD0C88BFBCF5E06F3FF6AFAEB5EB030C04BFB6EB020C5FEA500C50F1000041EB045170BD0EF0004E4EEA113114EB5C04C2BFD4EB0C0541EA045170BDCE
:4033800041F480114FF0000E013C90E645EA060E8DE60CEA135594EA0C0F08BF95EA0C0F3FF43BAF94EA0C0F0AD150EA01347FF434AF95EA0C0F7FF425AF104619462CE73A
:4033C00095EA0C0F06D152EA03353FF4FDAE1046194622E750EA410618BF52EA43067FF4C5AE50EA41047FF40DAF52EA43057FF4EBAE12E74FF0FF3C06E000BF4FF0010CE7
:4034000002E000BF4FF0010C4DF804CD4FEA410C7FEA6C5C4FEA430C18BF7FEA6C5C1BD001B050EA410C0CBF52EA430C91EA030F02BF90EA020F0020704710F1000F91EA8E
:40344000030F58BF994208BF90422CBFD8176FEAE37040F0010070474FEA410C7FEA6C5C02D150EA013C07D14FEA430C7FEA6C5CD6D152EA033CD3D05DF8040B704700BF10
:403480008446104662468C461946634600E000BF01B5FFF7B7FF002848BF10F1000F01BD4DF808EDFFF7F4FF0CBF012000205DF808FB00BF4DF808EDFFF7EAFF34BF0120F9
:4034C00000205DF808FB00BF4DF808EDFFF7E0FF94BF012000205DF808FB00BF4DF808EDFFF7CEFF94BF012000205DF808FB00BF4DF808EDFFF7C4FF34BF012000205DF8B7
:4035000008FB00BF4FEA4102B2F1E04324BFB3F5001CDCF1FE5C0DD901F0004C4FEAC0024CEA5070B2F1004F40EB830008BF20F00100704711F0804F21D113F13872BCBF8B
:4035400001F00040704741F480114FEA5252C2F11802C2F1200C10FA0CF320FA02F018BF40F001004FEAC1234FEAD32303FA0CFC40EA0C0023FA02F34FEA4303CCE77FEAC3
:40358000625307D150EA01331EBF4FF0FE4040F44000704701F0004040F0FE4040F40000704700BF014B1868704700BF5081FF1F0E4B70B51E460E4C0025E41AA410A54217
:4035C00004D056F8253098470135F8E701F0B4FE084B094C1E46E41AA4100025A54204D056F8253098470135F8E770BD4453000044530000445300004C53000010B5431ED1
:403600000A44914204D011F8014B03F8014FF8E710BD03460244934202D003F8011BFAE770472DE9F04788B0149F002B1E461299B8BF03F1004327F02007B6BF1E4600230A
:403640002D23462F1446109DDDF84CA00B7003D0452F03D1013501E0032300E0022307AA049206AA03928DE828042246334600F0B7FB472F804602D1119BDB0728D5462F26
:4036800008EB050911D198F80030302B0AD10022002320463146FFF703FF18B9C5F10105CAF80050DAF8003099440022002320463146FFF7F5FE08B9302202E0CDF81C9028
:4036C00006E0079B994503D9591C07911A70F8E74046079B159AC8EB0303136008B0BDE8F087034673B50029B8BF494203F8022BB4BF2D222B22092942701ADD0DF1070286
:4037000016460A2591FBF5F405FB1411092C01F1300102F8011D2146F4DC3031541E02F8011CB4421A460AD214F8012B03F8012BF7E71A463024214402F8024B5970101A11
:4037400002B070BD2DE9F04F91B00C46DDF8688016461F46054601F0DBF803681846099300F0AAFA00230E93D8F800300A90073323F0070303F1080294F81890D4F800B099
:40378000C8F80020D3E90023C4E91223D4F84CA0D4F848802AF000430B934FF0FF32A74B40460B9901F014FCA0B94FF0FF32A34B40460B99FFF788FE60B900220023404653
:4037C0005146FFF777FE10B12D2384F843309C4B9C4A0AE0424653464046514601F0F8FB002800F09281984B984AB9F1470F8CBF90469846032323612BF0040323604FF071
:40380000000A3DE0B9F1670F00F08A81B9F1470F00F0868123600193636800210DF13302059002920093424653460691CDF81090CDF80CE02846FFF7F4FE09F0DF03472BEC
:40384000804600F08481B9F1650F0D9900F28D8101394A4604F150000D91FFF742FF0E9A82468318012A236100F37C812268D10700F178819DF8333013B12D2384F84330F4
:40388000009733460FAA2146284600F09FF9013002D14FF0FF3096E123685A0501D4236965E0B9F1650F40F2D580D4E9120100220023FFF7F5FD78B30123654A31462846E4
:4038C000B8470130E5D00E9B0D9A9A420BDB2368D80708D423689B0740F111814FF0000804F1190906E10A9B099A31462846B8470130CED04FF0000804F11A090E9B013B17
:403900009845E7DA01234A4631462846B8470130BFD008F10108F1E70D9B002B29DC01234B4A31462846B8470130B2D00D9B23B90E9B13B92368D907CCD50A9B099A3146CB
:403940002846B8470130A4D04FF0000904F11A0A0D9B5B42994509DA0123524631462846B847013095D009F10109F1E70E9B4246A7E00E9AA36D9A42A8BF1A46002A9146A8
:4039800006DC4FF0000A29EAE97904F11A0B11E01346314642462846B8470130F1D178E701235A4631462846B84701303FF471AF0AF1010AA36DC9EB03029245F0DB08EBB5
:4039C00003090D9A0E9B9A420FDB2368DA070CD40E9B0D9A9844C9EB08089B1A9845A8BF9846B8F1000F08DC0FE00A9B099A31462846B8470130EBD14BE743464A4631462C
:403A00002846B84701303FF444AF4FF0000928EAE87804F11A0A09E00123524631462846B84701303FF435AF09F101090D9A0E9B9B1AC8EB03039945EEDB4BE7FFFFEF7F17
:403A40001052000014520000185200001C520000205200000E9A012A01DCDB0738D50123424631462846B84701303FF412AF0A9B099A31462846B84701303FF40AAFD4E9DA
:403A8000120100220023FFF70BFD20B14FF0000804F11A090EE00E9B08F10102013B19E001234A4631462846B84701303FF4F1AE08F101080E9B013B9845F1DB534604F1FF
:403AC000500231462846B84701307FF403AFE0E64246012331462846B8470130EED1D8E601234A4631462846B84701303FF4D1AE08F10108E3680F9A9B1A9845F0DBE06820
:403B00000F9B9842B8BF18465DE062680EA8531C0DF1340E4BF480637FF474AE062201E012B90122626075E6002106910DF133018DE80C00236005904246CDF81090CDF8C0
:403B40000CE0029153462846FFF76BFD80460D9BD81C02DB626893421DDDA9F102095FFA89F970E60133236184E6B9F1660F14D10029636807DD216113B92268D2071DD512
:403B800001330B4419E013B92268D00701D5023313E0012311E04FF067090D9B0E9A934205DB22682361D10708D5013305E0002BD4BFC3F102030123134423610D9B4FF05C
:403BC000000AA36556E611B0BDE8F08F2DE9F04791461F460A698B6806469342B8BF1346C9F8003091F843200C46DDF8208012B10133C9F800302368990642BFD9F80030FA
:403C00000233C9F80030256815F0060510D104F1190A07E00123524639463046C04701301AD00135E368D9F800209B1A9D42F1DB94F843302268003318BF012392060FD509
:403C4000E118302081F843005A1C94F845102244023382F8431003E04FF0FF30BDE8F08704F1430239463046C0470130F4D02268D9F80050E36802F00602042A08BF5D1B8B
:403C80002269A3680CBF25EAE57500259342C4BF9B1AED184FF000091A344D4509D00123224639463046C0470130D5D009F10109F3E70020BDE8F087034613F8012B002AE0
:403CC000FBD1181A013870472DE9F74F03690C6980469C427FDC013C01F114074FEA840E00F1140606EB0E0357F82450019356F824300135B3FBF5F507EB0E09C5B34FF0F1
:403D0000000A3846B446D34650F8043B9AB205FB02A21B0C4FEA124A05FB03A392B2C2EB0B0BBCF800204FEA134A5A441FFA83FBDCF800308145CBEB134303EB224392B2FC
:403D400042EA03424FEA234B4CF8042BDCD256F80E306BB9019B043B9E421A4602D3C8F8104005E01268043B002AF8D1013CF3E7404600F0E6FF00282BDB304601354FF03E
:403D8000000E57F8042B036891B2C1EB0E0E120C99B27144C2EB134303EB214389B24FEA234EB94541EA034340F8043BE9D256F8242006EB840362B9043B9E421A4602D38F
:403DC000C8F8104005E01268043B002AF8D1013CF3E7284600E0002003B0BDE8F08F00002DE9F04F456A95B08246219CCDE9022345B9102000F090FDCAF824004560856002
:403E00000560C560DAF82430196859B15A68012393404A608B60504600F0BBFDDAF8243000221A60039BA04A002BBDBF01232360039B0023BCBF23F000430393DDF80C809A
:403E4000A8BF236028F000431B0D1B0593421DD142F20F73209A1360029B43B9934A944BC8F31300002814BF1846104600E09048229B002B00F04685C37813B100F10803E7
:403E800000E0C31C229A136000F03CBDDDE902450022002320462946FFF702FB074658B1209A01231360229B002B00F01E8581481860013800F026BD12AB019313AB009300
:403EC00022462B46504600F0B7FFC8F30A56049056B1C5F3130343F07F51204641F44011A6F2FF3611971DE0139B129E1E4406F23243202B0ADD029A06F21240C3F140038C
:403F000022FA00F008FA03F3184304E0C3F12000029B03FA00F0FEF7E5FF0123A1F1F871013E11930022644BFEF79EFE58A3D3E90023FFF74DF858A3D3E90023FEF796FE2B
:403F4000044630460D46FEF7DDFF55A3D3E90023FFF73EF802460B4620462946FEF786FE04460D4601F04AF800228346002320462946FFF79FFA58B15846FEF7C3FF02468B
:403F80000B4620462946FFF78BFA08B90BF1FF3BBBF1160F0DD8DDE90223484901EBCB01D1E90001FFF7A4FA30B10BF1FF3B002300E00123109300E01090129B9E1B731ED8
:403FC000079343BFC3F10008002307934FF00008BBF1000F06DB079BCDF82CB05B440793002705E00023CBEB0808CBF100070B931E9B092B28D8052BC4BF043B1E931E9BAE
:40400000C8BF0025A3F10203D8BF0125032B20D8DFE803F0060E0204012302E0012308E000230A931F9B002B1DDD9946059321E000230A931F9B0BEB030909F10103012BB5
:404040000593B8BF012315E0012500231E930A9501E001230A934FF0FF390022CDF8149012231F9206E04FF001094B46CDF81490CDF87C90DAF8244000226260042101F1CA
:4040800014029A421CD86268490001326260F6E761436F63A787D23FB3C8608B288AC63FFB799F501344D33F0000F07F225200002B520000215200000000F83F3852000003
:4040C0006168504600F030FCDAF8243020601B680693059B0E2B00F25B81002D00F05881DDE90234BBF1000FCDE90E3430DD9F4A0BF00F034FEA2B1502EBC303E80618CB37
:40410000CDE908340CD5DDE90E01994B05F00F05D3E90823FFF786F80324CDE9020100E00224934E6DB1E90708D5DDE90801D6E90023FEF74DFFCDE9080101346D1008363C
:40414000F0E7DDE90823DDE90201FFF76BF820E0CBF1000505B3DDE90E01844B05F00F0203EBC203D3E90023FEF732FFCDE902017F4E2D110023022455B1EA0705D5D6E9DD
:404180000023FEF725FF013401236D100836F3E71BB1CDE9020100E00224109BE3B1DDE902560022734B28463146FFF783F998B1059B8BB1B9F1000F40F3E6800BF1FF3311
:4041C0000893314600226C4B2846FEF701FF0134CDE902014E4602E0059ECDF820B02046FEF790FEDDE90223FEF7F2FE634B0022FEF73CFDA1F1507304460C931D46D6B9EE
:40420000DDE9020100225E4BFEF72EFD22460C9BCDE90201FFF76CF9002840F03F820C99224601F10043DDE90201FFF743F9002840F02B82A8E00A9A4C4B711E002A49D0B7
:4042400003EBC103D3E9002300204E49FEF7EAFF22462B46FEF708FDCDE90C01069CDDE9020100F0CBFE0546FEF74CFE02460B46DDE90201FEF7F8FCDDE90C23303504F833
:40428000015BCDE90201FFF715F9002840F01D83DDE9022300203749FEF7E6FCDDE90C23FFF708F9002840F0D180069BE31AB3426ADADDE90C0100222F4BFEF789FE002212
:4042C000CDE90C01DDE902012B4BFEF781FECDE90201C4E703EBC1012246D1E900012B46FEF776FE069BCDE90C011D469C19DDE9020100F083FE0646FEF704FE02460B46A5
:40430000DDE90201FEF7B0FC303605F8016BAC42CDE902014FF0000222D11A4BDDE90C01FEF7A4FC02460B46DDE90201FFF7E0F8002840F08B80DDE90C2300201149FEF7A5
:4043400093FC02460B46DDE90201FFF7B3F8D8B114F8013C621E302B40F0B7821446F7E7054BFEF735FECDE90201C0E738520000105300000000F03F0000244000001C40A9
:40438000000014400000E03FDDE90E34CDE90234139B002B7CDBBBF10E0F79DCAB4B03EBCB03D3E900671F9B002B14DA059B002B11DC40F06C810022A54B30463946FEF7CF
:4043C00007FEDDE90223FFF789F8059D2E46002840F05F8165E1069CDDE9028932463B4640464946FEF71EFF00F008FE0546FEF789FD32463B46FEF7EBFD0B4602464946F5
:404400004046FEF731FC05F1300E069B04F801EBC3EB040E059B73452DD102460B46FEF725FC8046894602460B4630463946FFF741F878B942464B4630463946FFF730F8A3
:40444000002800F04482EB0704D440E2DDF820B000E01C4614F8012C631E392A07D1069A9A42F6D1069930220BF1010B0A701A7801321A702BE20022764BFEF7A9FD0022E4
:40448000002380468946FFF70BF80028A6D01EE20A9A002A2BD01E9A012A0ADC119A12B103F2334302E0129BC3F136033D46444613E0059B5D1EAF42BFBF0B9BEA1B9B18DE
:4044C0000B93059BB6BF2F467D1B0025002BA7BF4446059BC3EB08040023079A01211A4450469844079200F0F3FA064602E03D4644460A9E5CB1079B002B08DDA342A8BF48
:404500002346079AC3EB0808E41AD31A0793002F1DDD0A9BABB18DB131462A46504600F071FB049A01460646504600F0DAFA04990890504600F02DFA089B04937A1B06D0DB
:4045400000E03A460499504600F05CFB04900121504600F0BDFA0B9B05465BB31A460146504600F04FFB1E9B0546012B18DC029B83B9039BC3F3130373B9039B23F000476D
:404580003F0D3F054FB1079B08F1010801330793012702E0002700E0029F0B9B73B100E000272B6905EB8303186900F044FAC0F1200004E01E9B012BD9DD0B9F0120079B00
:4045C000184410F01F0008D0C0F12003042B02DDC0F11C0002E006D018461C30079B8044034404440793B8F1000F05DD42460499504600F055FB0490079B002B05DD294681
:404600001A46504600F04CFB0546109B23B32946049800F096FB00281EDA00230A220499504600F0CDF90A9B0BF1FF3B0490002B00F05F81314600230A22504600F0C0F92E
:40464000B9F1000F06463FDC3BE000BF385200000000144000002440059B002B2BDC1E9B022B28DDDDF81490B9F1000F11D129464B460522504600F0A3F9014605460498B6
:4046800000F05FFB00280CDC03E0354600E000252E461F9B069C6FEA030B09E03546DDF820B0069B069A5C1C312313700BF1010B05960026F7E00A9BDDF8149023B9069C31
:4046C000B2E01E9B022BCFDC002C05DD31462246504600F0E5FA06469FB17168504600F023F90446326906F10C01023292000C30FEF784FF01222146504600F0D1FA05905B
:4047000000E00596029B069F03F00103079329460498FFF7D9FA3146044600F13008049800F00FFB059A02902946504600F025FBC36802463BB901460A90049800F001FBC1
:404740000A9A034600E00123114650460A9300F020F90A9B53B91E9A42B9079A32B9B8F1390F2AD0029B002B1CDC1DE0029A002A04DB1BD11E9ACAB9079ABAB9002B13DD22
:4047800001220499504600F08BFA2946049000F0D8FA002803DC07D118F0010F04D0B8F1390F0AD004F131087C1C0CE0002B07F101040BDDB8F1390F03D139233B7001370D
:4047C00056E008F1010887F800806CE0069B2746E31A4B4504F8018C3BD000230A220499504600F0EDF8059B04909E424FF00A024FF000033146504604D100F0E1F8064618
:40480000059084E700F0DCF8002306460A220599504600F0D5F8059079E700230A220499504600F0CDF8049029460498FFF74CFA069B00F1300804F8018BE31A4B45ECDB7B
:40484000069B0596B9F1010FACBF4B4401331F46002601220499504600F022FA2946049000F06FFA002803DC15D118F0010F12D03C4614F8013C621E392B09D1069B9342E5
:4048800004D10BF1010B3123069A02E01446F0E70133137007E03C4614F8013C621E302B01D11446F8E72946504600F072F8059B6BB12EB19E4203D03146504600F069F8BA
:4048C0000599504600F065F801E0DDF820B00499504600F05EF80023209A23700BF101031360229B1BB11C6001E008480AE0069808E0B9F1000F3FF7E2AE1E9B022B7FF7D4
:40490000DEAEB1E615B0BDE8F08F00BF20520000004870475481FF1F024B0146186800F0E7BA00BF5081FF1F70B5456A04460E463DB91020FFF7F0FF6062456085600560C7
:40494000C560656AEB6843B1636ADB6853F8260078B1026843F8262017E021220421204600F0B8FA636AE860DB68002BECD1002070BD012101FA06F56A1D9200204600F0EC
:40498000A9FA0028F3D04660856000230361C36070BD70B5446A06460D463CB91020FFF7BBFF7062446084600460C4603DB1736A6A68DB6853F82210296043F8225070BD1E
:4049C0002DE9F04106460C460D691F4601F1140E0023DEF80000013381B202FB0171000C0F0C02FB007089B201EB00419D424FEA10474EF8041BECDCD7B1A3689D4212DB1D
:404A0000616830460131FFF78FFF8046226904F10C01023292000C30FEF7F0FD21463046FFF7B7FF444604EB850301355F6125612046BDE8F081030C1B0413B90004102397
:404A400000E0002310F07F4F04BF0002083310F0704F04BF0001043310F0404F04BF80000233002803DB420003D5581C70471846704720207047036813F007020BD0D9071B
:404A800022D49A074BBF5B089B08036003604CBF01200220704799B209B91B0C102213F0FF0F04BF1B0A0832190704BF1B090432990704BF9B080232D90702D45B0805D086
:404AC0000132036010467047002070472020704710B50C460121FFF727FF01224461026110BD2DE9F74F14460A69236988469A42BEBF0B46A0461C46D8F81070D4F81090C7
:404B0000D8F80830D8F8041007EB09069E42C8BF0131FFF709FF00F114052B4605EB860C0022634502D243F8042BFAE704F1140208F1140102EB890301EB87070093009BD1
:404B40000192934257D9B2F800B0BBF1000F23D08946AE464FF0000859F8044BBEF800A0A3B20BFB03A34FEA144ADEF8004043444FEA14480BFB0A84F24604EB13449BB26C
:404B800043EA04434F454FEA14484AF8043B01D9D646E1E7CEF80480019B0432B3F802A0BAF1000F21D02C4689462B684FF00008B9F800E0B4F802B09BB20AFB0EBEA346F4
:404BC000F04443EA08434BF8043B59F8043BB4F804E01B0C0AFB03E34F4503EB18434FEA134801D95C46E3E763600435A7E75CF8043D13B9013E002EF9DC066103B0BDE8B2
:404C0000F08F00002DE9F843154612F0030206460F4607D0214C013A002354F82220FFF7CFFE0746AD1036D0746A3CB91020FFF773FE7062446084600460C460D6F82480E0
:404C4000D8F808404CB940F271213046FFF740FF04460023C8F8080003604FF00008EB070AD5394622463046FFF73BFF814639463046FFF78EFE4F466D100CD0206808B1FE
:404C80000446ECE7224621463046FFF72AFF2060C0F80080F4E73846BDE8F883005300002DE9F0470C460746914626694FEA621A56444968A368751CAB4202DA01315B00AB
:404CC000FAE73846FFF730FE002380461A4600F11401534503DA41F823200133F9E72AEAEA73206901EB830319F01F0904F1140101EB800E14D0C9F1200C002208689A4680
:404D000000FA09F0024343F8042B51F8042B8E4522FA0CF2F2D8CAF8042042B1B51C06E0043B51F8042B8E4543F8042FF9D8013D3846C8F810502146FFF72BFE4046BDE8BC
:404D4000F08703690A6910B59B1A11D192001430143183180A4453F8044D52F8041D8C4202D007D3012010BD9842F4D3002010BD184610BD4FF0FF3010BD2DE9F8430C4677
:404D80000746114620461546FFF7DBFF061E08D131463846FFF7C8FD012303614661BDE8F883BCBF23462C4638466168BABF1D4601260026FFF7B8FD2B69C660266905F112
:404DC000140904F1140101EB860709EB830800F114054FF0000C51F8042B59F8044B93B29C44A3B2240CC3EB0C03C4EB124202EB23429BB24FEA224CC84543EA02428E4625
:404E000045F8042BE7D8BE450ED25EF8041B8AB26244131403EB114392B242EA03424FEA234C45F8042BEEE755F8043D0BB9013EFAE70661BDE8F8832DE9F3411C4601213F
:404E40009046089E099DFFF76FFDC4F31302C4F30A5407460CB142F480120192B8F1000F19D002A840F8088DFFF705FE009B48B1019AC0F1200102FA01F10B43C2407B613C
:404E8000019200E07B61019B002B14BF02210121BB61396107E001A8FFF7EDFD019B01217B613961203034B1A4F2334404443460C0F1350009E0A0F2324007EB8103306073
:404EC0001869FFF7B8FDC0EB41102860384602B0BDE8F08138B502FB01F4214600F008F8054618B122460021FEF793FB284638BD70B5CD1C25F0030508350C2D38BF0C253A
:404F0000002D064601DBA94202D90C23336046E000F05CF8234B1C681A462146A1B10B685B1B0ED40B2B03D90B60CC18CD501EE08C420BBF63684B681360636018BF0C4663
:404F400015E00C464968E9E7174C23681BB9304600F02CF820602946304600F027F8431C18D0C41C24F00304A0420DD12560304600F02DF804F10B00231D20F00700C31A63
:404F80000ED05A42E25070BD211A304600F00EF80130EBD10C233360304600F018F8002070BD00BFDC81FF1FD881FF1F38B5064C0023054608462360FBF782FA431C02D130
:404FC000236803B12B6038BD6883FF1F704770474FEA410C7FEA6C5C02D150EA013C0AD14FEA430C7FEA6C5C02D152EA033C02D14FF0000070474FF0010070474FEA41025C
:4050000012F5001215D211D56FF47873B3EB625212D94FEAC12343F0004343EA505311F0004F23FA02F018BF404270474FF00000704750EA013005D111F0004008BF6FF08F
:40504000004070474FF00000704700BF0000000049274D20484552452042495443480A00035B00402443004040000000C84900401900004F00400C00405100403000000064
:405080000140001000140140000800400140000A004C01400002005001402000303132333435363738394142434445460000000028000000000104000100000000000000A7
:4050C00000014359555342000000303030303100000000000000000012034D005300460054003100300030000100000001000000F450000001000000FC51000000000000C4
:4051000000000000010000000C51000001000000DC51000002000000305100000000000000000000000000002C510000FF000000000081024000FF00000002024000FF00DF
:4051400002030000040309042C0343007900700072006500730073002000530065006D00690063006F006E0064007500630074006F0072004A03470065006E006500720041
:405180006900630020005500530042002000420075006C006B0020005700720061007000610072006F0075006E00640020005400720061006E0073006600650072001203AE
:4051C0007500730062005F006500630068006F000A036D00610069006E0000000902200001010480190904000002FF000004070581024000000705020240000012010002A5
:40520000FF000008B40480000000010380014300494E4600696E66004E414E006E616E003000496E66696E697479004E614E00504F534958002E0000000000000000F03FCC
:40524000000000000000244000000000000059400000000000408F40000000000088C34000000000006AF8400000000080842E4100000000D01263410000000084D79741C9
:405280000000000065CDCD41000000205FA00242000000E876483742000000A2941A6D42000040E59C30A2420000901EC4BCD64200003426F56B0C430080E03779C34143B2
:4052C00000A0D8855734764300C84E676DC1AB43003D9160E458E143408CB5781DAF154450EFE2D6E41A4B4492D54D06CFF08044F64AE1C7022DB544B49DD9794378EA44CB
:4053000005000000190000007D000000000000000080E03779C34143176E05B5B5B89346F5F93FE9034F384D321D30F94877825A3CBF737FDD4F1575F8B500BFF8BC08BC6F
:405340009E4670474D0000003D050000F8B500BFF8BC08BC9E4670472900000070530000C880FF1FC8000000E00100000000000000000000010000007083FF1F7F80000078
:40538000030000000000E02EC05D00001800000000366E0101FFFFFF00000000000000000000000000000000000000000000000000000000000000000E52000000000000A4
:4053C0000000000000000000000000000000000000000000000000000000000000000000000000000000000000000000000000000000000000000000F080FF1F3552000098
:40540000365200003652000036520000365200003652000036520000365200003652000036520000FFFFFFFFFFFFFFFFFFFFFFFFFFFF0000000000000000000000000000B2
:40544000000000000000000000000000000000000000000000000000000000000000000000000000000000000000000000000000000000000000000000000000000000002C
:4054800000000000000000000000000000000000000000000000000000000000000000000000000000000000000000000000000000000000000000000000000000000000EC
:4054C00000000000000000000000000000000000000000000000000000000000000000000000000000000000000000000000000000000000000000000000000000000000AC
:40550000000000000000000000000000000000000000000000000000000000000000000000000000000000000000000000000000000000000000000000000000000000006B
:020000040003F7
:0200000480007A
:4000000001450040024F00400552004004640040016500403F0001401D010140490201402B0301404F040140260501403706014029070140010D0140010F01405A140140AC
:400040003B150140371601403117014001190140041A0140081B014008400140134101400A42014009430140044401400345014005460140064701400A4801401A4901401F
:40008000094C01400A4D014005500140035101407E0201100A3600350113600264037C40810D820D850D860F866F4010410249FF4AFF4BFF4DA04F0450185A045D095F01D5
:4000C000604062C06440654066C068C06AC06CC06EC08206830399029E04A602AE01B204B301B402B601B702BE10C010C102C5D0C620C710C82AC9FFCAFFCBFFCDAFCE0F98
:40010000CF04D018D280D405D804D904DA04DB04DC99DD99DF01E040E2C0E440E540E6C0E8C0EAC0ECC0EEC004010F02162017401C011D801E282640272037203F02400112
:40014000412045A04F015520562057015E885F017740C010C280C4A0CC20CE80D03CD6D0E64002040E04130415021B041E0123032A022E03300131023304340235013604D9
:400180003E503F044010410649FF4AFF4BFF4DA04F0450185405580459045A045B045C995D995F01604062C06440654066C068C06AC06CC06EC08301B701C010C106C5D0F5
:4001C000C601C702C816C9FFCAFFCBFFCDAFCE0FCF04D018D280D904DA04DB04DC90DD99DF01E040E2C0E440E540E6C0E8C0EAC0ECC0EEC0050107010C80158016041D01B0
:400200001E09200121C0244027282C803610370938024001458049024A084E085080520C5C405D025E086D106F22700186018B208F02A210C090C280C4C0CA80CCE0CE011F
:40024000D018D224D6D0E280E6420301040F08050A0A0C0A0E051003120C14071C0C1E033301340F360F4030410249FF4AFF4BFF4DA04F0450185280580459045A045B0440
:400280005C995D995F01604062C06440654066C068C06AC06CC06EC087018A039601A901AA06B002B101B204B401BE10C030C102C5D0C620C701C81AC9FFCAFFCBFFCDAFC4
:4002C000CE0FCF04D018D405D804D904DA04DB04DC99DD99DF01E040E2C0E440E540E6C0E8C0EAC0ECC0EEC0006404100A920F20160818041A011D021E081F082010210892
:4003000027802F0838023E084010412045284F015520560857105E085F816F0170019F01AD10B320C047C22DC440CA20CE41D066D6D0EE2004010801130115011B011E0110
:40034000310132013E043F01540F5604580459045B045D905F0180188120820483C084168516860887088A1E8D188E018F029010911892029304940E9550972299209B406B
:400380009C189E029F1EA120A341A90EB01EB11EB360B580B601B701BB08D804D904DC99DF01002401020302051408080A920E02184019021B401E202020210822112301DE
:4003C00027802B48310832513514360138443B015C085E215F80678087409004920194409692A410A902C06FC28DCA05CCEFCE0BD6F0D880E602E64000AC010202400304F8
:4004000004CA062008670E300F0110C01440168019021B0C1CEC1D041F02200124012502271428102E1030E03108320E3301341035103601370638883B803E50402141063C
:4004400049FF4AFF4BFF4DA04F0150185280580459045A045B045C995D995F016040628064406540668068406A806C406D206E80AA01B401C065C102C52CC630C74EC83BB8
:40048000C9FFCAFFCBFFCDAFCE07CF01D018D804DA04DC09DD09DF01E040E280E440E540E680E840EA80EC40ED20EE8000440240030809080A8210A21208172018411A1C49
:4004C0001B481F20218122582B20318032103840390240014204471049104C804D014E044F845420560A7002832089018B109004920295019690971499109A409B109E0A64
:40050000A108A420A580A708C00FC20DC44FCA02CC0CCE09D02CD234E008E401E602EA05EC1004010E0918021A04200227012C043001310132083404360238803E11540F67
:40054000580459045B045C995D905F05801085FD8607870288078C018D9E8E028F60900191CF920293309404953097C99B0F9D949E049F60A230A608A807A973B020B40FD0
:40058000B5FFB610BE40BF10D804D904DC09DF010040010203280504060209080A820C20110112241501178019121A011B201D041E4A222027802B082C2031983201331088
:4005C00038443A445E495F10660867047F089044920296909D14A108A601A708AB02C0AFC24DC49ECA44CC0FCE0AD6F0D860DE20E602E602B828BE14D804DF011C081F087A
:4006000087088804E008E401EA05EC1032803302360837203B408E08CCF0CE10512052025402578064016708852087408B048C0297409F20A680A702D4E0D6A0D880E21098
:40064000E64012803E109F20A682A702AF80B001C410CE20EE101320870296109F20A702AA02C440E210EA807C028D04DE01E60285019C02A504450895029C02A504D001CF
:4006800009040D0195029C02A50CC20C2510674084049610A504A904C820D880E640E820070409041220164074047B0282208304864087409740A004A302A504AA10AB0222
:4006C000B510C080C210C430DC80DE20E090E480E640EAA0132814107B107F4084109C02A508C40EDE0383108740880297809C02A710AB28B508E004EC08010109010B0146
:4007000011011B0100BA010203C00000003F3F003F0000000300000003000300000000004000000000000000C0000000000B0B0000000000007F7F00000000001C00000015
:4007400000008000BB001801000000000000000000000000000000000000000000000000000000000000000000000000000000000000000000000000000000000000000025
:400780000000000000000000000000000000000000000000000000000000000000000000000000000000000000000000000000000000000000000000000000000000000039
:4007C00000000000000000000000000000000000000000000000000000000000000000000000000000000000000000000000000000000000000000000000000000000000F9
:4008000000000000000000000000000000000000000000000000000000000000000000000000000000000000000000000000000000000000000000000000000000000000B8
:400840000000000000000000000000000000000000000000000000000000000000000000000000000000000000000000000000000000000000000000000000000000000078
:0200000490006A
:0400000000004005B7
:0200000490105A
:04000000BC90ACAF55
:0200000490303A
:02000000EAF61E
:0200000490402A
:4000000000000000000000000000000000000000000000000000000000000000000000000000000000000000000000000000000000000000000000000000000000000000C0
:400040000000000000000000000000000000000000000000000000000000000000000000000000000000000000000000000000000000000000000000000000000000000080
:400080000000000000000000000000000000000000000000000000000000000000000000000000000000000000000000000000000000000000000000000000000000000040
:4000C0000000000000000000000000000000000000000000000000000000000000000000000000000000000000000000000000000000000000000000000000000000000000
:0200000490501A
:0C00000000012E16106900012E37FB5F76
:00000001FF