:4000000000800020110000006D0400006D04000008B5044B1A6803F53F5302331A6000F045FA00BFFA46004010B5054C237833B9044B13B10448AFF300800123237010BD56
:400040008089FF1F0000000050760000084B10B51BB108490848AFF300800848036803B910BD074B002BFBD0BDE81040184700BF000000008489FF1F50760000C880FF1FF6
:40008000000000000122014B1A707047CC80FF1F08B5334B1878012100F02AFF00F0AAFD00F0EEFB00F070FB00F018FE02F0B6F92C4800F039FD072000F022FD62B600F0D6
:4000C000A1FB294B186002F0BDF9002002F0CAF902F0C0F902F0DEF9244B1860B0F5004002D500F5FF407F30C01302F0FFFE204B18604FF4006000F09FFD1E4B1B78012B05
:40010000DDD11D4C194B1A681C49204603F034F8154B1A681A4882FB00011144D317C3EBE123C3EB033304F11005D21A1549284603F022F8012000F0DBFA0021084600F02D
:4001400031FB204600F0C6FA0021012000F02AFB284600F0BFFA0022064B1A70AFE700BF658AFF1F850000005C8AFF1F608AFF1F188AFF1FCC80FF1FF889FF1F6076000040
:400180008100088068760000FEE700BFF0B40022174611E050F82760F3B226F0FF0608E001EB420511F812406D78A5550132013BDBB2002BF4D10137232FEBD9F0BC70471F
:4001C0000B4B1B78DBB203F007010A4A11701B09013213702023A2F23272137002F6C3121370583213704422034B1A70704700BFCF0100496E5800407658004008B50A4696
:40020000002102F06BFF08BD08B502F0F1FE08BD38B500242F4B1C80502202331A7045F6BF5202331A80182202331A7004222A492A48FFF7E9FF0622294B1A705222A3F592
:4002400080731A70274B1B78DBB2274A13704FF4E162264B1A8041F25122023B1A8019250CE0234B1B7803F0010343EA440404F003044FF4F07002F06FFA013D0DB1032CB2
:40028000EFD115B90320FFF77FFF1A4A4FF48073138007231370002317490B704820023108701370053213700222144B1A7004220A331A70124A137843F003031370013A19
:4002C000137843F001031370013A137843F08003137038BD804000405807004800410040004300400F010049A14600402242004025420040044000400640004001400040C4
:40030000A2430040012807D8044B53F820201844017A13780B431370704700BF74760000012808D8044B53F820201844017A137823EA0103137070477476000038B572B694
:40034000344A137843F00403137000240BE0324863001A19510001440A46098AD068FFF74DFF0134E4B2072CF1D92C494FF09040FFF70CFF0A252A4B1D702A4A03F53D433B
:40038000D5331A60284A137843F0020313701032137843F002031370244C237843F040032370A2F58632513A137843F01003137008221F491F48FFF727FF2A461E491F48E6
:4003C000FFF722FF2A461E491E48FFF71DFF08221D491E48FFF718FF08221D491D48FFF713FF08221C491D48FFF70EFF1C4A137843F0080313701B4D61232B70FFF708FF6A
:4004000081232B70FFF7DCFE0E2221461648FFF7FBFE38BDE84600407476000090000048835800400404004403500140A0430040200700480251004028070048C0510040BC
:4004400034070048F05100404007004812510040480700482251004050070048325100402243004000480040B043004008B502F091FD03680C2B00D1FEE7FEE708B5094BAF
:400480001A681044084BC31A802B02DC054B186005E002F07FFD0C2303604FF0FF32104608BD00BFD080FF1F488BFF1F08B5104E104D16E029686B68AC68002204E051F822
:4004C000040B43F8040B0432A242F8D1E868002203E0002143F8041B04328242F9D11035013E002EE6D102F05BFDFFF7D1FDFEE701000000BC79000008B5104A104B1A60AE
:40050000104A136843F40073136000230AE0032B03D80D4A52F8231000E00C490C4A42F8231001332F2BF2D90A4B1A780A4B1A70074A0A4B1A60FFF701FF08BD0004FA05EA
:400540000CED00E014ED00E0000000006D0400000080FF1FBC760040C080FF1F08ED00E010B50B4C237803F09F032370237803F0F00323702378184340F010002070012033
:4005800000F04AFA237803F0EF03237010BD00BF2051004038B505460E4C237843F020032370237803F0BF032370002000F034FA237803F0F003237023781D4345F0100527
:4005C0002570012000F028FA237803F0EF03237038BD00BF2051004070B5354B1A7802F08002D2B21A7033490A7802F0F00242F00F020A7001310A7802F0F0020A7001311F
:400600000A7802F0F0020A701A7802F0DF021A701A7842F040021A704FF4CA76002000F0FBF9234D2B7843F010032B70012000F0F3F9214B1C78E4B22B7803F0EF032B702A
:40064000002000F0E9F904F00804E4B22B7843F010032B70012000F0DFF92B7803F0EF032B7014B90A2000F0D7F9013E0CB1002ED4D10F4A137803F0BF031370137803F042
:400680008003DBB213700232137803F0F00313700132137803F0F00343F00F0313700132137803F0F00343F00F03137070BD00BF20510040225100402151004010B5044696
:4006C000FFF78AFF2009FFF765FF04F00F00FFF761FF10BD38B505460078012404E0FFF7EDFF285D0134E4B20028F8D138BD00BF10B50446FFF770FF2009FFF731FF04F08B
:400700000F00FFF72DFF10BD08B5282000F06EF90320FFF725FF052000F068F90320FFF71FFF0F2000F062F90320FFF719FF012000F05CF90220FFF713FF052000F056F9D6
:400740000620FFF7D5FF0E20FFF7D2FF2C20FFF7CFFF0820FFF7CCFF0120FFF7C9FF0C20FFF7C6FF0320FFF7C3FF052000F03EF908BD00BF08B50C20FFF7BAFF0122014B23
:400780001A7008BD9C89FF1F08B5054B5B7823B9FFF7BAFF0122024B5A70FFF7EBFF08BD9C89FF1F08B5032819D8DFE800F002070D1381F08000FFF79BFF08BDA1F1400049
:4007C000C0B2FFF795FF08BDA1F16C00C0B2FFF78FFF08BDA1F12C00C0B2FFF789FF08BD08B50222054B1A600549012000F01EF90721012000F02EF908BD00BF80E100E0C6
:40080000B508000010B50224064B1C6000F08CF8A0F5004000B2044B1B68044A1460184410BD00BF80E100E0A089FF1F00E100E0024B187800F00F00704700BF6664004027
:4008400040F00700014B1870704700BF8664004008B50F20FFF7F4FFFFF7EAFF01F084FF054A137843F01003137001F081FF0222024B1A6008BD00BF9664004000E100E027
:4008800008B500F0A3F84FF4004000F047F80022064B1A60064B1B7823B9FFF7A1FF0122034B1A70FFF7D4FF08BD00BFA089FF1F9E89FF1F0D4B1B78DBB213F0010F06D0C6
:4008C0000B490A6802F5FF427F320A6007E013F0020F04D006490A68A2F500420A6013F0040F02D00022024B1A60704766640040A089FF1F024A137843F08003137070476C
:4009000074650040014B1870704700BF86650040014B1878704700BF66650040014B1880704700BF086A0040024B1B78024B188880B2704704650040886A0040014B188843
:4009400080B27047886A0040014B1880704700BF486A0040014B1880704700BF686A004008B501E0FFF7EAFFFFF7D2FF10F0400FF8D108BD08B5134B1A7802F0F8021A7060
:400980001A7802F0FC021A70FFF7EAFF4FF40040FFF7DAFF4FF40040FFF7C0FF0020FFF7B1FFFFF7B5FF4FF40040FFF7D3FF01F0DBFE054A137843F01003137001F0D8FED3
:4009C00008BD00BF746500409665004008B5054B1B7823B9FFF7CEFF0122024B1A70FFF789FF08BDA489FF1F01BE704710B5044605E0084B186801F0AFFEA4F50044B4F5F7
:400A0000004FF6D8034B586800FB04F001F0A4FE10BD00BFD480FF1F08B5034B1B7A00FB03F001F099FE08BDD480FF1F70B504460E46074B1D681F2802D90020FFF7D4FF19
:400A400004F01F04103455F8240045F8246070BD08ED00E038B504460D46072902D90020FFF7C2FF1F2C02D90020FFF7BDFF04F01F0000F1604000F564406D01EDB20570C4
:400A800038BD00BF134B1B78DBB20360124A127843EA02230360114A127843EA024303600F4A127843EA026303600E4B1B78DBB243600D4A127843EA022343600B4A1278A3
:400AC00043EA024343600A4A127843EA02634360704700BF0301004904010049EC4600400201004901010049000100490501004906010049014B1B681864704708ED00E0F4
:400B00004001C0B2014B1870704700BF00E400E00122014B1A60704700E100E00122014B1A60704780E100E010B50446FFF7F6FF2046FFF7DFFF0720FFF7E2FFFFF7E8FFA3
:400B400010BD00BF084A137843F0010313701032137843F00103137002F64D32137843F001031370704700BFA3430040014B1870704700BF034F0040014B1880704700BF3D
:400B8000044F0040014B1880704700BF064F004008B5154A137803F0010313700232137803F0FC031370114B1A7802F0CF021A701A7842F030021A701A7802F0F0021A70A3
:400BC0001A7842F00F021A70094A137843F0010313706320FFF7D0FF6320FFF7D3FF0820FFF7C4FF08BD00BF004F00400B4F0040014F004008B5054B1B7823B9FFF7C8FF14
:400C00000122024B1A70FFF79DFF08BDA589FF1F024A137843F080031370704774640040014B1880704700BF08680040014B1880704700BF88680040014B1880704700BF4A
:400C400048680040014B1870704700BF85640040014B1878704700BF65640040014B188880B27047A868004008B501E0FFF7F6FFFFF7EEFF10F0100FF8D108BD10B5154A54
:400C8000137803F0C00343F0090313702032137843F001031370104C237843F0010323704FF48050FFF7BCFF4FF48050FFF7BEFF40F21A20FFF7C0FF0020FFF7C3FF01F065
:400CC00053FD237843F01003237001F051FDFFF7CBFF10BD746400409564004008B5054B1B7823B9FFF7CAFF0122024B1A70FFF78FFF08BDA689FF1FF8B501F035FD06462C
:400D0000404A137843F0010313701032137843F00103137001273C4B1F700225943B1D7002F5E2521B32137803F07F0313700020FFF772FE354C237803F0F9032370344AFF
:400D4000137803F0DF03137023783B4323703846FFF762FE2820FFF75FFE2E4B1A7802F07F021A701A7802F0BF021A7023782B4323702846FFF750FE237843F004032370E8
:400D80000023254A137001321370304601F0F0FC07211720FFF75EFE20491720FFF746FE07211820FFF756FE1D491820FFF73EFE07211520FFF74EFE1A491520FFF736FEAF
:400DC00007212846FFF746FE17492846FFF72EFE07210320FFF73EFE14490320FFF726FE07210420FFF736FE11490420FFF71EFE07210C20FFF72EFE0E490C20FFF716FE13
:400E0000F8BD00BFA54300409D6000409443004012600040F851004084600040791400006112000075140000D513000005140000391400008114000008B5214B1870002323
:400E4000204A1370204A1370204A1370204A1370204A1370204A1370204A1370204B4FF400021A604FF080721A604FF400121A6004221A6008221A6010221A6011B1012977
:400E800006D00BE0174A137803F0FE0313700AE0144A137843F00103137004E0114A137843F00103137003220F4B1A708022203B1A70012001F050FC04220C4B1A7008BD43
:400EC000658AFF1F688AFF1F848AFF1F878AFF1F7C8AFF1F868AFF1F898AFF1F648AFF1F00E100E009600040286000401260004038B504460D46064B1B7823B9FFF7FCFECD
:400F00000122034B1A7029462046FFF795FF38BDA789FF1F00230A4A13700A4A13700A4A13700A4A13700A4A13700A4A13700A4A13700322094B1A708022203B1A707047CF
:400F4000688AFF1F848AFF1F878AFF1F7C8AFF1F868AFF1F898AFF1F648AFF1F286000401D4B19781D4A13889BB20B449BB2138000220FE01A494B681B78DBB219488354B9
:400F80004B6801334B600132D2B20B889BB2013B9BB20B80124B1B889BB20BB1072AE9D90D4B1B78DBB2082B00D05AB10E490B7883F080030B700F210C4B197002210C4B9D
:400FC000197004E0022309490B7009490B70094B1A70014B1A707047648AFF1F668AFF1F708AFF1F00600040FA8AFF1F858AFF1F688AFF1F888AFF1F0222074B1A708022D7
:40100000064B1A700F22064B1A700023054A1370054A137001207047688AFF1FFA8AFF1F858AFF1F648AFF1F888AFF1F08B5FFF797FF08BD10B4194B197801F00F0102390C
:40104000C9B2174A13889BB20B449BB21380002011E0144A5468144B1B5CDBB223705368013353600130C0B20139C9B213889BB2013B9BB213800B4B1B889BB20BB1002933
:40108000E7D10A4B19700A4A137883F0800313700B22084B1A7010BC704700BF29600040668AFF1F708AFF1F00600040888AFF1FFA8AFF1F858AFF1F0623064A1370064A1C
:4010C00013708022054B1A700022054B1A700120704700BF688AFF1F858AFF1FFA8AFF1F888AFF1F064B9B6843B1054B9A6810709A6804490988518000229A60704700BFF2
:40110000708AFF1F668AFF1F08B5134B1A78D2B21A701B78DBB213F0800F02D00F4A137008BD0220FFF7DEFF0D4B1B7803F06003202B05D0402B06D043B900F093FC06E0B1
:4011400001F0AAFB03E000F037FE00E0002010B90322024B1A7008BD28600040858AFF1F0060004008B5094B1978094A13889BB20B449BB213800022064B1A700120FFF792
:40118000B1FF0322044B1A7008BD00BF648AFF1F668AFF1F688AFF1F858AFF1F08B50B4B1B78DBB2042B06D0062B07D0022B0BD1FFF7D8FF08BDFFF73DFF08BD0320FFF7BB
:4011C00091FF0322024B1A7008BD00BF688AFF1F858AFF1F08B50022044B1A700120FFF781FF0322024B1A7008BD00BF688AFF1F858AFF1F08B50B4B1B7813F0FF0F07D008
:40120000084A137843F0800307490B70002313700022064B1A700120FFF764FF0322044B1A7008BD868AFF1F08600040688AFF1F858AFF1F08B5094B1B78DBB2042B06D027
:40124000062B07D0022B07D1FFF7F0FE08BDFFF7C1FF08BDFFF7CEFF08BD00BF688AFF1F08B5284B1B78DBB213F0100F48D013F0800F0CD003F00F03012B16D1FFF744FF9D
:40128000214B1B7813F0800F11D1012312E013F0400F03D0FFF7CEFF01230BE013F0200F07D0FFF77BFF012304E0002302E0002300E0002323B3134B1B7813F0800F1FD1B9
:4012C000124B1B78124A12781343124A13701278D2B2934214D10C4B1B78DBB2094A127812F0800F07D1084B1B78DBB2054A1370137803F00F03044A1278D2B29342EAD19D
:4013000008BD00BF28600040858AFF1FFA8AFF1F888AFF1F296000400022064B1A80064B9B682BB1044A916800230B7092685380704700BF668AFF1F708AFF1F08B50F4BF7
:401340001B889BB213B9FFF757FE15E002220C4B1A7000220B4B1A70FFF7DEFF0A4AD179937943EA0123054A128892B2934201D2024A1380FFF7F4FD012008BD708AFF1F03
:40138000688AFF1FFA8AFF1F0060004008B504220B4B1A7080220B4B1A70FFF7BDFF0A4AD179937943EA0123084A128892B2934201D2064A13800B22054B1A70012008BD41
:4013C000688AFF1FFA8AFF1F00600040708AFF1F858AFF1F0122094B1A700F3B9B7C084B1B7B03F00303934204D0054AD37B83F08003D3730122024B5A7370470B600040F1
:401400008C8AFF1F02220A4B1A700F3B93F82230084B1B7E03F00303012B04D0054AD37E83F08003D3760122024B5A76704700BF0B6000408C8AFF1F04220C4B1A700F3BA4
:4014400093F832300A4B93F8243003F00303012B06D0074A92F8273083F0800382F827300122034B83F82520704700BF0B6000408C8AFF1F704700BF08B5FFF74BFD08BD9B
:4014800008B500F0A5FC08BD70B588B0054603AC174E0FCE0FC43368237035B322232B7003236B7001A8FFF7EDFA002402231AE008AA224412F81C2C08A901EB121111F8BA
:4014C000141CE954581C00212954981C02F00F0208AE324412F8142C2A54DA1CA9540134E4B20433DBB2212BE2D908B070BD00BFB076000010B401233EE019461A010C24BF
:401500002148845403EB4300820020480244527912F0FF0F13D003EB430082001B480244127912F0800F04D01801194A024494700AE01801164A02440820907004E018016B
:40154000134A0244802090704800084482000F480244D488E4B208010B4901448C71D088C0F30720C871D088C0B20871D288C2F307224A710133DBB2082BBED9FF22054B47
:401580001A7010BC704700BF706000408C8AFF1FFC5F00400A600040074B1A78074B03EBC2035B681A7C824204D9C000103018444068704700207047658AFF1FC47600001A
:4015C000F8B5404B1B7813F0FF0F79D03D4B18780138C0B2FFF7E0FF047AC2683A4B1878C0B200236AE01178884264D13749095CC9B25578A9425ED1917801F07F01D678FB
:4016000006F00306DFF8C8E04D000D44AF000EEB07054FF0000C85F803C092F802C085F804C092F803C00EF807C097882F8192F90250002D0DDA012E01D1072700E00D27A5
:401640004E000E44B500224E35446F7101266E700CE0012E01D1052700E009274E000E44B5001B4E35446F7100266E70DFF868E00F010EEB07060125B57001FA05F5294421
:401680008D00134929440D89C5F307250EF807500D89EDB27570CE88F6B20E4D3D44AE71CE88C6F30726EE71CE88F6B22E71C988C1F30721697108320133DBB2A34292D366
:4016C000F8BD00BF878AFF1F7C8AFF1FF88AFF1F8C8AFF1F70600040FC5F0040034B1A78034B03EBC2035868704700BF658AFF1FC476000008B5084B18780138C0B2FFF705
:401700004BFF30B142681279023200EBC203586808BD002008BD00BF878AFF1F2DE9F047002310E0724D5900CA189600AC190022AA55A270E2702281A272627034462C4460
:4017400062710133DBB2082BECD940B90AE000226849CA546849CA540133DBB200E00023012BF4D9654B1B7813F0FF0F00F0BD80624B18780138C0B2FFF70EFF80464368A0
:40178000DB7913F0400F05D05D4A137843F00103137004E05A4A137803F0FE03137098F808704FF0000A01266FE0D8F80C50002467E0AB7803F07F039E425FD1314606EBCA
:4017C000460083004A4803441B899BB2A888834206D206EB460E4FEA8E03454A134418812B784448C35CDBB26878834246D195F802C0DFF8FCE04B000B4498000EEB000334
:4018000083F804C0EB780EF80030EB7803F0030395F90200002813DA012B02D14FF0070901E04FF00D09DFF8C8E04B0003EB010C4FEA8C00704480F805900121417012E03B
:40184000012B02D14FF0050901E04FF00909DFF8A0E04B0003EB010C4FEA8C00704480F8059000214170AB790A2B01D0022B05D152463146284600F0E7FF8246083501343B
:40188000E4B2BC4295D30136F6B2082E8DD9D8F80C0000220CE0837803F07F0310F8084B03EB43039900124B19448C720132D2B2BA42F0D3FFF71EFF124B186000230121D4
:4018C0000FE00B4D4A00501884002C44E380228992B213449BB203F0010213449BB20131C9B20829EDD9FFF705FEBDE8F08700BF8C8AFF1FF88AFF1F6C8AFF1F878AFF1FDC
:40190000898AFF1F808AFF1F08B5154B1B7903F07F035A1ED2B2072A20D8590019448A0010490A44917841F0010191700021D170517841F002015170127912F0800F05D0CE
:401940001B01094A1A448D23937004E01B01064A1A4489239370FFF7AFFB08BD002008BD006000408C8AFF1FFC5F0040274B1B7903F07F035A1ED2B2072A44D810B55900EF
:4019800019448A0022490A44917801F0FE0191700021D1701F4C1801215C01F07F012154517801F0FD015170127912F0800F13D003EB43018A0016490A445278D2B2012AEA
:4019C00004D1224602440C23937019E01B01114A1A440D23937013E003EB43018A000C490A445278D2B2012A05D11B01094A1A440823937004E01B01064A1A4409239370B8
:401A0000FFF75AFB10BD0020704700BF006000408C8AFF1FFC5F004010B50E4B1C79E4B20D4B18780138C0B2FFF7B6FD43681B799C4201D9022C0AD8084A135DDBB208495D
:401A40000B55044B9B78DBB21355012010BD002010BD00BF00600040878AFF1FF88AFF1F6C8AFF1F10B59C4B1B78DBB200219B4A118013F0800F00F0AD80974A5278D2B251
:401A80000A2A00F27481DFE812F06900720172017201720172010B007201920072019A008D4BDB78DBB2012B09D1FFF717FE42688A4B5A6012221A80FFF740FC10BD864BDD
:401AC000DB78DBB2022B13D1834B9878FFF764FD002800F04E814268804B5A605A68D1785A68927842EA01221A80FFF727FC10BD794BDB78DBB2032B05D02CE00A7811447A
:401B00000133DBB201E000237549734A9278D2B2934203D20A7812F0FF0FEFD16E4B9B7813F0FF0F0BD06C4B9B78DBB26D4A127C934204D16C4C2046FFF7A6FC21460B783D
:401B400013F0FF0F00F017810B78644A13805160FFF7F4FB10BD00F09FFE10BD13F0030317D0022B40F009815C490B805A4B1B7903F07F0303EB43039A005C4B1A449278B9
:401B8000D2B25B4B1A7000225A704B60FFF7D6FB10BD524902230B80564B1A78D2B2544B1A7000225A704B60FFF7C8FB10BD4B4B01221A80504A5A60FFF7C0FB10BD474A48
:401BC00001231380444B1B794C490B445360FFF7B5FB10BD404A5278013A0A2A00F2CF80DFE812F04C00CD009800CD000B00CD00CD00CD001300CD003000374B9B78DBB212
:401C00003F4A1370FFF758FA10BD334B9B7803F0FF041BB1601EC0B2FFF7BEFC04B110B9002C40F0AE80344B1B78DBB29C4206D0314B1C700120334B1870FFF76FFDFFF7AE
:401C40003BFA10BDFFF7E8FE002800F09C80224A1379DBB21279D2B22B490A702B4AD25CD2B22649CB5CDBB29A4204D00122254B1A70FFF7A5FCFFF71FFA10BD03F003034D
:401C8000012B17D04BB1022B7FD1134B9B7813F0FF0F7CD1FFF76AFE10BD0F4B9B78DBB2012B76D1134A137803F0FD031370FFF703FA10BD084B1B79DBB2012B6BD8064BDF
:401CC00098781B79DBB21249CA5C22EA0002CA54FFF7F2F910BD00BF00600040708AFF1F2C770000107800001C8BFF1F8C8AFF1FA889FF1F898AFF1F878AFF1FF88AFF1F6E
:401D0000868AFF1F848AFF1F7C8AFF1F6C8AFF1FFC8AFF1F03F00303012B17D04BB1022B3BD1224B9B7813F0FF0F38D1FFF7ECFD10BD1E4B9B78DBB2012B32D11C4A1378BD
:401D400043F002031370FFF7B7F910BD174B1B79DBB2012B27D8154B98781B79DBB21549CA5C22EA0002CA54FFF7A6F910BD002010BD002010BD002010BD002010BD002010
:401D800010BD002010BD002010BD002010BD002010BD002010BD002010BD002010BD002010BD002010BD002010BD00BF00600040898AFF1FFC8AFF1F044B1B7813F0800F6C
:401DC00001D0024B5B780020704700BF00600040024B1878C0F38010704700BF8F45004038B59DF81040651EEDB2032D51D8013809282ED8DFE800F0052D2D052D2D0F19B8
:401E00002D230F2B03D92548007840B222E02448007840B21EE00F2B03D92248007840B218E02148007840B214E00F2B03D91F48007840B20EE01E48007840B20AE00F2B1D
:401E400003D91C48007840B204E01B48007840B200E0002001EB401101FB02F2D20B91B20D2B0BD8C3F10E0192B20A4191B2621E124800EB82020133937005E0631E0F4ACB
:401E800002EB83030F229A70013C0C4B23F8241038BD0020FEF7A8FD38BD00BF180100491C010049190100491D0100491A0100491E0100491B0100491F010049AC89FF1FAF
:401EC000F8B5074600F050FC06460D4D2B7843F003032B700B4C237843F0030323700A4B1F700320FEF798FD2B7803F0FC032B70237803F0FC032370304600F039FCF8BDA0
:401F0000F8460040F946004092580040F8B504460022C04B1A7401285BD13822BE4B1A70042202331A70062201331A70002501331D7001331D703F2201331A7002331D7033
:401F400001331D7001331D7001260A331E70502203F527631A700A23B04A13702C210132117001321570442103321170482101321170013216700232157001321570013277
:401F800013704322A64B1A705220FFF799FF5822A44B1A7001331D70052705331F70022201331A7001331D7001331D70284600F0BFFA43F233329C4B1A603146384600F0BC
:401FC000DBFA3146BA2000F05BFB98491D20FEF72DFD022C5DD138228F4B1A70042202331A70062201331A70002501331D7001331D703F2201331A7002331D7001331D700A
:4020000001331D7001260A331E70502203F527631A70272201331A702C2201331A7001331D70552203331A705A2201331A70052701331F7002331E70112201331A7019224C
:4020400001331A70972201331A704420FFF738FF5822744B1A7001331D7005331F70022201331A7001331D7001331D70284600F05FFA4FF47A426C4B1A603146384600F01F
:402080007BFA3146252000F0FBFA69491D20FEF7CDFC032C5DD138225F4B1A70042202331A70062201331A70002501331D7001331D703F2201331A7002331D7001331D705E
:4020C00001331D7001260A331E70502203F527631A70272201331A702C2201331A7001331D70552203331A705A2201331A70052701331F7002331E70112201331A7019228C
:4021000001331A70972201331A704420FFF7D8FE5822444B1A7001331D7005331F70022201331A7001331D7001331D70284600F0FFF94FF47A423C4B1A603146384600F080
:402140001BFA3146252000F09BFA3A491D20FEF76DFC042C5DD138222F4B1A70042202331A70062201331A70002401331C7001331C703F2201331A7002331C7001331C7020
:4021800001331C7001250A331D70502203F527631A70272201331A702C2201331A7001331C70552203331A705A2201331A70052601331E7002331D70112201331A701922D2
:4021C00001331A70972201331A704420FFF778FE5822144B1A7001331C7005331E70022201331A7001331C7001331C70204600F09FF94FF47A420C4B1A602946304600F0FC
:40220000BBF92946252000F03BFA0B491D20FEF70DFCF8BDAC89FF1F004E0040855800409158004094580040008BFF1F0125000005250000092500000D2500002DE9F041DA
:4022400082B0394D4FF0010885F80080374E00247474102000F07EF9102000F0FFF907211D20FEF7F7FB0427314B1F7001331C7007331C702F4A137843F0180313702E4BCB
:402280001C7003F2F5231C7001331C700A22A3F209331A7001331C7002331C705B2205331A705E2201331A7004331C701422A3F68C231A70CDF8008010234FF4004248F6AE
:4022C000F0510220FFF78CFD0223009310234FF4004249F2DA012046FFF782FD0323009310234FF4004249F2DA012046FFF778FD009710234FF4004249F2DA012046FFF782
:402300006FFD2B78013B06EB83039A780B4B1A702B78013B36F82320094B1A802878FFF7F5FD02B0BDE8F081E480FF1FAC89FF1F96580040075B0040935800400E4E0040EF
:402340000C4E004070B500F00FFA06462A4B1B782A4B1A7842F001021A701A7842F010021A7010331A7842F001021A701A7842F010021A70224D2B7843F002032B70214CE5
:40238000237843F0020323701F4A137843F0030313700320FEF740FB2B7803F0FD032B70237803F0FD032370184A137843F0060313707A22164B1A70164A137843F001030D
:4023C00013701032137843F0010313700F3A137843F0010313701032137843F0010313704FF000530C4A1360A2F5C0721360304600F0BEF970BD00BFE480FF1FAA4300406F
:40240000F8460040F9460040915800407758004082580040A143004080E200E008B5084B9B7C4BB9064BDB7C13F0FF0F01D1FFF705FF0122024B9A74FFF784FF08BD00BFBC
:40244000AC89FF1F024A137843F0010313707047004E0040024A137803F0FE0313707047004E0040094B1B7C13F0FF0F03D0074B5B7CDBB203E0064B1B7803F00103012B31
:4024800001D00028EED01846704700BFAC89FF1F014E0040154B1B7803F00303012B07D8134B1888023B1B889BB243EA004013E0022B0AD10E4B1888023B1B7843EA0043EC
:4024C0000C4A107843EA002006E00B4B188883B2074A108843EA0040084B1B7C13F0FF0F02D00022054B5A74704700BF144E0040124E0040114E0040104E0040AC89FF1FF5
:40250000704700BF704700BF704700BF704700BF10B5002404E02046FDF702FF0134E4B2012CF8D9FF22014B1A7010BDE580FF1F10B50446FFF7ECFF2046FDF7E3FE014B14
:402540001C7010BDE580FF1F014B188880B2704780400040034B1A7800F0F80010431870704700BF82400040024B187800F00700704700BF8240004070B505460E46FFF789
:40258000F3FF0446FFF7E0FFA84256D02B4B1B7803F0010294B900B185B938B9284B1D80284A137803F0BF03137070BD254A137843F040031370224B1D8070BD22B300233A
:4025C00021490B7001240F310C7004310B700C390B7803F07F030B701A4B1B7813F0080F00D08DB9194B18800721013B1970164B1B7813F0010FFAD110490B7803F0FE03FA
:402600000B700021104B19700C4B1B7813F0010F0DD00E4B1D800EB1032200E001220A4B1A70094B1B7813F0010FFAD170BD044B1D8002490B7813430B7070BDA2430040B5
:4026400080400040824000400140004002400040014B188880B2704700410040034B1A7800F0F80010431870704700BF02410040024B187800F00700704700BF0241004096
:4026800070B505460E46FFF7F3FF0446FFF7E0FFA84256D02B4B1B7803F0010294B900B185B938B9284B1D80284A137803F0BF03137070BD254A137843F040031370224B41
:4026C0001D8070BD22B3002321490B70012413310C7004390B7008390B7803F07F030B701A4B1B7813F0080F00D08DB9194B18800721013B1970164B1B7813F0010FFAD1FF
:4027000010490B7803F0FE030B700021104B19700C4B1B7813F0010F0DD00E4B1D800EB1032200E001220A4B1A70094B1B7813F0010FFAD170BD044B1D8002490B781343B1
:402740000B7070BDA1430040004100400241004001400040024000400230800803D000BF01380046FCD17047EFF3108072B6704780F31088704700BF10B4FF2400230EE06D
:40278000094AD25C02EB42029100084A11448A7AD2B2824201D11C4602230133DBB2012BEED9204610BC70470C8BFF1F8C8AFF1F10B5204C2079FFF7DFFF237813F0800F39
:4027C0000ED06378DBB2212B2FD11B4B07221A80C0EBC000194A10445860FEF7AFFD10BD144B5B78DBB2202B02D0222B10D01EE0114A07231380C0EBC00310490B445360EE
:402800000F4A135C43F001031354FEF7BFFD10BD084B9B780B4A22F81030094A135C43F002031354FEF748FC10BD002010BD002010BD00BF00600040708AFF1FE880FF1F61
:40284000048BFF1F188BFF1FC37803F0030390F9020000280FDA032B06D002F001030B48C15442F001020EE0C2F380030848C15442F0040207E0032B05D0C2F34003054891
:40288000C15442F002021046704700BF088BFF1F0C8BFF1F108BFF1F08B5144B1B7803F00303012B02D0022B04D00FE00F4B1B79DBB20CE00D4B1B7903F07F0303EB430350
:4028C0009A000B4B1A44937ADBB200E00023022B07D8084A1268D35C022B04D1FFF768FF08BD002008BD002008BD00BF006000408C8AFF1F808AFF1F81F0004102E000BFEA
:4029000083F0004330B54FEA41044FEA430594EA050F08BF90EA020F1FBF54EA000C55EA020C7FEA645C7FEA655C00F0E2804FEA5454D4EB5555B8BF6D420CDD2C4480EACC
:40294000020281EA030382EA000083EA010180EA020281EA0303362D88BF30BD11F0004F4FEA01314FF4801C4CEA113102D0404261EB410113F0004F4FEA03334CEA133360
:4029800002D0524263EB430394EA050F00F0A780A4F10104D5F1200E0DDB02FA0EFC22FA05F2801841F1000103FA0EF2801843FA05F359410EE0A5F120050EF1200E012AB5
:4029C00003FA0EFC28BF4CF0020C43FA05F3C01851EBE37101F0004507D54FF0000EDCF1000C7EEB00006EEB0101B1F5801F1BD3B1F5001F0CD349085FEA30004FEA3C0CE4
:402A000004F101044FEA445212F5800F80F09A80BCF1004F08BF5FEA500C50F1000041EB045141EA050130BD5FEA4C0C404141EB010111F4801FA4F10104E9D191F0000F8D
:402A400004BF01460020B1FA81F308BF2033A3F10B03B3F120020CDA0C3208DD02F1140CC2F10C0201FA0CF021FA02F10CE002F11402D8BFC2F1200C01FA02F120FA0CFC2E
:402A8000DCBF41EA0C019040E41AA2BF01EB0451294330BD6FEA04041F3C1CDA0C340EDC04F11404C4F1200220FA04F001FA02F340EA030021FA04F345EA030130BDC4F1A8
:402AC0000C04C4F1200220FA02F001FA04F340EA0300294630BD21FA04F0294630BD94F0000F83F4801306BF81F480110134013D4EE77FEA645C18BF7FEA655C29D094EA4C
:402B0000050F08BF90EA020F05D054EA000C04BF1946104630BD91EA030F1EBF0021002030BD5FEA545C05D14000494128BF41F0004130BD14F580043CBF01F5801130BD38
:402B400001F0004545F0FE4141F470014FF0000030BD7FEA645C1ABF194610467FEA655C1CBF0B46024650EA013406BF52EA033591EA030F41F4002130BD00BF90F0000FBE
:402B800004BF0021704730B54FF4806404F132044FF000054FF0000150E700BF90F0000F04BF0021704730B54FF4806404F1320410F0004548BF40424FF000013EE700BF76
:402BC00042004FEAE2014FEA31014FEA02701FBF12F07F4393F07F4F81F06051704792F0000F14BF93F07F4F704730B54FF4607401F0004521F0004120E700BF50EA0102A2
:402C000008BF704730B54FF000050AE050EA010208BF704730B511F0004502D5404261EB41014FF4806404F132045FEA915C3FF4DCAE4FF003025FEADC0C18BF03325FEA27
:402C4000DC0C18BF033202EBDC02C2F1200300FA03FC20FA02F001FA03FE40EA0E0021FA02F11444C1E600BF4FF0FF3C06E000BF4FF0010C02E000BF4FF0010C4DF804CD4C
:402C80004FEA410C7FEA6C5C4FEA430C18BF7FEA6C5C1BD001B050EA410C0CBF52EA430C91EA030F02BF90EA020F0020704710F1000F91EA030F58BF994208BF90422CBF91
:402CC000D8176FEAE37040F0010070474FEA410C7FEA6C5C02D150EA013C07D14FEA430C7FEA6C5CD6D152EA033CD3D05DF8040B704700BF8446104662468C46194663467E
:402D000000E000BF01B5FFF7B7FF002848BF10F1000F01BD4DF808EDFFF7F4FF0CBF012000205DF808FB00BF4DF808EDFFF7EAFF34BF012000205DF808FB00BF4DF808EDB1
:402D4000FFF7E0FF94BF012000205DF808FB00BF4DF808EDFFF7CEFF94BF012000205DF808FB00BF4DF808EDFFF7C4FF34BF012000205DF808FB00BF80F0004002E000BF9C
:402D800081F0004142001FBF5FEA410392EA030F7FEA226C7FEA236C6AD04FEA1262D2EB1363C1BFD218414048404140B8BF5B42192B88BF704710F0004F40F4000020F040
:402DC0007F4018BF404211F0004F41F4000121F07F4118BF494292EA030F3FD0A2F1010241FA03FC10EB0C00C3F1200301FA03F100F0004302D5494260EB4000B0F5000FF4
:402E000013D3B0F1807F06D340084FEA310102F10102FE2A51D2B1F1004F40EBC25008BF20F0010040EA03007047490040EB000010F4000FA2F10102EDD1B0FA80FCACF1B7
:402E4000080CB2EB0C0200FA0CF0AABF00EBC25052421843BCBFD0401843704792F0000F81F4000106BF80F400000132013BB5E74FEA41037FEA226C18BF7FEA236C21D02C
:402E800092EA030F04D092F0000F08BF0846704790EA010F1CBF0020704712F07F4F04D1400028BF40F00040704712F100723CBF00F50000704700F0004343F0FE4040F430
:402EC000000070477FEA226216BF08467FEA23630146420206BF5FEA412390EA010F40F4800070474FF0000304E000BF10F0004348BF40425FEA000C08BF704743F096439A
:402F000001464FF000001CE050EA010208BF70474FF000030AE000BF50EA010208BF704711F0004302D5404261EB41015FEA010C02BF84460146002043F0B64308BFA3F1B4
:402F40008053A3F50003BCFA8CF2083AA3EBC25310DB01FA02FC634400FA02FCC2F12002BCF1004F20FA02F243EB020008BF20F00100704702F1200201FA02FCC2F12002C6
:402F800050EA4C0021FA02F243EB020008BF20EADC707047014B1868704700BF3085FF1F70B50F4E0F4D761BB61018BF002405D0013455F8043B9847A642F9D10A4E0B4D5C
:402FC00004F0E8FC761BB61018BF002406D0013455F8043B9847A642F9D170BD70BD00BFA0790000A0790000AC790000A0790000844641EA000313F0030349D1403A23D36B
:403000000B6803604B6843608B688360CB68C3600B6903614B6943618B698361CB69C3610B6A03624B6A43628B6A8362CB6AC3620B6B03634B6B43638B6B8363CB6BC36300
:4030400040304031403ADBD230320BD30B6803604B6843608B688360CB68C36010301031103AF3D20C3205D351F8043B40F8043B043AF9D2043208D0D2071CBF11F8013BFB
:4030800000F8013B01D30B8803806046704700BF082A13D38B07B1D010F00303AED0C3F10403D21ADB071CBF11F8013B00F8013BA4D331F8023B20F8023B9FE7043AD9D3A8
:4030C000013A11F8013B00F8013BF9D20B7803704B7843708B7883706046704770B4840746D0541E002A41D0CDB2034602E0621EE4B3144603F8015B9A07F8D1032C2ED90E
:40310000CDB245EA05250F2C45EA054519D9264603F11002103E0F2E42F8105C42F80C5C42F8085C42F8045C02F11002F2D8A4F1100222F00F0204F00F041032032C13442C
:403140000DD91E462246043A032A46F8045BFAD8221F22F003020432134404F003042CB1C9B21C4403F8011BA342FBD170BC704714460346C2E700BF0EB40146F0B54FF682
:40318000FF779CB021AC54F8042B0D4823466FF00045029106914FF4027602A900680194ADF81670ADF814600495079500F00AF8029B00221A701CB0BDE8F04003B0704757
:4031C0003085FF1F2DE9F04FC1B00C46099115460E930A9002F086FB03681846179303F0A3F9A38916901E0603D52369002B01F05D8100231A46A8460DF1C009DFF860A4D8
:40320000129319930B9325932493CDF88C901492159298F800304446EBB1252B02D11AE0252B03D014F8013F002BF9D1C8EB04058DB1249B259A01332A44072BC9F800800E
:40324000C9F804502592249300F3328309F108090B9B2B440B932378002B00F0EA814FF0FF3B5D4600231A468DF86F3019460C930793637804F1010808F10108A3F120005A
:40328000582800F24586DFE810F0F30343064306FC034306430643064306430643065900040443066600D0034306EC03BC05BC05BC05BC05BC05BC05BC05BC05BC054306A0
:4032C000430643064306430643064306430643064306E205F7044306F70443064306430643064205430643064A0543064306430643064306740543064306CD0543064306EF
:40330000430643064306430643064306430643061D060E06F704F704F70415060E0643064306A3044306A805AE046D000A0443061204430635044306430670040E9C236876
:4033400018460C932346002803F104030E9306DA0C9B5B420C93079B43F00403079398F8003089E7AB460E9A0027079830217823BB4514688DF8701002F104024FF00005B1
:403380008DF871308DF86F7040F00201C0F23D8620F0800141F00201079154EA05010E921193AD4800F0318130AE230943EA0573290904F00F020D461C46835C06F8013DA9
:4033C00054EA0503F1D130AB9B1B0D930D9B5B45B8BF5B4608930023139317B1089B01330893079B13F002030F9302D0089B02330893079B13F08403109340F018810C9BC6
:40340000089A9D1A002D40F31281102D2599249A924F27DD189648461024B946099E2F460A9D04E0103F102F00F1080016DD01328A4B1031072A2591249280E81800F1DDDE
:4034400023AA3146284603F09DF8002840F0F880103F102F30A82599249AE8DC3D464F468146189E01326C18072A25942492C9F80070C9F8045000F3D0809DF86F7009F1B9
:40348000080977B1249B013401330DF16F010122072B2594249389E8060000F3208209F108090F9B6BB1249B023401331CA90222072B2594249389E8060000F31C8209F1E5
:4034C0000809109B802B00F02C810D9BC3EB0B07002F33DD624A102F249B0F9222DD22464FF0100B0A9D099C04E0103F102F09F1080916DD01331032072B2592249389E8D2
:40350000000CF2DD23AA2146284603F03BF8002840F09680103F102F0DF1C009259A249BE8DC144601330F9A3C44072B2594249389E8840000F3C78109F10809079BDA05CE
:4035400000F19080249B0D9901330C44072B2594C9F80060C9F80410249300F3E28109F10809079B590736D50C9B089A9D1A002D31DD102D249B394F22DD22461026DDF82A
:4035800028B0099C04E0103D102D09F1080916DD013332491032072B2592249389E84200F1DD23AA2146584602F0ECFF002847D1103D102D0DF1C009259A249BE8DC144634
:4035C00001332C44072B25942493C9F80070C9F8045000F392840B9B0C9A08998A42ACBF9B185B180B93002C40F05981002324930DF1C0090DE60027BB458DF86F70C0F247
:403600000E85079B23F080030793BBF1000F00F06C84002400250027C6E623AA09990A9802F0B0FF60B99DF86F700DF1C009259C27E7259B23B10A9823AA099902F0A2FF61
:40364000099B9B8913F0400F0B9B18BF4FF0FF33184641B0BDE8F08F4C7800002C7800006C780000119B652B40F39F801498159900220023FFF74EFB002800F06381249B5C
:40368000AE49013301340122072B2594249389E8060000F3538409F108091D9B129A934203DB079BDB077FF55CAF249B16990133179A0C44072B2594C9F80020C9F804103B
:4036C000249300F3E68609F10809129B5D1E002D7FF747AF9A4A102D249B0F9240F3178110260A9FDDF824B005E009F10809103D102D40F30C8101331034072B25942493C0
:40370000C9F800A0C9F80460EFDD23AA5946384602F038FF002893D10DF1C009259C249BE5E70C9B089A9F1A002F7FF7CEAE844A102F249B0F922BDD4A462146B9461025C2
:4037400037460A9C099E06E0A9F11009B9F1100F02F1080218DD01331031072B25912493C2F800A05560EFDD23AA3146204602F009FF00287FF464AFA9F11009B9F1100F6E
:4037800030AA2599249BE6DC3E460C464F46914601330F9A3C44072B2594249389E8840000F32B8509F108098FE6129B249D012B04F1010405F1010540F3E8840123072D10
:4037C0002594C9F800602495C9F8043000F3F98409F10809169A0135179B1444072D25942495C9F80030C9F8042000F3F88409F108090023149815990022FFF78BFA129B19
:40380000002800F0EA805E1E002E40F3F5804C4B102E0F932CDDCDF834801027B046DDF828B0099E06E0A8F11008B8F1100F09F108091ADD01351034072D25942495C9F8F8
:4038400000A0C9F80470EEDD23AA3146584602F099FE00287FF4F4AEA8F11008B8F1100F0DF1C009259C249DE4DC4646DDF8348001350F9B3444072D2594249589E84800B2
:4038800040F3B88023AA09990A9802F07BFE00287FF4D6AE259C249D0DF1C009ACE023AA09990A9802F06EFE00283FF49FAEC7E623AA09990A9802F065FE00287FF4C0AEFA
:4038C0000DF1C009C4E423AA09990A9802F05AFE00287FF4B5AE0DF1C009259C2EE623AA09990A9802F04EFE00287FF4A9AE0DF1C009259CD5E523AA09990A9802F042FE9E
:4039000000287FF49DAE0DF1C009259CD9E501330F9A2C44072B2594249389E824007FF71EAE23AA09990A9802F02CFE00287FF487AE259C0DF1C00913E600BF6878000078
:403940006C7800001D9D002D40F30E83139B129A9342A8BF1346002B1D460DDD249B2C440133072B2594C9F80060C9F80450249300F3158609F10809139B002DA8BF5B1BC5
:40398000002B1D4640F3A083B94A102D249B0F9240F3458522461027DDF828B0099C05E009F10809103D102D40F3388501331032072B25922493C9F800A0C9F80470EFDDB3
:4039C00023AA2146584602F0DDFD00287FF438AE0DF1C009259A249BE4E7013B013501361C44072DC9F8006024952594C9F804303FF748AF09F10809199A013514441FAB90
:403A0000072D25942495C9F80420C9F800307FF7A6AD23AA09990A9802F0B4FD00287FF40FAE0DF1C009259C9BE598F8003008F101042A2B00F02B87A3F13000092898BF2C
:403A4000002500F2AF8614F8013B05EB850500EB4505A3F130000928F5D945EAE575A0460CE4079B43F08003079398F8003003E498F8003000297FF4FFAB01222021FFF7E8
:403A8000FBBB079B43F00103079398F80030FFF7F3BB98F8003001222B21FFF7EDBB079B43F02003079398F80030FFF7E5BB0E9AAB461668002511938DF86F50141D002E41
:403AC00000F0E585BBF1000FC0F23F855A462946304602F0B7F9002800F05886AB46831B0D9323EAE3730E940893CDF84CB09DF86F7072E41193AB46002A40F0ED86079AC1
:403B000012F0200300F043810E9C0027073424F0070303F10801BB450E91D3E900458DF86F70C0F2C18222F08003079354EA050300F04881002D08BF0A2CC0F0488130AEDD
:403B4000204629460A22002303F0F2FB303206F8012D2046294600230A2203F0E9FB04460D4654EA0503EBD12DE41193AB46002A40F0CA86079B3F489D0640F15D810E9C44
:403B8000073424F0070303F108020E92D3E90045079A12F0010700F0468254EA05033FF42AAD9DF8442000278DF87120079A3023BB458DF870308DF86F7042F00203C0F2BE
:403BC0008D8522F0800343F002030793FFF7ECBB98F800306C2B00F05284079840F010000790FFF749BB1193AB46002A40F09486079A12F0200300F0A0800E9C0027073437
:403C000024F0070303F10801BB450E91D3E900458DF86F700BDB22F08003079354EA050306D1BBF1000F00F0A28500240025002730AEE20842EA4572E90804F007030D4604
:403C40001446303354EA050206F8013DF1D1079AD1077FF5B8AB302B3FF4B5AB3022731E06F8012C30AAD21A0D921E46FFF7AEBB6C7800004C7800001193AB46002A40F039
:403C80004786079B0E9C1A0704F1070440F16C8324F0070303F108020E921A685B6814921593159B149D23F00044284621464FF0FF32A94B03F0FEFA002840F0CD8228466A
:403CC00021464FF0FF32A44BFFF738F8002840F0C3821498159900220023FFF725F8002840F0F6849DF86F7007999C4E21F080019B4B0791119903224FF0000B0892472986
:403D0000D8BF1E460D92CDF84CB0FFF766BB079B43F00803079398F80030FFF7ADBA1193AB46002A40F0EC85079B43F010030793079A12F020037FF460AF079911F010029D
:403D400000F068820E98BBF1000F024604688DF86F3002F104024FF00005C0F2C28421F08001079154EA05010E923FF45AAF1F465EE71193AB46002A40F0BE85079B43F000
:403D800010030793079A12F020037FF4BDAE079911F0100200F026830E98BBF1000F024604688DF86F3002F104024FF00005C0F28C8421F08001079154EA05010E921F46BB
:403DC0007FF4B8AEBBF1000F00F09080002440AE303406F8414DFFF7F6BA002A40F08885079B9B0640F1CA820E9A134604330E930B9B1168DD171A462B46C1E90023FFF7E0
:403E000008BAA3F1300000231C4618F8013B04EB840400EB4404A3F130000928F5D90C94FFF72CBA1193AB46002A40F05D85079B4C489D063FF5A3AE079BDC0640F1B58227
:403E40000E9A00251346043314680E93A0E61193AB46002A40F04485079B43F010030793079B980640F1F1800E9C073424F00704D4E9002304F108011D4614460E91002ABE
:403E800073F10003C0F2F280BBF1000F9DF86F70C0F20A81079B23F08003079354EA05037FF448AE8EE71193AB46002AD8D08DF86F10D5E7079B43F04003079398F800307C
:403EC000FFF7DAB90E9911930A68002301201F468DF86F309B4613930B1D08908DF898200E930D9026AEFFF77CBA5F464FF0000BCDF834B030AEFFF769BA23AA09990A984D
:403F000002F040FB00287FF49BAB259CFFF763BB1193002A40F0D384119A002A3FF489AB002301211F4608918DF898208DF86F309B4613930D9126AEFFF753BA23AA0999FE
:403F40000A9802F01FFB00287FF47AAB0DF1C009259CFFF7A2BB00BFFFFFEF7F407800003C780000B0760000249BB849013301340122072B2594249389E8060000F3C2829F
:403F800009F108092DB9129B1BB9079BDF077FF5E8AA249B16990133179A0C44072B2594C9F80020C9F80410249300F3FF8309F108096D42002D40F3DB82A54A102D0F924D
:403FC00040F34B8322461027DDF828B0099C05E009F10809103D102D40F33E8301331032072B25922493C9F800A0C9F80470EFDD23AA2146584602F0C5FA00287FF420AB00
:404000000DF1C009259A249BE4E792480791119354EA05030E924FF000077FF4C5A900240025FFF7C1B9BBF1000F8DF86F70C0F2038222F08003079354EA05037FF4B4A9F9
:40404000BBF1000F7FF4E5AA4FE7079BD90640F1BA810E9A13461C680433E51722460E932B46002A73F10003BFF60EAF64424FF02D0765EB4505BBF1000F8DF86F70FFF664
:4040800059AD079B23F08003079353E50E9ABBF1000F134614688DF86F7003F104034FF0000580F2E2810E9354EA05037FF442AD8DE623AA09990A9802F064FA00287FF488
:4040C000BFAA259C0DF1C009139A1D9B32441746129A934249DB079AD50746D412990E44F51BCB1A9D42A8BF1D46002D2E460DDD249A2C440132072A2594C9F80070C9F8F8
:404100000450249200F3D28209F10809002EB4BF1D469D1B002D7FF724AA4D4A102D249B0F927FF7F4AB10260A9FDDF824B005E009F10809103D102D7FF7E9AB0133103429
:40414000072B25942493C9F800A0C9F80460EFDD23AA5946384602F015FA00287FF470AA0DF1C009259C249BE4E7249A1698013217990444072A2594C9F80010C9F8040082
:40418000249200F3778209F10809A7E7079BD8073FF514AB0123072D2594C9F800602495C9F804307FF726AC23AA09990A9802F0E9F900287FF444AA0DF1C009259C249D71
:4041C0001AE423AA09990A9802F0DCF900287FF437AA0DF1C009259C249DFFF7FBBA23AA09990A9802F0CEF900287FF429AA0DF1C009259C249DFFF7FCBA23AA09990A983B
:4042000002F0C0F900287FF41BAA0DF1C009259CFFF75BB9079911F0400700F00F810E98BBF1000F034604888DF86F2003F104034FF00005C0F2738121F08001079154EAE2
:4042400005010E933FF4EDAC1746F1E4687800006C7800004C780000149C22462046159C2346214603F026F8002840F0C182119BBBF1FF3F23F020030D9300F04982472BCD
:4042800000F05081079B43F480731093159B1F1E149B0893B7BF3B46002303F100472D230F93119B662B00F01F82462B00F00D810D9B21A8452B18BF5D461EA908BF0BF1AE
:4042C0000105049003911DA802213B460290089A019500910A9800F0CBFB119B0646672B40F03482079BDA0740F16F8274190898394600220023FEF70DFD002840F04D8149
:40430000219B9C4206D930215A1C21921970219B9C42F9D89B1B12930D9B472B00F03681119B652B40F32182119B662B1D9B139300F0FE81139A12998A42C0F2EC81079B79
:40434000D90700F1448222EAE2730D92672211920F9A002A40F0EF800893109B934607939DF86F70FFF739B824F00704236814936368159304F108030E9392E4079BDF0692
:404380000BD4079B5E0608D50E9A136804320E92BDF82C201A80FEF73CBF0E9A136804320E920B9A1A60FEF734BF0E9A079B002513F0400F134603F104030CBF14681488BF
:4043C0000E93FFF7E5BB079B0E9A13F0400F13463FF441AEB2F900400433E5170E9322462B464CE5079911F040073FF44FAE0E98BBF1000F034604888DF86F2003F1040349
:404400004FF00005C0F2948021F08001079154EA05010E9317467FF48DABD3E4144601330F9A2C44072B2594249389E824003FF740AE09F1080947E60E9AE9E50E9ABBF1A0
:40444000000F134614688DF86F7003F104034FF0000564DB079A0E9322F08002079254EA05027FF4E5ABFFF7DCBB079A0E9322F08002079254EA05027FF45CABA2E4079BDC
:4044800008F1010843F02003079398F80030FEF7F3BE23AA09990A9802F074F800287FF4CFA80DF1C009259CFFF70FB940210A9801F01CFA099A10601061002800F0F581C1
:4044C000099A40235361FEF794BE21A81EA9049003911DA803210290089A3B46CDF804B000910A9800F0C4FA5D460646119B7419462B7FF4FCAE3378302B00F097811D9D8D
:404500002C44F4E623AA09990A9802F03BF800287FF496A80DF1C0091D9D259C32E50E93FFF785BBBBF1000F08BF4FF0010BA9E60E931746B8E50893109B2D2707938DF842
:404540006F704FF0000BFEF749BF304601F0ECFFAB460346FFF7C4BA23AA09990A9802F011F800287FF46CA8259C249B0DF1C009129901330C44072B25942493C9F8006021
:40458000C9F804107EF7EBAFFFF7CBB91D9BDD1C12DB9B4510DB1393CCE62346BAE623AA09990A9801F0EEFF00287FF449A80DF1C009259CFFF7E0B9119A023A1192013B7B
:4045C0009DF84420002B1D93B8BF5B428DF87C20B4BF2D222B22092B8DF87D2040F300810DF18B000446B84A82FB0321DA17C2EBA10101EB8102A3EB4202303209290B46BD
:4046000004F8012DEFDC21463033DAB201F8012D884240F251810DF17E01234601E013F8012B984201F8012BF9D1431C1B1B0DF17E0213441FAA9B1A129A1993012A1344B1
:404640000D9340F309810D9B169A134400220D93139223EAE3737BE6144601330F9A2C44072B2594249389E824003FF775AF09F108097DE723AA09990A9801F083FF0028B0
:404680007EF4DEAF0DF1C0091D9B259C26E55B46062B28BF06230D9323EAE373B346374613960E940893894EFEF797BE23AA09990A9801F067FF00287EF4C2AF1D9B129A77
:4046C000259CD31A0DF1C00920E50E921F46EBE42D231F468DF86F30FFF706BB0793FEF763BE0E92FFF7A3BA21A81EA9049003911DA803210290089A3B46CDF804B00091D9
:404700000A9800F0B5F95D46064600EB0B04F2E64FF0060BB6E5169A129B1344139A0D93002A40F39180672223EAE37311920FE6002B40F39B80BBF1000F6ED1079AD407AB
:404740006BD41A4623EAE3730D9201E6119B472B7FF4CCAD079BDB073FF5C8AE219B9B1B12930D9B472B3FF411AF1D9B27E7079B5F46DB0705D540AE302306F8413DFEF7DA
:4047800022BECDF834B030AEFEF720BE2BEAEB73CDF834B0089383460E9413909DF86F70FEF71BBEA0460025FEF768BD23AA09990A9801F0E7FE00287EF442AF0DF1C0095A
:4047C0001D9D259C249BFFF7F4BB219BA2E5169A139B134467220D93119223EAE373B7E5303330228DF87F308DF87E2020AB21E70799374E21F08001364B07911199032299
:404800004FF0000B08924729D8BF1E460D92CDF84CB09DF86F70FEF7E0BD139B169A9D1805EB0B030D9323EAE37391E50898394600220023FEF76EFA00287FF460AEC5F119
:4048400001051D952C4452E5139B0D9AC3F101031A4413460D9266E7079B13F001037FF4F2AE13930D9B23EAE37371E5BBF1000F02D1079BD80707D5169B5D1C05EB0B0353
:404880000D9323EAE37363E501230D9360E50E9898F8013005680430002D0E90A046BEF6EBAC4FF0FF35FEF7E7BC0A9A0C2313604FF0FF30FEF7CDBE0DF17E03BAE68DF8BD
:4048C0006F10FFF729BB00BF676666666078000048780000447800008DF86F10FFF70FB98DF86F10FFF7B8BA8DF86F10FFF79FBA8DF86F10FFF774BA8DF86F10FFF73EBA18
:404900008DF86F10FFF710BA8DF86F10FFF732B98DF86F10FFF7B5B98DF86F10FFF768B9024B13B1024800F005B8704700000000BD580000002301461A46184601F0A2BEFE
:404940002DE9F04F03690F6983B09F4200F38980013F01F1140600F1140A56F827305AF827200133B2FBF3F8BB00009306EB030953440193B8F1000F3BD000231C46B446D1
:40498000D6465CF804BBDEF800501FFA8BF208FB02324FEA1B4B130C08FB0B3392B2A41A1FFA83FBAAB22244CBEB154404EB224492B242EA0442E1454EF8042B4FEA244425
:4049C0004FEA1343DDD2009B5AF803308BB9019C231F9A450CD254F8043C4BB9A4F1080302E01A68043B1AB99A4507F1FF37F8D30761044601F07EFC00282EDB00235546EF
:404A0000194608F1010856F8042B2B6890B2081A120C99B2C2EB1343421803EB224392B242EA0342B14545F8042B4FEA2341EAD25AF827200AEB87037AB91A1F92450BD2E0
:404A400053F8042C42B9083B02E01A68043B1AB99A4507F1FF37F8D32761404603B0BDE8F08F002003B0BDE8F08F00BF000000002DE9F04F016C99B0814692469B46259C48
:404A800049B1426C012393408B604A6001F04CFA0023C9F84030BBF1000FD84633DB00232360A34B1A4608EA0303934214D00022002350465946FEF72DF9054648B3249A12
:404AC00001231360269B002B00F0C58099481860013819B0BDE8F08F42F20F73249A1360BAF1000F00F0A2809348269B002BF0D0C378002B00F0B18000F10803269A13608F
:404B000019B0BDE8F08F01232BF000482360C346C7E716AA17AB0192009352465B46484601F09CFC5FEA1854099040F08880169D179C2C4404F23243202B40F38A82C3F1CA
:404B4000400304F2124008FA03F82AFA00F040EA0800FEF713F80123013CA1F1F8710F930022764BFDF7CCFE6BA3D3E9002302F08FF96BA3D3E90023FDF7C4FE064620460C
:404B80000F46FEF70BF868A3D3E9002302F080F902460B4630463946FDF7B4FE06460F4602F09EFB00220390002330463946FEF7BBF8002840F02982039E162E00F2228200
:404BC0005F49524601EBC6015B46D1E90001FEF7C9F8002800F04282731E039300230D932C1B631E049300F12B8200230693039B002BC0F21C82049A0C9311461944002304
:404C000004910B93229B092B29D8052B40F35286043B22930025229B023B032B00F22F86DFE813F02703200232035304424B454AC8F31300002814BF1846104655E7CBF3F7
:404C4000130343F07F510F955046A4F2FF3441F44011169D84E73C483BE7C31C4EE70021C9F844104846229101F036F94FF0FF33229A07930E93012308902392C9F8400049
:404C80000A93179B002BC0F2CA80039A0E2A00F3C6802B4B03EBC20318CBCDE90434239B002BC0F2FC8256465F46DDE904AB304652465B46394602F015FA02F011FB044630
:404CC000FDF76CFF52465B4602F0E2F802460B4630463946FDF714FE079E089F04F13005012E3D7002460B4607F101055ED00022164B02F0CDF80022002306460F46FEF790
:404D000009F8002878D1CDF81890DDF81CA0DDF820B0DDE9048928E061436F63A787D23FB3C8608B288AC63FFB799F501344D33F0000F07F69780000887800000000F83FDE
:404D4000987800007C78000068780000000024400022C34B02F09CF80022002306460F46FDF7D8FF002840F0B38342464B463046394602F0B7F902F0B3FA0446FDF70EFF5C
:404D800042464B4602F084F802460B4630463946FDF7B6FD04F1300605F8016BCBEB0506564502460B46D3D1DDF8189010461946FDF7A8FD06460F4602460B46DDE904013A
:404DC000FDF7B2FF40B9DDE9040132463B46FDF7A1FF88B1E3070FD515F8014C6B1E089A04E09A4200F02C8413F8014D392C03F10105F6D001341C700999484601F094F8E5
:404E00000022039B2A70249A01331360269B002B00F0A88308981D6019B0BDE8F08F0A9A002A00F01281229A012A40F35A82079B0B9A5F1EBA42C0F29883D71B079B002B0F
:404E4000C0F28C84069D079B069A01211A440692049A48461A44049201F0FEF8064665B1049900290B4608DDA942A8BF2B46069AED1AD21ACB1A069204930B9B002B40F3A0
:404E8000FD820A9A002A00F00382002F00F0008231463A46484601F087F9DDF82480014642460646484601F0E1F841460446484601F03AF80B9BDB1B0B9340F0E881012136
:404EC000484601F0C9F80C9B8046002B00F01B8201461A46484601F067F9229B8046012B40F3F9820027D8F8103008EB8303186901F064F8C0F12000049A104410F01F000A
:404F000000F0F881C0F12003042B40F3CB84069BC0F11C00034406931346034405440493069B002B05DD21461A46484601F08CF90446049B002B05DD41461A46484601F0E0
:404F400083F980460D9B002B40F07D82079B002B40F396820A9B002B40F0F681DDF820A0079F554604E02146484600F0E7FF044641462046FFF7E4FC303005F8010BCAEBAE
:404F80000503BB424FF00A024FF00003EBDB089B079A8246012AACBF9B1801331D464FF0000B21460122484601F04EF94146099001F0A0F9002840F30E8315F8012C6B1EBA
:404FC000089904E08B4200F0798213F8012D392A03F10105F6D001321A704146484600F0A3FF002E3FF408AFBBF1000F05D0B34503D05946484600F097FF3146484600F099
:4050000093FFF9E601230D93EAE5DDF80C804046FDF7C4FD02460B4630463946FDF77AFE00287FF4C9AD08F1FF330393C4E5069A039BD21A5B420B93002306920C93E1E5D6
:405040005B42069300230493D1E50B9F069D0A9E05E7C3F120080AFA08F07AE50D90BFE50000244000230A93039B239A13440E930133002B079340F38582079C2646002157
:40508000172EC9F844100BD9012204235B0003F11400B042114602F10102F7D9C9F84410484600F019FF0E2C0890C9F840003FF6E8AD002D3FF4E5AD5746D8460399CDE9AF
:4050C0001078002940F39382924B01F00F020E1103EBC203F006D3E9004540F14E828E4B5046D3E90823594601F0FCFF82468B4606F00F064FF0030886B1874FF10709D55C
:40510000D7E900232046294601F0C2FE04460D4608F10108761007F10807EFD122462B465046594601F0DEFF06460F460D9B43B100227A4B30463946FDF7F6FD002840F0E6
:4051400023834046FDF72AFD32463B4601F0A0FE734B0022FDF7D6FB079B0446A1F15075002B00F0E181039B1393079B12930A9B002B00F09882129A664B002003EBC20366
:4051800053E90223674901F0ADFF22462B46FDF7B7FB82468B463046394602F0A1F80446FDF7FCFC02460B4630463946FDF7A8FB3034089DE4B206460F462C7002460B46D9
:4051C000504659460135FDF7CDFD00284ED132463B4600205149FDF793FB02460B4650465946FDF7BFFD002840F00E83129A012A40F3B481129B089A134498460FE0324679
:405200003B4600204549FDF77BFB52465B46FDF78BFD002840F0F882454500F09F81504659460022404B01F033FE00223E4B82468B463046394601F02BFE0F46064602F0CA
:405240004FF80446FDF7AAFC02460B4630463946FDF756FB3034E4B205F8014B52465B4606460F46FDF760FD0028C8D0139B0393C2E500230A93239B002B40F388811E46CE
:405280001C460E930793FAE601230A93F3E709940B9A0999484600F087FF04460FE6079B002B3FF700AD40F0D982DDE9040100221E4B01F0EDFD52465B46FDF749FDDDF8FB
:4052C0001C804646002800F0F180239B089DDB4303934146484600F027FE002E3FF48CAD8BE60F9A002A00F0418203F233430B9F069DA9E51C20069B054403440693049B40
:40530000034404930CE6229B012B40F381820C9F0120F1E598780000607900000000F03F00001C400000E03F0000244000001440314600230A22484600F000FE0E9B06465A
:40534000002B40F397820793002D05DD31462A46484600F079FF0646002F40F07B810696079B089A013BD318099317460AF00103C246DDF818B00A9351462046FFF7E0FA7C
:4053800031460546204600F0B5FF5A4604905146484600F0CFFFC268804605F13003002A49D101462046079300F0A4FF41460690484600F0B9FD069A079B2AB9229919B9D0
:4053C0000A99002900F0368204990029C0F2E48005D1229919B90A99002900F0DD80002A00F34C81099A07F1010897423B70454600F05381214600230A22484600F09EFDB1
:405400005E45044631464FF000034FF00A0248460BD000F093FD5946064600230A22484600F08CFD47468346A6E700F087FD474606468346A0E701464846069300F074FD02
:405440000122069BC0E74146204600F053FF0028BFF67CAD2146039C0023013C0A224846039400F06BFD0A9B0446002B7FF460AF0E9B002B40F3F68107936FE5099C1EE5CD
:40548000229B022B7FF766AD079B002B40F07A8141460522484600F051FD01468046204600F028FF002809947FF70FAF039A08993123013203920B704D1C0AE7039A312364
:4054C00001320392089A137087E501230A93CBE5DDF8189090E4BAF1000F7FF403ADCBF31303002B40F040812BF000473F0D3F0537B1069B012701330693049B013304934A
:405500000C9B0120002B3FF4F7ACECE44046FDF745FB32463B4601F0BBFC0022BF4BFDF7F1F90446A1F15075304639460022BC4BFDF7E6F922462B4606460F46FDF712FC5F
:405540008046002840F00681224605F1004330463946FDF7E9FB08B14646B6E6DDE910ABFFF78FBB0898FFF7B4BA0B9B0C9AFB1A1A440B970C92002760E4DDE910AB4FF048
:405580000208B9E51C460021C9F8441088E5012423940E940794F6E7002AD046CDF818B09A4611DD21460122484600F04DFE4146044600F09FFE002840F34981BAF1390FE4
:4055C00000F0078105F1310AB34687F800A07D1C069E099401E504D11AF0010F01D0ECE4154615F8013C6A1E302BF9D0F5E4039B5C42002C00F0C180DDE91001894B04F038
:405600000F0203EBC203D3E9002301F041FC241106460F4600F02B81834D4FF00208E20709D5D5E900233046394601F031FC06460F4608F10108641005F10805EFD175E51F
:40564000089930220A70039A15F8014C01320392FFF7D0BB7168484600F03EFC0546336906F10C019A1C92000C30FDF7C1FC29460122484600F0E8FD069071E6392BCDF8C1
:4056800018B0D04600F0A58003F1010AB34687F800A07D1C069E09949FE45A46D046B3469A4616467DE4129B5E4903F1FF3A01EBCA012246D1E900012B4601F0E9FBCDE9E0
:4056C00014013946304601F00BFE0446FDF766FA0B46024639463046FDF712F9129B0F4608993034012B06460C7001F101051FD0129B089AA84613449B4600224B4B3046F6
:40570000394601F0C5FB0F46064601F0E9FD0446FDF744FA02460B4630463946FDF7F0F8303408F8014BC34506460F46E5D1554400223F4BDDE91401FDF7E4F832463B46E3
:40574000FDF7F2FA00284CD0139B039315F8014CFFF744BB4FF000084646A7E6069B079A9D1A0023FFF770BB0027C9E6169B0B9FC3F13603069DFFF767BBDDE910674FF080
:405780000208D3E40994A0E5079B002B3FF4BEAE0E9B002B7FF7E2AE0022244B3046394601F076FB06460F4608F10100FDF7F6F932463B4601F06CFB0022184BFDF7A2F8F6
:4057C000039A0E9B013A04461392A1F150751293CDE43922B3460994069E3A707D1CFFF7EEBBDDE9142300201149FDF789F832463B46FDF7B7FA08B9B0E6154615F8013C8F
:405800006A1E302BF9D031E5139B0393FFF7E6BABAF1000F7FF47BAD61E600BF00001C40000014409878000060790000000024400000E03F392BCDF818B0D046DDF810B0B9
:405840009A46C6D0BBF1000F3FF7BCAEBCE67FF4BBAE1AF0010F3FF4B7AEAFE64FF00008464632E5229B022B21DC0E9B04E64FF002085BE4229B022B19DC0E9B63E50024B2
:40588000C9F844402146484600F026FB4FF0FF3307930E93012308902394C9F840000A93FFF7EFB93FF43CABC0F13C0023E50E9B0793E9E50125FFF7AEB900BF38B5074D9F
:4058C000074C2C1BA41005D0013C55F8043D9847002CF9D1BDE8384002F068B8BC790000B8790000004870473485FF1F2DE9F04F01F10B05162D83B0064640F2A08035F0EA
:40590000070500F1C080A94200F2BD8000F0E0FAB5F5FC7FC0F090826B0A00F0BB80042B00F27781A80900F1390E4FEA4E013830BE4F07EB81014C680839A14207D1AEE00E
:40594000002A80F2AE80E468A14200F0A880636823F003035A1B0F2AF2DDB4493C6901F1080E744500F0A881636823F003035A1B0F2A00F38E81002AC1F814E0C1F810E025
:4059800080F29380B3F5007F80F05C81DB084A684FEAA3094FF0010C013351F833800CFA09F901EBC30C49EA0202ACF1080CC4F80CC0C4F808804A6041F83340C8F80C401F
:4059C000831001249C4094427CD8144206D120F003006400144200F10400FAD007EBC009CC468046DCF80C108C4507D166E1002A80F27481C9688C4500F060814B6823F093
:405A000003035A1B0F2AF2DD0C46CB6854F808CF45F00108C1F804800D4442F00101CCF80C303046C3F808C07D613D61C5F80CE0C5F808E06960AA5000F04CFA1FE0102947
:405A400021D800F045FA102506230220774F07EB83035C68A3F10802944200F038816368E16823F0030323445A68A56842F00102E96030468D605A6000F02CFA08342046A9
:405A800003B0BDE8F08F002420460C23336003B0BDE8F08F80214FF0400E3F2048E770465BE723445A68E168DFE723445A68304642F001025A60083400F00CFA204603B027
:405AC000BDE8F08FBC68636823F00308A84504D3C5EB08030F2B00F38C80554BDFF860911A68D9F800302A44013304EB080A00F0608102F580520F3222F47F6222F00F023A
:405B000011463046019200F0FDFCB0F1FF3F8346019A00F05881824500F2FC80454BDA4519681144196000F05381D9F80000DFF810E101301BBFCAEB0B0A5144CEF800B0A0
:405B400019601BF0070100F01781C1F10800C1F58051834408315A44C2F30B02C2EB010949463046019300F0CDFC431C019B00F03F81CBEB00024A4442F001021968BC42C2
:405B80004944C7F808B01960CBF80420DFF8A49016D0B8F10F0F40F2FD806268A8F10C0323F0070302F00102E0184FF0050E1A430F2B6260C0F804E0C0F808E000F21C8128
:405BC0001D4BBC681A68914288BF19601B4B1A689142626888BF196022F003029542A2EB050301D80F2B04DC304600F073F9002445E745F0010243F0010325446260304617
:405C0000BD6008346B6000F065F9204603B0BDE8F08F142B71D9542B00F2A480280B00F16F0E4FEA4E016E3082E600BF6C85FF1FCC89FF1FD089FF1FC889FF1FC489FF1FD6
:405C40007889FF1F5A0A042A5ED9142A00F2B38002F15C0149005B3207EB810C57F82110ACF1080C8C45DFF8D88100F088804A6822F00302934202D289688C45F7D1D1F845
:405C80000CC07A68C4F80CC0A160CCF80840CC6096E645F0010742F001032544676030464D610D61C5F80CE0C5F808E06B60AA50083400F00FF9E2E64A6881E608F101089A
:405CC00018F0030F0CF1080C7FF48CAE30E0DC68A34208BF02303FF440AEC0E60C460B445A68C96854F8085F42F001025A603046E9608D6000F0EEF8C1E603F15C0E03F122
:405D00005B004FEA4E0113E69A0902F1390149003832A1E7BC424A4B3FF400AF9C68626822F003025AE759F80839994540F0828010F0030F00F1FF30F5D17B6823EA040350
:405D40007B6064009C423FF6BDAE002C3FF4BAAE1C4240467FF442AE64001C4200F10400FAD03BE6B3F5AA7F18D8E80B00F1780E4FEA4E017730DBE54FF48051EBE6012195
:405D8000D8F80430921001FA02F21A43C8F80420614677E70123CBF8043025E740F25452934220D8A80C00F17D0E4FEA4E017C30BEE51032A4E6542A26D81A0B02F16F0165
:405DC00049006E3248E7BC68626822F0030205E7CAF30B0000287FF4A8AE4244BB6842F001025A60ECE6FE214FF07F0E7E209FE501224FF00009C1E604F10801304600F0F4
:405E000011FDD9F80010DBE6B2F5AA7F05D8DA0B02F17801490077321EE740F254518A4205D89A0C02F17D0149007C3214E7FE217E2211E77B6884E7E808431C5B0005E69A
:405E40006C85FF1F830770B4CDB23DD0531E02B30278AA421ED0421C04E0D3B10478013BAC4217D012F0030F104602F10102F4D1032B11D853B30278AA420BD00344421CE4
:405E800002E00178A94205D09342104602F10102F7D1002070BC704704460E0206F47F462E4346EA0646226820467240A2F1013121EA020212F0803F04F10404DBD1043BB6
:405EC000032B2046EFD8D5E71346D1E71846E1E7704700BF704700BFC26C70B505460C4652B152F824308BB1196842F82410002218461A61DA6070BD2122042100F014FCE2
:405F0000E86402460028ECD1002070BD012101FA04F6721D2846920000F006FC03460028F2D044608660E2E731B1C36C4A6853F82200086043F82210704700BFF0B50C460B
:405F400005460E6983B001F1140E0027DEF80000013781B202FB0131000C0B0C02FB003389B201EB0341BE424EF8041B4FEA1343ECDC3BB1A268964207DA04EB86020136AA
:405F800053612661204603B0F0BD6168284601310193FFF7A1FF0746226904F10C01023292000C30FDF724F8EA6C6168019B52F82100206042F821403C46DEE7030C1B04AB
:405FC000B3B90004102310F07F4F04BF0002083310F0704F04BF0001043310F0404F04BF80000233002807DB420003D4202070470023E8E7581C704718467047036813F0B5
:40600000070207D0D90720D49A0720D49B0803600220704799B209B91B0C102213F0FF0F04BF1B0A0832190704BF1B090432990704BF9B080232D90704D45B0801D12020FB
:4060400070470132036010467047002070475B0803600120704700BF10B50C460121FFF73BFF01224461026110BD00BF2DE9F04F0D69166985B0B5420C46914604DA2A4685
:406080004C46354689461646A36805EB060861689845C8BF0131FFF71FFF00F1140A0AEB880BDA45019005D25346002143F8041B9B45FBD809F1140909EB860304F11402A8
:4060C000994502EB850C59D2CDF808B0CDF80C809B46904659F8047B1FFA87FEBEF1000F1FD047465646002100E00646304657F8045B3468ABB2A2B20EFB03222D0C240CFB
:406100000EFB0544531804EB13419AB242EA0142BC454FEA114140F8042BE6D8716059F8047C3F0C22D0DAF80030002255461E464046964600E025462C460288360C07FB04
:40614000026699B206EB0E0241EA024344F8043B50F8041B6E68090CB3B207FB0131844501EB12434FEA134EE5D86B60CB450AF1040AAFD8DDF808B0DDF80C80B8F1000F23
:406180000BDD5BF8043CABF1040B1BB105E05BF8043D13B9B8F10108F9D10198C0F8108005B0BDE8F08F00BF12F003032DE9F041144607462ED10E46A4101CD0BD6C95B359
:4061C000E3074FF0000806D4641014D02868A8B10546E307F8D52A4631463846FFF746FFB6B17268FB6C641053F82210316043F822600646EAD13046BDE8F0812A46294658
:406200003846FFF733FF2860C0F800800546E0E70646D9E70B4A013B52F823200023FFF78DFE0646C8E701213846FFF755FE40F2712101220023416102610546B86403605B
:40624000BEE700BF887900002DE9F84F0B69541104EB03088B6808F101059D420E4691468346496804DD5B009D4201F10101FADC5846FFF731FE002C00F1140237DD02EB37
:406280008403002142F8041B9342FBD1346906F1140119F01F0901EB840E20D0C9F1200C00240F681A4607FA09FA4AEA040443F8044B51F8044B8E4524FA0CF4F1D8546043
:4062C0000CB108F10205DBF84C307268013D53F822100561316043F82260BDE8F88F043B51F8042B8E4543F8042FF9D8EBE71346CCE700BF02690B69D21A12D19B0014302A
:406300001431194410B4034401E098420BD253F8044D51F8042D9442F7D007D3012010BC704710467047002010BC70474FF0FF30F5E700BF2DE9F0470B690C4611699046CB
:406340005B1A002B18D1890004F1140602F114077318394401E09E4269D253F8045D51F8042D9542F7D06BD22346B24644463E4698464FF0010906E066DB04F1140602F12A
:40638000140A4FF000096168FFF7A6FD5546D4F810E0D8F810303746C0F80C900AEB830C06EB8E0600F114044FF0000957F8042B55F8041B1FFA82F808EB09031FFA81F875
:4063C000090CC8EB0303C1EB124202EB23429BB243EA0243AC4544F8043B4FEA2249E5D8BE4218D9A046BC465CF8042B95B205EB09010B1403EB12428BB243EA0243664599
:4064000048F8043B4FEA2249EED8FF43374427F0030704373C44043C2BB954F8043D0EF1FF3E002BF9D0C0F810E0BDE8F0870021FFF752FD0122002302614361BDE8F08766
:40644000BA464FF000099EE7234604F1140A08F1140644464FF00109984694E7F0B5012183B01C46C3F30A551646FFF735FDC4F3130407460DB144F48014019406B302A802
:4064800040F8086DFFF7BAFD002830D19DE80C007A61002B0CBF01210221BB613961D5B9089A07EB8103A0F2324010601869FFF785FD099BC0EB41101860384603B0F0BDF3
:4064C00001A8FFF79BFD019B0122114620303A617B61002DE4D0A5F23343089A03441360099BC0F135001860384603B0F0BD019BC0F12001009A03FA01F10A43C340019383
:406500007A61C6E738B5074C0023054608462360F9F7B4FF431C00D038BD2368002BFBD02B6038BD408BFF1F20F0030110F00300C0F1000051F8043B00F1040C4FEACC0C41
:406540006FF000021CBF22FA0CF213434FF0010C4CEA0C2C4CEA0C4CA3EB0C0222EA030212EACC1204BF51F8043B0430F4D0C2F1000102EA0102B2FA82F2C2F11F0200EBDB
:40658000D20070472DE9F04F936883B09046002B72D04FF000090D464C468346166808688B68002C45D09C421F469A4646D3AB8913F4906F2DD06F69296907EB4707C1EBAB
:4065C000000A07EBD777601C7F105044B8423A4684BF07463A465B0533D511465846FFF785F9002837D0524629690190FCF700FDAA89019B22F4906242F08002AA81CAEB12
:40660000070203EB0A006F61A24627462B612860AA605246494600F0EDF9D8F80820AB682868DB1B5044141BAB602860C8F8084014B3D6F8009074680836B2E72746A246FD
:40664000E7E7584600F03AFA03460028D7D12969584600F0E7F80C23CBF80030AB89002243F040034FF0FF30AB81C8F80820C8F8042003B0BDE8F08F0020C8F8040003B0B0
:40668000BDE8F08F2DE9F047254C064625688846D5F8484192469946C4B360681F2817DC411C76B104EB8003C3F888A0D4F88851012282401543022EC4F88851C3F80891F7
:4066C0001ED0831C6160002044F82380BDE8F087144B03B34FF4C870AFF300800446D0B1D5F84831002784E888003846C5F848410121C4F88871C4F88C71002EE1D0D1E768
:40670000D4F88C311A43C4F88C21DAE705F5A674C5F84841C1E74FF0FF30BDE8F08700BF287800000000000010B502FB01F1FFF7DDF80446D8B150F8042C22F00302043A3F
:40674000242A18D8132A14D900231B2A0360436016D9242A8360C36011BF00F110020361436100F118020023136053609360204610BD0246F7E70021FCF7B0FC204610BD92
:4067800000F10802EFE700BFF8B50C46224F0646FFF79EFBBB685D6825F00305291B01F6EF7121F47F6121F00F01A1F58054B4F5805F07DB00213046FFF7A4FEBB682B44B3
:4067C000984204D03046FFF785FB0020F8BD61423046FFF797FE01300DD0104BBA6819682D1B45F001053046091B55601960FFF771FB0120F8BD00213046FFF783FEBA68C7
:40680000831A0F2BDEDD064C0449246843F00103001B53600860D5E76C85FF1FD089FF1F7889FF1F002945D02DE9F0410D468046FFF74EFB55F8047C6A49A5F1080427F0B7
:406840000103E2188E685068B24220F0030062D0FE0750600BD455F8087C01F1080EE41BA5683B4475456FD0E768EF60BD6015186D68ED0742D543F001026260E350B3F5A7
:40688000007F18D2DB0848689D100122013351F8337002FA05F501EBC3022843083AE260A760486041F83340FC604046BDE8F041FFF710BB70475A0A042A53D89A0902F178
:4068C00039077F0002F1380501EB870051F827200838904243494DD0516821F003018B4202D292689042F7D1D068E060A2608460D4604046BDE8F041FFF7ECBA95683A4FD8
:406900000344BD423FD0D06843F00102E86085606260E350B3E7FF07034407D455F8085C641BE268A0682B44C26090602F4A43F001001268606093428C60B6D32C4B40467F
:406940001968FFF721FFB0E711184968C90744D491680344D26843F00100CA6091606060E350A2E7142A17D802F15C077F0002F15B05A9E7AA104B68012505FA02F2134321
:406980004B600246B1E743F001024C610C61E560A5606260E35088E7542A06D81A0B02F16F077F0002F16E058EE7B2F5AA7F06D8DA0B02F178077F0002F1770584E740F27A
:4069C0005450824206D89A0C02F17D077F0002F17C0579E7FE277E2576E743F001026260E35062E76C85FF1F7485FF1F7489FF1FCC89FF1F8842F0B50DD98B1898420AD2E6
:406A00008118002A51D09A1A13F8014D934201F8014DF9D1F0BD0F2A48D941EA00039B0746D1154600F1100401F1100353F8106C103D44F8106C53F80C6C0F2D44F80C6CAD
:406A400053F8086C04F1100444F8186C53F8046C03F1100344F8146CE8D8A2F1100323F00F0302F00F0E1033BEF1030F1944034421D90E4674461D1F56F8047B043C032C4E
:406A800045F8047FF8D8AEF1040424F0030404342344214402F0030262B1013B0A4411F8014B8A4203F8014FF9D1F0BD0346F3E70346F2E7F0BD7246EEE700BF2DE9F04F76
:406AC000174683B0002900F08F800D46814607F10B04FFF7FDF955F804EC162C2EF00306A5F108083CD810221446A7423DD8964242DAC64B08EB060099688842416800F085
:406B0000D78021F0010303445B68DB074CD51EF0010F00F09D8039464846FEF7E7FE074600283AD055F8043CA0F1080223F0010343449A4200F03E81321F242A00F22B81BD
:406B4000132A00F2FF8003462A46116819605168596092689A6029464846FFF763FE1CE024F00704002C2246BFDA0C230020C9F8003003B0BDE8F08F2F46331B0F2BD8F8D6
:406B800004201DD802F00102324308EB0601C8F804204B6843F001034B604846FFF79AF9384603B0BDE8F08F21F003013144914220DBC36882682F46D3600E469A60DCE74D
:406BC00002F0010208EB0401144343F00102C8F804400B444A605A68083142F001025A604846FFF71FFED8E7114603B0BDE8F04FFEF77CBE1EF0010F8DD155F8083CC3EBFC
:406C0000080ADAF8043023F0030C01EB0C0E964526DB5746C3688168321FCB60996057F8081FDAF80C30242ACB60996000F2C980132A40F292802B681B2ACAF808306B68BB
:406C4000CAF80C3000F2CD8008350AF1100385E055F8083CC3EB080ADAF8043023F0030C06EB0C039342FFF656AF5746DAF80C1057F8080F321F242AC160886000F2AA802A
:406C8000132A40F2A58029681B2ACAF808106968CAF80C1000F2BC8008350AF1100229681E4611606968D0465160AB68936064E721F0030B04F11000B344834557DA1EF0F8
:406CC000010F7FF428AF55F8081CC1EB080ADAF8041021F0030CE3445845C1DC5746DAF80C1057F8080F321F242AC160886000F2B180132A40F2A28029681B2ACAF80810A7
:406D00006968CAF80C1000F2AC8008350AF110022968116069685160A9689160C4EB0B020AEB040142F0010299604A60DAF80430484603F001031C43CAF80440FFF7CAF880
:406D400038462EE72B681B2A03606B68436026D800F1080305F10802F7E63B462A6876461A606A68D0465A60AA689A6005E7C4EB0B0B08EB04014BF0010299604A6055F82A
:406D8000043C484603F001031C4345F8044CFFF7A1F8284605E72946FFF72CFEDBE6AB68242A8360EB68C36027D000F1100305F11002CAE650F8043C2F4623F003031E4404
:406DC000DBE6294638467646D046FFF713FED4E63A4664E7294638461E46D046FFF70AFECBE6AB68242ACAF81030EB68CAF814301AD010350AF11803B0E72A6900F118033A
:406E00000261696905F1180241619EE66C85FF1FA968242ACAF81010E968CAF814100FD010350AF118023AE72A690AF12003CAF818206A691835CAF81C208FE73A4667E7F9
:406E400029690AF12002CAF8181069691835CAF81C1024E7294638460193FFF7CBFD019B5CE7A968242ACAF81010E968CAF8141003D010350AF118024AE729690AF12002BE
:406E8000CAF8181069691835CAF81C1040E700BF70B54FF0FF0C4CF4E06C1CEA11541DBF1CEA135594EA0C0F95EA0C0F00F0DEF82C4481EA030621EA4C5123EA4C5350EADA
:406EC000013518BF52EA033541F4801143F4801338D0A0FB02CE4FF00005E1FB02E506F00042E0FB03E54FF00006E1FB03569CF0000F18BF4EF0010EA4F1FF04B6F5007F11
:406F000064F5407404D25FEA4E0E6D4146EB060642EAC62141EA55514FEAC52040EA5E504FEACE2EB4F1FD0C88BFBCF5E06F1ED8BEF1004F08BF5FEA500E50F1000041EB0B
:406F4000045170BD06F0004646EA010140EA020081EA0301B4EB5C04C2BFD4EB0C0541EA045170BD41F480114FF0000E013C00F3AB8014F1360FDEBF002001F0004170BDB5
:406F8000C4F10004203C35DA0C341BDC04F11404C4F1200500FA05F320FA04F001FA05F240EA020001F0004221F0004110EBD37021FA04F642EB06015EEA430E08BF20EAFB
:406FC000D37070BDC4F10C04C4F1200500FA04F320FA05F001FA04F240EA020001F0004110EBD37041F100015EEA430E08BF20EAD37070BDC4F1200500FA05F24EEA020ED5
:4070000020FA04F301FA05F243EA020321FA04F001F0004121FA04F220EA020000EBD3705EEA430E08BF20EAD37070BD94F0000F0FD101F00046400041EB010111F4801FF9
:4070400008BF013CF7D041EA060195F0000F18BF704703F00046520043EB030313F4801F08BF013DF7D043EA0603704794EA0C0F0CEA135518BF95EA0C0F0CD050EA41060E
:4070800018BF52EA4306D1D181EA030101F000414FF0000070BD50EA410606BF1046194652EA430619D094EA0C0F02D150EA013613D195EA0C0F05D152EA03361CBF104685
:4070C00019460AD181EA030101F0004141F0FE4141F470014FF0000070BD41F0FE4141F4780170BD70B54FF0FF0C4CF4E06C1CEA11541DBF1CEA135594EA0C0F95EA0C0F05
:4071000000F0A7F8A4EB050481EA030E52EA03354FEA013100F088804FEA03334FF0805545EA131343EA12634FEA022245EA111545EA10654FEA00260EF000419D4208BFC1
:40714000964244F1FD0404F5407402D25B084FEA3202B61A65EB03055B084FEA32024FF480104FF4002CB6EB020E75EB030E22BFB61A754640EA0C005B084FEA3202B6EB41
:40718000020E75EB030E22BFB61A754640EA5C005B084FEA3202B6EB020E75EB030E22BFB61A754640EA9C005B084FEA3202B6EB020E75EB030E22BFB61A754640EADC00D4
:4071C00055EA060E18D04FEA051545EA16754FEA06164FEAC30343EA52734FEAC2025FEA1C1CC0D111F4801F0BD141EA00014FF000004FF0004CB6E711F4801F04BF014334
:407200000020B4F1FD0C88BFBCF5E06F3FF6AFAEB5EB030C04BFB6EB020C5FEA500C50F1000041EB045170BD0EF0004E4EEA113114EB5C04C2BFD4EB0C0541EA045170BDCF
