:4000000000800020110000007D0400007D04000008B5044B1A6803F53F5302331A6000F04DFA00BFFA46004010B5054C237833B9044B13B10448AFF300800123237010BD2E
:400040004881FF1F00000000E8170000084B10B51BB108490848AFF300800848036803B910BD074B002BFBD0BDE81040184700BF000000004C81FF1FE8170000C880FF1F04
:40008000000000000122014B1A707047CC80FF1F08B500F071F800F079FC00F07DFB2F4800F00EFC072000F0F7FB62B601226B21682000F081F86B21682000F061F8284D3F
:4000C0002870284C01222849204600F069FF2A78264904F1100000F063FF254B1B78012B14D1012000F00CFB0021084600F062FB204600F0F7FA0021012000F05BFB04F18E
:40010000100000F0EFFA0022194B1A7001223B21682000F065F8124B5860154B1B78012BF4D1104D02461349284600F039FF00242C74012000F0E4FA2146204600F03AFB3D
:40014000284600F0CFFA2146012000F033FB05F1100000F0C7FA064B1C70D7E7850000006481FF1F7881FF1FEC170000F8170000CC80FF1F0418000008B500F05BFC08BD60
:4001800038B504460D46002100F0D0FD60B9284600F05EFE0121204600F008FE30B9012000F082FE044602E0002400E0002400F033FE204638BD00BF70B50E461546002188
:4001C00000F0B4FD044630B9304600F041FE284600F03EFE044600F01FFE204670BD00BF70B504460D461646002100F09FFD80B9284600F02DFE0121204600F0D7FD58B959
:40020000012000F051FE0446012000F04DFE054604E000252C4601E000252C4600F0FCFD16B145EA042070BD44EA052070BD00BFFEE700BFF0B40022174611E050F8276084
:40024000F3B226F0FF0608E001EB420511F812406D78A5550132013BDBB2002BF4D101371B2FEBD9F0BC7047064B1B78DBB203F00701054A11701B09013213704422034B0A
:400280001A707047CF0100496E5800407658004008B50A46002100F07AFE08BD38B545F6BF52244B1A80182202331A70022203F27E231A7008224FF040231A70032103F584
:4002C000007319701C4B1B78DBB21C490B701C4B1A8041F25122023B1A80002419250CE0184B1B7803F0010343EA440404F003044FF4F07000F004FE013D0DB1032CEFD1F2
:4003000015B90320FFF794FF0F4B4FF480721A8007221A7000220D490A704820023108701A700222033B1A70094A137843F00103137038BD8040004008010049A1460040E6
:4003400022420040254200400440004006400040A243004008B500F00FFE08BD38B572B6314A137843F00403137000240CE02F4D630019194A0011462A4408469188285895
:40038000FFF786FF0134E4B2082CF0D928494FF09040FFF74FFF274A274B1A60274A137843F0020313701032137843F002031370234C237843F040032370A2F58632513AAD
:4003C000137843F01003137008221E491E48FFF7C1FF0A221D491E48FFF7BCFF08221D491D48FFF7B7FF08221C491D48FFF7B2FF08221C491C48FFF7ADFF1C4A137843F05E
:40040000080313701A4D61232B70FFF747FF81232B700122174B1A70FFF726FF0E2221461548FFF797FF38BDE8460040081800007000004804040444D81401400350014037
:40044000A0430040800600480251004088060048C051004094060048125100409C06004822510040A406004832510040224300400048004004000840B043004008B500F0A1
:400480004FFD03680C2B00D1FEE7FEE708B5094B1A681044084BC31A802B02DC054B186005E000F03DFD0C2303604FF0FF32104608BD00BFD080FF1FB881FF1F08B5104E80
:4004C000104D16E029686B68AC68002204E051F8040B43F8040B0432A242F8D1E868002203E0002143F8041B04328242F9D11035013E002EE6D100F019FDFFF7C9FDFEE702
:40050000010000009818000008B5104A104B1A60104A136843F40073136000230AE0032B03D80D4A52F8231000E00C490C4A42F8231001332F2BF2D90A4B1A780A4B1A702B
:40054000074A0A4B1A60FFF709FF08BD0004FA050CED00E014ED00E0000000007D0400000080FF1FBC760040C080FF1F08ED00E010B50B4C237803F09F032370237803F0AA
:40058000F00323702378184340F010002070012000F046F9237803F0EF03237010BD00BF2051004038B505460E4C237843F020032370237803F0BF032370002000F030F91D
:4005C000237803F0F003237023781D4345F010052570012000F024F9237803F0EF03237038BD00BF2051004070B5354B1A7802F08002D2B21A7033490A7802F0F00242F09A
:400600000F020A7001310A7802F0F0020A7001310A7802F0F0020A701A7802F0DF021A701A7842F040021A704FF4CA76002000F0F7F8234D2B7843F010032B70012000F005
:40064000EFF8214B1C78E4B22B7803F0EF032B70002000F0E5F804F00804E4B22B7843F010032B70012000F0DBF82B7803F0EF032B7014B90A2000F0D3F8013E0CB1002EF0
:40068000D4D10F4A137803F0BF031370137803F08003DBB213700232137803F0F00313700132137803F0F00343F00F0313700132137803F0F00343F00F03137070BD00BF7C
:4006C00020510040225100402151004010B50446FFF78AFF2009FFF765FF04F00F00FFF761FF10BD38B505460078012404E0FFF7EDFF285D0134E4B20028F8D138BD00BF1D
:4007000010B50446FFF770FF2009FFF731FF04F00F00FFF72DFF10BD08B5282000F06AF80320FFF725FF052000F064F80320FFF71FFF0F2000F05EF80320FFF719FF012001
:4007400000F058F80220FFF713FF052000F052F80620FFF7D5FF0E20FFF7D2FF2C20FFF7CFFF0820FFF7CCFF0120FFF7C9FF0C20FFF7C6FF0320FFF7C3FF052000F03AF8EA
:4007800008BD00BF08B50C20FFF7BAFF0122014B1A7008BD6C81FF1F08B5054B5B7823B9FFF7BAFF0122024B5A70FFF7EBFF08BD6C81FF1F08B5032819D8DFE800F0020766
:4007C0000D1381F08000FFF79BFF08BDA1F14000C0B2FFF795FF08BDA1F16C00C0B2FFF78FFF08BDA1F12C00C0B2FFF789FF08BD01BE704710B5044605E0084B186800F0A7
:400800007FFBA4F50044B4F5004FF6D8034B586800FB04F000F074FB10BD00BFD480FF1F08B5034B1B7A00FB03F000F069FB08BDD480FF1F70B504460E46074B1D681F2847
:4008400002D90020FFF7D4FF04F01F04103455F8240045F8246070BD08ED00E038B504460D46072902D90020FFF7C2FF1F2C02D90020FFF7BDFF04F01F0000F1604000F528
:4008800064406D01EDB2057038BD00BF014B1B681864704708ED00E04001C0B2014B1870704700BF00E400E00122014B1A60704700E100E00122014B1A60704780E100E084
:4008C00010B50446FFF7F6FF2046FFF7DFFF0720FFF7E2FFFFF7E8FF10BD00BF084A137843F0010313701032137843F00103137002F64D32137843F001031370704700BF0D
:40090000A3430040014B1870704700BF034F0040014B1880704700BF044F0040014B1880704700BF064F004008B5154A137803F0010313700232137803F0FC031370114B28
:400940001A7802F0CF021A701A7842F030021A701A7802F0F0021A701A7842F00F021A70094A137843F001031370FF20FFF7D0FFFF20FFF7D3FF0820FFF7C4FF08BD00BFF1
:40098000004F00400B4F0040014F004008B5054B1B7823B9FFF7C8FF0122024B1A70FFF79DFF08BD6E81FF1F38B50222114B1A7081220E3B1A70082202331A700F25113319
:4009C0001D70002401331C704FF400420A4B1A6007212846FFF742FF08492846FFF72AFF1022074B1A70074B1C70074B1C70074B1C7038BDD649004080E100E05D0A0000E3
:400A00009881FF1F9D81FF1FAD81FF1F9C81FF1F08B500F07DFA064A137843F0040313701032137843F00403137000F075FA08BDA543004008B5074B1B7823B9FFF7B4FF03
:400A40000122044B1A70FFF7E3FF4FF40042024B1A6008BD6F81FF1F00E100E038B5A54B1C78A54B1B7813F0400F00F03A81E4B214F0010F00F01D819F4B1B78453B052B6C
:400A800000F21481DFE813F006008200120112010600DF0004F0DF0504F00A04082C42D1954B1B78DBB2452B35D1944B1B7813F0FF0F10D0924B1B681B78DBB2914A13707A
:400AC00004228C4B1A7001228F4B1A7046228A4B1A702C46EDE08D4B1B7813F0020F0DD08B4A137843F00A0313706022824B1A704FF40042874B1A602C46DAE0864A137832
:400B000043F0100313701022844B1A700422023B1A702C46CDE00022764B1A704A22764B1A702C46C5E00A2C2BD1794A137843F0A0031370754B1B7813F0020F14D06E4B3D
:400B40001B7813F0080F01D0092300E00A23704A11780B4313706022674B1A704FF400426C4B1A602C46A4E06B4A137843F0100313701022694B1A700422023B1A702C4668
:400B800097E00020FFF734FE2C4692E014F0020F36D15D4B1A78D2B2584B1B78DBB29A4210D2594A1378DBB255490968CB5CDBB254490B7004214F4B197013780133DBB20D
:400BC000137076E0514B1B7813F0020F0CD0504A137843F00A0313706022474B1A704FF400424C4B1A6064E04B4A137843F0100313701022494B1A700422023B1A7058E03F
:400C0000424B1B7813F0020F0CD0414A137843F09A0313706022384B1A704FF400423D4B1A6046E03C4A137843F01003137010223A4B1A700422023B1A70354A137843F0BA
:400C40009003137035E0364A1378DBB2354908682C490978C9B2C15413780133DBB213701278D2B2304B1B78DBB29A4203D21022204B1A701DE0254B1B7813F0020F0CD0FD
:400C8000234A137843F00903137060221A4B1A704FF400421F4B1A600BE01F4A137843F0100313700022134B1A7002E00020FFF79FFD14F0200F1CD00F4B1B7813F0080F34
:400CC00001D0012300E00223114A11780B431370114A137803F0EF0313701022064B1A7038BD054B1B7813F0100F02D11022024B1A7038BDD74900409881FF1FAE81FF1F3B
:400D0000A881FF1FD84900409C81FF1FAC81FF1F9D81FF1F80E100E0D6490040D9490040AD81FF1FA081FF1FA481FF1F1A4B1B78DBB2102B29D1194B1B7813F0080F26D1B7
:400D40004FF40042164B1A604000C0B229B140F001004922104B1A7002E045220E4B1A70104B1870012201331A700F4B1B7813F0010FFAD00C4B1B7803F00A030A2B08D154
:400D80001022054B1A700320704702207047012070470020704700BF9881FF1FD949004080E100E0D8490040D7490040164B1B7813F0040F23D04000C0B229B140F00100B1
:400DC0004922124B1A7002E04522104B1A70104B1870122201331A700422023B1A700D4B1B7813F0010FFAD00A4B1B7803F00A030A2B06D11022054B1A70032070470220ED
:400E000070470020704700BFD94900409881FF1FD8490040D74900400A4B1B7813F0040F0ED01023074A13700421023A1170064A1370064B1B7813F0210FFAD000207047BB
:400E400002207047D94900409881FF1FD7490040114B1B7813F0040F1BD0104B18700422013B1A7046220E4B1A700E4B1B7813F0010FFAD00B4B1B7813F0020F04D1602279
:400E8000074B1A70002070476022054B1A70032070470220704700BFD9490040D84900409881FF1FD7490040114B1B7813F0040F1BD0104B1B78DBB2492B05D100220E4B27
:400EC0001A704A220B4B1A700B4B1B7813F0010FFAD00A4B1B78DBB218B11021064A117004E06021034A117000E0002318467047D94900409881FF1FD7490040D849004071
:400F00000230800803D000BF01380046FCD17047EFF3108072B6704780F31088704700BF014B1868704700BF4481FF1F0E4B70B51E460E4C0025E41AA410A54204D056F84F
:400F4000253098470135F8E700F094FC084B094C1E46E41AA4100025A54204D056F8253098470135F8E770BD8018000080180000801800008818000010B5431E0A44914297
:400F800004D011F8014B03F8014FF8E710BD03460244934202D003F8011BFAE7704700000EB400B54FF402719CB0ADF814106FF00041049107914FF6FF711DAB0290069078
:400FC000084853F8042BADF81610006802A9019300F064F8029B00221A701CB05DF804EB03B070474481FF1F2DE9F0478E6882469E420C46914698463ED88A8912F4906FA3
:401000003AD02568096902236F1A656905EB450595FBF3F57B1C43449D4238BF1D4653050FD5294600F040FB064698B13A462169FFF7A2FFA38923F4906343F08003A38106
:4010400013E02A4600F08EFB064670B92169504600F0DEFA0C23CAF80030A3894FF0FF3043F04003A381BDE8F08726613E44266046466561ED1BA560464528BF464649464B
:401080003246206800F0A8FAA36800209B1BA36023681E442660BDE8F08700002DE9F04F9DB003938B8980461C060D4616460DD50B695BB9402100F0F7FA2860286118B9BA
:4010C0000C23C8F80030CDE040236B610023099320238DF82930DFF89CB130238DF82A3037463C4614F8013B1BB9B7EB060910D003E0252BF9D02746F3E74B463246294658
:401100004046FFF771FF013000F0A780099B4B4409933B78002B00F0A08000234FF0FF3204930793059206938DF853301A930126052221784E4800F041FA671C049B38B162
:401140004B4A3C46801A06FA00F018430490EFE7D90644BF20228DF853201A0744BF2B228DF8532022782A2A03D0079A00210A200BE0039A111D12680391002A10DA52426B
:4011800043F00200079204900BE027463B780134303B092B03D800FB02320121F5E701B107923B782E2B1ED17B782A2B0AD1039B02371A1D1B680392002BB8BF4FF0FF3344
:4011C000059310E0002319460593781C0A2407463A780130303A092A03D804FB01210123F5E703B1059103223978224800F0E6F940B14023CBEB000003FA00F0049B01379B
:4012000018430490397806221B487E1C8DF8281000F0D4F988B1194B33B9039B073323F007030833039314E003AB00932A46144B04A94046AFF3008007E003AB00932A462F
:401240000F4B04A9404600F093F8B0F1FF3F824603D0099B5344099342E7AB895B0601D4099801E04FF0FF301DB0BDE8F08F00BF40180000461800004A18000000000000CA
:40128000E90F00002DE9F04791461F460A698B6806469342B8BF1346C9F8003091F843200C46DDF8208012B10133C9F800302368990642BFD9F800300233C9F800302568EB
:4012C00015F0060510D104F1190A07E00123524639463046C04701301AD00135E368D9F800209B1A9D42F1DB94F843302268003318BF012392060FD5E118302081F8430021
:401300005A1C94F845102244023382F8431003E04FF0FF30BDE8F08704F1430239463046C0470130F4D02268D9F80050E36802F00602042A08BF5D1B2269A3680CBF25EA89
:40134000E57500259342C4BF9B1AED184FF000091A344D4509D00123224639463046C0470130D5D009F10109F3E70020BDE8F0872DE9F04317460A7E85B06E2A984606463E
:401380000C460C9B01F1430E00F0AE8011D8632A22D009D8002A00F0BB80582A40F0CA8081F84520834955E0642A1ED0692A1CD0C0E0732A00F0B08009D86F2A2ED0702AF0
:4013C00040F0B8800A6842F020020A603EE0752A24D0782A3AD0ADE01A6801F14205111D1960136884F84230A8E021681A6811F0800F02D0111D196008E011F0400F02F1D9
:401400000401196002D0B2F9003000E01368002B3CDA2D225B4284F8432037E021681A6811F0800F02D0111D196007E011F0400F02F10401196001D0138800E01368227EE0
:401440005C496F2A14BF0A2208221BE078225A4984F845202268186812F0800F00F104051D6003D1550601D5038800E00368D00744BF42F0200222601BB9226822F02002BD
:4014800022601022002084F8430001E049490A226568002DA56008DB206820F0040020602BB9002D7DD175460CE0002B79D07546B3FBF2F002FB1033CB5C05F8013D03464C
:4014C0000028F5D1082A0BD12368DA0708D5236962689A42DEBF302305F8013C05F1FF35C5EB0E0323612EE008681A6810F0800F496903D0101D1860136808E010F0400F71
:4015000002F104001860136801D0198000E0196000232361754616E01A68111D1960156800216268284600F049F808B1401B6060636804E004F1420584F842200123236131
:40154000002384F84330CDF800803B4603AA21463046FFF797FE013002D14FF0FF3026E023692A4639463046C0470130F5D023689B0710D5002504F1190907E001234A462F
:4015800039463046C0470130E7D00135E368039A9B1A9D42F2DBE068039B9842B8BF184605E00B7804F1420584F842308AE705B0BDE8F083511800006218000010B5C9B240
:4015C00002449042034605D01C7801308C42F8D1184610BD002010BD884210B501EB020301D8421E0BE09842FBD28118D21AD34204D013F8014D01F8014DF8E710BD994261
:4016000004D011F8014B02F8014FF8E710BD000038B50546002944D051F8043C0C1F002BB8BFE41800F0D4F81E4A1368114613B96360146030E0A3420DD92268A0188342E9
:4016400001BF18685B681218226063600C6023E0A24203D813465A68002AF9D118681918A1420BD12168014458188242196013D110685268014419605A600DE002D90C234B
:401680002B6009E021686018824201BF106852680918216062605C602846BDE8384000F098B838BD7481FF1F70B5CD1C25F0030508350C2D38BF0C25002D064601DBA94203
:4016C00002D90C23336046E000F082F8234B1C681A462146A1B10B685B1B0ED40B2B03D90B60CC18CD501EE08C420BBF63684B681360636018BF0C4615E00C464968E9E72E
:40170000174C23681BB9304600F052F820602946304600F04DF8431C18D0C41C24F00304A0420DD12560304600F053F804F10B00231D20F00700C31A0ED05A42E25070BD58
:40174000211A304600F034F80130EBD10C233360304600F03EF8002070BD00BF7481FF1F7081FF1FF8B5074615460E4621B91146BDE8F840FFF798BF1AB9FFF749FF2846A0
:40178000F8BD00F027F885420ED929463846FFF78BFF044650B131462A46FFF7EDFB31463846FFF735FF01E03046F8BD2046F8BD38B5064C0023054608462360FEF766FE1D
:4017C000431C02D1236803B12B6038BDB081FF1F7047704751F8040C0028BEBF091851F8043CC018043870470000000057726F7465202578000000005265616420202578A1
:401800000000000025640000C84900401900004F00400C00405100403000F0510040100000000140001000140140000800400140000A004C014000020050014020004300CC
:40184000232D302B2000686C4C00656667454647003031323334353637383941424344454600303132333435363738396162636465660000F8B500BFF8BC08BC9E467047F6
:401880004D00000009050000F8B500BFF8BC08BC9E46704729000000A8180000C880FF1F80000000700000000000000001000000B881FF1F0000E02EC05D00001800000074
:4018C00000366E0100000000000000000000000000000000000000000000000000000000000000003E180000000000000000000000000000000000000000000000000000ED
:40190000000000000000000000000000000000000000000000000000000000000000000000000000E480FF1F00000000000000000000000000000000000000000000000025
:401940000000000000000000000000000000000000000000000000000000000000000000000000000000000000000000000000000000000000000000000000000000000067
:401980000000000000000000000000000000000000000000000000000000000000000000000000000000000000000000000000000000000000000000000000000000000027
:4019C00000000000000000000000000000000000000000000000000000000000000000000000000000000000000000000000000000000000000000000000000000000000E7
:401A000000000000000000000000000000000000000000000000000000000000000000000000000000000000000000000000000000000000000000000000000000000000A6
:020000040003F7
:0200000480007A
:40000000014F00400452004003640040026500404F02014030030140550401402A050140640601403707014001090140040A0140010B01405714014041150140421601404F
:4000400030170140041B0140034001400F4101400C420140044301400448014016490140064C0140084D014005500140025101400A4B0029012560026403830D850D870DC9
:40008000856F860F02010A020B010F021F02260227012E0130023102320137013E043F014060410249FF4AFF4BFF4DA04F045018580459045A045B045C995D095F01604062
:4000C00062C06440654066C068C06AC06CC06EC08602920198049B01A604AA02B004B202B401B501BE04C020C106C5D1C702C813C9FFCAFFCBFFCDAFCE0FCF04D018D280E3
:40010000D405D804D904DA04DB04DC99DD99DF01E040E2C0E440E540E6C0E8C0EAC0ECC0EEC000040402060809221020120415401704180419041A401B101E801F0821208B
:40014000240227402C20302036403D403F2040044604482849014F205008520459055A406C046D806F20710280048B088F60C054C20AC4A6CA40CC14CE30D024D224D60B45
:40018000E2702E0132014030410249FF4AFF4BFF4DA04F045018528058045A045B045C095D995F01604062C06440654066C068C06AC06CC06EC08108831087018A088D0807
:4001C0008E048F1092049304940299109B08A201A608A908AA02AB12AF04B002B102B201B318B408B501B604B704BB08BE10BF40C030C102C5D0C620C701C81AC9FFCAFFDE
:40020000CBFFCDAFCE0FCF04D018D405D804D904DA04DB04DC99DD99DF01E040E2C0E440E540E6C0E8C0EAC0ECC0EEC004900E200F40100216A818101E4A1F0825812610F5
:4002400027102D402F08360137103D823E88401041204304452047044F01552056285E485F016D407002818095409E089F04AD40C0C0C230C471CA30CCA0CED0D066D6D0FD
:40028000000C0201050E080B0A040D180F06100C11141202130A191E1D061E0F1F18240727012808290A2A012B14300F351E37014050410649FF4AFF4BFF4DA04F0450184D
:4002C000580459045A045C995D095F01604062C06440654066C068C06AC06CC06EC08201863C882C8A108F0190309208930296029C309E04A020A204A41CA801AE02B03CCC
:40030000B102B301B402B601BE10C050C106C5D0C601C702C816C9FFCAFFCBFFCDAFCE0FCF04D018D280D405D804D904DA04DB04DC99DD99DF01E040E2C0E440E540E6C0B5
:40034000E8C0EAC0ECC0EEC0024003140502070409080A400B020E800F011108128013591404171819421A441C801E801F0123502540262027042C042F103102350236A0F7
:4003800038803C803D08480849014B404C084F4050485108524059415A047102948097409B10A540C05EC29DC46FCA60CCB1CE58D23CD60BEE08AF0138023E0158045F01CC
:4003C0001B012A0136014014410349FF4AFF4BFF4DA04F01501858045A045C095D095F016040628064406540668068406A806C406D206E8081C0840485408780880189CAA7
:400400008B208D0191AC93409567960C9B309F10A110A201A602A901ADECB001B101B208B30EB404B5E0B602B710B90ABE11BF41C015C103C54CC632C70EC81FC9FFCAFFF1
:40044000CBFFCDAFCE07CF01D018D280D40FD804D904DA04DB04DC99DD99DF05E040E280E440E540E680E840EA80EC40ED20EE80042005040F2010081501170819401D04A2
:400480001E481F8024402584262A27082E202F813502362837403D143F814050418045884D014E024F0456A857505C015E485F206608670477407E0880088680873090313E
:4004C000911493039501972099029D40A108A504A608A750C060C220C432CAB0CCF0CEF0D05BD210D6F0D860DE20E008E401E610EA0503040606080609020D020F01120100
:4005000014041602210130023204330435023601370139203E053F40540F5604580459045B045C995D905F01809E8110826083208430850486C988FD89078A028D07960F58
:40054000970799109B609CCF9D219E309F12A094A101A260A302A708A873AB04AD10AFA0B140B2FFB30FB580B730BB80BE04D804D904DC90DF0101160314042809080B0295
:400580000D080F80128819081EA01F80201021092290230124292808294A2F803108329039163A403D013FA05EA25F08674080088301864887409302972099029B1CA201DF
:4005C000A504A680AA21C06EC235C40ACA8FCC0ECEBFD6F0D880E008E401E610EA0532803640CC305004571059085B405F20660883408A088C048D08A6C0D4E0D660D880F4
:40060000E68012803E1063028310A6C0A710AF20C410CE20D640E680EA409610A640AF01EE1086409610A640E64007040B401220164074087B0282208304864087408C0855
:40064000A302AA10AB02C080C210C430DC80DE20E090E4C0EAA0132817047B107F40C40EDE03831087408F0497809B04A710AB28E608010109010B0111011B01000E03C0EB
:40068000003F3F003F000000030000000300030000000000000B0B0000000000007F7F00000000001C00000000000000000000000000000000000000000000000000000044
:4006C00000000000000000000000000000000000000000000000000000000000000000000000000000000000000000000000000000000000000000000000000000000000FA
:4007000000000000000000000000000000000000000000000000000000000000000000000000000000000000000000000000000000000000000000000000000000000000B9
:400740000000000000000000000000000000000000000000000000000000000000000000000000000000000000000000000000000000000000000000000000000000000079
:400780000000000000000000000000000000000000000000000000000000000000000000000000000000000000000000000000000000000000000000000000000000000039
:0200000490006A
:0400000000004005B7
:0200000490105A
:04000000BC90ACAF55
:0200000490303A
:0200000028C610
:0200000490402A
:4000000000000000000000000000000000000000000000000000000000000000000000000000000000000000000000000000000000000000000000000000000000000000C0
:400040000000000000000000000000000000000000000000000000000000000000000000000000000000000000000000000000000000000000000000000000000000000080
:400080000000000000000000000000000000000000000000000000000000000000000000000000000000000000000000000000000000000000000000000000000000000040
:4000C0000000000000000000000000000000000000000000000000000000000000000000000000000000000000000000000000000000000000000000000000000000000000
:0200000490501A
:0C00000000012E16106900012E21392F7E
:00000001FF