:400000000080002011000000450900004509000008B5044B1A6803F53F5302331A6000F0B1FC00BFFA46004010B5054C237833B9044B13B10448AFF300800123237010BD2E
:400040009081FF1F00000000B8600000084B10B51BB108490848AFF300800848036803B910BD074B002BFBD0BDE81040184700BF000000009481FF1FB8600000C880FF1F42
:40008000000000000122014B1A707047CC80FF1F704700BF08B50122024B1A7003F094F808BD00BF5C82FF1F08B5214B1B78012B16D013B1022B26D037E001F061FC03F0ED
:4000C000B1FB1C4903F0F8FA1B4903F0FFFB1B4B1860012002F0EAFF0122154B1A7024E001F04EFC03F09EFB124903F0E5FA124903F0ECFB114B5860022002F0D7FF022283
:400100000B4B1A7011E001F03BFC03F08BFB094903F0D2FA084903F0D9FB084B9860002002F0C4FF0022024B1A7001F021FC08BDAC81FF1F00240347EF7F98BAFC81FF1F24
:4001400008B50121002001F07BFE01F09FF800F005FE00F087FD01F0F7FB02F097FF002002F0A4FF01F004FC01F004F901F082F901F000FA022002F083FFBC4801F020F82E
:40018000072001F009F8BA4803F010F8072002F0F9FFB84802F0E2FF012002F0CBFFB64802F0B4FF012002F099FF62B600F098FDB24B1860B24B0340002B05DA013B6FEA29
:4001C00003536FEA1353013398B201F081F8AB4B1B68AB481840002805DA01386FEA00506FEA1050013080B201F0F2F8A34B1B68A3481840002805DA01386FEA00506FEA68
:400200001050013080B201F063F901F057FE28B101F04EFE10B1022001F08CFF022001F05DFE012811D1022001F062FE0246954B18809549022001F025FF022001F04EFED3
:400240000128FAD0022001F075FF012001F046FE0128FAD1894B186803F0E4FA03F04CF98A4D02460B468A49284604F02FF9894C2A468949204600F097F9402221460120A9
:4002800001F07EFE854B1B78012B8FD1844B5B78062B00F24F81DFE813F00700210059009100C9001F0137017E4B7F4A03CA186059601188927819819A727C4A10681861C0
:4002C00012791A757A4B1B78012B40F033810622734B5A700022764B1A702BE1754B186803F00AF96F4C02460B467349204604F0EDF801F04DF8054601F050F8B5FBF0F381
:4003000000FB135080B203F08DFA054601F046F803F088FA0146284603F08CFB674903F0D5FA03F0E9F802460B46654904F1100004F0CCF85E4B1B78012B40F0FB80022214
:40034000574B5A7000225A4B1A70F3E0594B586803F0D2F8534C02460B465A49204604F0B5F801F095F8054601F098F8B5FBF0F300FB135080B203F055FA054601F08EF879
:4003800003F050FA0146284603F054FB4B4903F09DFA03F0B1F802460B46494904F1100004F094F8424B1B78012B40F0C38003223B4B5A7000223E4B1A70BBE03D4B986813
:4003C00003F09AF8374C02460B463F49204604F07DF801F0DDF8054601F0E0F8B5FBF0F300FB135080B203F01DFA054601F0D6F803F018FA0146284603F01CFB2F4903F0C5
:4004000065FA03F079F802460B462D4904F1100004F05CF8264B1B78012B40F08B8004221F4B5A700022224B1A7083E0274D286803F062F81B4C02460B462549204604F043
:4004400045F8686803F058F802460B46214904F1100004F03BF8164B1B78012B6AD105220F4B5A700022124B1A7063E0850000009500000091000000A90000000C82FF1F0B
:40048000FF0F00800882FF1F6082FF1FA082FF1FC06000001082FF1FC4600000CC80FF1FAC81FF1FDC81FF1FCC600000D86000005C82FF1FFC81FF1FE06000000000C8425D
:4004C000EC600000FC600000086100005082FF1F146100001C610000224B986803F00CF8214C02460B462149204603F0EFFF002323741F4B1B78012B1CD106221D4B5A70C4
:4005000000221B4B1A7015E0174C1B4A1B49204603F0DCFF1A4A1B4904F1100003F0D6FF134B1B78012B05D10122124B5A7000220F4B1A70012000F049FB0021084600F0C8
:400540009FFB094C204600F033FB0021012000F097FB04F1100000F02BFB00220A4B1A7024E600BF5082FF1FDC81FF1F246100005C82FF1FAC81FF1F1082FF1F2C610000EB
:400580006082FF1F34610000CC80FF1F10B5044603F0C0FF0022134602E0E15C4A4001338342FADB104610BD10B590B0044613460A460849684603F089FF6846FFF7E6FF6B
:4005C00003466A460449204603F080FF002010B010BD00BF3C61000044610000FEE700BFF0B40022174611E050F82760F3B226F0FF0608E001EB420511F812406D78A55593
:400600000132013BDBB2002BF4D10137232FEBD9F0BC7047064B1B78DBB203F00701054A11701B09013213704422034B1A707047CF0100496E5800407658004008B50A46D8
:40064000002103F0CAFA08BD08B503F0BBFA08BD38B50024324B1C80502202331A7002331C801B2202331A7045F6BF5202331A80182202331A7004222A492B48FFF7E4FF92
:4006800006222A4B1A705222A3F580731A70284B1B78DBB2274A13704FF4E162264B1A8041F25122023B1A8019250CE0234B1B7803F0010343EA440404F003044FF4F070C0
:4006C00002F08AFD013D0DB1032CEFD115B90320FFF784FF1A4A4FF48073138007231370002318490B704820023108701370053213700222144B1A7004220A331A70134AAC
:40070000137843F007031370013A137843F001031370013A137843F08003137038BD00BF80400040B807004800410040004300400F010049A1460040224200402542004065
:40074000044000400640004001400040A2430040022814D810B44000C0B2094B53F820101A18147E0A7822430A700130C0B253F820201844017E13780B43137010BC704761
:4007800050610000022816D810B44000C0B20A4B53F820101A18147E0A7822EA04020A700130C0B253F820201844017E137823EA0103137010BC704750610000012809D8F2
:4007C000054B03EB8002126A184490F8281013780B431370704700BF5061000001280AD8054B03EB8002126A184490F82810137823EA0103137070475061000038B572B61F
:40080000374A137843F00403137000240BE0354863001A19510001440A46098ED06AFFF70DFF0134E4B2072CF1D92F494FF09040FFF7D6FE0A252D4B1D7004212C48FFF738
:40084000FDFE04212B48FFF7F9FE2B4A2B4B1A602B4A137843F0020313701032137843F002031370274C237843F040032370A2F58632513A137843F0100313700822224976
:400880002248FFF7E1FE2A4621492248FFF7DCFE2A4621492148FFF7D7FE082220492148FFF7D2FE082220492048FFF7CDFE08221F492048FFF7C8FE1F4A137843F0080371
:4008C00013701E4D61232B70FFF7C2FE81232B70FFF7A0FE0E2221461948FFF7B5FE38BDE8460040506100009000004883580040007600400876004004040084D80601409B
:4009000003500140A0430040800700480251004088070048C051004094070048F0510040A007004812510040A807004822510040B0070048325100402243004000480040E7
:40094000B043004008B503F011F903680C2B00D1FEE7FEE708B5094B1A681044084BC31AB3F5007F02DC054B186005E003F0FEF80C2303604FF0FF32104608BDD080FF1F10
:40098000C083FF1F08B5104E104D16E029686B68AC68002204E051F8040B43F8040B0432A242F8D1E868002203E0002143F8041B04328242F9D11035013E002EE6D103F075
:4009C000DBF8FFF7BDFBFEE7010000000865000008B5114A114B1A60114A136843F40073136000230AE0032B03D80E4A52F8231000E00D490D4A42F8231001332F2BF2D904
:400A00000B4B1A780B4B1A70084A0B4B1A60FFF7F5FE00F057FA08BD0004FA050CED00E014ED00E000000000450900000080FF1FBC760040C080FF1F08ED00E010B50B4C73
:400A4000237803F09F032370237803F0F00323702378184340F010002070012000F028FB237803F0EF03237010BD00BF2051004038B505460E4C237843F0200323702378A4
:400A800003F0BF032370002000F012FB237803F0F003237023781D4345F010052570012000F006FB237803F0EF03237038BD00BF2051004070B5354B1A7802F08002D2B22A
:400AC0001A7033490A7802F0F00242F00F020A7001310A7802F0F0020A7001310A7802F0F0020A701A7802F0DF021A701A7842F040021A704FF4CA76002000F0D9FA234D54
:400B00002B7843F010032B70012000F0D1FA214B1C78E4B22B7803F0EF032B70002000F0C7FA04F00804E4B22B7843F010032B70012000F0BDFA2B7803F0EF032B7014B9F9
:400B40000A2000F0B5FA013E0CB1002ED4D10F4A137803F0BF031370137803F08003DBB213700232137803F0F00313700132137803F0F00343F00F0313700132137803F06B
:400B8000F00343F00F03137070BD00BF20510040225100402151004010B50446FFF78AFF2009FFF765FF04F00F00FFF761FF10BD38B505460078012404E0FFF7EDFF285D21
:400BC0000134E4B20028F8D138BD00BF10B50446FFF770FF2009FFF731FF04F00F00FFF72DFF10BD08B5282000F04CFA0320FFF725FF052000F046FA0320FFF71FFF0F209D
:400C000000F040FA0320FFF719FF012000F03AFA0220FFF713FF052000F034FA0620FFF7D5FF0E20FFF7D2FF2C20FFF7CFFF0820FFF7CCFF0120FFF7C9FF0C20FFF7C6FF03
:400C40000320FFF7C3FF052000F01CFA08BD00BF08B50C20FFF7BAFF0122014B1A7008BDAF81FF1F08B5054B5B7823B9FFF7BAFF0122024B5A70FFF7EBFF08BDAF81FF1FAE
:400C800008B5032819D8DFE800F002070D1381F08000FFF79BFF08BDA1F14000C0B2FFF795FF08BDA1F16C00C0B2FFF78FFF08BDA1F12C00C0B2FFF789FF08BD08B5102287
:400CC000054B1A600549042000F0FCF90721042000F00CFA08BD00BF80E100E0910D000010B51024064B1C6000F08CF8A0F5004000B2044B1B68044A1460184410BD00BFF1
:400D000080E100E0B481FF1F00E100E0024B187800F00F00704700BF6465004040F00700014B1870704700BF8465004008B50F20FFF7F4FFFFF7EAFF02F056FA054A137889
:400D400043F01003137002F053FA1022024B1A6008BD00BF9465004000E100E008B500F0A3F84FF4004000F047F80022064B1A60064B1B7823B9FFF7A1FF0122034B1A70BC
:400D8000FFF7D4FF08BD00BFB481FF1FB181FF1F0D4B1B78DBB213F0010F06D00B490A6802F5FF427F320A6007E013F0020F04D006490A68A2F500420A6013F0040F02D00E
:400DC0000022024B1A60704764650040B481FF1F024A137843F080031370704776650040014B1870704700BF87640040014B1878704700BF67640040014B1880704700BFE9
:400E00000C6A0040024B1B78024B188880B27047066500408C6A0040014B188880B270478C6A0040014B1880704700BF4C6A0040014B1880704700BF6C6A004008B501E0FC
:400E4000FFF7EAFFFFF7D2FF10F0400FF8D108BD08B5134B1A7802F0F8021A701A7802F0FC021A70FFF7EAFF4FF40040FFF7DAFF4FF40040FFF7C0FF0020FFF7B1FFFFF79B
:400E8000B5FF4FF40040FFF7D3FF02F0ADF9054A137843F01003137002F0AAF908BD00BF766500409764004008B5054B1B7823B9FFF7CEFF0122024B1A70FFF789FF08BD0D
:400EC000B881FF1F0B4A7F2313708021517007E0DA0002F1804202F5F042013BDBB21370002BF5D1DB0003F1804303F5F04300221A707047D480FF1F172815D831B103013F
:400F00000A495A5C42F020025A5405E0030107495A5C02F0DF025A540001044A835C43F00103835400207047012070471070004017280BD80001064BC25C02F0FE02C254F1
:400F4000C25C02F0DF02C25400207047012070471070004017280BD80001064A835C03F0F103490001F00E011943815400207047012070471070004041F6FF73994201D183
:400F80004FF4005141F6FF739A4201D14FF40052172808D8C00000F1804000F5EC408180C280002070470120704700BF172805D8034B03EB00104172002070470120704785
:400FC0001070004017281BD810B4C00000F1804404F5EC44D201D2B201F07F01114321709DF804201201D2B203F00F03134363709DF8083003F00F03A3700020E07001E03C
:401000000120704710BC704710B502F0EDF80A4B5B78182B0BD9084A1478013B5370E30003F1804303F5F0431B78137000E0FF2402F0DEF8204610BDD480FF1F10F0800FB3
:401040000CD111F4704F0BD1C00000F1804000F5F04001808270C37000207047012070470120704710F0800F08D1C00000F1804000F5F0408180C280002070470120704740
:4010800001BE704710B5044605E0084B186802F0A3F8A4F50044B4F5004FF6D8034B586800FB04F002F098F810BD00BFDC80FF1F08B5034B1B7A00FB03F002F08DF808BD74
:4010C000DC80FF1F70B504460E46074B1D681F2802D90020FFF7D4FF04F01F04103455F8240045F8246070BD08ED00E038B504460D46072902D90020FFF7C2FF1F2C02D9B0
:401100000020FFF7BDFF04F01F0000F1604000F564406D01EDB2057038BD00BF134B1B78DBB20360124A127843EA02230360114A127843EA024303600F4A127843EA0263BF
:4011400003600E4B1B78DBB243600D4A127843EA022343600B4A127843EA024343600A4A127843EA02634360704700BF0301004904010049EC4600400201004901010049F9
:40118000000100490501004906010049014B1B689864704708ED00E04001C0B2014B1870704700BF02E400E00422014B1A60704700E100E00422014B1A60704780E100E0E4
:4011C00010B50446FFF7F6FF2046FFF7DFFF0720FFF7E2FFFFF7E8FF10BD00BF084A137843F0020313701032137843F00203137002F65932137843F001031370704700BFF6
:40120000A3430040014B1870704700BF0F4F0040014B1880704700BF104F0040014B1880704700BF124F004008B5154A137803F0010313700232137803F0FC031370114BFB
:401240001A7802F0CF021A701A7842F030021A701A7802F0F0021A701A7842F00F021A70094A137843F001031370C720FFF7D0FFC720FFF7D3FF0820FFF7C4FF08BD00BF58
:401280000C4F0040174F00400D4F004008B5054B1B7823B9FFF7C8FF0122024B1A70FFF79DFF08BDB981FF1F024A137843F080031370704773640040014B1880704700BF37
:4012C00004680040014B1880704700BF84680040014B1880704700BF44680040014B1870704700BF83640040014B1878704700BF63640040014B188880B27047A46800408B
:4013000008B501E0FFF7F6FFFFF7EEFF10F0100FF8D108BD10B5154A137803F0C00343F0090313701F32137843F001031370104C237843F0010323704FF48050FFF7BCFF52
:401340004FF48050FFF7BEFF40F21A20FFF7C0FF0020FFF7C3FF01F047FF237843F01003237001F045FFFFF7CBFF10BD736400409364004008B5054B1B7823B9FFF7CAFFB8
:401380000122024B1A70FFF78FFF08BDBA81FF1F014B188880B2704744680040014B188880B2704784680040024A137843F080031370704774640040014B1880704700BF96
:4013C00008680040014B1880704700BF88680040014B1880704700BF48680040014B1870704700BF85640040014B1878704700BF65640040014B188880B27047A868004076
:4014000008B501E0FFF7F6FFFFF7EEFF10F0100FF8D108BD10B5154A137803F0C00343F0090313702032137843F001031370104C237843F0010323704FF48050FFF7BCFF50
:401440004FF48050FFF7BEFF4FF40070FFF7C0FF0020FFF7C3FF01F0C7FE237843F01003237001F0C5FEFFF7CBFF10BD746400409564004008B5054B1B7823B9FFF7CAFF6F
:401480000122024B1A70FFF78FFF08BDBB81FF1F014B188880B2704748680040014B188880B2704788680040024A137843F080031370704770640040014B1880704700BF90
:4014C00000680040014B1880704700BF80680040014B1880704700BF40680040014B1870704700BF81640040014B1878704700BF61640040014B188880B27047A06800409D
:4015000008B501E0FFF7F6FFFFF7EEFF10F0100FF8D108BD10B5154A137803F0C00343F0090313702032137843F001031370104C237843F0010323704FF48050FFF7BCFF4F
:401540004FF48050FFF7BEFF4FF40070FFF7C0FF0020FFF7C3FF01F047FE237843F01003237001F045FEFFF7CBFF10BD706400409164004008B5054B1B7823B9FFF7CAFF76
:401580000122024B1A70FFF78FFF08BDBC81FF1F014B188880B2704740680040014B188880B270478068004010B59DF80840012C51D1013809282ED8DFE800F0052D2D0557
:4015C0002D2D0F192D230F2B03D92548007840B222E02448007840B21EE00F2B03D92248007840B218E02148007840B214E00F2B03D91F48007840B20EE01E48007840B208
:401600000AE00F2B03D91C48007840B204E01B48007840B200E0002001EB401101FB02F1C90B8AB20D2B0BD8C3F10E0289B211418AB2611E124800EB810101338B7005E0ED
:40164000631E0F4901EB83030F219970013C0C4B23F8242010BD0020FFF712FD10BD00BF180100491C010049190100491D0100491A0100491E0100491B0100491F01004949
:40168000C081FF1FF8B5074601F0AEFD06460D4D2B7843F003032B700B4C237843F0030323700A4B1F700320FFF702FD2B7803F0FC032B70237803F0FC032370304601F0A7
:4016C00097FDF8BDF8460040F9460040925800400022324B1A7101285FD170B53422304B1A70042202331A70062201331A70002401331C7001331C703F2201331A700233B4
:401700001C7001331C7001331C7001250A331D70502203F527631A700A2201331A702C2201331A7001331C70442203331A70482201331A7001331D7002331D701122013341
:401740001A70192201331A70972201331A705220FFF798FF5822134B1A7001331C70052605331E70022201331A7001331C7001331C70204600F04CF943F233320A4B1A60F7
:401780002946304600F068F929462D2000F0E8F906490320FFF796FC70BD7047C081FF1F004E004094580040E082FF1FED190000F0B583B0284D01272F70284E0024747156
:4017C000102000F037F9102000F0B8F907210320FFF78CFC0422224B1A7001331C7007331C70204A137843F0180313701E4B1C7003F2F5231C7001331C700A22A3F209334B
:401800001A7001331C7002331C705B2205331A705E2201331A7004331C701422A3F68C231A70009710234FF4004248F6F0510220FFF7BAFE2B78013B06EB83039A780B4BF9
:401840001A702B78013B36F82320094B1A802878FFF73EFF03B0F0BDEC80FF1FC081FF1F96580040075B0040935800400E4E00400C4E004070B501F0B7FC0646294B1B7837
:40188000294B1A7842F001021A701A7842F010021A7010331A7842F001021A701A7842F010021A70214D2B7843F002032B70204C237843F0020323701E4A137843F003032D
:4018C00013700320FFF7F4FB2B7803F0FD032B70237803F0FD032370174A137843F0060313707A22154B1A70154A137843F0010313701032137843F0010313700F3A1378DB
:4019000043F0010313701032137843F00103137008230C4A1360A2F5C0721360304601F067FC70BDEC80FF1FAA430040F8460040F946004091580040775800408258004039
:40194000A143004080E200E008B5084B9B794BB9064BDB7913F0FF0F01D1FFF729FF0122024B9A71FFF786FF08BD00BFC081FF1F024A137843F0010313707047004E004084
:40198000154B1B7803F00303012B07D8134B1888023B1B889BB243EA004013E0022B0AD10E4B1888023B1B7843EA00430C4A107843EA002006E00B4B188883B2074A10883F
:4019C00043EA0040084B1B7913F0FF0F02D00022054B5A71704700BF144E0040124E0040114E0040104E0040C081FF1F704700BF10B5002404E02046FEF7F0FE0134E4B2C8
:401A0000012CF8D9FF22014B1A7010BDED80FF1F10B50446FFF7ECFF2046FEF7CFFE014B1C7010BDED80FF1F014B188880B2704780400040034B1A7800F0F8001043187099
:401A4000704700BF82400040024B187800F00700704700BF8240004070B505460E46FFF7F3FF0446FFF7E0FFA84256D02B4B1B7803F0010294B900B185B938B9284B1D808B
:401A8000284A137803F0BF03137070BD254A137843F040031370224B1D8070BD22B3002321490B7001240F310C7004310B700C390B7803F07F030B701A4B1B7813F0080F62
:401AC00000D08DB9194B18800721013B1970164B1B7813F0010FFAD110490B7803F0FE030B700021104B19700C4B1B7813F0010F0DD00E4B1D800EB1032200E001220A4BB9
:401B00001A70094B1B7813F0010FFAD170BD044B1D8002490B7813430B7070BDA243004080400040824000400140004002400040014B188880B2704700410040034B1A7811
:401B400000F0F80010431870704700BF02410040024B187800F00700704700BF0241004070B505460E46FFF7F3FF0446FFF7E0FFA84256D02B4B1B7803F0010294B900B104
:401B800085B938B9284B1D80284A137803F0BF03137070BD254A137843F040031370224B1D8070BD22B3002321490B70012413310C7004390B7008390B7803F07F030B702C
:401BC0001A4B1B7813F0080F00D08DB9194B18800721013B1970164B1B7813F0010FFAD110490B7803F0FE030B700021104B19700C4B1B7813F0010F0DD00E4B1D800EB123
:401C0000032200E001220A4B1A70094B1B7813F0010FFAD170BD044B1D8002490B7813430B7070BDA143004000410040024100400140004002400040F8B501F0D5FA054610
:401C4000404A137843F0010313701032137843F00103137001273C4B1F700226943B1E7002F5E2521B32137803F07F0313700020FFF71EFA354C237803F0F9032370344A06
:401C8000137803F0DF03137023783B4323703846FFF70EFA2820FFF70BFA2E4B1A7802F07F021A701A7802F0BF021A702378334323703046FFF7FCF9237843F00403237092
:401CC0000023254A13700132137004E0FF21234AD15401339BB2082BF8D9284601F088FA07211720FFF702FA1D491720FFF7EAF907211820FFF7FAF91A491820FFF7E2F9A1
:401D000007210520FFF7F2F917490520FFF7DAF907210620FFF7EAF914490620FFF7D2F900211620FFF7E2F911491620FFF7CAF907210C20FFF7DAF90E490C20FFF7C2F9FA
:401D4000F8BD00BFA54300409D6000409443004012600040F851004084600040F082FF1FF1250000612400008D250000BD250000F92500009D26000010B5234B1870002396
:401D8000224A1370224A1370224A1370224A1370224A1370224A1370224A1370224B4FF400021A604FF080721A6020221A604020186003241D4804704FF4800018601C4B8D
:401DC0001A7011B1012906D00BE01A4A137803F0FE0313700AE0174A137843F00103137004E0144A137843F0010313700322124B1A708022203B1A70012001F0EDF904227E
:401E00000E4B1A7010BD00BF1083FF1F1683FF1F1483FF1F1583FF1F1183FF1FFC82FF1F1383FF1F8C83FF1F00E100E09E6000409C600040096000402860004012600040D3
:401E400038B504460D46064B1B7823B9FFF7F4FE0122034B1A7029462046FFF78DFF38BDCC81FF1F00230A4A13700A4A13700A4A13700A4A13700A4A13700A4A13700A4AFD
:401E800013700322094B1A708022203B1A7070471683FF1F1483FF1F1583FF1F1183FF1FFC82FF1F1383FF1F8C83FF1F28600040014B1878704700BF1583FF1F064B1B7859
:401EC00013F0FF0F05D0044B1878C0B200221A7070470020704700BF1483FF1F00EB40008300024A13445878704700BF2083FF1F431EDBB2072B0BD8064B00011A18185CAA
:401F000000F00F00537843EA0020023880B2704700207047FC5F004010B5044600EB40039800144B1844037913F0800F03D00A0C4FF4804302E00B0C4FF48042012C02D06B
:401F4000022C07D00CE00021084601F07BF80A4B185505E00021084601F056F8064B1855631EDBB2072B03D8FFF74EF8034B185510BD00BF2083FF1FE482FF1FF082FF1F17
:401F8000431EDBB2072B6FD82DE9F04104460E46154600EB40029300344A1344DB889BB2C3F500739D4209D900EB400293002F4A1344DD88ADB2C5F50075ADB204EB440232
:401FC00093002A4A1344DB7843EA15232849220188188B54EBB24370264B1B5DFF2B03D131462046FFF798FF04EB440293001F4A134400225A705EB355B31F4F385DFEF792
:4020000097FFDFF870801123FE22294618F80400FFF714F822010832184D2A4492B2B1B218F80400FFF71EF818F80410385DFEF7BDFF0121385DFEF75FFF24012B5D43F01F
:4020400002032B552B5D03F0FD032B55BDE8F08104EB44029300054A13445A79D2B22401074B1A55BDE8F081704700BF2083FF1FFC5F0040F082FF1FE482FF1F7060004013
:40208000FE5F00402DE9F843002944D0044615460F46002841D0082841D8FFF729FFA84203D22046FFF724FF05461F4B1B5DFF2B03D139462046FFF72FFFDFF8748018F80E
:4020C0000400FEF735FFDFF860901223FE22294619F80400FEF7B2FF21010831134E314489B2BAB219F80400FEF7BCFF19F8041018F80400FEF75AFF012118F80400FEF71E
:40210000FBFE2401335D43F002033355335D03F0FD03335504E0002502E0002500E000252846BDE8F88300BFF082FF1F70600040E482FF1F431EDBB2072B0BD84200024415
:402140009300054A134400225A705A79D2B20001024B1A54704700BF2083FF1FFE5F00401D4B19781D4A13889BB20B449BB2138000220FE01A494B681B78DBB2194883545D
:402180004B6801334B600132D2B20B889BB2013B9BB20B80124B1B889BB20BB1072AE9D90D4B1B78DBB2082B00D05AB10E490B7883F080030B700F210C4B197002210C4B8B
:4021C000197004E0022309490B7009490B70094B1A70014B1A7070478C83FF1F9283FF1F0483FF1F006000401283FF1FFD82FF1F1683FF1F8D83FF1F0222074B1A708022CC
:40220000064B1A700F22064B1A700023054A1370054A1370012070471683FF1F1283FF1FFD82FF1F8C83FF1F8D83FF1F08B5FFF797FF08BD10B4194B197801F00F010239B3
:40224000C9B2174A13889BB20B449BB21380002011E0144A5468144B1B5CDBB223705368013353600130C0B20139C9B213889BB2013B9BB213800B4B1B889BB20BB1002921
:40228000E7D10A4B19700A4A137883F0800313700B22084B1A7010BC704700BF296000409283FF1F0483FF1F006000408D83FF1F1283FF1FFD82FF1F0623064A1370064AD9
:4022C00013708022054B1A700022054B1A700120704700BF1683FF1FFD82FF1F1283FF1F8D83FF1F064B9B6843B1054B9A6810709A6804490988518000229A60704700BFBA
:402300000483FF1F9283FF1F08B5134B1A78D2B21A701B78DBB213F0800F02D00F4A137008BD0220FFF7DEFF0D4B1B7803F06003202B05D0402B06D043B900F091FC06E0EF
:4023400000F05AFF03E000F039FE00E0002010B90322024B1A7008BD28600040FD82FF1F0060004008B5094B1978094A13889BB20B449BB213800022064B1A700120FFF75B
:40238000B1FF0322044B1A7008BD00BF8C83FF1F9283FF1F1683FF1FFD82FF1F08B50B4B1B78DBB2042B06D0062B07D0022B0BD1FFF7D8FF08BDFFF73DFF08BD0320FFF74C
:4023C00091FF0322024B1A7008BD00BF1683FF1FFD82FF1F08B50022044B1A700120FFF781FF0322024B1A7008BD00BF1683FF1FFD82FF1F08B50B4B1B7813F0FF0F07D0C8
:40240000084A137843F0800307490B70002313700022064B1A700120FFF764FF0322044B1A7008BDFC82FF1F086000401683FF1FFD82FF1F08B5094B1B78DBB2042B06D090
:40244000062B07D0022B07D1FFF7F0FE08BDFFF7C1FF08BDFFF7CEFF08BD00BF1683FF1F08B5284B1B78DBB213F0100F48D013F0800F0CD003F00F03012B16D1FFF744FFE4
:40248000214B1B7813F0800F11D1012312E013F0400F03D0FFF7CEFF01230BE013F0200F07D0FFF77BFF012304E0002302E0002300E0002323B3134B1B7813F0800F1FD1A7
:4024C000124B1B78124A12781343124A13701278D2B2934214D10C4B1B78DBB2094A127812F0800F07D1084B1B78DBB2054A1370137803F00F03044A1278D2B29342EAD18B
:4025000008BD00BF28600040FD82FF1F1283FF1F8D83FF1F296000400022064B1A80064B9B682BB1044A916800230B7092685380704700BF9283FF1F0483FF1F08B50F4BB4
:402540001B889BB213B9FFF757FE15E002220C4B1A7000220B4B1A70FFF7DEFF0A4AD179937943EA0123054A128892B2934201D2024A1380FFF7F4FD012008BD0483FF1F64
:402580001683FF1F1283FF1F006000400122094B1A700F3B9B7C084B1B7B03F00303934204D0054AD37B83F08003D3730122024B5A7370470B6000402083FF1F02220A4B72
:4025C0001A700F3B93F82230084B1B7E03F00303012B04D0054AD37E83F08003D3760122024B5A76704700BF0B6000402083FF1F08B5FFF737FC08BD70B4234B1C78E4B2DD
:4026000001233DE014F0010F37D01A4619011F48084481784078014011F0010F17D003EB4305A8001A4D2844007910F0800F0ED0164D1E01A85D00F0FE00A85503EB4305E8
:40264000A800134D28444579EDB21248855511F0020F0FD002EB4205A8000D4D2844007910F0800F06D102EB4205A800084D2844002545701201084881540133DBB2640807
:40268000002CBFD170BC70479F600040706000402083FF1FFE5F00407260004008B500F0ABFC08BD70B588B0054603AC174E0FCE0FC43368237035B322232B7003236B7040
:4026C00001A8FEF72BFD002402231AE008AA224412F81C2C08A901EB121111F8141CE954581C00212954981C02F00F0208AE324412F8142C2A54DA1CA9540134E4B204337F
:40270000DBB2212BE2D908B070BD00BFAC61000030B4012341E0194623481A0184180C2585541F22627003EB430082001F480244527912F0FF0F13D003EB430082001B4859
:402740000244127912F0800F04D01801184A024495700AE01801164A02440820907004E01801134A0244802090704800084482000E480244D488E4B208010B4901448C7109
:40278000D088C0F30720C871D088C0B20871D288C2F307224A710133DBB2082BBBD9FF22044B1A7030BC7047706000402083FF1FFC5F00400A600040074B1A78074B03EB19
:4027C000C2035B681A7C824204D9C0001030184440687047002070471083FF1FFC610000F8B5404B1B7813F0FF0F79D03D4B18780138C0B2FFF7E0FF047AC2683A4B187800
:40280000C0B200236AE01178884264D13749095CC9B25578A9425ED1917801F07F01D67806F00306DFF8C8E04D000D44AF000EEB07054FF0000C85F803C092F802C085F8FE
:4028400004C092F803C00EF807C097882F8192F90250002D0DDA012E01D1072700E00D274E000E44B500224E35446F7101266E700CE0012E01D1052700E009274E000E448B
:40288000B5001B4E35446F7100266E70DFF868E00F010EEB07060125B57001FA05F529448D00134929440D89C5F307250EF807500D89EDB27570CE88F6B20E4D3D44AE717B
:4028C000CE88C6F30726EE71CE88F6B22E71C988C1F30721697108320133DBB2A34292D3F8BD00BF1583FF1F1183FF1F0083FF1F2083FF1F70600040FC5F0040034B1A788B
:40290000034B03EBC2035868704700BF1083FF1FFC61000008B5084B18780138C0B2FFF74BFF30B142681279023200EBC203586808BD002008BD00BF1583FF1F2DE9F041A7
:40294000002310E06A4D5900CA189600AC190022AA55A270E2702281A272627034462C4462710133DBB2082BECD940B90AE000226049CA546049CA540133DBB200E000231C
:40298000002BF4D05D4B1B7813F0FF0F00F0AD805A4B18780138C0B2FFF70EFF4368DB7913F0400F05D0564A137843F00103137004E0534A137803F0FE031370057A0124AA
:4029C00064E0C16800235DE08A7802F07F02944255D1264604EB4407BA00454F3A44128992B28F88BA4207D204EB440E4FEA8E02DFF8FCE0724417810A783E4FBA5CD2B2A8
:402A00004F78BA423BD191F802C0DFF8E4E07200324497000EEB070282F804C0CA780EF80720CA7802F0030291F90270002F13DA012A02D14FF0070801E04FF00D08DFF80A
:402A4000B0E0720002EB060C4FEA8C07774487F8058001267E7012E0012A02D14FF0050801E04FF00908DFF888E0720002EB060C4FEA8C07774487F8058000267E700831C0
:402A80000133DBB2AB429FD30134E4B2082C98D9C06800220CE0837803F07F0310F8084B03EB43039900124B19448C720132D2B2AA42F0D3FFF72EFF124B1860002301215D
:402AC0000FE00B4D4A00501884002C44E380228992B213449BB203F0010213449BB20131C9B20829EDD9FFF713FEBDE8F08100BF2083FF1F0083FF1F9083FF1F1583FF1F90
:402B00001383FF1F1C83FF1F08B5154B1B7903F07F035A1ED2B2072A20D8590019448A0010490A44917841F0010191700021D170517841F002015170127912F0800F05D0A4
:402B40001B01094A1A448D23937004E01B01064A1A4489239370FFF7AFFB08BD002008BD006000402083FF1FFC5F0040264B1B7903F07F035A1ED2B2072A43D810B5590052
:402B800019448A0021490A44917801F0FE0191700021D17019017F241D484454517801F0FD015170127912F0800F14D003EB43018A0016490A445278D2B2012A05D11B0113
:402BC00002461A440C23937019E01B01104A1A440D23937013E003EB43018A000B490A445278D2B2012A05D11B01094A1A440823937004E01B01064A1A4409239370FFF78F
:402C00005BFB10BD00207047006000402083FF1FFC5F004010B50E4B1C79E4B20D4B18780138C0B2FFF7C8FD43681B799C4201D9012C0AD8084A135DDBB208490B55044BB2
:402C40009B78DBB21355012010BD002010BD00BF006000401583FF1F0083FF1F9083FF1F10B5964B1B78DBB20021954A118013F0800F00F0B380914A5278D2B20A2A00F22F
:402C80007981DFE812F06F00770177017701770177010B00770198007701A000874BDB78DBB2012B09D1FFF729FE4268844B5A6012221A80FFF742FC10BD804BDB78DBB2D5
:402CC000022B13D17D4B9878FFF776FD002800F0538142687A4B5A605A68D1785A68927842EA01221A80FFF729FC10BD734BDB78DBB2032B05D032E00A7811440133DBB27A
:402D000001E000236F496D4A9278D2B2934203D20A7812F0FF0FEFD1684B9B78DBB2EE2B00D16949654B9B7813F0FF0F0BD0634B9B78DBB2654A127C934204D1644C2046AD
:402D4000FFF7B0FC21460B7813F0FF0F00F016810B785B4A13805160FFF7F0FB10BD00F04BFA10BD13F0030317D0022B40F0088153490B80514B1B7903F07F0303EB43033D
:402D80009A00544B1A449278D2B2534B1A7000225A704B60FFF7D2FB10BD494902230B804E4B1A78D2B24C4B1A7000225A704B60FFF7C4FB10BD424B01221A80484A5A60DE
:402DC000FFF7BCFB10BD3E4A012313803B4B1B7944490B445360FFF7B1FB10BD374A5278013A0A2A00F2CE80DFE812F04C00CC009700CC000B00CC00CC00CC001300CC0076
:402E000030002E4B9B78DBB2374A1370FFF754FA10BD2A4B9B7803F0FF041BB1601EC0B2FFF7CAFC04B110B9002C40F0AD802C4B1B78DBB29C4206D0294B1C7001202B4B55
:402E40001870FFF77BFDFFF737FA10BDFFF7E2FE002800F09B80194A1379DBB21279D2B223490A70234AD25CD2B21E49CB5CDBB29A4204D001221D4B1A70FFF7B1FCFFF756
:402E80001BFA10BD03F00303012B35D04BB1022B7ED10A4B9B7813F0FF0F7BD1FFF766FE10BD064B9B78DBB2012B75D10B4A137803F0FD031370FFF7FFF910BD006000408E
:402EC0000483FF1F54620000E86100000C6300009483FF1F2083FF1FD081FF1F1383FF1F1583FF1F0083FF1FFC82FF1F1483FF1F1183FF1F9083FF1F2D4B1B7913F0FF0FFE
:402F00004CD12B4B98781B79DBB22A49CA5C22EA0002CA54FFF7D0F910BD03F00303012B17D04BB1022B3BD1214B9B7813F0FF0F38D1FFF7E9FD10BD1D4B9B78DBB2012BC5
:402F400032D11D4A137843F002031370FFF7B4F910BD174B1B7913F0FF0F27D1144B98781B79DBB21349CA5C22EA0002CA54FFF7A3F910BD002010BD002010BD002010BDCE
:402F8000002010BD002010BD002010BD002010BD002010BD002010BD002010BD002010BD002010BD002010BD002010BD002010BD006000401883FF1F1383FF1F08B50B4BD5
:402FC0001B7813F0800F0CD0084B5B78DBB2012B09D1074B074A5A6012781A80FFF7AEFA08BD002008BD002008BD00BF006000400483FF1FC0610000024B1878C0F3801024
:40300000704700BF8F450040F0B583B016461F460B4C012525700023019300930A4601462846FDF7CFFF3A4631462078FDF7A4FF02212078FDF78EFF207803B0F0BD00BF31
:40304000EE80FF1FF0B583B016461F460B4D00242C700194009423460A4601462046FDF7B1FF3A4631462878FDF786FF02212878FDF770FF287803B0F0BD00BFEF80FF1F5E
:40308000014B1870704700BF7264004010B5002404E02046FDF776FB0134E4B2022CF8D9FF22014B1A7010BDF080FF1F10B50446054B1878FF2801D0FDF764FB2046FDF768
:4030C00047FB014B1C7010BDF080FF1F024B1B68C3F8B400704700BF08ED00E04001C0B2014B1870704700BF1DE400E04FF00052014B1A60704700BF00E100E04FF00052D4
:40310000014B1A60704700BF80E100E010B50446FFF7F4FF2046FFF7D9FF0720FFF7DEFFFFF7E4FF10BD00BF014B1B685864704708ED00E04001C0B2014B1870704700BF73
:4031400001E400E00222014B1A60704700E100E00222014B1A60704780E100E010B50446FFF7F6FF2046FFF7DFFF0720FFF7E2FFFFF7E8FF10BD00BF014B1B6818647047A9
:4031800008ED00E04001C0B2014B1870704700BF00E400E00122014B1A60704700E100E00122014B1A60704780E100E010B50446FFF7F6FF2046FFF7DFFF0720FFF7E2FF05
:4031C000FFF7E8FF10BD00BF0122014B1A60704780E200E0000000000230800803D000BF01380046FCD17047EFF3108072B6704780F31088704700BF0B4B1B7803F0030381
:40320000012B02D0022B03D00CE0074B1B7909E0054B1B7903F07F0303EB43039A00034B1A44937A00207047006000402083FF1F81F0004102E000BF83F0004330B54FEA96
:4032400041044FEA430594EA050F08BF90EA020F1FBF54EA000C55EA020C7FEA645C7FEA655C00F0E2804FEA5454D4EB5555B8BF6D420CDD2C4480EA020281EA030382EA76
:40328000000083EA010180EA020281EA0303362D88BF30BD11F0004F4FEA01314FF4801C4CEA113102D0404261EB410113F0004F4FEA03334CEA133302D0524263EB4303FE
:4032C00094EA050F00F0A780A4F10104D5F1200E0DDB02FA0EFC22FA05F2801841F1000103FA0EF2801843FA05F359410EE0A5F120050EF1200E012A03FA0EFC28BF4CF03C
:40330000020C43FA05F3C01851EBE37101F0004507D54FF0000EDCF1000C7EEB00006EEB0101B1F5801F1BD3B1F5001F0CD349085FEA30004FEA3C0C04F101044FEA4452FB
:4033400012F5800F80F09A80BCF1004F08BF5FEA500C50F1000041EB045141EA050130BD5FEA4C0C404141EB010111F4801FA4F10104E9D191F0000F04BF01460020B1FA38
:4033800081F308BF2033A3F10B03B3F120020CDA0C3208DD02F1140CC2F10C0201FA0CF021FA02F10CE002F11402D8BFC2F1200C01FA02F120FA0CFCDCBF41EA0C01904017
:4033C000E41AA2BF01EB0451294330BD6FEA04041F3C1CDA0C340EDC04F11404C4F1200220FA04F001FA02F340EA030021FA04F345EA030130BDC4F10C04C4F1200220FA01
:4034000002F001FA04F340EA0300294630BD21FA04F0294630BD94F0000F83F4801306BF81F480110134013D4EE77FEA645C18BF7FEA655C29D094EA050F08BF90EA020F9D
:4034400005D054EA000C04BF1946104630BD91EA030F1EBF0021002030BD5FEA545C05D14000494128BF41F0004130BD14F580043CBF01F5801130BD01F0004545F0FE41AB
:4034800041F470014FF0000030BD7FEA645C1ABF194610467FEA655C1CBF0B46024650EA013406BF52EA033591EA030F41F4002130BD00BF90F0000F04BF0021704730B59F
:4034C0004FF4806404F132044FF000054FF0000150E700BF90F0000F04BF0021704730B54FF4806404F1320410F0004548BF40424FF000013EE700BF42004FEAE2014FEA16
:4035000031014FEA02701FBF12F07F4393F07F4F81F06051704792F0000F14BF93F07F4F704730B54FF4607401F0004521F0004120E700BF50EA010208BF704730B54FF04D
:4035400000050AE050EA010208BF704730B511F0004502D5404261EB41014FF4806404F132045FEA915C3FF4DCAE4FF003025FEADC0C18BF03325FEADC0C18BF033202EB9F
:40358000DC02C2F1200300FA03FC20FA02F001FA03FE40EA0E0021FA02F11444C1E600BF4FF0FF3C06E000BF4FF0010C02E000BF4FF0010C4DF804CD4FEA410C7FEA6C5C2D
:4035C0004FEA430C18BF7FEA6C5C1BD001B050EA410C0CBF52EA430C91EA030F02BF90EA020F0020704710F1000F91EA030F58BF994208BF90422CBFD8176FEAE37040F034
:40360000010070474FEA410C7FEA6C5C02D150EA013C07D14FEA430C7FEA6C5CD6D152EA033CD3D05DF8040B704700BF8446104662468C461946634600E000BF01B5FFF7B4
:40364000B7FF002848BF10F1000F01BD4DF808EDFFF7F4FF0CBF012000205DF808FB00BF4DF808EDFFF7EAFF34BF012000205DF808FB00BF4DF808EDFFF7E0FF94BF01206A
:4036800000205DF808FB00BF4DF808EDFFF7CEFF94BF012000205DF808FB00BF4DF808EDFFF7C4FF34BF012000205DF808FB00BF80F0004002E000BF81F0004142001FBFCA
:4036C0005FEA410392EA030F7FEA226C7FEA236C6AD04FEA1262D2EB1363C1BFD218414048404140B8BF5B42192B88BF704710F0004F40F4000020F07F4018BF404211F0B0
:40370000004F41F4000121F07F4118BF494292EA030F3FD0A2F1010241FA03FC10EB0C00C3F1200301FA03F100F0004302D5494260EB4000B0F5000F13D3B0F1807F06D364
:4037400040084FEA310102F10102FE2A51D2B1F1004F40EBC25008BF20F0010040EA03007047490040EB000010F4000FA2F10102EDD1B0FA80FCACF1080CB2EB0C0200FA14
:403780000CF0AABF00EBC25052421843BCBFD0401843704792F0000F81F4000106BF80F400000132013BB5E74FEA41037FEA226C18BF7FEA236C21D092EA030F04D092F0B8
:4037C000000F08BF0846704790EA010F1CBF0020704712F07F4F04D1400028BF40F00040704712F100723CBF00F50000704700F0004343F0FE4040F4000070477FEA226227
:4038000016BF08467FEA23630146420206BF5FEA412390EA010F40F4800070474FF0000304E000BF10F0004348BF40425FEA000C08BF704743F0964301464FF000001CE072
:4038400050EA010208BF70474FF000030AE000BF50EA010208BF704711F0004302D5404261EB41015FEA010C02BF84460146002043F0B64308BFA3F18053A3F50003BCFAC9
:403880008CF2083AA3EBC25310DB01FA02FC634400FA02FCC2F12002BCF1004F20FA02F243EB020008BF20F00100704702F1200201FA02FCC2F1200250EA4C0021FA02F20C
:4038C00043EB020008BF20EADC7070474FF0FF0C1CEAD0521EBF1CEAD15392EA0C0F93EA0C0F6FD01A4480EA010C400218BF5FEA41211ED04FF0006343EA501043EA511198
:40390000A0FB01310CF00040B1F5000F3EBF490041EAD3715B0040EA010062F17F02FD2A1DD8B3F1004F40EBC25008BF20F00100704790F0000F0CF0004C08BF49024CEAC0
:40394000502040EA51207F3AC2BFD2F1FF0340EAC250704740F400004FF00003013A5DDC12F1190FDCBF00F000407047C2F10002410021FA02F1C2F1200200FA02FC5FEA99
:40398000310040F1000053EA4C0308BF20EADC70704792F0000F00F0004C02BF400010F4000F013AF9D040EA0C0093F0000F01F0004C02BF490011F4000F013BF9D041EA0D
:4039C0000C018FE70CEAD15392EA0C0F18BF93EA0C0F0AD030F0004C18BF31F0004CD8D180EA010000F00040704790F0000F17BF90F0004F084691F0000F91F0004F14D0D9
:403A000092EA0C0F01D142020FD193EA0C0F03D14B0218BF084608D180EA010000F0004040F0FE4040F40000704740F0FE4040F4400070474FF0FF0C1CEAD0521EBF1CEA60
:403A4000D15392EA0C0F93EA0C0F69D0A2EB030280EA010C49024FEA402037D04FF0805343EA111143EA10130CF000408B4238BF5B0042F17D024FF4000C8B4224BF5B1A94
:403A800040EA0C00B3EB510F24BFA3EB510340EA5C00B3EB910F24BFA3EB910340EA9C00B3EBD10F24BFA3EBD10340EADC001B0118BF5FEA1C1CE0D1FD2A3FF650AF8B4268
:403AC00040EBC25008BF20F0010070470CF0004C4CEA50207F32C2BFD2F1FF0340EAC250704740F400004FF00003013A37E792F0000F00F0004C02BF400010F4000F013A37
:403B0000F9D040EA0C0093F0000F01F0004C02BF490011F4000F013BF9D041EA0C0195E70CEAD15392EA0C0F08D142027FF47DAF93EA0C0F7FF470AF084676E793EA0C0F06
:403B400004D14B023FF44CAF08466EE730F0004C18BF31F0004CCAD130F000427FF45CAF31F000437FF43CAF5FE700BF014B1868704700BF5481FF1F0E4B70B51E460E4CEF
:403B80000025E41AA410A54204D056F8253098470135F8E702F0A6FC084B094C1E46E41AA4100025A54204D056F8253098470135F8E770BDF0640000F0640000F0640000EA
:403BC000F864000010B5431E0A44914204D011F8014B03F8014FF8E710BD03460244934202D003F8011BFAE770472DE9F04788B0149F002B1E461299B8BF03F1004327F0E6
:403C00002007B6BF1E4600232D23462F1446109DDDF84CA00B7003D0452F03D1013501E0032300E0022307AA049206AA03928DE828042246334600F003FD472F804602D1EF
:403C4000119BDB0728D5462F08EB050911D198F80030302B0AD10022002320463146FFF7F5FC18B9C5F10105CAF80050DAF8003099440022002320463146FFF7E7FC08B928
:403C8000302202E0CDF81C9006E0079B994503D9591C07911A70F8E74046079B159AC8EB0303136008B0BDE8F087034673B50029B8BF494203F8022BB4BF2D222B220929CB
:403CC00042701ADD0DF1070216460A2591FBF5F405FB1411092C01F1300102F8011D2146F4DC3031541E02F8011CB4421A460AD214F8012B03F8012BF7E71A4630242144D6
:403D000002F8024B5970101A02B070BD2DE9F04F91B00C46DDF8688016461F46054601F027FA03681846099300F0F4FB00230E93D8F800300A90073323F0070303F10802B0
:403D400094F81890D4F800B0C8F80020D3E90023C4E91223D4F84CA0D4F848802AF000430B934FF0FF32A74B40460B9902F066F9A0B94FF0FF32A34B40460B99FFF77AFC81
:403D800060B90022002340465146FFF769FC10B12D2384F843309C4B9C4A0AE0424653464046514602F04AF9002800F09281984B984AB9F1470F8CBF90469846032323616A
:403DC0002BF0040323604FF0000A3DE0B9F1670F00F08A81B9F1470F00F0868123600193636800210DF13302059002920093424653460691CDF81090CDF80CE02846FFF782
:403E0000F4FE09F0DF03472B804600F08481B9F1650F0D9900F28D8101394A4604F150000D91FFF742FF0E9A82468318012A236100F37C812268D10700F178819DF83330F2
:403E400013B12D2384F84330009733460FAA2146284600F09FF9013002D14FF0FF3096E123685A0501D4236965E0B9F1650F40F2D580D4E9120100220023FFF7E7FB78B3E3
:403E80000123654A31462846B8470130E5D00E9B0D9A9A420BDB2368D80708D423689B0740F111814FF0000804F1190906E10A9B099A31462846B8470130CED04FF0000896
:403EC00004F11A090E9B013B9845E7DA01234A4631462846B8470130BFD008F10108F1E70D9B002B29DC01234B4A31462846B8470130B2D00D9B23B90E9B13B92368D90769
:403F0000CCD50A9B099A31462846B8470130A4D04FF0000904F11A0A0D9B5B42994509DA0123524631462846B847013095D009F10109F1E70E9B4246A7E00E9AA36D9A424A
:403F4000A8BF1A46002A914606DC4FF0000A29EAE97904F11A0B11E01346314642462846B8470130F1D178E701235A4631462846B84701303FF471AF0AF1010AA36DC9EBC1
:403F800003029245F0DB08EB03090D9A0E9B9A420FDB2368DA070CD40E9B0D9A9844C9EB08089B1A9845A8BF9846B8F1000F08DC0FE00A9B099A31462846B8470130EBD18E
:403FC0004BE743464A4631462846B84701303FF444AF4FF0000928EAE87804F11A0A09E00123524631462846B84701303FF435AF09F101090D9A0E9B9B1AC8EB03039945F7
:40400000EEDB4BE7FFFFEF7F2063000024630000286300002C630000306300000E9A012A01DCDB0738D50123424631462846B84701303FF412AF0A9B099A31462846B847E2
:4040400001303FF40AAFD4E9120100220023FFF7FDFA20B14FF0000804F11A090EE00E9B08F10102013B19E001234A4631462846B84701303FF4F1AE08F101080E9B013BA7
:404080009845F1DB534604F1500231462846B84701307FF403AFE0E64246012331462846B8470130EED1D8E601234A4631462846B84701303FF4D1AE08F10108E3680F9AC8
:4040C0009B1A9845F0DBE0680F9B9842B8BF18465DE062680EA8531C0DF1340E4BF480637FF474AE062201E012B90122626075E6002106910DF133018DE80C002360059008
:404100004246CDF81090CDF80CE0029153462846FFF76BFD80460D9BD81C02DB626893421DDDA9F102095FFA89F970E60133236184E6B9F1660F14D10029636807DD2161BB
:4041400013B92268D2071DD501330B4419E013B92268D00701D5023313E0012311E04FF067090D9B0E9A934205DB22682361D10708D5013305E0002BD4BFC3F10203012337
:40418000134423610D9B4FF0000AA36556E611B0BDE8F08F2DE9F04791461F460A698B6806469342B8BF1346C9F8003091F843200C46DDF8208012B10133C9F80030236813
:4041C000990642BFD9F800300233C9F80030256815F0060510D104F1190A07E00123524639463046C04701301AD00135E368D9F800209B1A9D42F1DB94F84330226800331A
:4042000018BF012392060FD5E118302081F843005A1C94F845102244023382F8431003E04FF0FF30BDE8F08704F1430239463046C0470130F4D02268D9F80050E36802F0C3
:404240000602042A08BF5D1B2269A3680CBF25EAE57500259342C4BF9B1AED184FF000091A344D4509D00123224639463046C0470130D5D009F10109F3E70020BDE8F0874F
:404280002DE9F04317460A7E85B06E2A984606460C460C9B01F1430E00F0AE8011D8632A22D009D8002A00F0BB80582A40F0CA8081F84520834955E0642A1ED0692A1CD00B
:4042C000C0E0732A00F0B08009D86F2A2ED0702A40F0B8800A6842F020020A603EE0752A24D0782A3AD0ADE01A6801F14205111D1960136884F84230A8E021681A6811F06E
:40430000800F02D0111D196008E011F0400F02F10401196002D0B2F9003000E01368002B3CDA2D225B4284F8432037E021681A6811F0800F02D0111D196007E011F0400F56
:4043400002F10401196001D0138800E01368227E5C496F2A14BF0A2208221BE078225A4984F845202268186812F0800F00F104051D6003D1550601D5038800E00368D00721
:4043800044BF42F0200222601BB9226822F0200222601022002084F8430001E049490A226568002DA56008DB206820F0040020602BB9002D7DD175460CE0002B79D075462D
:4043C000B3FBF2F002FB1033CB5C05F8013D03460028F5D1082A0BD12368DA0708D5236962689A42DEBF302305F8013C05F1FF35C5EB0E0323612EE008681A6810F0800FA3
:40440000496903D0101D1860136808E010F0400F02F104001860136801D0198000E0196000232361754616E01A68111D1960156800216268284600F0A7FE08B1401B606033
:40444000636804E004F1420584F8422001232361002384F84330CDF800803B4603AA21463046FFF797FE013002D14FF0FF3026E023692A4639463046C0470130F5D02368ED
:404480009B0710D5002504F1190907E001234A4639463046C0470130E7D00135E368039A9B1A9D42F2DBE068039B9842B8BF184605E00B7804F1420584F842308AE705B0EE
:4044C000BDE8F08332630000436300000EB400B54FF402719CB0ADF814106FF00041049107914FF6FF711DAB02900690084853F8042BADF81610006802A9019301F03AFA54
:40450000029B00221A701CB05DF804EB03B070475481FF1F034613F8012B002AFBD1181A013870472DE9F74F03690C6980469C427FDC013C01F114074FEA840E00F11406D1
:4045400006EB0E0357F82450019356F824300135B3FBF5F507EB0E09C5B34FF0000A3846B446D34650F8043B9AB205FB02A21B0C4FEA124A05FB03A392B2C2EB0B0BBCF883
:4045800000204FEA134A5A441FFA83FBDCF800308145CBEB134303EB224392B242EA03424FEA234B4CF8042BDCD256F80E306BB9019B043B9E421A4602D3C8F8104005E0D5
:4045C0001268043B002AF8D1013CF3E7404600F0F6FF00282BDB304601354FF0000E57F8042B036891B2C1EB0E0E120C99B27144C2EB134303EB214389B24FEA234EB9451C
:4046000041EA034340F8043BE9D256F8242006EB840362B9043B9E421A4602D3C8F8104005E01268043B002AF8D1013CF3E7284600E0002003B0BDE8F08F00000000000061
:404640002DE9F04F456A95B08246219CCDE9022345B9102000F090FDCAF82400456085600560C560DAF82430196859B15A68012393404A608B60504600F0C9FDDAF824307B
:4046800000221A60039BA04A002BBDBF01232360039B0023BCBF23F000430393DDF80C80A8BF236028F000431B0D1B0593421DD142F20F73209A1360029B43B9934A944B77
:4046C000C8F31300002814BF1846104600E09048229B002B00F04685C37813B100F1080300E0C31C229A136000F03CBDDDE902450022002320462946FEF7A8FF074658B1F7
:40470000209A01231360229B002B00F01E8581481860013800F026BD12AB019313AB009322462B46504600F0C5FFC8F30A56049056B1C5F3130343F07F51204641F4401128
:40474000A6F2FF3611971DE0139B129E1E4406F23243202B0ADD029A06F21240C3F1400322FA00F008FA03F3184304E0C3F12000029B03FA00F0FEF79DFE0123A1F1F8713B
:40478000013E11930022644BFEF756FD58A3D3E9002301F041FA58A3D3E90023FEF74EFD044630460D46FEF795FE55A3D3E9002301F032FA02460B4620462946FEF73EFDB0
:4047C00004460D4601F050FC00228346002320462946FEF745FF58B15846FEF77BFE02460B4620462946FEF731FF08B90BF1FF3BBBF1160F0DD8DDE90223484901EBCB013A
:40480000D1E90001FEF74AFF30B10BF1FF3B002300E00123109300E01090129B9E1B731E079343BFC3F10008002307934FF00008BBF1000F06DB079BCDF82CB05B440793B3
:40484000002705E00023CBEB0808CBF100070B931E9B092B28D8052BC4BF043B1E931E9BC8BF0025A3F10203D8BF0125032B20D8DFE803F0060E0204012302E0012308E08B
:4048800000230A931F9B002B1DDD9946059321E000230A931F9B0BEB030909F10103012B0593B8BF012315E0012500231E930A9501E001230A934FF0FF390022CDF81490D6
:4048C00012231F9206E04FF001094B46CDF81490CDF87C90DAF8244000226260042101F114029A421CD86268490001326260F6E761436F63A787D23FB3C8608B288AC63F0A
:40490000FB799F501344D33F0000F07F546300005D630000316300000000F83FD06300006168504600F03EFCDAF8243020601B680693059B0E2B00F25B81002D00F05881DF
:40494000DDE90234BBF1000FCDE90E3430DD9F4A0BF00F034FEA2B1502EBC303E80618CBCDE908340CD5DDE90E01994B05F00F05D3E9082301F07AFA0324CDE9020100E0E7
:404980000224934E6DB1E90708D5DDE90801D6E9002301F041F9CDE9080101346D100836F0E7DDE90823DDE9020101F05FFA20E0CBF1000505B3DDE90E01844B05F00F027C
:4049C00003EBC203D3E9002301F026F9CDE902017F4E2D110023022455B1EA0705D5D6E9002301F019F9013401236D100836F3E71BB1CDE9020100E00224109BE3B1DDE9D4
:404A000002560022734B28463146FEF729FE98B1059B8BB1B9F1000F40F3E6800BF1FF330893314600226C4B284601F0F5F80134CDE902014E4602E0059ECDF820B020465F
:404A4000FEF748FDDDE9022301F0E6F8634B0022FEF7F4FBA1F1507304460C931D46D6B9DDE9020100225E4BFEF7E6FB22460C9BCDE90201FEF712FE002840F03F820C9969
:404A8000224601F10043DDE90201FEF7E9FD002840F02B82A8E00A9A4C4B711E002A49D003EBC103D3E9002300204E4901F0DEF922462B46FEF7C0FBCDE90C01069CDDE957
:404AC000020101F0D1FA0546FEF704FD02460B46DDE90201FEF7B0FBDDE90C23303504F8015BCDE90201FEF7BBFD002840F01D83DDE9022300203749FEF79EFBDDE90C2396
:404B0000FEF7AEFD002840F0D180069BE31AB3426ADADDE90C0100222F4B01F07DF80022CDE90C01DDE902012B4B01F075F8CDE90201C4E703EBC1012246D1E900012B4656
:404B400001F06AF8069BCDE90C011D469C19DDE9020101F089FA0646FEF7BCFC02460B46DDE90201FEF768FB303605F8016BAC42CDE902014FF0000222D11A4BDDE90C0194
:404B8000FEF75CFB02460B46DDE90201FEF786FD002840F08B80DDE90C2300201149FEF74BFB02460B46DDE90201FEF759FDD8B114F8013C621E302B40F0B7821446F7E7C7
:404BC000054B01F029F8CDE90201C0E7D0630000A86400000000F03F0000244000001C40000014400000E03FDDE90E34CDE90234139B002B7CDBBBF10E0F79DCAB4B03EB2C
:404C0000CB03D3E900671F9B002B14DA059B002B11DC40F06C810022A54B3046394600F0FBFFDDE90223FEF72FFD059D2E46002840F05F8165E1069CDDE9028932463B465E
:404C40004046494601F012F901F00EFA0546FEF741FC32463B4600F0DFFF0B46024649464046FEF7E9FA05F1300E069B04F801EBC3EB040E059B73452DD102460B46FEF7FF
:404C8000DDFA8046894602460B4630463946FEF7E7FC78B942464B4630463946FEF7D6FC002800F04482EB0704D440E2DDF820B000E01C4614F8012C631E392A07D1069AD6
:404CC0009A42F6D1069930220BF1010B0A701A7801321A702BE20022764B00F09DFF0022002380468946FEF7B1FC0028A6D01EE20A9A002A2BD01E9A012A0ADC119A12B1B9
:404D000003F2334302E0129BC3F136033D46444613E0059B5D1EAF42BFBF0B9BEA1B9B180B93059BB6BF2F467D1B0025002BA7BF4446059BC3EB08040023079A01211A4406
:404D400050469844079200F001FB064602E03D4644460A9E5CB1079B002B08DDA342A8BF2346079AC3EB0808E41AD31A0793002F1DDD0A9BABB18DB131462A46504600F02C
:404D80007FFB049A01460646504600F0E8FA04990890504600F03BFA089B04937A1B06D000E03A460499504600F06AFB04900121504600F0CBFA0B9B05465BB31A460146BC
:404DC000504600F05DFB1E9B0546012B18DC029B83B9039BC3F3130373B9039B23F000473F0D3F054FB1079B08F1010801330793012702E0002700E0029F0B9B73B100E0EC
:404E000000272B6905EB8303186900F052FAC0F1200004E01E9B012BD9DD0B9F0120079B184410F01F0008D0C0F12003042B02DDC0F11C0002E006D018461C30079B8044FD
:404E4000034404440793B8F1000F05DD42460499504600F063FB0490079B002B05DD29461A46504600F05AFB0546109B23B32946049800F0A4FB00281EDA00230A22049907
:404E8000504600F0DBF90A9B0BF1FF3B0490002B00F05F81314600230A22504600F0CEF9B9F1000F06463FDC3BE000BFD06300000000144000002440059B002B2BDC1E9BAB
:404EC000022B28DDDDF81490B9F1000F11D129464B460522504600F0B1F901460546049800F06DFB00280CDC03E0354600E000252E461F9B069C6FEA030B09E03546DDF8AC
:404F000020B0069B069A5C1C312313700BF1010B05960026F7E00A9BDDF8149023B9069CB2E01E9B022BCFDC002C05DD31462246504600F0F3FA06469FB17168504600F057
:404F400031F90446326906F10C01023292000C30FEF738FE01222146504600F0DFFA059000E00596029B069F03F00103079329460498FFF7D7FA3146044600F130080498CD
:404F800000F01DFB059A02902946504600F033FBC36802463BB901460A90049800F00FFB0A9A034600E00123114650460A9300F02EF90A9B53B91E9A42B9079A32B9B8F18C
:404FC000390F2AD0029B002B1CDC1DE0029A002A04DB1BD11E9ACAB9079ABAB9002B13DD01220499504600F099FA2946049000F0E6FA002803DC07D118F0010F04D0B8F197
:40500000390F0AD004F131087C1C0CE0002B07F101040BDDB8F1390F03D139233B70013756E008F1010887F800806CE0069B2746E31A4B4504F8018C3BD000230A220499EA
:40504000504600F0FBF8059B04909E424FF00A024FF000033146504604D100F0EFF80646059084E700F0EAF8002306460A220599504600F0E3F8059079E700230A220499C4
:40508000504600F0DBF8049029460498FFF74AFA069B00F1300804F8018BE31A4B45ECDB069B0596B9F1010FACBF4B4401331F46002601220499504600F030FA29460490F6
:4050C00000F07DFA002803DC15D118F0010F12D03C4614F8013C621E392B09D1069B934204D10BF1010B3123069A02E01446F0E70133137007E03C4614F8013C621E302B3B
:4051000001D11446F8E72946504600F080F8059B6BB12EB19E4203D03146504600F077F80599504600F073F801E0DDF820B00499504600F06CF80023209A23700BF1010331
:405140001360229B1BB11C6001E008480AE0069808E0B9F1000F3FF7E2AE1E9B022B7FF7DEAEB1E615B0BDE8F08F00BF30630000004870475881FF1F024B0146186800F0E3
:4051800041BB00BF5481FF1F10B5C9B202449042034605D01C7801308C42F8D1184610BD002010BD70B5456A04460E463DB91020FFF7E2FF6062456085600560C560656A43
:4051C000EB6843B1636ADB6853F8260078B1026843F8262017E021220421204600F0B8FA636AE860DB68002BECD1002070BD012101FA06F56A1D9200204600F0A9FA00288D
:40520000F3D04660856000230361C36070BD70B5446A06460D463CB91020FFF7ADFF7062446084600460C4603DB1736A6A68DB6853F82210296043F8225070BD2DE9F04127
:4052400006460C460D691F4601F1140E0023DEF80000013381B202FB0171000C0F0C02FB007089B201EB00419D424FEA10474EF8041BECDCD7B1A3689D4212DB616830469C
:405280000131FFF78FFF8046226904F10C01023292000C30FEF796FC21463046FFF7B7FF444604EB850301355F6125612046BDE8F081030C1B0413B90004102300E00023A6
:4052C00010F07F4F04BF0002083310F0704F04BF0001043310F0404F04BF80000233002803DB420003D5581C70471846704720207047036813F007020BD0D90722D49A07FF
:405300004BBF5B089B08036003604CBF01200220704799B209B91B0C102213F0FF0F04BF1B0A0832190704BF1B090432990704BF9B080232D90702D45B0805D001320360FE
:4053400010467047002070472020704710B50C460121FFF727FF01224461026110BD2DE9F74F14460A69236988469A42BEBF0B46A0461C46D8F81070D4F81090D8F80830CC
:40538000D8F8041007EB09069E42C8BF0131FFF709FF00F114052B4605EB860C0022634502D243F8042BFAE704F1140208F1140102EB890301EB87070093009B01929342E9
:4053C00057D9B2F800B0BBF1000F23D08946AE464FF0000859F8044BBEF800A0A3B20BFB03A34FEA144ADEF8004043444FEA14480BFB0A84F24604EB13449BB243EA0443D8
:405400004F454FEA14484AF8043B01D9D646E1E7CEF80480019B0432B3F802A0BAF1000F21D02C4689462B684FF00008B9F800E0B4F802B09BB20AFB0EBEA346F04443EA7E
:4054400008434BF8043B59F8043BB4F804E01B0C0AFB03E34F4503EB18434FEA134801D95C46E3E763600435A7E75CF8043D13B9013E002EF9DC066103B0BDE8F08F00000B
:405480002DE9F843154612F0030206460F4607D0214C013A002354F82220FFF7CFFE0746AD1036D0746A3CB91020FFF765FE7062446084600460C460D6F82480D8F80840CD
:4054C0004CB940F271213046FFF740FF04460023C8F8080003604FF00008EB070AD5394622463046FFF73BFF814639463046FFF78EFE4F466D100CD0206808B10446ECE771
:40550000224621463046FFF72AFF2060C0F80080F4E73846BDE8F883986400002DE9F0470C460746914626694FEA621A56444968A368751CAB4202DA01315B00FAE7384637
:40554000FFF730FE002380461A4600F11401534503DA41F823200133F9E72AEAEA73206901EB830319F01F0904F1140101EB800E14D0C9F1200C002208689A4600FA09F063
:40558000024343F8042B51F8042B8E4522FA0CF2F2D8CAF8042042B1B51C06E0043B51F8042B8E4543F8042FF9D8013D3846C8F810502146FFF72BFE4046BDE8F087036944
:4055C0000A6910B59B1A11D192001430143183180A4453F8044D52F8041D8C4202D007D3012010BD9842F4D3002010BD184610BD4FF0FF3010BD2DE9F8430C46074611462E
:4056000020461546FFF7DBFF061E08D131463846FFF7C8FD012303614661BDE8F883BCBF23462C4638466168BABF1D4601260026FFF7B8FD2B69C660266905F1140904F11B
:40564000140101EB860709EB830800F114054FF0000C51F8042B59F8044B93B29C44A3B2240CC3EB0C03C4EB124202EB23429BB24FEA224CC84543EA02428E4645F8042B42
:40568000E7D8BE450ED25EF8041B8AB26244131403EB114392B242EA03424FEA234C45F8042BEEE755F8043D0BB9013EFAE70661BDE8F8832DE9F3411C4601219046089EA7
:4056C000099DFFF76FFDC4F31302C4F30A5407460CB142F480120192B8F1000F19D002A840F8088DFFF705FE009B48B1019AC0F1200102FA01F10B43C2407B61019200E0BD
:405700007B61019B002B14BF02210121BB61396107E001A8FFF7EDFD019B01217B613961203034B1A4F2334404443460C0F1350009E0A0F2324007EB810330601869FFF7E6
:40574000B8FDC0EB41102860384602B0BDE8F08138B502FB01F4214600F054F8054618B122460021FEF739FA284638BD38B50546002944D051F8043C0C1F002BB8BFE41839
:4057800000F017FA1E4A1368114613B96360146030E0A3420DD92268A018834201BF18685B681218226063600C6023E0A24203D813465A68002AF9D118681918A1420BD1AA
:4057C0002168014458188242196013D110685268014419605A600DE002D90C232B6009E021686018824201BF106852680918216062605C602846BDE8384000F0DBB938BD5A
:40580000D881FF1F70B5CD1C25F0030508350C2D38BF0C25002D064601DBA94202D90C23336046E000F0C5F9234B1C681A462146A1B10B685B1B0ED40B2B03D90B60CC1840
:40584000CD501EE08C420BBF63684B681360636018BF0C4615E00C464968E9E7174C23681BB9304600F07AF920602946304600F075F9431C18D0C41C24F00304A0420DD170
:405880002560304600F096F904F10B00231D20F00700C31A0ED05A42E25070BD211A304600F05CF90130EBD10C233360304600F081F9002070BD00BFD881FF1FD481FF1FE6
:4058C0002DE9F0478E6882469E420C46914698463ED88A8912F4906F3AD02568096902236F1A656905EB450595FBF3F57B1C43449D4238BF1D4653050FD52946FFF782FFD8
:40590000064698B13A462169FEF75CF9A38923F4906343F08003A38113E02A4600F04BF9064670B921695046FFF720FF0C23CAF80030A3894FF0FF3043F04003A381BDE833
:40594000F08726613E44266046466561ED1BA560464528BF464649463246206800F00EF9A36800209B1BA36023681E442660BDE8F08700002DE9F04F9DB003938B898046B9
:405980001C060D4616460DD50B695BB94021FFF739FF2860286118B90C23C8F80030CDE040236B610023099320238DF82930DFF89CB130238DF82A3037463C4614F8013BC3
:4059C0001BB9B7EB060910D003E0252BF9D02746F3E74B46324629464046FFF771FF013000F0A780099B4B4409933B78002B00F0A08000234FF0FF320493079305920693A2
:405A00008DF853301A930126052221784E48FFF7BBFB671C049B38B14B4A3C46801A06FA00F018430490EFE7D90644BF20228DF853201A0744BF2B228DF8532022782A2AA4
:405A400003D0079A00210A200BE0039A111D12680391002A10DA524243F00200079204900BE027463B780134303B092B03D800FB02320121F5E701B107923B782E2B1ED16C
:405A80007B782A2B0AD1039B02371A1D1B680392002BB8BF4FF0FF33059310E0002319460593781C0A2407463A780130303A092A03D804FB01210123F5E703B105910322EE
:405AC00039782248FFF760FB40B14023CBEB000003FA00F0049B013718430490397806221B487E1C8DF82810FFF74EFB88B1194B33B9039B073323F007030833039314E068
:405B000003AB00932A46144B04A94046FEF7FEF807E003AB00932A460F4B04A94046FEF7AFFBB0F1FF3F824603D0099B5344099342E7AB895B0601D4099801E04FF0FF309F
:405B40001DB0BDE8F08F00BFD0640000D6640000DA6400000D3D0000C158000038B5064C0023054608462360FAF7F4FE431C02D1236803B12B6038BDB883FF1F884210B52C
:405B800001EB020301D8421E0BE09842FBD28118D21AD34204D013F8014D01F8014DF8E710BD994204D011F8014B02F8014FF8E710BD70477047F8B5074615460E4621B984
:405BC0001146BDE8F840FFF71DBE1AB9FFF7CEFD2846F8BD00F015F885420ED929463846FFF710FE044650B131462A46FDF7EAFF31463846FFF7BAFD01E03046F8BD20462A
:405C0000F8BD51F8040C0028BEBF091851F8043CC01804387047000070B54FF0FF0C4CF4E06C1CEA11541DBF1CEA135594EA0C0F95EA0C0F00F0DEF82C4481EA030621EAA4
:405C40004C5123EA4C5350EA013518BF52EA033541F4801143F4801338D0A0FB02CE4FF00005E1FB02E506F00042E0FB03E54FF00006E1FB03569CF0000F18BF4EF0010EE2
:405C8000A4F1FF04B6F5007F64F5407404D25FEA4E0E6D4146EB060642EAC62141EA55514FEAC52040EA5E504FEACE2EB4F1FD0C88BFBCF5E06F1ED8BEF1004F08BF5FEAA7
:405CC000500E50F1000041EB045170BD06F0004646EA010140EA020081EA0301B4EB5C04C2BFD4EB0C0541EA045170BD41F480114FF0000E013C00F3AB8014F1360FDEBFFC
:405D0000002001F0004170BDC4F10004203C35DA0C341BDC04F11404C4F1200500FA05F320FA04F001FA05F240EA020001F0004221F0004110EBD37021FA04F642EB060178
:405D40005EEA430E08BF20EAD37070BDC4F10C04C4F1200500FA04F320FA05F001FA04F240EA020001F0004110EBD37041F100015EEA430E08BF20EAD37070BDC4F1200536
:405D800000FA05F24EEA020E20FA04F301FA05F243EA020321FA04F001F0004121FA04F220EA020000EBD3705EEA430E08BF20EAD37070BD94F0000F0FD101F00046400025
:405DC00041EB010111F4801F08BF013CF7D041EA060195F0000F18BF704703F00046520043EB030313F4801F08BF013DF7D043EA0603704794EA0C0F0CEA135518BF95EA47
:405E00000C0F0CD050EA410618BF52EA4306D1D181EA030101F000414FF0000070BD50EA410606BF1046194652EA430619D094EA0C0F02D150EA013613D195EA0C0F05D145
:405E400052EA03361CBF104619460AD181EA030101F0004141F0FE4141F470014FF0000070BD41F0FE4141F4780170BD70B54FF0FF0C4CF4E06C1CEA11541DBF1CEA135524
:405E800094EA0C0F95EA0C0F00F0A7F8A4EB050481EA030E52EA03354FEA013100F088804FEA03334FF0805545EA131343EA12634FEA022245EA111545EA10654FEA002606
:405EC0000EF000419D4208BF964244F1FD0404F5407402D25B084FEA3202B61A65EB03055B084FEA32024FF480104FF4002CB6EB020E75EB030E22BFB61A754640EA0C0060
:405F00005B084FEA3202B6EB020E75EB030E22BFB61A754640EA5C005B084FEA3202B6EB020E75EB030E22BFB61A754640EA9C005B084FEA3202B6EB020E75EB030E22BF86
:405F4000B61A754640EADC0055EA060E18D04FEA051545EA16754FEA06164FEAC30343EA52734FEAC2025FEA1C1CC0D111F4801F0BD141EA00014FF000004FF0004CB6E7E0
:405F800011F4801F04BF01430020B4F1FD0C88BFBCF5E06F3FF6AFAEB5EB030C04BFB6EB020C5FEA500C50F1000041EB045170BD0EF0004E4EEA113114EB5C04C2BFD4EB75
:405FC0000C0541EA045170BD41F480114FF0000E013C90E645EA060E8DE60CEA135594EA0C0F08BF95EA0C0F3FF43BAF94EA0C0F0AD150EA01347FF434AF95EA0C0F7FF4AC
:4060000025AF104619462CE795EA0C0F06D152EA03353FF4FDAE1046194622E750EA410618BF52EA43067FF4C5AE50EA41047FF40DAF52EA43057FF4EBAE12E74FEA410CC3
:406040007FEA6C5C02D150EA013C0AD14FEA430C7FEA6C5C02D152EA033C02D14FF0000070474FF0010070474FEA410212F5001215D211D56FF47873B3EB625212D94FEADD
:40608000C12343F0004343EA505311F0004F23FA02F018BF404270474FF00000704750EA013005D111F0004008BF6FF0004070474FF00000704700BF0000000000000000FD
:4060C000256600005843555200000000332D4158495320484843000056302E31000000005820493A20252E33660000002020447574793A2025332E33662525005920493ABA
:4061000020252E33660000005A20493A20252E3366000000583A20252E336600593A20252E3366005A3A20252E3366005420257300000000522025730000000025732C256E
:40614000730000002425732A2532780A000000000D510040005B00400D510040005B00400D510040005B00402020101008800000035B00402443004040000000C849004084
:406180001900004F0040180040510040300000000140001000140140000800400140000A004C01400002005001402000303132333435363738394142434445460000000003
:4061C0002800000000010400010000000000000000014359555342000000303030303100000000000000000012034D00530046005400310030003000010000000100000017
:4062000004620000010000000C6300000000000000000000010000001C62000001000000EC62000002000000406200000000000000000000000000003C620000FF00000079
:40624000000081024000FF00000002024000FF0002030000040309042C0343007900700072006500730073002000530065006D00690063006F006E0064007500630074004A
:406280006F0072004A03470065006E00650072006900630020005500530042002000420075006C006B0020005700720061007000610072006F0075006E0064002000540084
:4062C000720061006E00730066006500720012037500730062005F006500630068006F000A036D00610069006E0000000902200001010480190904000002FF0000040705B6
:4063000081024000000705020240000012010002FF000008B40480000000010380014300494E4600696E66004E414E006E616E0030003031323334353637383941424344B3
:406340004546003031323334353637383961626364656600496E66696E697479004E614E0000000000000000000000000000000000000000000000000000000000000000E9
:4063800000000000000000000000000000000000000000000000000000000000000000000000000000000000000000000000000000000000000000000000000000000000DD
:4063C00000000000504F534958002E0000000000000000000000F03F000000000000244000000000000059400000000000408F40000000000088C34000000000006AF84074
:406400000000000080842E4100000000D01263410000000084D797410000000065CDCD41000000205FA00242000000E876483742000000A2941A6D42000040E59C30A2429A
:406440000000901EC4BCD64200003426F56B0C430080E03779C3414300A0D8855734764300C84E676DC1AB43003D9160E458E143408CB5781DAF154450EFE2D6E41A4B446C
:4064800092D54D06CFF08044F64AE1C7022DB544B49DD9794378EA4405000000190000007D000000000000000080E03779C34143176E05B5B5B89346F5F93FE9034F384D9F
:4064C000321D30F94877825A3CBF737FDD4F1575232D302B2000686C4C0065666745464700000000F8B500BFF8BC08BC9E4670474D000000D1090000F8B500BFF8BC08BC6D
:406500009E4670472900000018650000C880FF1FC8000000300200000000000001000000C083FF1F7F800000030000000000E02EC05D00001800000000366E0101FFFFFF70
:40654000FF000000000000006463000084630000A4630000000000000000000000000000000000001E630000000000000000000000000000000000000000000000000000E6
:40658000000000000000000000000000000000000000000000000000000000000000000000000000F480FF1FCA630000D5640000D5640000D5640000D5640000D5640000FF
:4065C000D5640000D5640000D5640000D5640000FFFFFFFFFFFFFFFFFFFFFFFFFFFF00000000000000000000000000000000000000000000000000000000000000000000C5
:40660000000000000000000000000000000000000000000000000000000000000000000000000000000000000000000000000000000000000000000000000000000000005A
:40664000000000000000000000000000000000000000000000000000000000000000000000000000000000000000000000000000000000000000000000000000000000001A
:4066800000000000000000000000000000000000000000000000000000000000000000000000000000000000000000000000000000000000000000000000000000000000DA
:4066C000000000000000000000000000000000000000000000000000000000000000000000000000000000000000000000000000000000000000000000000000000000009A
:020000040003F7
:0200000480007A
:4000000001450040044F0040095200400464004001650040430001401C01014044020140260301404904014026050140410601402B070140020B0140040C0140020D014007
:40004000391401403D150140601601403E17014004190140051B0140054001400D410140144201400C430140024401400145014004460140044701401148014026490140A8
:40008000144C01400B4D014005500140035101407E0201100A4B0D20164B000201010890095018A81990600264037C40810D830D850D876F840F0301350137014010410246
:4000C00049FF4AFF4BFF4DA04F045018528059045A045B045C905D995F01604062C06440654066C068C06AC06CC06EC087058B029A019B029D04AE01B104B502B601B701F6
:40010000BF10C010C106C5D1C620C80BC9FFCAFFCBFFCDAFCE0FCF04D018D405D804D904DA04DB04DC99DD99DF01E040E2C0E440E540E6C0E8C0EAC0ECC0EEC00F08158078
:400140001E01200121C0222024402680270836A038023F284001412045804F29552057105C405F097001C240C480CC30CE61D01CD220D6D016012E0134014060410249FFA1
:400180004AFF4BFF4DA04F04501858045A045B045C095D095F01604062C06440654066C068C06AC06CC06EC086028F019201A204AA02AD01B202B401B604B701BE04C020BB
:4001C000C106C5D0C601C702C816C9FFCAFFCBFFCDAFCE0FCF04D018D280D405D804D904DA04DB04DC99DD99DF01E040E2C0E440E540E6C0E8C0EAC0ECC0EEC000040902EE
:400200000F20108012041580180419841B101F2022402980398040044604480849024F2050885140520459065A806E246F02710286108B029201C004C228C48ACA08CE080D
:40024000D024D224D60BE6800301350137014010410249FF4AFF4BFF4DA04F045018528059045A045B045C905D995F01604062C06440654066C068C06AC06CC06EC0870231
:400280008B01930494029A039B039E049F04AE04B002B102B201B304B501B604BE40BF14C010C106C5D1C620C80BC9FFCAFFCBFFCDAFCE0FCF04D018D405D804D904DA047E
:4002C000DB04DC99DD99DF01E040E2C0E440E540E6C0E8C0EAC0ECC0EEC00E210F0815401D401E60200121802220241027883620378138023F284001412045804F29552097
:4003000057105E405F096D406F01700180109201AF20B204C2E0C480CCB0CE61D01CD220D6D0EA08EE20001002200407080C0A0114101660170118201A1F1C0C1E02200816
:400340002201241026A0280B2A043040328034303501360F3A20580459045C995F0183038473851C889E89148A608B288D308F0C90CF92309430953C96C9989499029A60EA
:40038000A50CA60FA730A8FDA928AA02AB14B0FFB33CB501B702BE01BF40D40FD804D904DB04DC90DD90DF05002401200404052108100A040BA00E2612081304150217281D
:4003C00019021D011E261F402218232227082810292032183404380639043BA058205A085B826104622079048021AD40C076C2EEC476CA06CC46CE0FD60FD806DE02AF4000
:40040000B44038823E4158045F011C401F4007020801090213021D011E01210424012D042F01310433013401370239023E103F44540F5604580459045B045C905D905F010D
:4004400080018206843888018A028C018E029460961098029A799B049C609E089F01A440A608A858AA20AB02B104B278B302B403B604B701BA20D804D904DB04DC99DF01D0
:4004800000100424054407400A020E2A1304141419101C201D401E281F10210222452420258027502A412F0431823680371038103B0459155A8060806C206DA081108480A5
:4004C000870489408C209014930496089720981499019A41A281A410A604AD11AF11B710C0F2C2E1C464CA29CC39CE06D60FD801E008E210E620EA01EC100208045606202D
:400500000833161818201A401B011C762008246028652A10300832703407370138203E014041410349FF4AFF4BFF4DA04F0150185280580459045A045B045C995D995F01E3
:400540006040628064406540668068406A806C406D206E808101851D89108F10931C951C99049B089F02A201A320A502A904AB08AD01B102B201B53CB701B980BF41C04110
:40058000C102C54EC6C3C720C82FC9FFCAFFCBFFCDAFCE07CF01D018D804D904DA04DB04DC99DD09DF01E040E280E440E540E680E840EA80EC40ED20EE80051006200740FD
:4005C0000E2A108014141702181019081C041D121E202190238C2702290A2A60309432083301361038063BA03C203E2041924582470848804904500152E16A906B107740DD
:40060000810182188E4093809406950296089724981099029D049F80A209A410A620AC04C070C2E0C478CA0FCC2FCE0FD0DDE001E401E608EE0AE011E401E608EE0AE0089F
:40064000E210E410EA01EC50331436883B40CCF0CE103380364052025340572087208B4097409F14A688CC30D4E0E610128017043E105B085F088302930897409B089F14EA
:40068000A6C8A780AF0CB202C430CE20D6C0E680EA10EE10120893089610974099029B029F10A648A780AD02C440EE107C20DE019C204508B420D001E80208080F40A50862
:4006C000C20C25108101850893089610974099029B029E209F10AE60AF80C820E480E610E810EE50032206201102164055085B025D02610267087004750881088312864002
:40070000876089028C0493089740990A9B029E209F10A501AA10B510C070C430D440D6C0D8C0DC80DE20E010E280E410E640EA801220132014405B045C01608065017B089F
:400740007F40830C84408C80A508AC08AF40C40ED603D803DE03E00887408C018E2094019780A220AB20B509E208E408EC0A010109010B0111011B0100AB012B03C0000017
:4007800000070700070038000300000003000300000000004000000000000000C000000000FBFB00F0000000007F7F000000000007F8F800F80000002D00180100000000CA
:4007C00000000000000000000000000000000000000000000000000000000000000000000000000000000000000000000000000000000000000000000000000000000000F9
:4008000000000000000000000000000000000000000000000000000000000000000000000000000000000000000000000000000000000000000000000000000000000000B8
:400840000000000000000000000000000000000000000000000000000000000000000000000000000000000000000000000000000000000000000000000000000000000078
:400880000000000000000000000000000000000000000000000000000000000000000000000000000000000000000000000000000000000000000000000000000000000038
:0200000490006A
:0400000000004005B7
:0200000490105A
:04000000BC90ACAF55
:0200000490303A
:02000000091CD9
:0200000490402A
:4000000000000000000000000000000000000000000000000000000000000000000000000000000000000000000000000000000000000000000000000000000000000000C0
:400040000000000000000000000000000000000000000000000000000000000000000000000000000000000000000000000000000000000000000000000000000000000080
:400080000000000000000000000000000000000000000000000000000000000000000000000000000000000000000000000000000000000000000000000000000000000040
:4000C0000000000000000000000000000000000000000000000000000000000000000000000000000000000000000000000000000000000000000000000000000000000000
:0200000490501A
:0C00000000012E16106900012E3F19852A
:00000001FF