:4000000000800020110000009D0F00009D0F000008B5044B1A6803F53F5302331A6000F0DDFF00BFFA46004010B5054C237833B9044B13B10448AFF300800123237010BD43
:400040009881FF1F00000000848D0000084B10B51BB108490848AFF300800848036803B910BD074B002BFBD0BDE81040184700BF000000009C81FF1F848D0000C880FF1F40
:40008000000000000122014B1A707047CC80FF1F10B50E4C0E49A06804F0BAFC04F07EFE80B201F035FD0A49606804F0B1FC04F075FE80B201F0ACFC0549206804F0A8FCDD
:4000C00004F06CFE80B201F02FFC10BDB481FF1F0000A04108B50122024B1A7003F0B6FE08BD00BFDD82FF1F38B5304B1B7B012B20D013B1022B3AD055E002F00FFA2B4C38
:400100002061E56904F030FC294604F079FB284904F07EFCA06220F00040264904F016FE08B10022A262012003F09AFD01221F4B1A7338E002F0F2F91C4C6061256A04F00C
:4001400013FC294604F05CFB194904F061FCE06220F00040174904F0F9FD08B10022E262022003F07DFD0222104B1A731BE002F0D5F90E4CA061656A04F0F6FB294604F040
:400180003FFB0B4904F044FC206320F00040094904F0DCFD08B100222263002003F060FD0022024B1A7302F0B1F938BDB481FF1FEF7F98BA0AD7A33B80B50121002002F0F3
:4001C0000DFCB54C206803F0D7FFB44D02460B46B349284605F07AFB2A46B249B24800F0FBFC01F07FFB01F0E5F801F067F8042003F01AFD042003F01DFD00F03DFC02F0E7
:4002000071F903F01DFD002003F02AFD02F07EF901F0DCFB01F04EFC01F0CEFC4FF07A5632464FF07E51A14800F0FCFCA04D286032464FF080419F4800F0F4FC686032468C
:400240004FF07C519C4800F0EDFCA8609B4801F0E3FA072001F0CCFA994803F0E9FD072003F0D2FD974803F0BBFD012003F0A4FD954803F025FD012003F00AFD62B60020F7
:4002800001F052FB002001F0C3FB002001F040FC002003F0C3FC4FF4FA7001F01FFA2069404204F061FBE0616069404204F05CFB2062A069404204F057FB606203F068FDBC
:4002C00001F03AF8814B186000F014FC03F042FF6FA3D3E9002303F0A3FF6F4C04F03AFA606300F015FC03F035FF69A3D3E9002303F096FF04F02EFAA06300F017FC03F087
:4003000029FF63A3D3E9002303F08AFF04F022FAE063A06A20F0004003F02EFF06460F46E06A20F0004003F027FF02460B463046394603F0C3FD06460F46206B20F0004056
:4003400003F01AFF02460B463046394603F0B6FD00225F4B03F064FF04F0FCF9206402F07BFB28B102F072FB10B1022002F0B0FC022002F081FB012818D1022002F086FB56
:400380000246544B18805449022002F049FC022002F072FB0128FAD0022002F099FC4F4A4F494D4800F0DEFB3B4B58644D494C4805F0DCFA38B9494804F010FD04F0CAF9AB
:4003C000354B186047E14849454805F0CFFA38B9424804F003FD04F0BDF92F4B58603AE142493F4805F0C2FA38B93C4804F0F6FC04F0B0F9284B98602DE13D49384805F06C
:40040000B5FA002840F00F813A49344805F0AEFA80B9214B986A03F0AFFE204C02460B461F49204605F052FA224632491E4800F0D3FB10E13049294805F098FA80B9164B2B
:40044000D86A03F099FE154C02460B461449204605F03CFA22462849134800F0BDFBFAE026491E4805F082FA002849D10A4B186B03F082FE094C02460B460949204605F0A4
:4004800025FA22461D49084800F0A6FBE3E000BF5FD218ADA3AAFA3FB481FF1F2083FF1F888D00008C8D00006882FF1F0000A0415882FF1F000048420000204185000000DD
:4004C000D500000091000000E90000006482FF1F000042404C82FF1FE082FF1FA882FF1F5082FF1F948D00009C8D0000A48D0000AC8D0000B48D0000BC8D0000C48D0000F4
:400500009549964805F032FA80B9954B586B03F033FE944C02460B469349204605F0D6F922468D49914800F057FB94E090498B4805F01CFA80B98A4B986B03F01DFE894CE7
:4005400002460B468849204605F0C0F922468849864800F041FB7EE08649804805F006FA80B97F4BD86B03F007FE7E4C02460B467D49204605F0AAF922467E497B4800F099
:400580002BFB68E07C49754805F0F0F980B9744B186803F0F1FD734C02460B467249204605F094F922467449704800F015FB52E072496A4805F0DAF980B9694B586803F035
:4005C000DBFD684C02460B466749204605F07EF922466A49654800F0FFFA3CE068495F4805F0C4F980B95E4B986803F0C5FD5D4C02460B465C49204605F068F92246604932
:400600005A4800F0E9FA26E05E49544805F0AEF908BB544A5C4B03CB106051605949534800F0DAFA17E05949594805F09FF990B958494A4805F09AF920B90022484B83F894
:40064000482008E05449454805F090F918B90122434B83F84820012002F00EFA012803D14022424902F05AFA002003F0D7FA4B4B1B78012B7FF424AE394B93F84930072B9A
:4006800000F26681DFE813F0080026004600A000D900110131014B01414C424B03CB206061601A889B782281A3723F4B1B683F4A3F4904F1100005F009F93E4B1B78012B22
:4006C00040F046810122264B83F849200022394B1A703DE1324C384B186820609A889B79A280A3711E4B186C03F046FD02460B46324904F1100005F0E9F82E4B1B78012B86
:4007000040F026810222164B83F849200022294B1A701DE1124DA86A03F02EFD204C02460B462749204605F0D1F8286803F024FD02460B46234904F1100005F0C7F81D4B69
:400740001B78012B40F00481032285F849200022184B1A70FCE000BFCC8D0000A882FF1FB481FF1F2083FF1F888D00006882FF1FD48D0000DC8D00008C8D0000E48D00002A
:40078000EC8D0000F48D0000FC8D0000048E00005082FF1F0C8E0000148E0000CC80FF1F2C82FF1F188E00006482FF1F248E00002C8E0000DD82FF1F348E00003C8E0000A3
:4007C000448E0000508E00006D4BD86A03F0D4FC6C4C02460B466C49204605F077F801F077F9054601F07AF9B5FBF0F300FB135080B204F0B9F8054601F070F904F0B4F89F
:400800000146284604F0B8F9604904F001F903F0B3FC02460B465E4904F1100005F056F85C4B1B78012B40F093800422544B83F849200022574B1A708AE0514B186B03F081
:400840009BFC504C02460B465349204605F03EF801F0C0F9054601F0C3F9B5FBF0F300FB135080B204F080F8054601F0B9F904F07BF80146284604F07FF9444904F0C8F897
:4008800003F07AFC02460B46414904F1100005F01DF8404B1B78012B5AD10522384B83F8492000223B4B1A7052E0354D686B03F063FC344C02460B463849204605F006F89C
:4008C000A86B03F059FC02460B46354904F1100004F0FCFF2F4B1B78012B39D1062285F8492000222B4B1A7032E0254BD86B03F043FC244C02460B462A49204604F0E6FF6D
:40090000294B1B882382234B1B78012B20D107221B4B83F8492000221E4B1A7018E0194C174B5B6C214A2249204604F0CFFF214A214904F1100004F0C9FF164B1B78012B1B
:4009400006D101220E4B83F849200022114B1A70012000F067FC0021084600F0BDFC094C204600F051FC0021012000F0B5FC04F1100000F049FC0022104B1A70A0E400BF4D
:40098000B481FF1F2C82FF1F5C8E00000000C842688E0000DD82FF1F788E0000848E00008C8E0000948E00009C8E00005082FF1FA08E0000A882FF1FAC8E0000CC80FF1F29
:4009C00008B501F059F908BD38B504460D46002101F0CEFA60B9284601F05CFB0121204601F006FB30B9012001F080FB044602E0002400E0002401F031FB204638BD00BF84
:400A000070B50E461546002101F0B2FA044630B9304601F03FFB284601F03CFB044601F01DFB204670BD00BF70B504460D461646002101F09DFA80B9284601F02BFB01216E
:400A4000204601F0D5FA58B9012001F04FFB0446012001F04BFB054604E000252C4601E000252C4601F0FAFA16B145EA042070BD44EA052070BD00BF08B5FFF7A1FF7521AF
:400A80006820FFF7A1FF71282FD101226B216820FFF7B6FF03221A216820FFF7B1FF00221B216820FFF7ACFF052219216820FFF7A7FF09221D216820FFF7A2FF00221C211C
:400AC0006820FFF79DFF222237216820FFF798FF00210C20FFF778FF482808D116220A210C20FFF78DFF012008BD002008BD002008BD00BF10B5002203210C20FFF794FFE8
:400B000004B209210C20FFF75FFF204610BD00BF10B5002205210C20FFF786FF04B209210C20FFF751FF204610BD00BF10B5002207210C20FFF778FF04B209210C20FFF7C1
:400B400043FF204610BD00BF10B5044604F018FF0022134602E0E15C4A4001338342FADB104610BD10B321B332B330B595B015460C460DF10F03009313460A46134904F023
:400B8000C9FE03281BD12B462246114904A804F09DFE04A8FFF7D8FF9DF80F30984211D00C4B186820604FF0FF300CE04FF0FF3070474FF0FF3070474FF0FF3070474FF082
:400BC000FF3000E0002015B030BD00BFB48E0000C88E0000D08E0000A8B1B9B1CAB110B590B0044613460A460C49684604F06EFE6846FFF7A9FF03466A460949204604F0D5
:400C000065FE002008E04FF0FF3070474FF0FF3070474FF0FF30704710B010BDC88E0000D48E000070B506460D461446142004F005F90660456084600022C260026170BD8E
:400C4000FEE700BFF0B40022174611E050F82760F3B226F0FF0608E001EB420511F812406D78A5550132013BDBB2002BF4D10137212FEBD9F0BC7047064B1B78DBB203F0D9
:400C80000701054A11701B09013213704422034B1A707047CF0100496E5800407658004008B50A46002104F0DCF808BD08B504F0CDF808BD38B50024324B1C805022023399
:400CC0001A7002331C801B2202331A7045F6BF5202331A80182202331A7004222A492B48FFF7E4FF06222A4B1A705222A3F580731A70284B1B78DBB2274A13704FF4E162E7
:400D0000264B1A8041F25122023B1A8019250CE0234B1B7803F0010343EA440404F003044FF4F07003F098F8013D0DB1032CEFD115B90320FFF784FF1A4A4FF480731380F1
:400D400007231370002318490B704820023108701370053213700222144B1A7004220A331A70134A137843F007031370013A137843F001031370013A137843F08003137056
:400D800038BD00BF804000409007004800410040004300400F010049A14600402242004025420040044000400640004001400040A2430040022814D810B44000C0B2094B41
:400DC00053F820101A18147E0A7822430A700130C0B253F820201844017E13780B43137010BC7047E08E0000022816D810B44000C0B20A4B53F820101A18147E0A7822EA4D
:400E000004020A700130C0B253F820201844017E137823EA0103137010BC7047E08E0000012809D8054B03EB8002126A184490F8281013780B431370704700BFE08E000077
:400E400001280AD8054B03EB8002126A184490F82810137823EA010313707047E08E000038B572B6364A137843F00403137000240BE0344863001A19510001440A46098E50
:400E8000D06AFFF70DFF0134E4B2072CF1D92E494FF09040FFF7D6FE0A252C4B1D7004212B48FFF7FDFE04212A48FFF7F9FE2A4A137843F0020313701032137843F00203DF
:400EC0001370264C237843F040032370A2F58632513A137843F010031370082220492148FFF7E4FE2A4620492048FFF7DFFE2A461F492048FFF7DAFE08221F491F48FFF746
:400F0000D5FE08221E491F48FFF7D0FE08221E491E48FFF7CBFE1E4A137843F0080313701C4D61232B70FFF7C5FE81232B70FFF7A3FE0E2221461848FFF7B8FE38BD00BF4A
:400F4000E8460040E08E00008800004883580040007600400876004003500140A0430040580700480251004060070048C05100406C070048F051004078070048125100409F
:400F8000800700482251004088070048325100402243004000480040B043004008B503F021FF03680C2B00D1FEE7FEE708B5094B1A681044084BC31AB3F5007F02DC054B3C
:400FC000186005E003F00EFF0C2303604FF0FF32104608BDD080FF1F5884FF1F08B5104E104D16E029686B68AC68002204E051F8040B43F8040B0432A242F8D1E86800222C
:4010000003E0002143F8041B04328242F9D11035013E002EE6D103F0EBFEFFF7CDF8FEE7010000001094000008B5114A114B1A60114A136843F40073136000230AE0032BE8
:4010400003D80E4A52F8231000E00D490D4A42F8231001332F2BF2D90B4B1A780B4B1A70084A0B4B1A60FFF7FBFE00F057FA08BD0004FA050CED00E014ED00E000000000D1
:401080009D0F00000080FF1FBC760040C080FF1F08ED00E010B50B4C237803F09F032370237803F0F00323702378184340F010002070012000F028FB237803F0EF03237041
:4010C00010BD00BF2051004038B505460E4C237843F020032370237803F0BF032370002000F012FB237803F0F003237023781D4345F010052570012000F006FB237803F00F
:40110000EF03237038BD00BF2051004070B5354B1A7802F08002D2B21A7033490A7802F0F00242F00F020A7001310A7802F0F0020A7001310A7802F0F0020A701A7802F0C5
:40114000DF021A701A7842F040021A704FF4CA76002000F0D9FA234D2B7843F010032B70012000F0D1FA214B1C78E4B22B7803F0EF032B70002000F0C7FA04F00804E4B21E
:401180002B7843F010032B70012000F0BDFA2B7803F0EF032B7014B90A2000F0B5FA013E0CB1002ED4D10F4A137803F0BF031370137803F08003DBB213700232137803F07C
:4011C000F00313700132137803F0F00343F00F0313700132137803F0F00343F00F03137070BD00BF20510040225100402151004010B50446FFF78AFF2009FFF765FF04F09A
:401200000F00FFF761FF10BD38B505460078012404E0FFF7EDFF285D0134E4B20028F8D138BD00BF10B50446FFF770FF2009FFF731FF04F00F00FFF72DFF10BD08B5282032
:4012400000F04CFA0320FFF725FF052000F046FA0320FFF71FFF0F2000F040FA0320FFF719FF012000F03AFA0220FFF713FF052000F034FA0620FFF7D5FF0E20FFF7D2FF4E
:401280002C20FFF7CFFF0820FFF7CCFF0120FFF7C9FF0C20FFF7C6FF0320FFF7C3FF052000F01CFA08BD00BF08B50C20FFF7BAFF0122014B1A7008BDFF81FF1F08B5054BE4
:4012C0005B7823B9FFF7BAFF0122024B5A70FFF7EBFF08BDFF81FF1F08B5032819D8DFE800F002070D1381F08000FFF79BFF08BDA1F14000C0B2FFF795FF08BDA1F16C0083
:40130000C0B2FFF78FFF08BDA1F12C00C0B2FFF789FF08BD08B51022054B1A600549042000F0FCF90721042000F00CFA08BD00BF80E100E0E913000010B51024064B1C60A6
:4013400000F08CF8A0F5004000B2044B1B68044A1460184410BD00BF80E100E00482FF1F00E100E0024B187800F00F00704700BF6665004040F00700014B1870704700BF72
:401380008665004008B50F20FFF7F4FFFFF7EAFF02F06AFD054A137843F01003137002F067FD1022024B1A6008BD00BF9665004000E100E008B500F0A3F84FF4004000F0C8
:4013C00047F80022064B1A60064B1B7823B9FFF7A1FF0122034B1A70FFF7D4FF08BD00BF0482FF1F0182FF1F0D4B1B78DBB213F0010F06D00B490A6802F5FF427F320A6064
:4014000007E013F0020F04D006490A68A2F500420A6013F0040F02D00022024B1A607047666500400482FF1F024A137843F080031370704777650040014B1870704700BF75
:4014400087640040014B1878704700BF67640040014B1880704700BF0C6A0040024B1B78024B188880B27047066500408C6A0040014B188880B270478C6A0040014B18804E
:40148000704700BF4C6A0040014B1880704700BF6C6A004008B501E0FFF7EAFFFFF7D2FF10F0400FF8D108BD08B5134B1A7802F0F8021A701A7802F0FC021A70FFF7EAFF21
:4014C0004FF40040FFF7DAFF4FF40040FFF7C0FF0020FFF7B1FFFFF7B5FF4FF40040FFF7D3FF02F0C1FC054A137843F01003137002F0BEFC08BD00BF7765004097640040CE
:4015000008B5054B1B7823B9FFF7CEFF0122024B1A70FFF789FF08BD0882FF1F0B4A7F2313708021517007E0DA0002F1804202F5F042013BDBB21370002BF5D1DB0003F100
:40154000804303F5F04300221A707047D480FF1F172815D831B103010A495A5C42F020025A5405E0030107495A5C02F0DF025A540001044A835C43F0010383540020704708
:40158000012070471070004017280BD80001064BC25C02F0FE02C254C25C02F0DF02C25400207047012070471070004017280BD80001064A835C03F0F103490001F00E0101
:4015C0001943815400207047012070471070004041F6FF73994201D14FF4005141F6FF739A4201D14FF40052172808D8C00000F1804000F5EC408180C28000207047012089
:40160000704700BF172805D8034B03EB0010417200207047012070471070004017281BD810B4C00000F1804404F5EC44D201D2B201F07F01114321709DF804201201D2B219
:4016400003F00F03134363709DF8083003F00F03A3700020E07001E00120704710BC704710B502F001FC0A4B5B78182B0BD9084A1478013B5370E30003F1804303F5F04306
:401680001B78137000E0FF2402F0F2FB204610BDD480FF1F10F0800F0CD111F4704F0BD1C00000F1804000F5F04001808270C37000207047012070470120704710F0800F2F
:4016C00008D1C00000F1804000F5F0408180C280002070470120704701BE704710B5044605E0084B186802F0B7FBA4F50044B4F5004FF6D8034B586800FB04F002F0ACFB6F
:4017000010BD00BFDC80FF1F08B5034B1B7A00FB03F002F0A1FB08BDDC80FF1F70B504460E46074B1D681F2802D90020FFF7D4FF04F01F04103455F8240045F8246070BDE9
:4017400008ED00E038B504460D46072902D90020FFF7C2FF1F2C02D90020FFF7BDFF04F01F0000F1604000F564406D01EDB2057038BD00BF134B1B78DBB20360124A1278F6
:4017800043EA02230360114A127843EA024303600F4A127843EA026303600E4B1B78DBB243600D4A127843EA022343600B4A127843EA024343600A4A127843EA02634360E9
:4017C000704700BF0301004904010049EC4600400201004901010049000100490501004906010049014B1B689864704708ED00E04001C0B2014B1870704700BF02E400E0CC
:401800000422014B1A60704700E100E00422014B1A60704780E100E010B50446FFF7F6FF2046FFF7DFFF0720FFF7E2FFFFF7E8FF10BD00BF084A137843F0020313701032EB
:40184000137843F00203137002F65932137843F001031370704700BFA3430040014B1870704700BF0F4F0040014B1880704700BF104F0040014B1880704700BF124F0040E2
:4018800008B5154A137803F0010313700232137803F0FC031370114B1A7802F0CF021A701A7842F030021A701A7802F0F0021A701A7842F00F021A70094A137843F00103A4
:4018C0001370C720FFF7D0FFC720FFF7D3FF0820FFF7C4FF08BD00BF0C4F0040174F00400D4F004008B5054B1B7823B9FFF7C8FF0122024B1A70FFF79DFF08BD0982FF1F95
:40190000024A137843F08003137070477B650040014B1880704700BF146A0040014B1880704700BF946A0040014B1880704700BF546A0040014B1870704700BF8B6500403E
:40194000014B1878704700BF6B650040014B188880B27047B46A004008B501E0FFF7F6FFFFF7EEFF10F0100FF8D108BD10B5154A137803F0C00343F0090313701F321378B6
:4019800043F001031370104C237843F0010323704FF48050FFF7BCFF4FF48050FFF7BEFF40F21A20FFF7C0FF0020FFF7C3FF02F05BFA237843F01003237002F059FAFFF733
:4019C000CBFF10BD7B6500409B65004008B5054B1B7823B9FFF7CAFF0122024B1A70FFF78FFF08BD0A82FF1F024A137843F080031370704774640040014B1880704700BF8F
:401A000008680040014B1880704700BF88680040014B1880704700BF48680040014B1870704700BF85640040014B1878704700BF65640040014B188880B27047A86800402F
:401A400008B501E0FFF7F6FFFFF7EEFF10F0100FF8D108BD10B5154A137803F0C00343F0090313702032137843F001031370104C237843F0010323704FF48050FFF7BCFF0A
:401A80004FF48050FFF7BEFF4FF40070FFF7C0FF0020FFF7C3FF02F0E7F9237843F01003237002F0E5F9FFF7CBFF10BD746400409564004008B5054B1B7823B9FFF7CAFFF1
:401AC0000122024B1A70FFF78FFF08BD0B82FF1F014B188880B2704748680040014B188880B2704788680040024A137843F080031370704777640040014B1880704700BFF2
:401B00000C680040014B1880704700BF8C680040014B1880704700BF4C680040014B1870704700BF84640040014B1878704700BF64640040014B188880B27047AC68004020
:401B400008B501E0FFF7F6FFFFF7EEFF10F0100FF8D108BD08B5164A137803F0C00343F0090313701F32137843F0010313700132137843F0010313704FF48050FFF7BCFF5A
:401B80004FF48050FFF7BEFF4FF40070FFF7C0FF0020FFF7C3FF02F067F9064A137843F01003137002F064F9FFF7CAFF08BD00BF776400409464004008B5054B1B7823B9C8
:401BC000FFF7C8FF0122024B1A70FFF78DFF08BD0C82FF1F014B188880B270474C680040014B188880B270478C68004038B50622114B1A7081220E3B1A70082202331A700F
:401C00000F2511331D70002401331C704FF400420A4B1A6007212846FFF794FD08492846FFF77CFD1022074B1A70074B1C70074B1C70074B1C7038BDD649004080E100E0DF
:401C4000A11C00006083FF1F6583FF1F7583FF1F6483FF1F08B502F007F9064A137843F0040313701032137843F00403137002F0FFF808BDA543004008B5074B1B7823B960
:401C8000FFF7B4FF0122044B1A70FFF7E3FF4FF40042024B1A6008BD0D82FF1F00E100E038B5A54B1C78A54B1B7813F0400F00F03A81E4B214F0010F00F01D819F4B1B7882
:401CC000453B052B00F21481DFE813F006008200120112010600DF0004F0DF0504F00A04082C42D1954B1B78DBB2452B35D1944B1B7813F0FF0F10D0924B1B681B78DBB2D6
:401D0000914A137004228C4B1A7001228F4B1A7046228A4B1A702C46EDE08D4B1B7813F0020F0DD08B4A137843F00A0313706022824B1A704FF40042874B1A602C46DAE0DC
:401D4000864A137843F0100313701022844B1A700422023B1A702C46CDE00022764B1A704A22764B1A702C46C5E00A2C2BD1794A137843F0A0031370754B1B7813F0020F2D
:401D800014D06E4B1B7813F0080F01D0092300E00A23704A11780B4313706022674B1A704FF400426C4B1A602C46A4E06B4A137843F0100313701022694B1A700422023B75
:401DC0001A702C4697E00020FFF786FC2C4692E014F0020F36D15D4B1A78D2B2584B1B78DBB29A4210D2594A1378DBB255490968CB5CDBB254490B7004214F4B1970137830
:401E00000133DBB2137076E0514B1B7813F0020F0CD0504A137843F00A0313706022474B1A704FF400424C4B1A6064E04B4A137843F0100313701022494B1A700422023BED
:401E40001A7058E0424B1B7813F0020F0CD0414A137843F09A0313706022384B1A704FF400423D4B1A6046E03C4A137843F01003137010223A4B1A700422023B1A70354A64
:401E8000137843F09003137035E0364A1378DBB2354908682C490978C9B2C15413780133DBB213701278D2B2304B1B78DBB29A4203D21022204B1A701DE0254B1B7813F0DA
:401EC000020F0CD0234A137843F00903137060221A4B1A704FF400421F4B1A600BE01F4A137843F0100313700022134B1A7002E00020FFF7F1FB14F0200F1CD00F4B1B78BF
:401F000013F0080F01D0012300E00223114A11780B431370114A137803F0EF0313701022064B1A7038BD054B1B7813F0100F02D11022024B1A7038BDD74900406083FF1F51
:401F40007683FF1F7083FF1FD84900406483FF1F7483FF1F6583FF1F80E100E0D6490040D94900407583FF1F6883FF1F6C83FF1F1A4B1B78DBB2102B29D1194B1B7813F0D6
:401F8000080F26D14FF40042164B1A604000C0B229B140F001004922104B1A7002E045220E4B1A70104B1870012201331A700F4B1B7813F0010FFAD00C4B1B7803F00A0302
:401FC0000A2B08D11022054B1A700320704702207047012070470020704700BF6083FF1FD949004080E100E0D8490040D7490040164B1B7813F0040F23D04000C0B229B1B8
:4020000040F001004922124B1A7002E04522104B1A70104B1870122201331A700422023B1A700D4B1B7813F0010FFAD00A4B1B7803F00A030A2B06D11022054B1A70032042
:402040007047022070470020704700BFD94900406083FF1FD8490040D74900400A4B1B7813F0040F0ED01023074A13700421023A1170064A1370064B1B7813F0210FFAD09D
:402080000020704702207047D94900406083FF1FD7490040114B1B7813F0040F1BD0104B18700422013B1A7046220E4B1A700E4B1B7813F0010FFAD00B4B1B7813F0020FDD
:4020C00004D16022074B1A70002070476022054B1A70032070470220704700BFD9490040D84900406083FF1FD7490040114B1B7813F0040F1BD0104B1B78DBB2492B05D12F
:4021000000220E4B1A704A220B4B1A700B4B1B7813F0010FFAD00A4B1B78DBB218B11021064A117004E06021034A117000E0002318467047D94900406083FF1FD74900403A
:40214000D849004010B59DF80840012C51D1013809282ED8DFE800F0052D2D052D2D0F192D230F2B03D92548007840B222E02448007840B21EE00F2B03D92248007840B203
:4021800018E02148007840B214E00F2B03D91F48007840B20EE01E48007840B20AE00F2B03D91C48007840B204E01B48007840B200E0002001EB401101FB02F1C90B8AB200
:4021C0000D2B0BD8C3F10E0289B211418AB2611E124800EB810101338B7005E0631E0F4901EB83030F219970013C0C4B23F8242010BD0020FFF770FA10BD00BF180100492B
:402200001C010049190100491D0100491A0100491E0100491B0100491F0100491082FF1FF8B5074601F020FE06460D4D2B7843F003032B700B4C237843F0030323700A4BEB
:402240001F700320FFF760FA2B7803F0FC032B70237803F0FC032370304601F009FEF8BDF8460040F9460040925800400022324B1A7101285FD170B53422304B1A70042299
:4022800002331A70062201331A70002401331C7001331C703F2201331A7002331C7001331C7001331C7001250A331D70502203F527631A700A2201331A702C2201331A7011
:4022C00001331C70442203331A70482201331A7001331D7002331D70112201331A70192201331A70972201331A705220FFF798FF5822134B1A7001331C70052605331E70DA
:40230000022201331A7001331C7001331C70204600F04CF943F233320A4B1A602946304600F068F929462D2000F0E8F906490320FFF7F4F970BD70471082FF1F004E0040FD
:40234000945800407883FF1F89250000F0B583B0284D01272F70284E00247471102000F037F9102000F0B8F907210320FFF7EAF90422224B1A7001331C7007331C70204A85
:40238000137843F0180313701E4B1C7003F2F5231C7001331C700A22A3F209331A7001331C7002331C705B2205331A705E2201331A7004331C701422A3F68C231A7000978C
:4023C00010234FF4004248F6F0510220FFF7BAFE2B78013B06EB83039A780B4B1A702B78013B36F82320094B1A802878FFF73EFF03B0F0BDEC80FF1F1082FF1F96580040B5
:40240000075B0040935800400E4E00400C4E004070B501F029FD0646294B1B78294B1A7842F001021A701A7842F010021A7010331A7842F001021A701A7842F010021A70F1
:40244000214D2B7843F002032B70204C237843F0020323701E4A137843F0030313700320FFF752F92B7803F0FD032B70237803F0FD032370174A137843F0060313707A22FA
:40248000154B1A70154A137843F0010313701032137843F0010313700F3A137843F0010313701032137843F00103137008230C4A1360A2F5C0721360304601F0D9FC70BD59
:4024C000EC80FF1FAA430040F8460040F9460040915800407758004082580040A143004080E200E008B5084B9B794BB9064BDB7913F0FF0F01D1FFF729FF0122024B9A7127
:40250000FFF786FF08BD00BF1082FF1F024A137843F0010313707047004E0040154B1B7803F00303012B07D8134B1888023B1B889BB243EA004013E0022B0AD10E4B188893
:40254000023B1B7843EA00430C4A107843EA002006E00B4B188883B2074A108843EA0040084B1B7913F0FF0F02D00022054B5A71704700BF144E0040124E0040114E00402B
:40258000104E00401082FF1F704700BF10B5002404E02046FEF754FC0134E4B2012CF8D9FF22014B1A7010BDED80FF1F10B50446FFF7ECFF2046FEF733FC014B1C7010BDA8
:4025C000ED80FF1F014B188880B2704780400040034B1A7800F0F80010431870704700BF82400040024B187800F00700704700BF8240004070B505460E46FFF7F3FF04461E
:40260000FFF7E0FFA84256D02B4B1B7803F0010294B900B185B938B9284B1D80284A137803F0BF03137070BD254A137843F040031370224B1D8070BD22B3002321490B7010
:4026400001240F310C7004310B700C390B7803F07F030B701A4B1B7813F0080F00D08DB9194B18800721013B1970164B1B7813F0010FFAD110490B7803F0FE030B700021C2
:40268000104B19700C4B1B7813F0010F0DD00E4B1D800EB1032200E001220A4B1A70094B1B7813F0010FFAD170BD044B1D8002490B7813430B7070BDA243004080400040D1
:4026C000824000400140004002400040014B188880B2704700410040034B1A7800F0F80010431870704700BF02410040024B187800F00700704700BF0241004070B50546A6
:402700000E46FFF7F3FF0446FFF7E0FFA84256D02B4B1B7803F0010294B900B185B938B9284B1D80284A137803F0BF03137070BD254A137843F040031370224B1D8070BD66
:4027400022B3002321490B70012413310C7004390B7008390B7803F07F030B701A4B1B7813F0080F00D08DB9194B18800721013B1970164B1B7813F0010FFAD110490B786C
:4027800003F0FE030B700021104B19700C4B1B7813F0010F0DD00E4B1D800EB1032200E001220A4B1A70094B1B7813F0010FFAD170BD044B1D8002490B7813430B7070BD65
:4027C000A143004000410040024100400140004002400040F8B501F047FB0546404A137843F0010313701032137843F00103137001273C4B1F700226943B1E7002F5E2523F
:402800001B32137803F07F0313700020FEF77CFF354C237803F0F9032370344A137803F0DF03137023783B4323703846FEF76CFF2820FEF769FF2E4B1A7802F07F021A7002
:402840001A7802F0BF021A702378334323703046FEF75AFF237843F0040323700023254A13700132137004E0FF21234AD15401339BB2082BF8D9284601F0FAFA0721172021
:40288000FEF760FF1D491720FEF748FF07211820FEF758FF1A491820FEF740FF07210520FEF750FF17490520FEF738FF07210620FEF748FF14490620FEF730FF00211620A6
:4028C000FEF740FF11491620FEF728FF07210C20FEF738FF0E490C20FEF720FFF8BD00BFA54300409D6000409443004012600040F8510040846000408883FF1F8D310000AB
:40290000FD2F00002931000059310000953100003932000010B5234B18700023224A1370224A1370224A1370224A1370224A1370224A1370224A1370224B4FF400021A60C3
:402940004FF080721A6020221A604020186003241D4804704FF4800018601C4B1A7011B1012906D00BE01A4A137803F0FE0313700AE0174A137843F00103137004E0144A07
:40298000137843F0010313700322124B1A708022203B1A70012001F05FFA04220E4B1A7010BD00BFA883FF1FAE83FF1FAC83FF1FAD83FF1FA983FF1F9483FF1FAB83FF1F41
:4029C0002484FF1F00E100E09E6000409C60004009600040286000401260004038B504460D46064B1B7823B9FFF7F4FE0122034B1A7029462046FFF78DFF38BD1C82FF1F7E
:402A000000230A4A13700A4A13700A4A13700A4A13700A4A13700A4A13700A4A13700322094B1A708022203B1A707047AE83FF1FAC83FF1FAD83FF1FA983FF1F9483FF1FE8
:402A4000AB83FF1F2484FF1F28600040014B1878704700BFAD83FF1F064B1B7813F0FF0F05D0044B1878C0B200221A7070470020704700BFAC83FF1F00EB40008300024A81
:402A800013445878704700BFB883FF1F431EDBB2072B0BD8064B00011A18185C00F00F00537843EA0020023880B2704700207047FC5F004010B5044600EB40039800144B45
:402AC0001844037913F0800F03D00A0C4FF4804302E00B0C4FF48042012C02D0022C07D00CE00021084601F07BF80A4B185505E00021084601F056F8064B1855631EDBB29B
:402B0000072B03D8FEF7ACFD034B185510BD00BFB883FF1F7C83FF1F8883FF1F431EDBB2072B6FD82DE9F04104460E46154600EB40029300344A1344DB889BB2C3F50073ED
:402B40009D4209D900EB400293002F4A1344DD88ADB2C5F50075ADB204EB440293002A4A1344DB7843EA15232849220188188B54EBB24370264B1B5DFF2B03D13146204640
:402B8000FFF798FF04EB440293001F4A134400225A705EB355B31F4F385DFEF7F5FCDFF870801123FE22294618F80400FEF772FD22010832184D2A4492B2B1B218F8040025
:402BC000FEF77CFD18F80410385DFEF71BFD0121385DFEF7BDFC24012B5D43F002032B552B5D03F0FD032B55BDE8F08104EB44029300054A13445A79D2B22401074B1A551B
:402C0000BDE8F081704700BFB883FF1FFC5F00408883FF1F7C83FF1F70600040FE5F00402DE9F843002944D0044615460F46002841D0082841D8FFF729FFA84203D22046D4
:402C4000FFF724FF05461F4B1B5DFF2B03D139462046FFF72FFFDFF8748018F80400FEF793FCDFF860901223FE22294619F80400FEF710FD21010831134E314489B2BAB22A
:402C800019F80400FEF71AFD19F8041018F80400FEF7B8FC012118F80400FEF759FC2401335D43F002033355335D03F0FD03335504E0002502E0002500E000252846BDE8E9
:402CC000F88300BF8883FF1F706000407C83FF1F431EDBB2072B0BD8420002449300054A134400225A705A79D2B20001024B1A54704700BFB883FF1FFE5F00401D4B19781C
:402D00001D4A13889BB20B449BB2138000220FE01A494B681B78DBB2194883544B6801334B600132D2B20B889BB2013B9BB20B80124B1B889BB20BB1072AE9D90D4B1B7872
:402D4000DBB2082B00D05AB10E490B7883F080030B700F210C4B197002210C4B197004E0022309490B7009490B70094B1A70014B1A7070472484FF1F2A84FF1F9C83FF1F7D
:402D800000600040AA83FF1F9583FF1FAE83FF1F2584FF1F0222074B1A708022064B1A700F22064B1A700023054A1370054A137001207047AE83FF1FAA83FF1F9583FF1FE4
:402DC0002484FF1F2584FF1F08B5FFF797FF08BD10B4194B197801F00F010239C9B2174A13889BB20B449BB21380002011E0144A5468144B1B5CDBB223705368013353608D
:402E00000130C0B20139C9B213889BB2013B9BB213800B4B1B889BB20BB10029E7D10A4B19700A4A137883F0800313700B22084B1A7010BC704700BF296000402A84FF1F3C
:402E40009C83FF1F006000402584FF1FAA83FF1F9583FF1F0623064A1370064A13708022054B1A700022054B1A700120704700BFAE83FF1F9583FF1FAA83FF1F2584FF1FB8
:402E8000064B9B6843B1054B9A6810709A6804490988518000229A60704700BF9C83FF1F2A84FF1F08B5134B1A78D2B21A701B78DBB213F0800F02D00F4A137008BD0220AA
:402EC000FFF7DEFF0D4B1B7803F06003202B05D0402B06D043B900F091FC06E000F0CCFF03E000F039FE00E0002010B90322024B1A7008BD286000409583FF1F0060004011
:402F000008B5094B1978094A13889BB20B449BB213800022064B1A700120FFF7B1FF0322044B1A7008BD00BF2484FF1F2A84FF1FAE83FF1F9583FF1F08B50B4B1B78DBB2F5
:402F4000042B06D0062B07D0022B0BD1FFF7D8FF08BDFFF73DFF08BD0320FFF791FF0322024B1A7008BD00BFAE83FF1F9583FF1F08B50022044B1A700120FFF781FF032290
:402F8000024B1A7008BD00BFAE83FF1F9583FF1F08B50B4B1B7813F0FF0F07D0084A137843F0800307490B70002313700022064B1A700120FFF764FF0322044B1A7008BD65
:402FC0009483FF1F08600040AE83FF1F9583FF1F08B5094B1B78DBB2042B06D0062B07D0022B07D1FFF7F0FE08BDFFF7C1FF08BDFFF7CEFF08BD00BFAE83FF1F08B5284B42
:403000001B78DBB213F0100F48D013F0800F0CD003F00F03012B16D1FFF744FF214B1B7813F0800F11D1012312E013F0400F03D0FFF7CEFF01230BE013F0200F07D0FFF7F8
:403040007BFF012304E0002302E0002300E0002323B3134B1B7813F0800F1FD1124B1B78124A12781343124A13701278D2B2934214D10C4B1B78DBB2094A127812F0800FA2
:4030800007D1084B1B78DBB2054A1370137803F00F03044A1278D2B29342EAD108BD00BF286000409583FF1FAA83FF1F2584FF1F296000400022064B1A80064B9B682BB1DD
:4030C000044A916800230B7092685380704700BF2A84FF1F9C83FF1F08B50F4B1B889BB213B9FFF757FE15E002220C4B1A7000220B4B1A70FFF7DEFF0A4AD179937943EADB
:403100000123054A128892B2934201D2024A1380FFF7F4FD012008BD9C83FF1FAE83FF1FAA83FF1F006000400122094B1A700F3B9B7C084B1B7B03F00303934204D0054A37
:40314000D37B83F08003D3730122024B5A7370470B600040B883FF1F02220A4B1A700F3B93F82230084B1B7E03F00303012B04D0054AD37E83F08003D3760122024B5A769F
:40318000704700BF0B600040B883FF1F08B5FFF737FC08BD70B4234B1C78E4B201233DE014F0010F37D01A4619011F48084481784078014011F0010F17D003EB4305A800DD
:4031C0001A4D2844007910F0800F0ED0164D1E01A85D00F0FE00A85503EB4305A800134D28444579EDB21248855511F0020F0FD002EB4205A8000D4D2844007910F0800FCE
:4032000006D102EB4205A800084D2844002545701201084881540133DBB26408002CBFD170BC70479F60004070600040B883FF1FFE5F00407260004008B500F0ABFC08BDCC
:4032400070B588B0054603AC174E0FCE0FC43368237035B322232B7003236B7001A8FEF789FA002402231AE008AA224412F81C2C08A901EB121111F8141CE954581C002152
:403280002954981C02F00F0208AE324412F8142C2A54DA1CA9540134E4B20433DBB2212BE2D908B070BD00BF3C8F000030B4012341E0194623481A0184180C2585541F22F9
:4032C000627003EB430082001F480244527912F0FF0F13D003EB430082001B480244127912F0800F04D01801184A024495700AE01801164A02440820907004E01801134AA1
:403300000244802090704800084482000E480244D488E4B208010B4901448C71D088C0F30720C871D088C0B20871D288C2F307224A710133DBB2082BBBD9FF22044B1A7041
:4033400030BC704770600040B883FF1FFC5F00400A600040074B1A78074B03EBC2035B681A7C824204D9C000103018444068704700207047A883FF1F8C8F0000F8B5404BEB
:403380001B7813F0FF0F79D03D4B18780138C0B2FFF7E0FF047AC2683A4B1878C0B200236AE01178884264D13749095CC9B25578A9425ED1917801F07F01D67806F0030656
:4033C000DFF8C8E04D000D44AF000EEB07054FF0000C85F803C092F802C085F804C092F803C00EF807C097882F8192F90250002D0DDA012E01D1072700E00D274E000E4427
:40340000B500224E35446F7101266E700CE0012E01D1052700E009274E000E44B5001B4E35446F7100266E70DFF868E00F010EEB07060125B57001FA05F529448D001349FA
:4034400029440D89C5F307250EF807500D89EDB27570CE88F6B20E4D3D44AE71CE88C6F30726EE71CE88F6B22E71C988C1F30721697108320133DBB2A34292D3F8BD00BFFD
:40348000AD83FF1FA983FF1F9883FF1FB883FF1F70600040FC5F0040034B1A78034B03EBC2035868704700BFA883FF1F8C8F000008B5084B18780138C0B2FFF74BFF30B150
:4034C00042681279023200EBC203586808BD002008BD00BFAD83FF1F2DE9F041002310E06A4D5900CA189600AC190022AA55A270E2702281A272627034462C446271013396
:40350000DBB2082BECD940B90AE000226049CA546049CA540133DBB200E00023002BF4D05D4B1B7813F0FF0F00F0AD805A4B18780138C0B2FFF70EFF4368DB7913F0400F23
:4035400005D0564A137843F00103137004E0534A137803F0FE031370057A012464E0C16800235DE08A7802F07F02944255D1264604EB4407BA00454F3A44128992B28F88C4
:40358000BA4207D204EB440E4FEA8E02DFF8FCE0724417810A783E4FBA5CD2B24F78BA423BD191F802C0DFF8E4E07200324497000EEB070282F804C0CA780EF80720CA785D
:4035C00002F0030291F90270002F13DA012A02D14FF0070801E04FF00D08DFF8B0E0720002EB060C4FEA8C07774487F8058001267E7012E0012A02D14FF0050801E04FF067
:403600000908DFF888E0720002EB060C4FEA8C07774487F8058000267E7008310133DBB2AB429FD30134E4B2082C98D9C06800220CE0837803F07F0310F8084B03EB43032C
:403640009900124B19448C720132D2B2AA42F0D3FFF72EFF124B1860002301210FE00B4D4A00501884002C44E380228992B213449BB203F0010213449BB20131C9B20829FB
:40368000EDD9FFF713FEBDE8F08100BFB883FF1F9883FF1F2884FF1FAD83FF1FAB83FF1FB483FF1F08B5154B1B7903F07F035A1ED2B2072A20D8590019448A0010490A44EB
:4036C000917841F0010191700021D170517841F002015170127912F0800F05D01B01094A1A448D23937004E01B01064A1A4489239370FFF7AFFB08BD002008BD00600040B5
:40370000B883FF1FFC5F0040264B1B7903F07F035A1ED2B2072A43D810B5590019448A0021490A44917801F0FE0191700021D17019017F241D484454517801F0FD01517087
:40374000127912F0800F14D003EB43018A0016490A445278D2B2012A05D11B0102461A440C23937019E01B01104A1A440D23937013E003EB43018A000B490A445278D2B2FE
:40378000012A05D11B01094A1A440823937004E01B01064A1A4409239370FFF75BFB10BD0020704700600040B883FF1FFC5F004010B50E4B1C79E4B20D4B18780138C0B2D0
:4037C000FFF7C8FD43681B799C4201D9012C0AD8084A135DDBB208490B55044B9B78DBB21355012010BD002010BD00BF00600040AD83FF1F9883FF1F2884FF1F10B5964B80
:403800001B78DBB20021954A118013F0800F00F0B380914A5278D2B20A2A00F27981DFE812F06F00770177017701770177010B00770198007701A000874BDB78DBB2012B38
:4038400009D1FFF729FE4268844B5A6012221A80FFF742FC10BD804BDB78DBB2022B13D17D4B9878FFF776FD002800F0538142687A4B5A605A68D1785A68927842EA012217
:403880001A80FFF729FC10BD734BDB78DBB2032B05D032E00A7811440133DBB201E000236F496D4A9278D2B2934203D20A7812F0FF0FEFD1684B9B78DBB2EE2B00D169494F
:4038C000654B9B7813F0FF0F0BD0634B9B78DBB2654A127C934204D1644C2046FFF7B0FC21460B7813F0FF0F00F016810B785B4A13805160FFF7F0FB10BD00F0BDFA10BD1C
:4039000013F0030317D0022B40F0088153490B80514B1B7903F07F0303EB43039A00544B1A449278D2B2534B1A7000225A704B60FFF7D2FB10BD494902230B804E4B1A78D0
:40394000D2B24C4B1A7000225A704B60FFF7C4FB10BD424B01221A80484A5A60FFF7BCFB10BD3E4A012313803B4B1B7944490B445360FFF7B1FB10BD374A5278013A0A2A68
:4039800000F2CE80DFE812F04C00CC009700CC000B00CC00CC00CC001300CC0030002E4B9B78DBB2374A1370FFF754FA10BD2A4B9B7803F0FF041BB1601EC0B2FFF7CAFCE1
:4039C00004B110B9002C40F0AD802C4B1B78DBB29C4206D0294B1C7001202B4B1870FFF77BFDFFF737FA10BDFFF7E2FE002800F09B80194A1379DBB21279D2B223490A707A
:403A0000234AD25CD2B21E49CB5CDBB29A4204D001221D4B1A70FFF7B1FCFFF71BFA10BD03F00303012B35D04BB1022B7ED10A4B9B7813F0FF0F7BD1FFF766FE10BD064B2D
:403A40009B78DBB2012B75D10B4A137803F0FD031370FFF7FFF910BD006000409C83FF1FE48F0000788F00009C9000002C84FF1FB883FF1F2082FF1FAB83FF1FAD83FF1F1F
:403A80009883FF1F9483FF1FAC83FF1FA983FF1F2884FF1F2D4B1B7913F0FF0F4CD12B4B98781B79DBB22A49CA5C22EA0002CA54FFF7D0F910BD03F00303012B17D04BB1FD
:403AC000022B3BD1214B9B7813F0FF0F38D1FFF7E9FD10BD1D4B9B78DBB2012B32D11D4A137843F002031370FFF7B4F910BD174B1B7913F0FF0F27D1144B98781B79DBB268
:403B00001349CA5C22EA0002CA54FFF7A3F910BD002010BD002010BD002010BD002010BD002010BD002010BD002010BD002010BD002010BD002010BD002010BD002010BD5C
:403B4000002010BD002010BD002010BD00600040B083FF1FAB83FF1F08B50B4B1B7813F0800F0CD0084B5B78DBB2012B09D1074B074A5A6012781A80FFF7AEFA08BD002070
:403B800008BD002008BD00BF006000409C83FF1F508F0000024B1878C0F38010704700BF8F450040F0B583B016461F460B4C012525700023019300930A4601462846FDF748
:403BC0002DFD3A4631462078FDF702FD02212078FDF7ECFC207803B0F0BD00BFEE80FF1FF0B583B016461F460B4D00242C700194009423460A4601462046FDF70FFD3A467F
:403C000031462878FDF7E4FC02212878FDF7CEFC287803B0F0BD00BFEF80FF1F014B1870704700BF75640040014B1870704700BF7A650040014B1870704700BF756500409C
:403C400010B5002404E02046FDF7CEF80134E4B2022CF8D9FF22014B1A7010BDF080FF1F10B50446054B1878FF2801D0FDF7BCF82046FDF79FF8014B1C7010BDF080FF1F88
:403C8000024B1B68C3F8B400704700BF08ED00E04001C0B2014B1870704700BF1DE400E04FF00052014B1A60704700BF00E100E04FF00052014B1A60704700BF80E100E000
:403CC00010B50446FFF7F4FF2046FFF7D9FF0720FFF7DEFFFFF7E4FF10BD00BF084A137843F0010313701032137843F00103137002F64D32137843F001031370704700BFE9
:403D0000A3430040014B1870704700BF034F0040014B1880704700BF044F0040014B1880704700BF064F004008B5164A137803F0010313700232137803F0FC031370124BF2
:403D40001A7802F0CF021A701A7842F030021A701A7802F0F0021A701A7842F00F021A700A4A137843F00103137040F2E730FFF7CFFF40F2E730FFF7D1FF0020FFF7C2FFF9
:403D800008BD00BF004F00400B4F0040014F004008B5054B1B7823B9FFF7C6FF0122024B1A70FFF79BFF08BD2282FF1F014B1B685864704708ED00E04001C0B2014B1870E0
:403DC000704700BF01E400E00222014B1A60704700E100E00222014B1A60704780E100E010B50446FFF7F6FF2046FFF7DFFF0720FFF7E2FFFFF7E8FF10BD00BF014B1B68DA
:403E00001864704708ED00E04001C0B2014B1870704700BF00E400E00122014B1A60704700E100E00122014B1A60704780E100E010B50446FFF7F6FF2046FFF7DFFF07201C
:403E4000FFF7E2FFFFF7E8FF10BD00BF0122014B1A60704780E200E00230800803D000BF01380046FCD17047EFF3108072B6704780F31088704700BF0B4B1B7803F003031D
:403E8000012B02D0022B03D00CE0074B1B7909E0054B1B7903F07F0303EB43039A00034B1A44937A0020704700600040B883FF1F81F0004102E000BF83F0004330B54FEA72
:403EC00041044FEA430594EA050F08BF90EA020F1FBF54EA000C55EA020C7FEA645C7FEA655C00F0E2804FEA5454D4EB5555B8BF6D420CDD2C4480EA020281EA030382EAEA
:403F0000000083EA010180EA020281EA0303362D88BF30BD11F0004F4FEA01314FF4801C4CEA113102D0404261EB410113F0004F4FEA03334CEA133302D0524263EB430371
:403F400094EA050F00F0A780A4F10104D5F1200E0DDB02FA0EFC22FA05F2801841F1000103FA0EF2801843FA05F359410EE0A5F120050EF1200E012A03FA0EFC28BF4CF0AF
:403F8000020C43FA05F3C01851EBE37101F0004507D54FF0000EDCF1000C7EEB00006EEB0101B1F5801F1BD3B1F5001F0CD349085FEA30004FEA3C0C04F101044FEA44526F
:403FC00012F5800F80F09A80BCF1004F08BF5FEA500C50F1000041EB045141EA050130BD5FEA4C0C404141EB010111F4801FA4F10104E9D191F0000F04BF01460020B1FAAC
:4040000081F308BF2033A3F10B03B3F120020CDA0C3208DD02F1140CC2F10C0201FA0CF021FA02F10CE002F11402D8BFC2F1200C01FA02F120FA0CFCDCBF41EA0C0190408A
:40404000E41AA2BF01EB0451294330BD6FEA04041F3C1CDA0C340EDC04F11404C4F1200220FA04F001FA02F340EA030021FA04F345EA030130BDC4F10C04C4F1200220FA74
:4040800002F001FA04F340EA0300294630BD21FA04F0294630BD94F0000F83F4801306BF81F480110134013D4EE77FEA645C18BF7FEA655C29D094EA050F08BF90EA020F11
:4040C00005D054EA000C04BF1946104630BD91EA030F1EBF0021002030BD5FEA545C05D14000494128BF41F0004130BD14F580043CBF01F5801130BD01F0004545F0FE411F
:4041000041F470014FF0000030BD7FEA645C1ABF194610467FEA655C1CBF0B46024650EA013406BF52EA033591EA030F41F4002130BD00BF90F0000F04BF0021704730B512
:404140004FF4806404F132044FF000054FF0000150E700BF90F0000F04BF0021704730B54FF4806404F1320410F0004548BF40424FF000013EE700BF42004FEAE2014FEA89
:4041800031014FEA02701FBF12F07F4393F07F4F81F06051704792F0000F14BF93F07F4F704730B54FF4607401F0004521F0004120E700BF50EA010208BF704730B54FF0C1
:4041C00000050AE050EA010208BF704730B511F0004502D5404261EB41014FF4806404F132045FEA915C3FF4DCAE4FF003025FEADC0C18BF03325FEADC0C18BF033202EB13
:40420000DC02C2F1200300FA03FC20FA02F001FA03FE40EA0E0021FA02F11444C1E600BF70B54FF0FF0C4CF4E06C1CEA11541DBF1CEA135594EA0C0F95EA0C0F00F0DEF81C
:404240002C4481EA030621EA4C5123EA4C5350EA013518BF52EA033541F4801143F4801338D0A0FB02CE4FF00005E1FB02E506F00042E0FB03E54FF00006E1FB03569CF040
:40428000000F18BF4EF0010EA4F1FF04B6F5007F64F5407404D25FEA4E0E6D4146EB060642EAC62141EA55514FEAC52040EA5E504FEACE2EB4F1FD0C88BFBCF5E06F1ED89C
:4042C000BEF1004F08BF5FEA500E50F1000041EB045170BD06F0004646EA010140EA020081EA0301B4EB5C04C2BFD4EB0C0541EA045170BD41F480114FF0000E013C00F31A
:40430000AB8014F1360FDEBF002001F0004170BDC4F10004203C35DA0C341BDC04F11404C4F1200500FA05F320FA04F001FA05F240EA020001F0004221F0004110EBD370C9
:4043400021FA04F642EB06015EEA430E08BF20EAD37070BDC4F10C04C4F1200500FA04F320FA05F001FA04F240EA020001F0004110EBD37041F100015EEA430E08BF20EA51
:40438000D37070BDC4F1200500FA05F24EEA020E20FA04F301FA05F243EA020321FA04F001F0004121FA04F220EA020000EBD3705EEA430E08BF20EAD37070BD94F0000F4C
:4043C0000FD101F00046400041EB010111F4801F08BF013CF7D041EA060195F0000F18BF704703F00046520043EB030313F4801F08BF013DF7D043EA0603704794EA0C0FBE
:404400000CEA135518BF95EA0C0F0CD050EA410618BF52EA4306D1D181EA030101F000414FF0000070BD50EA410606BF1046194652EA430619D094EA0C0F02D150EA0136FF
:4044400013D195EA0C0F05D152EA03361CBF104619460AD181EA030101F0004141F0FE4141F470014FF0000070BD41F0FE4141F4780170BD70B54FF0FF0C4CF4E06C1CEA99
:4044800011541DBF1CEA135594EA0C0F95EA0C0F00F0A7F8A4EB050481EA030E52EA03354FEA013100F088804FEA03334FF0805545EA131343EA12634FEA022245EA111574
:4044C00045EA10654FEA00260EF000419D4208BF964244F1FD0404F5407402D25B084FEA3202B61A65EB03055B084FEA32024FF480104FF4002CB6EB020E75EB030E22BF38
:40450000B61A754640EA0C005B084FEA3202B6EB020E75EB030E22BFB61A754640EA5C005B084FEA3202B6EB020E75EB030E22BFB61A754640EA9C005B084FEA3202B6EB41
:40454000020E75EB030E22BFB61A754640EADC0055EA060E18D04FEA051545EA16754FEA06164FEAC30343EA52734FEAC2025FEA1C1CC0D111F4801F0BD141EA00014FF0C0
:4045800000004FF0004CB6E711F4801F04BF01430020B4F1FD0C88BFBCF5E06F3FF6AFAEB5EB030C04BFB6EB020C5FEA500C50F1000041EB045170BD0EF0004E4EEA113106
:4045C00014EB5C04C2BFD4EB0C0541EA045170BD41F480114FF0000E013C90E645EA060E8DE60CEA135594EA0C0F08BF95EA0C0F3FF43BAF94EA0C0F0AD150EA01347FF417
:4046000034AF95EA0C0F7FF425AF104619462CE795EA0C0F06D152EA03353FF4FDAE1046194622E750EA410618BF52EA43067FF4C5AE50EA41047FF40DAF52EA43057FF405
:40464000EBAE12E74FF0FF3C06E000BF4FF0010C02E000BF4FF0010C4DF804CD4FEA410C7FEA6C5C4FEA430C18BF7FEA6C5C1BD001B050EA410C0CBF52EA430C91EA030FED
:4046800002BF90EA020F0020704710F1000F91EA030F58BF994208BF90422CBFD8176FEAE37040F0010070474FEA410C7FEA6C5C02D150EA013C07D14FEA430C7FEA6C5CAF
:4046C000D6D152EA033CD3D05DF8040B704700BF8446104662468C461946634600E000BF01B5FFF7B7FF002848BF10F1000F01BD4DF808EDFFF7F4FF0CBF012000205DF8F7
:4047000008FB00BF4DF808EDFFF7EAFF34BF012000205DF808FB00BF4DF808EDFFF7E0FF94BF012000205DF808FB00BF4DF808EDFFF7CEFF94BF012000205DF808FB00BFF1
:404740004DF808EDFFF7C4FF34BF012000205DF808FB00BF4FEA4102B2F1E04324BFB3F5001CDCF1FE5C0DD901F0004C4FEAC0024CEA5070B2F1004F40EB830008BF20F060
:404780000100704711F0804F21D113F13872BCBF01F00040704741F480114FEA5252C2F11802C2F1200C10FA0CF320FA02F018BF40F001004FEAC1234FEAD32303FA0CFCB1
:4047C00040EA0C0023FA02F34FEA4303CCE77FEA625307D150EA01331EBF4FF0FE4040F44000704701F0004040F0FE4040F40000704700BF80F0004002E000BF81F000410A
:4048000042001FBF5FEA410392EA030F7FEA226C7FEA236C6AD04FEA1262D2EB1363C1BFD218414048404140B8BF5B42192B88BF704710F0004F40F4000020F07F4018BFC1
:40484000404211F0004F41F4000121F07F4118BF494292EA030F3FD0A2F1010241FA03FC10EB0C00C3F1200301FA03F100F0004302D5494260EB4000B0F5000F13D3B0F168
:40488000807F06D340084FEA310102F10102FE2A51D2B1F1004F40EBC25008BF20F0010040EA03007047490040EB000010F4000FA2F10102EDD1B0FA80FCACF1080CB2EBF3
:4048C0000C0200FA0CF0AABF00EBC25052421843BCBFD0401843704792F0000F81F4000106BF80F400000132013BB5E74FEA41037FEA226C18BF7FEA236C21D092EA030FB5
:4049000004D092F0000F08BF0846704790EA010F1CBF0020704712F07F4F04D1400028BF40F00040704712F100723CBF00F50000704700F0004343F0FE4040F4000070476C
:404940007FEA226216BF08467FEA23630146420206BF5FEA412390EA010F40F4800070474FF0000304E000BF10F0004348BF40425FEA000C08BF704743F0964301464FF030
:4049800000001CE050EA010208BF70474FF000030AE000BF50EA010208BF704711F0004302D5404261EB41015FEA010C02BF84460146002043F0B64308BFA3F18053A3F535
:4049C0000003BCFA8CF2083AA3EBC25310DB01FA02FC634400FA02FCC2F12002BCF1004F20FA02F243EB020008BF20F00100704702F1200201FA02FCC2F1200250EA4C0011
:404A000021FA02F243EB020008BF20EADC7070474FF0FF0C1CEAD0521EBF1CEAD15392EA0C0F93EA0C0F6FD01A4480EA010C400218BF5FEA41211ED04FF0006343EA5010C6
:404A400043EA5111A0FB01310CF00040B1F5000F3EBF490041EAD3715B0040EA010062F17F02FD2A1DD8B3F1004F40EBC25008BF20F00100704790F0000F0CF0004C08BF61
:404A800049024CEA502040EA51207F3AC2BFD2F1FF0340EAC250704740F400004FF00003013A5DDC12F1190FDCBF00F000407047C2F10002410021FA02F1C2F1200200FA0E
:404AC00002FC5FEA310040F1000053EA4C0308BF20EADC70704792F0000F00F0004C02BF400010F4000F013AF9D040EA0C0093F0000F01F0004C02BF490011F4000F013B69
:404B0000F9D041EA0C018FE70CEAD15392EA0C0F18BF93EA0C0F0AD030F0004C18BF31F0004CD8D180EA010000F00040704790F0000F17BF90F0004F084691F0000F91F0C6
:404B4000004F14D092EA0C0F01D142020FD193EA0C0F03D14B0218BF084608D180EA010000F0004040F0FE4040F40000704740F0FE4040F4400070474FF0FF0C1CEAD052BF
:404B80001EBF1CEAD15392EA0C0F93EA0C0F69D0A2EB030280EA010C49024FEA402037D04FF0805343EA111143EA10130CF000408B4238BF5B0042F17D024FF4000C8B42B8
:404BC00024BF5B1A40EA0C00B3EB510F24BFA3EB510340EA5C00B3EB910F24BFA3EB910340EA9C00B3EBD10F24BFA3EBD10340EADC001B0118BF5FEA1C1CE0D1FD2A3FF68B
:404C000050AF8B4240EBC25008BF20F0010070470CF0004C4CEA50207F32C2BFD2F1FF0340EAC250704740F400004FF00003013A37E792F0000F00F0004C02BF400010F463
:404C4000000F013AF9D040EA0C0093F0000F01F0004C02BF490011F4000F013BF9D041EA0C0195E70CEAD15392EA0C0F08D142027FF47DAF93EA0C0F7FF470AF084676E703
:404C800093EA0C0F04D14B023FF44CAF08466EE730F0004C18BF31F0004CCAD130F000427FF45CAF31F000437FF43CAF5FE700BF4FF0FF3C06E000BF4FF0010C02E000BF6B
:404CC0004FF0010C4DF804CD4FEA40024FEA41037FEA226C18BF7FEA236C11D001B052EA530C18BF90EA010F58BFB2EB030088BFC81738BF6FEAE17018BF40F001007047C9
:404D00007FEA226C02D15FEA402C05D17FEA236CE4D15FEA412CE1D05DF8040B704700BF844608466146FFE70FB5FFF7C9FF002848BF10F1000F0FBD4DF808EDFFF7F4FFDB
:404D40000CBF012000205DF808FB00BF4DF808EDFFF7EAFF34BF012000205DF808FB00BF4DF808EDFFF7E0FF94BF012000205DF808FB00BF4DF808EDFFF7D2FF94BF01207D
:404D800000205DF808FB00BF4DF808EDFFF7C8FF34BF012000205DF808FB00BF42000ED2B2F1FE4F0BD34FF09E03B3EB126209D44FEA002343F0004323FA02F070474FF0E4
:404DC0000000704712F1610F01D1420202D14FF0FF3070474FF00000704700BF002101F0FBBB0000014B1868704700BF5481FF1F0E4B70B51E460E4C0025E41AA410A542CF
:404E000004D056F8253098470135F8E704F0EEFA084B094C1E46E41AA4100025A54204D056F8253098470135F8E770BDF8930000F8930000F893000000940000024B014600
:404E4000186800F063B800BF5481FF1F10B5431E0A44914204D011F8014B03F8014FF8E710BD03460244934202D003F8011BFAE77047000038B50546002944D051F8043CAB
:404E80000C1F002BB8BFE41802F002FD1E4A1368114613B96360146030E0A3420DD92268A018834201BF18685B681218226063600C6023E0A24203D813465A68002AF9D16A
:404EC00018681918A1420BD12168014458188242196013D110685268014419605A600DE002D90C232B6009E021686018824201BF106852680918216062605C602846BDE8E4
:404F0000384002F0C6BC38BD2882FF1F70B5CD1C25F0030508350C2D38BF0C25002D064601DBA94202D90C23336046E002F0B0FC234B1C681A462146A1B10B685B1B0ED488
:404F40000B2B03D90B60CC18CD501EE08C420BBF63684B681360636018BF0C4615E00C464968E9E7174C23681BB9304600F09EFC20602946304600F099FC431C18D0C41CA5
:404F800024F00304A0420DD12560304602F081FC04F10B00231D20F00700C31A0ED05A42E25070BD211A304600F080FC0130EBD10C233360304602F06CFC002070BD00BFF7
:404FC0002882FF1F2482FF1F2DE9F04788B0149F002B1E461299B8BF03F1004327F02007B6BF1E4600232D23462F1446109DDDF84CA00B7003D0452F03D1013501E003236B
:4050000000E0022307AA049206AA03928DE828042246334601F074FB472F804602D1119BDB0728D5462F08EB050911D198F80030302B0AD10022002320463146FFF758FBAA
:4050400018B9C5F10105CAF80050DAF8003099440022002320463146FFF74AFB08B9302202E0CDF81C9006E0079B994503D9591C07911A70F8E74046079B159AC8EB0303A7
:40508000136008B0BDE8F087034673B50029B8BF494203F8022BB4BF2D222B22092942701ADD0DF1070216460A2591FBF5F405FB1411092C01F1300102F8011D2146F4DC28
:4050C0003031541E02F8011CB4421A460AD214F8012B03F8012BF7E71A463024214402F8024B5970101A02B070BD00002DE9F04F91B00C46DDF8688016461F46054602F082
:40510000B5FB03681846099300F03AFC00230E93D8F800300A90073323F0070303F1080294F81890D4F800B0C8F80020D3E90023C4E91223D4F84CA0D4F848802AF0004387
:405140000B934FF0FF32A74B40460B9903F0BCFDA0B94FF0FF32A34B40460B99FFF7DCFA60B90022002340465146FFF7CBFA10B12D2384F843309C4B9C4A0AE0424653469E
:405180004046514603F0A0FD002800F09281984B984AB9F1470F8CBF90469846032323612BF0040323604FF0000A3DE0B9F1670F00F08A81B9F1470F00F086812360019375
:4051C000636800210DF13302059002920093424653460691CDF81090CDF80CE02846FFF7F3FE09F0DF03472B804600F08481B9F1650F0D9900F28D8101394A4604F15000D6
:405200000D91FFF741FF0E9A82468318012A236100F37C812268D10700F178819DF8333013B12D2384F84330009733460FAA2146284600F09FF9013002D14FF0FF3096E19A
:4052400023685A0501D4236965E0B9F1650F40F2D580D4E9120100220023FFF749FA78B30123654A31462846B8470130E5D00E9B0D9A9A420BDB2368D80708D423689B075E
:4052800040F111814FF0000804F1190906E10A9B099A31462846B8470130CED04FF0000804F11A090E9B013B9845E7DA01234A4631462846B8470130BFD008F10108F1E7D7
:4052C0000D9B002B29DC01234B4A31462846B8470130B2D00D9B23B90E9B13B92368D907CCD50A9B099A31462846B8470130A4D04FF0000904F11A0A0D9B5B42994509DA49
:405300000123524631462846B847013095D009F10109F1E70E9B4246A7E00E9AA36D9A42A8BF1A46002A914606DC4FF0000A29EAE97904F11A0B11E01346314642462846D6
:40534000B8470130F1D178E701235A4631462846B84701303FF471AF0AF1010AA36DC9EB03029245F0DB08EB03090D9A0E9B9A420FDB2368DA070CD40E9B0D9A9844C9EBFE
:4053800008089B1A9845A8BF9846B8F1000F08DC0FE00A9B099A31462846B8470130EBD14BE743464A4631462846B84701303FF444AF4FF0000928EAE87804F11A0A09E020
:4053C0000123524631462846B84701303FF435AF09F101090D9A0E9B9B1AC8EB03039945EEDB4BE7FFFFEF7FB0900000B4900000B8900000BC900000E69200000E9A012A5B
:4054000001DCDB0738D50123424631462846B84701303FF412AF0A9B099A31462846B84701303FF40AAFD4E9120100220023FFF75FF920B14FF0000804F11A090EE00E9B78
:4054400008F10102013B19E001234A4631462846B84701303FF4F1AE08F101080E9B013B9845F1DB534604F1500231462846B84701307FF403AFE0E642460123314628465F
:40548000B8470130EED1D8E601234A4631462846B84701303FF4D1AE08F10108E3680F9A9B1A9845F0DBE0680F9B9842B8BF18465DE062680EA8531C0DF1340E4BF4806342
:4054C0007FF474AE062201E012B90122626075E6002106910DF133018DE80C00236005904246CDF81090CDF80CE0029153462846FFF76AFD80460D9BD81C02DB626893420D
:405500001DDDA9F102095FFA89F970E60133236184E6B9F1660F14D10029636807DD216113B92268D2071DD501330B4419E013B92268D00701D5023313E0012311E04FF0FF
:4055400067090D9B0E9A934205DB22682361D10708D5013305E0002BD4BFC3F102030123134423610D9B4FF0000AA36556E611B0BDE8F08F2DE9F04791461F460A698B685B
:4055800006469342B8BF1346C9F8003091F843200C46DDF8208012B10133C9F800302368990642BFD9F800300233C9F80030256815F0060510D104F1190A07E001235246E3
:4055C00039463046C04701301AD00135E368D9F800209B1A9D42F1DB94F843302268003318BF012392060FD5E118302081F843005A1C94F845102244023382F8431003E0E8
:405600004FF0FF30BDE8F08704F1430239463046C0470130F4D02268D9F80050E36802F00602042A08BF5D1B2269A3680CBF25EAE57500259342C4BF9B1AED184FF000090F
:405640001A344D4509D00123224639463046C0470130D5D009F10109F3E70020BDE8F0872DE9F04317460A7E85B06E2A984606460C460C9B01F1430E00F0AE8011D8632A04
:4056800022D009D8002A00F0BB80582A40F0CA8081F84520834955E0642A1ED0692A1CD0C0E0732A00F0B08009D86F2A2ED0702A40F0B8800A6842F020020A603EE0752A28
:4056C00024D0782A3AD0ADE01A6801F14205111D1960136884F84230A8E021681A6811F0800F02D0111D196008E011F0400F02F10401196002D0B2F9003000E01368002B3A
:405700003CDA2D225B4284F8432037E021681A6811F0800F02D0111D196007E011F0400F02F10401196001D0138800E01368227E5C496F2A14BF0A2208221BE078225A49AF
:4057400084F845202268186812F0800F00F104051D6003D1550601D5038800E00368D00744BF42F0200222601BB9226822F0200222601022002084F8430001E049490A22E7
:405780006568002DA56008DB206820F0040020602BB9002D7DD175460CE0002B79D07546B3FBF2F002FB1033CB5C05F8013D03460028F5D1082A0BD12368DA0708D523696A
:4057C00062689A42DEBF302305F8013C05F1FF35C5EB0E0323612EE008681A6810F0800F496903D0101D1860136808E010F0400F02F104001860136801D0198000E0196052
:4058000000232361754616E01A68111D1960156800216268284602F02DF808B1401B6060636804E004F1420584F8422001232361002384F84330CDF800803B4603AA2146C9
:405840003046FFF797FE013002D14FF0FF3026E023692A4639463046C0470130F5D023689B0710D5002504F1190907E001234A4639463046C0470130E7D00135E368039AD6
:405880009B1A9D42F2DBE068039B9842B8BF184605E00B7804F1420584F842308AE705B0BDE8F083C0900000D190000038B5064C0023054608462360FBF778FB431C02D15C
:4058C000236803B12B6038BD5084FF1F0EB400B54FF402719CB0ADF814106FF00041049107914FF6FF711DAB02900690084853F8042BADF81610006802A9019302F01AFCFF
:40590000029B00221A701CB05DF804EB03B070475481FF1F0EB430B59CB01FAC4FF4017254F8045BADF814200290069000F028F80B4B03900B9300230F9314934FF6FF73D7
:4059400007900848ADF816302A46234602A90068019402F03FFD1CB0BDE8304003B07047695900005481FF1F0020704710F8012B11F8013B012A28BF9A42F7D0D01A704700
:40598000034613F8012B002AFBD1181A013870472DE9F0410F46904602F042FA04460D46B8F1000F11D0C7F30A53C3F16B03002B0BDD1B0503F17F55002405F5401522466A
:4059C0002B46FEF72DFCBDE8F08120462946BDE8F0810000000000002DE9F04F82460C469DB00023139218934FF000084FF000091791179B1A780D2A05D8092A13D2002A17
:405A000000F0AD8112E02B2A04D02D2A04D0202A0CD108E0002200E001220C925A1C17925B782BB99BE101331793E2E700230C93179D2B78302B5CD16B78582B01D0782BBC
:405A40004CD10C9BA84A019318AB009317A919AB504601F038FC10F00706044600F08585062E05D10135002317950C9300F07DBD189A3AB135211AA802F0B9FA189950467D
:405A800001F03DFF062E22D8DFE806F0040D08181D0D04004FF00009C84618E0DDF86880DDF86C9013E01B9B199A23F4801302F23342DDF8688043EA025908E0DFF82C9262
:405AC0004FF0000803E06FF000494FF0FF38210740F14B8549F0004900F047BD179B5A1C17925B78302BF9D0002B00F03E85012300E000230593179B0A22069300239B46DF
:405B000002930493179D2E78A6F13003D9B2092911D8BBF1080FD5BF0499029902FB013302FB013305F10105D4BF049302930BF1010B1795E6E7504601F098FE0768504620
:405B400001F094FE0068FFF71BFF39460246284602F01CFF074628B1002033465D46024601465AE0504601F081FE0068FFF708FF179B1A1817921B5CBBF1000F45D15846DF
:405B8000302B05D1179B01305A1C17925B78F7E7A3F13102082A46D8179A0692024600200546303B00F1010129D00A44294605EB000C0A2661450FD0013101F1FF3EBEF119
:405BC000080F03DC049F77430497F3E71029DEBF029F77430297EDE72844082800F1010505DC04980A2101FB0033049306E0102DDFBF02980A2101FB003302930021179B21
:405C0000581C17905B78084602E05D4638463A46A3F130010929C4D90121652B01D0452B4FD16DB904E0652B40F0AD840022012128B9059B002B00F09280054600E00025C1
:405C4000179C631C179363782B2B06D02D2B02D00026039606E0012300E000230393A31C1793A378A3F13006092E29D8302B04D1179B5E1C17965B78F8E7A3F13106082E73
:405C80001FD8A3F1300E179B1F46179B5E1C17965B78A3F1300CBCF1090F05D80A2606FB0E3EAEF1300EF0E7F61B082E44F61F6602DC7645A8BF7646039F1FB1764201E0E8
:405CC00017940026002D52D1002840F04E84059A002A40F04A84002941D14E2B20D007DC492B0AD03BE000BFF89000000000F07F692B02D06E2B13D031E0AA4917A801F056
:405D000013FD60B3179BA849013B17A8179301F00BFD10B9179B01331793DFF8A8921AE0A24917A801F000FDC8B1179B1B78282B0FD11AAA9E4917A801F009FD052808D1AB
:405D40001B9BDDF8688043F0FF4949F4E00900F00CBCDFF874924FF0000800F006BC139B1794002B00F00C8400230C93FFE32C46BBF1000F08BFAB460498102DA8BF102480
:405D8000B71AFEF7D7F9092C8046894613DD894B03EBC40353E91223FEF742FA804602988946FEF7C7F902460B4640464946FEF785F8804689460F2D33DC002F00F0D5830D
:405DC00022DD162F07DC7B4D424605EBC7014B46D1E9000113E0C5F125039F4221DC754CC5F10F0504EBC5017D1B4246D1E900014B4604EBC504FEF713FAD4E90023FEF73E
:405E00000FFA80468946B0E317F1160F09DB694D4046A5EBC703D3E900234946FEF72AFBEFE72C1B3C44002C5DDD14F00F010AD0604B424603EBC101D1E900014B46FEF7ED
:405E4000EFF98046894634F00F0400F0C180B4F59A7F0FDD4FF0000BCDF808B0CDF814B0CDF810B02223CAF80030DFF858914FF0000889E14046494600234F4E2411029373
:405E8000012C0CDDE20704D5D6E90023FEF7C8F90123029A6410013202920836F0E70BB180468946444B029AA9F1547903EBC201D1E9000142464B46FEF7B2F921F0004306
:405EC00089460A461B0D3D491B058B428046C1D8A1F580118B4286BFDFF8F0904FF0FF3802F1547974E073D0644214F00F020AD0304B404603EBC2034946D3E90023FEF780
:405F0000B9FA80468946241162D01F2C08DD4FF0000BCDF808B0CDF814B0CDF810B02CE14046494614F0100F0CBF00236A23244E03930023002C09DDE20704D5D6E900230C
:405F4000FEF76EF9012364100836F3E70BB180468946039BEBB1C9F30A53C3F16B03002B494616DD1F2B0EDD342BDEBF203B4FF0FF3202FA03F34FF00008CCBF4FF05C79CE
:405F800003EA010905E04FF0FF3202FA03F303EA08080022002340464946FEF7A9FB0028B5D117E0B59000003B910000BD900000E4900000B0910000889200000000A07CC5
:405FC000109100000000F07F0000F8FFFFFFEF7F00230393049B5A46009306992B46504601F0DFFC059000283FF434AF002FC7F10003A8BF00230D934FF0000B27EAE77395
:406000001293CDF808B0059B5046596801F042FC049000283FF426AF059B0C301A6903F10C0102329200FEF711FF1AAB019319AB009342464B465046CDE9088901F061FF32
:40604000189000283FF40EAF0121504601F034FD029000283FF406AF199B0399002BACBF0D9A129A1A9CACBFD618D21AA3EB01032344B14903F1FF33ACBF129A0D9E8B4208
:40608000C4F1360480F28580C91A1F29C8BFAB4D4FF00107D4BF07FA01F3ED1AA4EB0104D9BF0793002507FA05F507973719039BBE4214441C443346A8BF3B46A342A8BF23
:4060C0002346002BC2BFFF1AE41AF61A0D9B002B63D1002F7ADC129B002B40F08180002C00F38880002E00F38F80049A1899504601F037FE834600283FF4B4AEC368002498
:40610000C4600299069301F010FEA04280F28B80069B002B40F00282B8F1000F40F0FE81C9F31303002B40F0F98129F000431B0D1B05B3F1D66F40F2F181DBF81430002BA8
:406140006CD059460122504601F09EFD0299834601F0EBFD002840F3E18129F00043039A1B0D1B05002A00F08D80B3F1D66F00F38980B3F15C7F00F3D38122234FF0000866
:406180004FF00009CAF80030059B002B40F0D981EBE101230025079388E71A460299504601F024FD029000283FF45CAE0146189A504601F08AFC069000283FF453AE1899EF
:4061C000504601F09CFB069B189382E73A461899504601F059FD189000287FF47CAF41E6129A0499504601F001FD049000287FF476AF37E622460499504601F045FD049088
:4062000000287FF46FAF2DE632460299504601F03BFD029000287FF468AF23E6DBF81030012B8EDC7AE161D1069AC9F3130322B343494A468B422ED1039B414663B1414B49
:406240001340B3F1D46F07D81B0DC3F16B034FF0FF3000FA03F301E04FF0FF338B421AD139498A4202D101333FF4FCAD354B4FF00008134003F5801950E163B9B8F1000F72
:4062800009D16AE7A3F580136FEA13594FF0FF386FEA095942E115B115EA090F02E0079B13EA080F00F03A81069B039A4046494653B1FFF76DFB02460B46DDE90801FDF73E
:4062C000FDFD8046894629E1FFF762FB02460B46DDE90801FDF7F0FD0022002380468946FEF706FA00287FF448AF17E10299584601F055FE00224FF0804306460F46FEF7D9
:406300000BFA00283FD0069B13B100260F4F10E0B8F1000F03D1C9F313033BB91AE0B8F1010F03D1B9F1000F3FF427AF084F00260024064D3CE000BF02FCFFFFE2FBFFFF07
:40634000FFFF0F000000F07FFFFFEF7F0000F03F0000F0BF00229A4B30463946FEF7D2F940B90022974B30463946FDF759FF04460D4601E0069C934D05F1004314941593D4
:40638000DDE9146714E08F4B002230463946FDF747FF069B04460D4623B901F100430E900F9303E002460B46CDE90E23DDE90E6729F000431B0D1B050793079A824B9A42C8
:4063C0002BD1DDE90823A9F1547940464946CDE90A2301F025FD02460B4630463946FDF71FFF42464B46FDF769FD21F000431B0D764A1B05934280460CD9754B0B9A9A420E
:4064000003D10A9B01333FF42DADDFF8C4914FF0FF3872E001F1547939E0039B3BB3079BB3F1D46F23D85EA3D3E9002320462946FEF772F9B8B12946204602F083FC0028DA
:4064400008BF0120FDF776FE069B04460D4623B901F100431090119303E002460B46CDE91023DDE91067079A07F1D6639F1ADDE9080101F0D5FC02460B4630463946FDF7F9
:40648000CFFEDDE90823FDF719FD80468946039B9BBB29F000431B0D079A1B059A424E462BD12946204602F025FCFDF753FE0B46024629462046FDF7FFFC069B04460D4612
:4064C0002BB9B8F1000F02D1C9F313067EB136A3D3E9002320462946FEF714F988BB34A3D3E9002320462946FEF72AF904E032A3D3E90023FEF706F918BB1899504601F01D
:40650000FEF90499504601F0FAF90299504601F0F6F95946504601F0F2F974E5039B83B12C4B40460B9300230A934946DDE90A23FDF776FE8046894619B910B92223CAF884
:4065400000301899504601F0DAF90499504601F0D6F90299504601F0D2F90599504601F0CEF95946504601F0CAF9139B13B1179B139A13600C9B1BB1424609F1004307E0C8
:4065800042464B4604E000252A460121FFF747BB104619461DB0BDE8F08F00BFAFF300800000C0FFFFFFDF419535A094FFFFDF3F35E5AF350000E03F9535A094FFFFCF3F8A
:4065C0000000F03F0000E03F0000E07FFFFF9F7CFFFFEF7F00005039024B0A4601461868FFF7FAB95481FF1F2DE9F74F03690C6980469C427FDC013C01F114074FEA840E8F
:4066000000F1140606EB0E0357F82450019356F824300135B3FBF5F507EB0E09C5B34FF0000A3846B446D34650F8043B9AB205FB02A21B0C4FEA124A05FB03A392B2C2EB61
:406640000B0BBCF800204FEA134A5A441FFA83FBDCF800308145CBEB134303EB224392B242EA03424FEA234B4CF8042BDCD256F80E306BB9019B043B9E421A4602D3C8F85F
:40668000104005E01268043B002AF8D1013CF3E7404601F04AFB00282BDB304601354FF0000E57F8042B036891B2C1EB0E0E120C99B27144C2EB134303EB214389B24FEA24
:4066C000234EB94541EA034340F8043BE9D256F8242006EB840362B9043B9E421A4602D3C8F8104005E01268043B002AF8D1013CF3E7284600E0002003B0BDE8F08F000012
:406700002DE9F04F456A95B08246219CCDE9022345B91020FEF792FBCAF82400456085600560C560DAF82430196859B15A68012393404A608B60504601F0E1F8DAF8243081
:4067400000221A60039BA04A002BBDBF01232360039B0023BCBF23F000430393DDF80C80A8BF236028F000431B0D1B0593421DD142F20F73209A1360029B43B9934A944B96
:40678000C8F31300002814BF1846104600E09048229B002B00F04685C37813B100F1080300E0C31C229A136000F03CBDDDE902450022002320462946FDF79AFF074658B125
:4067C000209A01231360229B002B00F01E8581481860013800F026BD12AB019313AB009322462B46504601F08CFBC8F30A56049056B1C5F3130343F07F51204641F4401184
:40680000A6F2FF3611971DE0139B129E1E4406F23243202B0ADD029A06F21240C3F1400322FA00F008FA03F3184304E0C3F12000029B03FA00F0FDF77DFC0123A1F1F8717D
:40684000013E11930022644BFDF736FB58A3D3E90023FDF7E5FC58A3D3E90023FDF72EFB044630460D46FDF775FC55A3D3E90023FDF7D6FC02460B4620462946FDF71EFB09
:4068800004460D4602F036FA00228346002320462946FDF737FF58B15846FDF75BFC02460B4620462946FDF723FF08B90BF1FF3BBBF1160F0DD8DDE90223484901EBCB01B5
:4068C000D1E90001FDF73CFF30B10BF1FF3B002300E00123109300E01090129B9E1B731E079343BFC3F10008002307934FF00008BBF1000F06DB079BCDF82CB05B440793E2
:40690000002705E00023CBEB0808CBF100070B931E9B092B28D8052BC4BF043B1E931E9BC8BF0025A3F10203D8BF0125032B20D8DFE803F0060E0204012302E0012308E0AA
:4069400000230A931F9B002B1DDD9946059321E000230A931F9B0BEB030909F10103012B0593B8BF012315E0012500231E930A9501E001230A934FF0FF390022CDF81490F5
:4069800012231F9206E04FF001094B46CDF81490CDF87C90DAF8244000226260042101F114029A421CD86268490001326260F6E761436F63A787D23FB3C8608B288AC63F29
:4069C000FB799F501344D33F0000F07F3891000041910000E79200000000F83FB09100006168504600F056FFDAF8243020601B680693059B0E2B00F25B81002D00F05881CD
:406A0000DDE90234BBF1000FCDE90E3430DD9F4A0BF00F034FEA2B1502EBC303E80618CBCDE908340CD5DDE90E01994B05F00F05D3E90823FDF71EFD0324CDE9020100E05C
:406A40000224934E6DB1E90708D5DDE90801D6E90023FDF7E5FBCDE9080101346D100836F0E7DDE90823DDE90201FDF703FD20E0CBF1000505B3DDE90E01844B05F00F0248
:406A800003EBC203D3E90023FDF7CAFBCDE902017F4E2D110023022455B1EA0705D5D6E90023FDF7BDFB013401236D100836F3E71BB1CDE9020100E00224109BE3B1DDE9A1
:406AC00002560022734B28463146FDF71BFE98B1059B8BB1B9F1000F40F3E6800BF1FF330893314600226C4B2846FDF799FB0134CDE902014E4602E0059ECDF820B02046E4
:406B0000FDF728FBDDE90223FDF78AFB634B0022FDF7D4F9A1F1507304460C931D46D6B9DDE9020100225E4BFDF7C6F922460C9BCDE90201FDF704FE002840F03F820C9956
:406B4000224601F10043DDE90201FDF7DBFD002840F02B82A8E00A9A4C4B711E002A49D003EBC103D3E9002300204E49FDF782FC22462B46FDF7A0F9CDE90C01069CDDE9FE
:406B8000020102F0B7F80546FDF7E4FA02460B46DDE90201FDF790F9DDE90C23303504F8015BCDE90201FDF7ADFD002840F01D83DDE9022300203749FDF77EF9DDE90C2349
:406BC000FDF7A0FD002840F0D180069BE31AB3426ADADDE90C0100222F4BFDF721FB0022CDE90C01DDE902012B4BFDF719FBCDE90201C4E703EBC1012246D1E900012B4631
:406C0000FDF70EFB069BCDE90C011D469C19DDE9020102F06FF80646FDF79CFA02460B46DDE90201FDF748F9303605F8016BAC42CDE902014FF0000222D11A4BDDE90C016A
:406C4000FDF73CF902460B46DDE90201FDF778FD002840F08B80DDE90C2300201149FDF72BF902460B46DDE90201FDF74BFDD8B114F8013C621E302B40F0B7821446F7E74A
:406C8000054BFDF7CDFACDE90201C0E7B0910000889200000000F03F0000244000001C40000014400000E03FDDE90E34CDE90234139B002B7CDBBBF10E0F79DCAB4B03EB86
:406CC000CB03D3E900671F9B002B14DA059B002B11DC40F06C810022A54B30463946FDF79FFADDE90223FDF721FD059D2E46002840F05F8165E1069CDDE9028932463B46EA
:406D000040464946FDF7B6FB01F0F4FF0546FDF721FA32463B46FDF783FA0B46024649464046FDF7C9F805F1300E069B04F801EBC3EB040E059B73452DD102460B46FDF72E
:406D4000BDF88046894602460B4630463946FDF7D9FC78B942464B4630463946FDF7C8FC002800F04482EB0704D440E2DDF820B000E01C4614F8012C631E392A07D1069A35
:406D80009A42F6D1069930220BF1010B0A701A7801321A702BE20022764BFDF741FA0022002380468946FDF7A3FC0028A6D01EE20A9A002A2BD01E9A012A0ADC119A12B144
:406DC00003F2334302E0129BC3F136033D46444613E0059B5D1EAF42BFBF0B9BEA1B9B180B93059BB6BF2F467D1B0025002BA7BF4446059BC3EB08040023079A01211A4426
:406E000050469844079200F057FE064602E03D4644460A9E5CB1079B002B08DDA342A8BF2346079AC3EB0808E41AD31A0793002F1DDD0A9BABB18DB131462A46504600F0F2
:406E4000D5FE049A01460646504600F03EFE04990890504600F053FD089B04937A1B06D000E03A460499504600F0C0FE04900121504600F021FE0B9B05465BB31A4601465A
:406E8000504600F0B3FE1E9B0546012B18DC029B83B9039BC3F3130373B9039B23F000473F0D3F054FB1079B08F1010801330793012702E0002700E0029F0B9B73B100E0B2
:406EC00000272B6905EB8303186900F0A8FDC0F1200004E01E9B012BD9DD0B9F0120079B184410F01F0008D0C0F12003042B02DDC0F11C0002E006D018461C30079B8044C4
:406F0000034404440793B8F1000F05DD42460499504600F0B9FE0490079B002B05DD29461A46504600F0B0FE0546109B23B32946049800F0FAFE00281EDA00230A2204991B
:406F4000504600F0F3FC0A9B0BF1FF3B0490002B00F05F81314600230A22504600F0E6FCB9F1000F06463FDC3BE000BFB09100000000144000002440059B002B2BDC1E9B86
:406F8000022B28DDDDF81490B9F1000F11D129464B460522504600F0C9FC01460546049800F0C3FE00280CDC03E0354600E000252E461F9B069C6FEA030B09E03546DDF857
:406FC00020B0069B069A5C1C312313700BF1010B05960026F7E00A9BDDF8149023B9069CB2E01E9B022BCFDC002C05DD31462246504600F049FE06469FB17168504600F01D
:4070000049FC0446326906F10C01023292000C30FDF71CFF01222146504600F035FE059000E00596029B069F03F00103079329460498FFF7D9FA3146044600F13008049891
:4070400000F073FE059A02902946504600F089FEC36802463BB901460A90049800F065FE0A9A034600E00123114650460A9300F046FC0A9B53B91E9A42B9079A32B9B8F185
:40708000390F2AD0029B002B1CDC1DE0029A002A04DB1BD11E9ACAB9079ABAB9002B13DD01220499504600F0EFFD2946049000F03CFE002803DC07D118F0010F04D0B8F103
:4070C000390F0AD004F131087C1C0CE0002B07F101040BDDB8F1390F03D139233B70013756E008F1010887F800806CE0069B2746E31A4B4504F8018C3BD000230A2204990A
:40710000504600F013FC059B04909E424FF00A024FF000033146504604D100F007FC0646059084E700F002FC002306460A220599504600F0FBFB059079E700230A22049974
:40714000504600F0F3FB049029460498FFF74CFA069B00F1300804F8018BE31A4B45ECDB069B0596B9F1010FACBF4B4401331F46002601220499504600F086FD294604909F
:4071800000F0D3FD002803DC15D118F0010F12D03C4614F8013C621E392B09D1069B934204D10BF1010B3123069A02E01446F0E70133137007E03C4614F8013C621E302B01
:4071C00001D11446F8E72946504600F098FB059B6BB12EB19E4203D03146504600F08FFB0599504600F08BFB01E0DDF820B00499504600F084FB0023209A23700BF10103E5
:407200001360229B1BB11C6001E008480AE0069808E0B9F1000F3FF7E2AE1E9B022B7FF7DEAEB1E615B0BDE8F08F00BFE6920000F0B506694B11B34200F1140527DA11F0A6
